{
  "contractName": "AgentAssurance",
  "abi": [
    {
      "inputs": [
        {
          "internalType": "address",
          "name": "_adresseContratAuth",
          "type": "address"
        },
        {
          "internalType": "address",
          "name": "_adresseContratPatient",
          "type": "address"
        }
      ],
      "stateMutability": "nonpayable",
      "type": "constructor"
    },
    {
      "anonymous": false,
      "inputs": [
        {
          "indexed": false,
          "internalType": "enum Authentication.Role",
          "name": "typeDemandeur",
          "type": "uint8"
        },
        {
          "indexed": false,
          "internalType": "address",
          "name": "adresseDemandeur",
          "type": "address"
        },
        {
          "indexed": false,
          "internalType": "address",
          "name": "adressePatient",
          "type": "address"
        }
      ],
      "name": "DemandeAccesCreee",
      "type": "event"
    },
    {
      "anonymous": false,
      "inputs": [
        {
          "indexed": true,
          "internalType": "address",
          "name": "_nouvelEmploye",
          "type": "address"
        },
        {
          "indexed": false,
          "internalType": "string",
          "name": "_agenceAssurance",
          "type": "string"
        },
        {
          "indexed": false,
          "internalType": "string",
          "name": "_prenom",
          "type": "string"
        },
        {
          "indexed": false,
          "internalType": "string",
          "name": "_nom",
          "type": "string"
        },
        {
          "indexed": false,
          "internalType": "string",
          "name": "_region",
          "type": "string"
        }
      ],
      "name": "EmployeAssuranceAjoute",
      "type": "event"
    },
    {
      "anonymous": false,
      "inputs": [
        {
          "indexed": true,
          "internalType": "address",
          "name": "_patient",
          "type": "address"
        },
        {
          "indexed": true,
          "internalType": "address",
          "name": "_agentAssurance",
          "type": "address"
        },
        {
          "indexed": true,
          "internalType": "uint256",
          "name": "prescriptionId",
          "type": "uint256"
        },
        {
          "indexed": false,
          "internalType": "uint256",
          "name": "_timestamp",
          "type": "uint256"
        }
      ],
      "name": "RemboursementPrescriptionApprouve",
      "type": "event"
    },
    {
      "inputs": [
        {
          "internalType": "address",
          "name": "",
          "type": "address"
        }
      ],
      "name": "employesAssurance",
      "outputs": [
        {
          "internalType": "string",
          "name": "prenom",
          "type": "string"
        },
        {
          "internalType": "string",
          "name": "nom",
          "type": "string"
        },
        {
          "internalType": "string",
          "name": "email",
          "type": "string"
        },
        {
          "internalType": "string",
          "name": "telephone",
          "type": "string"
        },
        {
          "internalType": "string",
          "name": "region",
          "type": "string"
        },
        {
          "internalType": "string",
          "name": "agenceAssurance",
          "type": "string"
        }
      ],
      "stateMutability": "view",
      "type": "function",
      "constant": true
    },
    {
      "inputs": [
        {
          "internalType": "string",
          "name": "_prenom",
          "type": "string"
        },
        {
          "internalType": "string",
          "name": "_nom",
          "type": "string"
        },
        {
          "internalType": "string",
          "name": "_email",
          "type": "string"
        },
        {
          "internalType": "string",
          "name": "_telephone",
          "type": "string"
        },
        {
          "internalType": "string",
          "name": "_region",
          "type": "string"
        },
        {
          "internalType": "string",
          "name": "_agenceAssurance",
          "type": "string"
        }
      ],
      "name": "enregistrerEmploye",
      "outputs": [],
      "stateMutability": "nonpayable",
      "type": "function"
    },
    {
      "inputs": [
        {
          "internalType": "address",
          "name": "_duPatient",
          "type": "address"
        }
      ],
      "name": "obtenirHashFichierDuPatient",
      "outputs": [
        {
          "internalType": "string",
          "name": "",
          "type": "string"
        }
      ],
      "stateMutability": "view",
      "type": "function",
      "constant": true
    },
    {
      "inputs": [],
      "name": "obtenirUtilisateur",
      "outputs": [
        {
          "components": [
            {
              "internalType": "string",
              "name": "signatureHash",
              "type": "string"
            },
            {
              "internalType": "enum Authentication.Role",
              "name": "role",
              "type": "uint8"
            },
            {
              "internalType": "string",
              "name": "pubkey",
              "type": "string"
            },
            {
              "internalType": "address",
              "name": "UserAddress",
              "type": "address"
            }
          ],
          "internalType": "struct Authentication.User",
          "name": "",
          "type": "tuple"
        }
      ],
      "stateMutability": "view",
      "type": "function",
      "constant": true
    },
    {
      "inputs": [
        {
          "internalType": "uint256",
          "name": "prescriptionId",
          "type": "uint256"
        },
        {
          "internalType": "address",
          "name": "_patient",
          "type": "address"
        }
      ],
      "name": "approuverRemboursementPrescription",
      "outputs": [],
      "stateMutability": "nonpayable",
      "type": "function"
    },
    {
      "inputs": [
        {
          "internalType": "enum Authentication.Role",
          "name": "_typeDemandeur",
          "type": "uint8"
        },
        {
          "internalType": "address",
          "name": "_patient",
          "type": "address"
        }
      ],
      "name": "demanderAcces",
      "outputs": [],
      "stateMutability": "nonpayable",
      "type": "function"
    }
  ],
  "bytecode": "0x60806040523480156200001157600080fd5b50604051620016c6380380620016c68339818101604052810190620000379190620000d7565b816000806101000a81548173ffffffffffffffffffffffffffffffffffffffff021916908373ffffffffffffffffffffffffffffffffffffffff16021790555080600160006101000a81548173ffffffffffffffffffffffffffffffffffffffff021916908373ffffffffffffffffffffffffffffffffffffffff160217905550505062000171565b600081519050620000d18162000157565b92915050565b60008060408385031215620000f157620000f062000152565b5b60006200010185828601620000c0565b92505060206200011485828601620000c0565b9150509250929050565b60006200012b8262000132565b9050919050565b600073ffffffffffffffffffffffffffffffffffffffff82169050919050565b600080fd5b62000162816200011e565b81146200016e57600080fd5b50565b61154580620001816000396000f3fe608060405234801561001057600080fd5b50600436106100625760003560e01c80635675537c146100675780639b141eca14610083578063cf9792c11461009f578063e1046966146100cf578063f49cec9614610104578063ffa3819c14610120575b600080fd5b610081600480360381019061007c9190610e01565b61013e565b005b61009d60048036038101906100989190610c83565b610219565b005b6100b960048036038101906100b49190610bcd565b6103c0565b6040516100c69190611029565b60405180910390f35b6100e960048036038101906100e49190610bcd565b61047b565b6040516100fb969594939291906110ac565b60405180910390f35b61011e60048036038101906101199190610bfa565b6107e7565b005b610128610826565b6040516101359190611177565b60405180910390f35b6005808111156101515761015061133d565b5b610159610826565b60200151600581111561016f5761016e61133d565b5b146101af576040517f08c379a00000000000000000000000000000000000000000000000000000000081526004016101a690611137565b60405180910390fd5b813373ffffffffffffffffffffffffffffffffffffffff168273ffffffffffffffffffffffffffffffffffffffff167f65f15f5b46f3bf1218e02310d8dfcf38cd4f5def3e6beaaca6798ac46da028cc4260405161020d9190611199565b60405180910390a45050565b60058081111561022c5761022b61133d565b5b610234610826565b60200151600581111561024a5761024961133d565b5b1461028a576040517f08c379a000000000000000000000000000000000000000000000000000000000815260040161028190611157565b60405180910390fd5b6000600260003373ffffffffffffffffffffffffffffffffffffffff1673ffffffffffffffffffffffffffffffffffffffff1681526020019081526020016000209050868160000190805190602001906102e59291906108e1565b50858160010190805190602001906102fe9291906108e1565b50848160020190805190602001906103179291906108e1565b50838160030190805190602001906103309291906108e1565b50828160040190805190602001906103499291906108e1565b50818160050190805190602001906103629291906108e1565b503373ffffffffffffffffffffffffffffffffffffffff167fee1e0dd74ecad6229b064a8e1d58c538c4ad33d5e2dc40e4e1c64a69f7e1a129838989876040516103af949392919061104b565b60405180910390a250505050505050565b6060600160009054906101000a900473ffffffffffffffffffffffffffffffffffffffff1673ffffffffffffffffffffffffffffffffffffffff1663ce4f5d4233846040518363ffffffff1660e01b815260040161041f929190610fc9565b60006040518083038186803b15801561043757600080fd5b505afa15801561044b573d6000803e3d6000fd5b505050506040513d6000823e3d601f19601f820116820180604052508101906104749190610c3a565b9050919050565b600260205280600052604060002060009150905080600001805461049e906112da565b80601f01602080910402602001604051908101604052809291908181526020018280546104ca906112da565b80156105175780601f106104ec57610100808354040283529160200191610517565b820191906000526020600020905b8154815290600101906020018083116104fa57829003601f168201915b50505050509080600101805461052c906112da565b80601f0160208091040260200160405190810160405280929190818152602001828054610558906112da565b80156105a55780601f1061057a576101008083540402835291602001916105a5565b820191906000526020600020905b81548152906001019060200180831161058857829003601f168201915b5050505050908060020180546105ba906112da565b80601f01602080910402602001604051908101604052809291908181526020018280546105e6906112da565b80156106335780601f1061060857610100808354040283529160200191610633565b820191906000526020600020905b81548152906001019060200180831161061657829003601f168201915b505050505090806003018054610648906112da565b80601f0160208091040260200160405190810160405280929190818152602001828054610674906112da565b80156106c15780601f10610696576101008083540402835291602001916106c1565b820191906000526020600020905b8154815290600101906020018083116106a457829003601f168201915b5050505050908060040180546106d6906112da565b80601f0160208091040260200160405190810160405280929190818152602001828054610702906112da565b801561074f5780601f106107245761010080835404028352916020019161074f565b820191906000526020600020905b81548152906001019060200180831161073257829003601f168201915b505050505090806005018054610764906112da565b80601f0160208091040260200160405190810160405280929190818152602001828054610790906112da565b80156107dd5780601f106107b2576101008083540402835291602001916107dd565b820191906000526020600020905b8154815290600101906020018083116107c057829003601f168201915b5050505050905086565b7f70aefcb9e59aac9bba6188ca394a338725ded86b5deeacf9729c5cc9c1a4766f82338360405161081a93929190610ff2565b60405180910390a15050565b61082e610967565b60008054906101000a900473ffffffffffffffffffffffffffffffffffffffff1673ffffffffffffffffffffffffffffffffffffffff16636f77926b336040518263ffffffff1660e01b81526004016108879190610fae565b60006040518083038186803b15801561089f57600080fd5b505afa1580156108b3573d6000803e3d6000fd5b505050506040513d6000823e3d601f19601f820116820180604052508101906108dc9190610db8565b905090565b8280546108ed906112da565b90600052602060002090601f01602090048101928261090f5760008555610956565b82601f1061092857805160ff1916838001178555610956565b82800160010185558215610956579182015b8281111561095557825182559160200191906001019061093a565b5b50905061096391906109b7565b5090565b6040518060800160405280606081526020016000600581111561098d5761098c61133d565b5b815260200160608152602001600073ffffffffffffffffffffffffffffffffffffffff1681525090565b5b808211156109d05760008160009055506001016109b8565b5090565b60006109e76109e2846111d9565b6111b4565b905082815260208101848484011115610a0357610a026113d9565b5b610a0e848285611298565b509392505050565b6000610a29610a24846111d9565b6111b4565b905082815260208101848484011115610a4557610a446113d9565b5b610a508482856112a7565b509392505050565b600081359050610a67816114d1565b92915050565b600081519050610a7c816114d1565b92915050565b600081359050610a91816114e8565b92915050565b600081519050610aa6816114e8565b92915050565b600082601f830112610ac157610ac06113ca565b5b8135610ad18482602086016109d4565b91505092915050565b600082601f830112610aef57610aee6113ca565b5b8151610aff848260208601610a16565b91505092915050565b600060808284031215610b1e57610b1d6113cf565b5b610b2860806111b4565b9050600082015167ffffffffffffffff811115610b4857610b476113d4565b5b610b5484828501610ada565b6000830152506020610b6884828501610a97565b602083015250604082015167ffffffffffffffff811115610b8c57610b8b6113d4565b5b610b9884828501610ada565b6040830152506060610bac84828501610a6d565b60608301525092915050565b600081359050610bc7816114f8565b92915050565b600060208284031215610be357610be26113e3565b5b6000610bf184828501610a58565b91505092915050565b60008060408385031215610c1157610c106113e3565b5b6000610c1f85828601610a82565b9250506020610c3085828601610a58565b9150509250929050565b600060208284031215610c5057610c4f6113e3565b5b600082015167ffffffffffffffff811115610c6e57610c6d6113de565b5b610c7a84828501610ada565b91505092915050565b60008060008060008060c08789031215610ca057610c9f6113e3565b5b600087013567ffffffffffffffff811115610cbe57610cbd6113de565b5b610cca89828a01610aac565b965050602087013567ffffffffffffffff811115610ceb57610cea6113de565b5b610cf789828a01610aac565b955050604087013567ffffffffffffffff811115610d1857610d176113de565b5b610d2489828a01610aac565b945050606087013567ffffffffffffffff811115610d4557610d446113de565b5b610d5189828a01610aac565b935050608087013567ffffffffffffffff811115610d7257610d716113de565b5b610d7e89828a01610aac565b92505060a087013567ffffffffffffffff811115610d9f57610d9e6113de565b5b610dab89828a01610aac565b9150509295509295509295565b600060208284031215610dce57610dcd6113e3565b5b600082015167ffffffffffffffff811115610dec57610deb6113de565b5b610df884828501610b08565b91505092915050565b60008060408385031215610e1857610e176113e3565b5b6000610e2685828601610bb8565b9250506020610e3785828601610a58565b9150509250929050565b610e4a81611237565b82525050565b610e5981611237565b82525050565b610e6881611286565b82525050565b610e7781611286565b82525050565b6000610e888261120a565b610e928185611215565b9350610ea28185602086016112a7565b610eab816113e8565b840191505092915050565b6000610ec18261120a565b610ecb8185611226565b9350610edb8185602086016112a7565b610ee4816113e8565b840191505092915050565b6000610efc605483611226565b9150610f07826113f9565b606082019050919050565b6000610f1f603583611226565b9150610f2a8261146e565b604082019050919050565b60006080830160008301518482036000860152610f528282610e7d565b9150506020830151610f676020860182610e5f565b5060408301518482036040860152610f7f8282610e7d565b9150506060830151610f946060860182610e41565b508091505092915050565b610fa88161127c565b82525050565b6000602082019050610fc36000830184610e50565b92915050565b6000604082019050610fde6000830185610e50565b610feb6020830184610e50565b9392505050565b60006060820190506110076000830186610e6e565b6110146020830185610e50565b6110216040830184610e50565b949350505050565b600060208201905081810360008301526110438184610eb6565b905092915050565b600060808201905081810360008301526110658187610eb6565b905081810360208301526110798186610eb6565b9050818103604083015261108d8185610eb6565b905081810360608301526110a18184610eb6565b905095945050505050565b600060c08201905081810360008301526110c68189610eb6565b905081810360208301526110da8188610eb6565b905081810360408301526110ee8187610eb6565b905081810360608301526111028186610eb6565b905081810360808301526111168185610eb6565b905081810360a083015261112a8184610eb6565b9050979650505050505050565b6000602082019050818103600083015261115081610eef565b9050919050565b6000602082019050818103600083015261117081610f12565b9050919050565b600060208201905081810360008301526111918184610f35565b905092915050565b60006020820190506111ae6000830184610f9f565b92915050565b60006111be6111cf565b90506111ca828261130c565b919050565b6000604051905090565b600067ffffffffffffffff8211156111f4576111f361139b565b5b6111fd826113e8565b9050602081019050919050565b600081519050919050565b600082825260208201905092915050565b600082825260208201905092915050565b60006112428261125c565b9050919050565b6000819050611257826114bd565b919050565b600073ffffffffffffffffffffffffffffffffffffffff82169050919050565b6000819050919050565b600061129182611249565b9050919050565b82818337600083830152505050565b60005b838110156112c55780820151818401526020810190506112aa565b838111156112d4576000848401525b50505050565b600060028204905060018216806112f257607f821691505b602082108114156113065761130561136c565b5b50919050565b611315826113e8565b810181811067ffffffffffffffff821117156113345761133361139b565b5b80604052505050565b7f4e487b7100000000000000000000000000000000000000000000000000000000600052602160045260246000fd5b7f4e487b7100000000000000000000000000000000000000000000000000000000600052602260045260246000fd5b7f4e487b7100000000000000000000000000000000000000000000000000000000600052604160045260246000fd5b600080fd5b600080fd5b600080fd5b600080fd5b600080fd5b600080fd5b6000601f19601f8301169050919050565b7f5365756c73206c657320656d706c6f7965732064276173737572616e6365207060008201527f657576656e7420617070726f75766572206c65732072656d626f757273656d6560208201527f6e747320646520707265736372697074696f6e73000000000000000000000000604082015250565b7f5365756c73206c657320656d706c6f7965732064276173737572616e6365207060008201527f657576656e74207327656e7265676973747265722e0000000000000000000000602082015250565b600681106114ce576114cd61133d565b5b50565b6114da81611237565b81146114e557600080fd5b50565b600681106114f557600080fd5b50565b6115018161127c565b811461150c57600080fd5b5056fea264697066735822122023c8f2fb482a12b4e360a578ce369cf5d0b41424b9dd82cb1645e1b1946f32f164736f6c63430008060033",
  "immutableReferences": {},
  "source": "// SPDX-License-Identifier: GPL-3.0\r\npragma solidity ^0.8.0;\r\nimport \"./Authentication.sol\";\r\nimport \"./patientcontract.sol\";\r\n\r\ncontract AgentAssurance {\r\n\r\n    Authentication private contratAuthInstance;\r\n    Patients private contratPatientInstance;\r\n\r\n    constructor(address _adresseContratAuth, address _adresseContratPatient) {\r\n        contratAuthInstance = Authentication(_adresseContratAuth);\r\n        contratPatientInstance = Patients(_adresseContratPatient);\r\n    }\r\n\r\n    struct InfoEmployeAssurance {\r\n        string prenom;\r\n        string nom;\r\n        string email;\r\n        string telephone;\r\n        string region;\r\n        string agenceAssurance;\r\n    }\r\n\r\n    mapping(address => InfoEmployeAssurance) public employesAssurance;\r\n\r\n    event EmployeAssuranceAjoute(address indexed _nouvelEmploye, string _agenceAssurance, string _prenom, string _nom, string _region);\r\n\r\n    function enregistrerEmploye(\r\n        string memory _prenom,\r\n        string memory _nom,\r\n        string memory _email,\r\n        string memory _telephone,\r\n        string memory _region,\r\n        string memory _agenceAssurance\r\n    ) public {\r\n        require(obtenirUtilisateur().role == Authentication.Role.insuranceemployee, \"Seuls les employes d'assurance peuvent s'enregistrer.\");\r\n        InfoEmployeAssurance storage employe = employesAssurance[msg.sender];\r\n        employe.prenom = _prenom;\r\n        employe.nom = _nom;\r\n        employe.email = _email;\r\n        employe.telephone = _telephone;\r\n        employe.region = _region;\r\n        employe.agenceAssurance = _agenceAssurance;\r\n        \r\n        emit EmployeAssuranceAjoute(msg.sender, _agenceAssurance, _prenom, _nom, _region);\r\n    }\r\n\r\n    function obtenirHashFichierDuPatient(address _duPatient) public view returns (string memory) {\r\n        return contratPatientInstance.getFileHash(msg.sender, _duPatient);\r\n    }\r\n\r\n    function obtenirUtilisateur() public view returns (Authentication.User memory) {\r\n        return contratAuthInstance.getUser(msg.sender);\r\n    }\r\n\r\n    event RemboursementPrescriptionApprouve(address indexed _patient, address indexed _agentAssurance, uint256 indexed prescriptionId, uint256 _timestamp);\r\n\r\n    function approuverRemboursementPrescription(uint256 prescriptionId, address _patient) public {\r\n        require(obtenirUtilisateur().role == Authentication.Role.insuranceemployee, \"Seuls les employes d'assurance peuvent approuver les remboursements de prescriptions\");\r\n\r\n        emit RemboursementPrescriptionApprouve(_patient, msg.sender, prescriptionId, block.timestamp);\r\n    }\r\n\r\n    event DemandeAccesCreee(Authentication.Role typeDemandeur, address adresseDemandeur, address adressePatient);\r\n\r\n    function demanderAcces(Authentication.Role _typeDemandeur, address _patient) public {\r\n        emit DemandeAccesCreee(_typeDemandeur, msg.sender, _patient);\r\n    }\r\n}",
  "sourcePath": "C:\\Users\\hamma\\Downloads\\blockchain-based-authentication-main\\blockchain-based-authentication-main\\contracts\\assuranceagent.sol",
  "compiler": {
    "name": "solc",
    "version": "0.8.6+commit.11564f7e.Emscripten.clang"
  },
  "schemaVersion": "3.4.16",
  "updatedAt": "2024-05-12T12:25:43.029Z",
  "networkType": "ethereum",
  "devdoc": {
    "kind": "dev",
    "methods": {},
    "version": 1
  },
  "userdoc": {
    "kind": "user",
    "methods": {},
    "version": 1
  }
}