{
  "contractName": "Authentication",
  "abi": [
    {
      "inputs": [],
      "stateMutability": "nonpayable",
      "type": "constructor"
    },
    {
      "anonymous": false,
      "inputs": [
        {
          "indexed": true,
          "internalType": "address",
          "name": "oldOwner",
          "type": "address"
        },
        {
          "indexed": true,
          "internalType": "address",
          "name": "newOwner",
          "type": "address"
        }
      ],
      "name": "OwnerSet",
      "type": "event"
    },
    {
      "inputs": [
        {
          "internalType": "string",
          "name": "_signature",
          "type": "string"
        },
        {
          "internalType": "enum Authentication.Role",
          "name": "UserRole",
          "type": "uint8"
        },
        {
          "internalType": "string",
          "name": "pubkey",
          "type": "string"
        }
      ],
      "name": "register",
      "outputs": [],
      "stateMutability": "nonpayable",
      "type": "function"
    },
    {
      "inputs": [],
      "name": "getSignatureHash",
      "outputs": [
        {
          "internalType": "string",
          "name": "",
          "type": "string"
        }
      ],
      "stateMutability": "view",
      "type": "function",
      "constant": true
    },
    {
      "inputs": [],
      "name": "getUserAddress",
      "outputs": [
        {
          "internalType": "address",
          "name": "",
          "type": "address"
        }
      ],
      "stateMutability": "view",
      "type": "function",
      "constant": true
    },
    {
      "inputs": [
        {
          "internalType": "address",
          "name": "_address",
          "type": "address"
        }
      ],
      "name": "getUser",
      "outputs": [
        {
          "components": [
            {
              "internalType": "string",
              "name": "signatureHash",
              "type": "string"
            },
            {
              "internalType": "enum Authentication.Role",
              "name": "role",
              "type": "uint8"
            },
            {
              "internalType": "string",
              "name": "pubkey",
              "type": "string"
            },
            {
              "internalType": "address",
              "name": "UserAddress",
              "type": "address"
            }
          ],
          "internalType": "struct Authentication.User",
          "name": "",
          "type": "tuple"
        }
      ],
      "stateMutability": "view",
      "type": "function",
      "constant": true
    },
    {
      "inputs": [],
      "name": "getAllUserAddresses",
      "outputs": [
        {
          "internalType": "address[]",
          "name": "",
          "type": "address[]"
        }
      ],
      "stateMutability": "view",
      "type": "function",
      "constant": true
    }
  ],
  "bytecode": "0x608060405234801561001057600080fd5b50336000806101000a81548173ffffffffffffffffffffffffffffffffffffffff021916908373ffffffffffffffffffffffffffffffffffffffff16021790555060008054906101000a900473ffffffffffffffffffffffffffffffffffffffff1673ffffffffffffffffffffffffffffffffffffffff16600073ffffffffffffffffffffffffffffffffffffffff167f342827c97908e5e2f71151c08502a66d44b6f758e3ac2f1de95f02eb95f0a73560405160405180910390a3611074806100db6000396000f3fe608060405234801561001057600080fd5b50600436106100575760003560e01c80632f3300231461005c5780636f77926b1461007a578063bf2b5562146100aa578063c127ae41146100c6578063ebc3eee8146100e4575b600080fd5b610064610102565b6040516100719190610ca1565b60405180910390f35b610094600480360381019061008f9190610a09565b610190565b6040516100a19190610d25565b60405180910390f35b6100c460048036038101906100bf9190610a36565b61039e565b005b6100ce610670565b6040516100db9190610cc3565b60405180910390f35b6100ec610812565b6040516100f99190610c86565b60405180910390f35b6060600280548060200260200160405190810160405280929190818152602001828054801561018657602002820191906000526020600020905b8160009054906101000a900473ffffffffffffffffffffffffffffffffffffffff1673ffffffffffffffffffffffffffffffffffffffff168152602001906001019080831161013c575b5050505050905090565b61019861087c565b600160008373ffffffffffffffffffffffffffffffffffffffff1673ffffffffffffffffffffffffffffffffffffffff1681526020019081526020016000206040518060800160405290816000820180546101f290610e9c565b80601f016020809104026020016040519081016040528092919081815260200182805461021e90610e9c565b801561026b5780601f106102405761010080835404028352916020019161026b565b820191906000526020600020905b81548152906001019060200180831161024e57829003601f168201915b505050505081526020016001820160009054906101000a900460ff16600581111561029957610298610eff565b5b60058111156102ab576102aa610eff565b5b81526020016002820180546102bf90610e9c565b80601f01602080910402602001604051908101604052809291908181526020018280546102eb90610e9c565b80156103385780601f1061030d57610100808354040283529160200191610338565b820191906000526020600020905b81548152906001019060200180831161031b57829003601f168201915b505050505081526020016003820160009054906101000a900473ffffffffffffffffffffffffffffffffffffffff1673ffffffffffffffffffffffffffffffffffffffff1673ffffffffffffffffffffffffffffffffffffffff16815250509050919050565b600073ffffffffffffffffffffffffffffffffffffffff16600160003373ffffffffffffffffffffffffffffffffffffffff1673ffffffffffffffffffffffffffffffffffffffff16815260200190815260200160002060030160009054906101000a900473ffffffffffffffffffffffffffffffffffffffff1673ffffffffffffffffffffffffffffffffffffffff161461046f576040517f08c379a000000000000000000000000000000000000000000000000000000000815260040161046690610ce5565b60405180910390fd5b82600160003373ffffffffffffffffffffffffffffffffffffffff1673ffffffffffffffffffffffffffffffffffffffff16815260200190815260200160002060000190805190602001906104c59291906108cc565b5081600160003373ffffffffffffffffffffffffffffffffffffffff1673ffffffffffffffffffffffffffffffffffffffff16815260200190815260200160002060010160006101000a81548160ff0219169083600581111561052b5761052a610eff565b5b021790555033600160003373ffffffffffffffffffffffffffffffffffffffff1673ffffffffffffffffffffffffffffffffffffffff16815260200190815260200160002060030160006101000a81548173ffffffffffffffffffffffffffffffffffffffff021916908373ffffffffffffffffffffffffffffffffffffffff16021790555080600160003373ffffffffffffffffffffffffffffffffffffffff1673ffffffffffffffffffffffffffffffffffffffff16815260200190815260200160002060020190805190602001906106079291906108cc565b506002339080600181540180825580915050600190039060005260206000200160009091909190916101000a81548173ffffffffffffffffffffffffffffffffffffffff021916908373ffffffffffffffffffffffffffffffffffffffff160217905550505050565b6060600160003373ffffffffffffffffffffffffffffffffffffffff1673ffffffffffffffffffffffffffffffffffffffff16815260200190815260200160002060030160009054906101000a900473ffffffffffffffffffffffffffffffffffffffff1673ffffffffffffffffffffffffffffffffffffffff163373ffffffffffffffffffffffffffffffffffffffff1614610742576040517f08c379a000000000000000000000000000000000000000000000000000000000815260040161073990610d05565b60405180910390fd5b600160003373ffffffffffffffffffffffffffffffffffffffff1673ffffffffffffffffffffffffffffffffffffffff168152602001908152602001600020600001805461078f90610e9c565b80601f01602080910402602001604051908101604052809291908181526020018280546107bb90610e9c565b80156108085780601f106107dd57610100808354040283529160200191610808565b820191906000526020600020905b8154815290600101906020018083116107eb57829003601f168201915b5050505050905090565b6000600160003373ffffffffffffffffffffffffffffffffffffffff1673ffffffffffffffffffffffffffffffffffffffff16815260200190815260200160002060030160009054906101000a900473ffffffffffffffffffffffffffffffffffffffff16905090565b604051806080016040528060608152602001600060058111156108a2576108a1610eff565b5b815260200160608152602001600073ffffffffffffffffffffffffffffffffffffffff1681525090565b8280546108d890610e9c565b90600052602060002090601f0160209004810192826108fa5760008555610941565b82601f1061091357805160ff1916838001178555610941565b82800160010185558215610941579182015b82811115610940578251825591602001919060010190610925565b5b50905061094e9190610952565b5090565b5b8082111561096b576000816000905550600101610953565b5090565b600061098261097d84610d6c565b610d47565b90508281526020810184848401111561099e5761099d610f91565b5b6109a9848285610e5a565b509392505050565b6000813590506109c081611017565b92915050565b6000813590506109d58161102e565b92915050565b600082601f8301126109f0576109ef610f8c565b5b8135610a0084826020860161096f565b91505092915050565b600060208284031215610a1f57610a1e610f9b565b5b6000610a2d848285016109b1565b91505092915050565b600080600060608486031215610a4f57610a4e610f9b565b5b600084013567ffffffffffffffff811115610a6d57610a6c610f96565b5b610a79868287016109db565b9350506020610a8a868287016109c6565b925050604084013567ffffffffffffffff811115610aab57610aaa610f96565b5b610ab7868287016109db565b9150509250925092565b6000610acd8383610ad9565b60208301905092915050565b610ae281610e03565b82525050565b610af181610e03565b82525050565b6000610b0282610dad565b610b0c8185610dd0565b9350610b1783610d9d565b8060005b83811015610b48578151610b2f8882610ac1565b9750610b3a83610dc3565b925050600181019050610b1b565b5085935050505092915050565b610b5e81610e48565b82525050565b6000610b6f82610db8565b610b798185610de1565b9350610b89818560208601610e69565b610b9281610fa0565b840191505092915050565b6000610ba882610db8565b610bb28185610df2565b9350610bc2818560208601610e69565b610bcb81610fa0565b840191505092915050565b6000610be3601283610df2565b9150610bee82610fb1565b602082019050919050565b6000610c06600b83610df2565b9150610c1182610fda565b602082019050919050565b60006080830160008301518482036000860152610c398282610b64565b9150506020830151610c4e6020860182610b55565b5060408301518482036040860152610c668282610b64565b9150506060830151610c7b6060860182610ad9565b508091505092915050565b6000602082019050610c9b6000830184610ae8565b92915050565b60006020820190508181036000830152610cbb8184610af7565b905092915050565b60006020820190508181036000830152610cdd8184610b9d565b905092915050565b60006020820190508181036000830152610cfe81610bd6565b9050919050565b60006020820190508181036000830152610d1e81610bf9565b9050919050565b60006020820190508181036000830152610d3f8184610c1c565b905092915050565b6000610d51610d62565b9050610d5d8282610ece565b919050565b6000604051905090565b600067ffffffffffffffff821115610d8757610d86610f5d565b5b610d9082610fa0565b9050602081019050919050565b6000819050602082019050919050565b600081519050919050565b600081519050919050565b6000602082019050919050565b600082825260208201905092915050565b600082825260208201905092915050565b600082825260208201905092915050565b6000610e0e82610e28565b9050919050565b6000819050610e2382611003565b919050565b600073ffffffffffffffffffffffffffffffffffffffff82169050919050565b6000610e5382610e15565b9050919050565b82818337600083830152505050565b60005b83811015610e87578082015181840152602081019050610e6c565b83811115610e96576000848401525b50505050565b60006002820490506001821680610eb457607f821691505b60208210811415610ec857610ec7610f2e565b5b50919050565b610ed782610fa0565b810181811067ffffffffffffffff82111715610ef657610ef5610f5d565b5b80604052505050565b7f4e487b7100000000000000000000000000000000000000000000000000000000600052602160045260246000fd5b7f4e487b7100000000000000000000000000000000000000000000000000000000600052602260045260246000fd5b7f4e487b7100000000000000000000000000000000000000000000000000000000600052604160045260246000fd5b600080fd5b600080fd5b600080fd5b600080fd5b6000601f19601f8301169050919050565b7f616c726561647920726567697374657265640000000000000000000000000000600082015250565b7f4e6f7420616c6c6f776564000000000000000000000000000000000000000000600082015250565b6006811061101457611013610eff565b5b50565b61102081610e03565b811461102b57600080fd5b50565b6006811061103b57600080fd5b5056fea264697066735822122006b1ab8213f08a2b62c505647b1d75d6a5ffba57ee0fa44445e3033093777e1764736f6c63430008060033",
  "immutableReferences": {},
  "source": "// SPDX-License-Identifier: MIT\npragma solidity ^0.8.0;\ncontract  Authentication {\nenum Role { patient, doctor, researcher, pharmacist, labAgent, insuranceemployee }\n    address private owner;\n\n    struct MedicalRecord {\n        uint id;\n        uint timestamp;\n        string date ;\n        string diagnosis;\n        Prescription treatment;\n        Test test;\n        doc doctor;\n    }\n    struct doc{\n        string name ;\n        string speciality;\n    }\n    struct Appointment {\n        address doctor;\n        address patient;\n        uint256 date; // Unix timestamp for the appointment date and time\n        string purpose; // Reason for the appointment or a brief description\n        bool isConfirmed; // Status to track if the appointment is confirmed\n        doc doctorN;\n    }\n\n    // Structure to represent a patient's medical record\n    struct Test{\n        \n        address patient;\n        uint timestamp;\n        string category;\n        string result;\n        bool done;\n    }\n\n    \n    \n    // Structure to represent a prescription\n     struct Prescription {\n        uint id;\n        uint timestamp;\n        address doctor;\n        address patient;\n        string[] medicines; // Mapping of medicine names to instructions\n        bool fullyPurchased;\n    }\n\n    \n\n    // event for EVM logging\n    event OwnerSet(address indexed oldOwner, address indexed newOwner);\n\n    // modifier to check if caller is owner\n   \n   struct User {\n    string signatureHash;\n    Role role; \n    string pubkey;\n    address UserAddress;\n    }\n    \n    mapping(address => User) private user;\n    address[] private userAddresses;\n\n    modifier isOwner() {\n    \n        require(msg.sender == owner, \"Caller is not owner\");\n        _;\n    }\n    constructor() {\n        owner = msg.sender; // 'msg.sender' is sender of current call, contract deployer for a constructor\n        emit OwnerSet(address(0), owner);\n    }\nfunction register(string memory _signature,Role UserRole, string memory  pubkey ) public {\n        require(\n            user[msg.sender].UserAddress ==\n                address(0x0000000000000000000000000000000000000000),\n            \"already registered\"\n        );\n\n        user[msg.sender].signatureHash = _signature;\n        user[msg.sender].role=UserRole;\n        user[msg.sender].UserAddress = msg.sender;\n        user[msg.sender].pubkey=pubkey;\n        userAddresses.push(msg.sender);\n\n    }\n     function getSignatureHash() public view returns (string memory) {//user contract\n        require(msg.sender == user[msg.sender].UserAddress, \"Not allowed\");\n\n        return user[msg.sender].signatureHash;\n    }\n\n    function getUserAddress() public view returns (address) {//user contract\n        return user[msg.sender].UserAddress;\n    }\n    function getUser(address _address) public view returns (User memory) {\n        return user[_address];\n    }\n    function getAllUserAddresses() public view returns (address[] memory) {\n        return userAddresses;\n    }\n}\n/*contract Authentication {\n    enum Role { patient, doctor, researcher, pharmacist, labAgent, insuranceemployee }\n    address private owner;\n\n    struct MedicalRecord {\n        uint id;\n        uint timestamp;\n        string diagnosis;\n        Prescription treatment;\n        Test test;\n        address doctor;\n    }\n\n    struct Appointment {\n        address doctor;\n        address patient;\n        uint256 date; // Unix timestamp for the appointment date and time\n        string purpose; // Reason for the appointment or a brief description\n        bool isConfirmed; // Status to track if the appointment is confirmed\n    }\n\n    // Structure to represent a patient's medical record\n    struct Test{\n        \n        address patient;\n        uint timestamp;\n        string category;\n        string result;\n        bool done;\n    }\n\n    \n    \n    // Structure to represent a prescription\n     struct Prescription {\n        uint timestamp;\n        address doctor;\n        address patient;\n        string[] medicines; // Mapping of medicine names to instructions\n        bool fullyPurchased;\n    }\n\n    \n\n    // event for EVM logging\n    event OwnerSet(address indexed oldOwner, address indexed newOwner);\n\n    // modifier to check if caller is owner\n   \n    struct User {\n    string signatureHash;\n    Role role; \n    string pubkey;\n    address UserAddress;\n    }\n\n    mapping(address => User) private user;\n    address[] private userAddresses;\n\n    modifier isOwner() {\n    \n        require(msg.sender == owner, \"Caller is not owner\");\n        _;\n    }\n    constructor() {\n        owner = msg.sender; // 'msg.sender' is sender of current call, contract deployer for a constructor\n        emit OwnerSet(address(0), owner);\n    }\nfunction register(string memory _signature,Role UserRole, string memory  pubkey ) public {\n        require(\n            user[msg.sender].UserAddress ==\n                address(0x0000000000000000000000000000000000000000),\n            \"already registered\"\n        );\n\n        user[msg.sender].signatureHash = _signature;\n        user[msg.sender].role=UserRole;\n        user[msg.sender].UserAddress = msg.sender;\n        user[msg.sender].pubkey=pubkey;\n        userAddresses.push(msg.sender);\n\n    }\n     function getSignatureHash() public view returns (string memory) {//user contract\n        require(msg.sender == user[msg.sender].UserAddress, \"Not allowed\");\n\n        return user[msg.sender].signatureHash;\n    }\n\n    function getUserAddress() public view returns (address) {//user contract\n        return user[msg.sender].UserAddress;\n    }\n    function getUser(address _address) public view returns (User memory) {\n        return user[_address];\n    }\n    function getAllUserAddresses() public view returns (address[] memory) {\n        return userAddresses;\n    }\n}\n*/",
  "sourcePath": "C:\\Users\\hamma\\Downloads\\blockchain-based-authentication-main\\blockchain-based-authentication-main\\contracts\\Authentication.sol",
  "compiler": {
    "name": "solc",
    "version": "0.8.6+commit.11564f7e.Emscripten.clang"
  },
  "schemaVersion": "3.4.16",
  "updatedAt": "2024-05-12T12:25:42.886Z",
  "networkType": "ethereum",
  "devdoc": {
    "kind": "dev",
    "methods": {},
    "version": 1
  },
  "userdoc": {
    "kind": "user",
    "methods": {},
    "version": 1
  }
}