{
  "contractName": "Authentication",
  "abi": [
    {
      "inputs": [],
      "stateMutability": "nonpayable",
      "type": "constructor"
    },
    {
      "anonymous": false,
      "inputs": [
        {
          "indexed": true,
          "internalType": "address",
          "name": "oldOwner",
          "type": "address"
        },
        {
          "indexed": true,
          "internalType": "address",
          "name": "newOwner",
          "type": "address"
        }
      ],
      "name": "OwnerSet",
      "type": "event"
    },
    {
      "inputs": [
        {
          "internalType": "string",
          "name": "_signature",
          "type": "string"
        },
        {
          "internalType": "enum Authentication.Role",
          "name": "UserRole",
          "type": "uint8"
        }
      ],
      "name": "register",
      "outputs": [],
      "stateMutability": "nonpayable",
      "type": "function"
    },
    {
      "inputs": [],
      "name": "getSignatureHash",
      "outputs": [
        {
          "internalType": "string",
          "name": "",
          "type": "string"
        }
      ],
      "stateMutability": "view",
      "type": "function",
      "constant": true
    },
    {
      "inputs": [],
      "name": "getUserAddress",
      "outputs": [
        {
          "internalType": "address",
          "name": "",
          "type": "address"
        }
      ],
      "stateMutability": "view",
      "type": "function",
      "constant": true
    },
    {
      "inputs": [
        {
          "internalType": "address",
          "name": "_address",
          "type": "address"
        }
      ],
      "name": "getUser",
      "outputs": [
        {
          "components": [
            {
              "internalType": "string",
              "name": "signatureHash",
              "type": "string"
            },
            {
              "internalType": "enum Authentication.Role",
              "name": "role",
              "type": "uint8"
            },
            {
              "internalType": "address",
              "name": "UserAddress",
              "type": "address"
            }
          ],
          "internalType": "struct Authentication.User",
          "name": "",
          "type": "tuple"
        }
      ],
      "stateMutability": "view",
      "type": "function",
      "constant": true
    },
    {
      "inputs": [],
      "name": "getAllUserAddresses",
      "outputs": [
        {
          "internalType": "address[]",
          "name": "",
          "type": "address[]"
        }
      ],
      "stateMutability": "view",
      "type": "function",
      "constant": true
    },
    {
      "inputs": [],
      "name": "getRole",
      "outputs": [
        {
          "internalType": "enum Authentication.Role",
          "name": "",
          "type": "uint8"
        }
      ],
      "stateMutability": "view",
      "type": "function",
      "constant": true
    }
  ],
  "bytecode": "0x608060405234801561001057600080fd5b50336000806101000a81548173ffffffffffffffffffffffffffffffffffffffff021916908373ffffffffffffffffffffffffffffffffffffffff16021790555060008054906101000a900473ffffffffffffffffffffffffffffffffffffffff1673ffffffffffffffffffffffffffffffffffffffff16600073ffffffffffffffffffffffffffffffffffffffff167f342827c97908e5e2f71151c08502a66d44b6f758e3ac2f1de95f02eb95f0a73560405160405180910390a3610fe4806100db6000396000f3fe608060405234801561001057600080fd5b50600436106100625760003560e01c80632f330023146100675780636f77926b14610085578063767b79ed146100b5578063c127ae41146100d1578063ebc3eee8146100ef578063fde081741461010d575b600080fd5b61006f61012b565b60405161007c9190610bf6565b60405180910390f35b61009f600480360381019061009a9190610998565b6101b9565b6040516100ac9190610c95565b60405180910390f35b6100cf60048036038101906100ca91906109c5565b610335565b005b6100d96105af565b6040516100e69190610c33565b60405180910390f35b6100f7610751565b6040516101049190610bdb565b60405180910390f35b6101156107bb565b6040516101229190610c18565b60405180910390f35b606060028054806020026020016040519081016040528092919081815260200182805480156101af57602002820191906000526020600020905b8160009054906101000a900473ffffffffffffffffffffffffffffffffffffffff1673ffffffffffffffffffffffffffffffffffffffff1681526020019060010190808311610165575b5050505050905090565b6101c1610812565b600160008373ffffffffffffffffffffffffffffffffffffffff1673ffffffffffffffffffffffffffffffffffffffff16815260200190815260200160002060405180606001604052908160008201805461021b90610e0c565b80601f016020809104026020016040519081016040528092919081815260200182805461024790610e0c565b80156102945780601f1061026957610100808354040283529160200191610294565b820191906000526020600020905b81548152906001019060200180831161027757829003601f168201915b505050505081526020016001820160009054906101000a900460ff1660058111156102c2576102c1610e6f565b5b60058111156102d4576102d3610e6f565b5b81526020016001820160019054906101000a900473ffffffffffffffffffffffffffffffffffffffff1673ffffffffffffffffffffffffffffffffffffffff1673ffffffffffffffffffffffffffffffffffffffff16815250509050919050565b600073ffffffffffffffffffffffffffffffffffffffff16600160003373ffffffffffffffffffffffffffffffffffffffff1673ffffffffffffffffffffffffffffffffffffffff16815260200190815260200160002060010160019054906101000a900473ffffffffffffffffffffffffffffffffffffffff1673ffffffffffffffffffffffffffffffffffffffff1614610406576040517f08c379a00000000000000000000000000000000000000000000000000000000081526004016103fd90610c55565b60405180910390fd5b81600160003373ffffffffffffffffffffffffffffffffffffffff1673ffffffffffffffffffffffffffffffffffffffff168152602001908152602001600020600001908051906020019061045c92919061085b565b5080600160003373ffffffffffffffffffffffffffffffffffffffff1673ffffffffffffffffffffffffffffffffffffffff16815260200190815260200160002060010160006101000a81548160ff021916908360058111156104c2576104c1610e6f565b5b021790555033600160003373ffffffffffffffffffffffffffffffffffffffff1673ffffffffffffffffffffffffffffffffffffffff16815260200190815260200160002060010160016101000a81548173ffffffffffffffffffffffffffffffffffffffff021916908373ffffffffffffffffffffffffffffffffffffffff1602179055506002339080600181540180825580915050600190039060005260206000200160009091909190916101000a81548173ffffffffffffffffffffffffffffffffffffffff021916908373ffffffffffffffffffffffffffffffffffffffff1602179055505050565b6060600160003373ffffffffffffffffffffffffffffffffffffffff1673ffffffffffffffffffffffffffffffffffffffff16815260200190815260200160002060010160019054906101000a900473ffffffffffffffffffffffffffffffffffffffff1673ffffffffffffffffffffffffffffffffffffffff163373ffffffffffffffffffffffffffffffffffffffff1614610681576040517f08c379a000000000000000000000000000000000000000000000000000000000815260040161067890610c75565b60405180910390fd5b600160003373ffffffffffffffffffffffffffffffffffffffff1673ffffffffffffffffffffffffffffffffffffffff16815260200190815260200160002060000180546106ce90610e0c565b80601f01602080910402602001604051908101604052809291908181526020018280546106fa90610e0c565b80156107475780601f1061071c57610100808354040283529160200191610747565b820191906000526020600020905b81548152906001019060200180831161072a57829003601f168201915b5050505050905090565b6000600160003373ffffffffffffffffffffffffffffffffffffffff1673ffffffffffffffffffffffffffffffffffffffff16815260200190815260200160002060010160019054906101000a900473ffffffffffffffffffffffffffffffffffffffff16905090565b6000600160003373ffffffffffffffffffffffffffffffffffffffff1673ffffffffffffffffffffffffffffffffffffffff16815260200190815260200160002060010160009054906101000a900460ff16905090565b6040518060600160405280606081526020016000600581111561083857610837610e6f565b5b8152602001600073ffffffffffffffffffffffffffffffffffffffff1681525090565b82805461086790610e0c565b90600052602060002090601f01602090048101928261088957600085556108d0565b82601f106108a257805160ff19168380011785556108d0565b828001600101855582156108d0579182015b828111156108cf5782518255916020019190600101906108b4565b5b5090506108dd91906108e1565b5090565b5b808211156108fa5760008160009055506001016108e2565b5090565b600061091161090c84610cdc565b610cb7565b90508281526020810184848401111561092d5761092c610f01565b5b610938848285610dca565b509392505050565b60008135905061094f81610f87565b92915050565b60008135905061096481610f9e565b92915050565b600082601f83011261097f5761097e610efc565b5b813561098f8482602086016108fe565b91505092915050565b6000602082840312156109ae576109ad610f0b565b5b60006109bc84828501610940565b91505092915050565b600080604083850312156109dc576109db610f0b565b5b600083013567ffffffffffffffff8111156109fa576109f9610f06565b5b610a068582860161096a565b9250506020610a1785828601610955565b9150509250929050565b6000610a2d8383610a39565b60208301905092915050565b610a4281610d73565b82525050565b610a5181610d73565b82525050565b6000610a6282610d1d565b610a6c8185610d40565b9350610a7783610d0d565b8060005b83811015610aa8578151610a8f8882610a21565b9750610a9a83610d33565b925050600181019050610a7b565b5085935050505092915050565b610abe81610db8565b82525050565b610acd81610db8565b82525050565b6000610ade82610d28565b610ae88185610d51565b9350610af8818560208601610dd9565b610b0181610f10565b840191505092915050565b6000610b1782610d28565b610b218185610d62565b9350610b31818560208601610dd9565b610b3a81610f10565b840191505092915050565b6000610b52601283610d62565b9150610b5d82610f21565b602082019050919050565b6000610b75600b83610d62565b9150610b8082610f4a565b602082019050919050565b60006060830160008301518482036000860152610ba88282610ad3565b9150506020830151610bbd6020860182610ab5565b506040830151610bd06040860182610a39565b508091505092915050565b6000602082019050610bf06000830184610a48565b92915050565b60006020820190508181036000830152610c108184610a57565b905092915050565b6000602082019050610c2d6000830184610ac4565b92915050565b60006020820190508181036000830152610c4d8184610b0c565b905092915050565b60006020820190508181036000830152610c6e81610b45565b9050919050565b60006020820190508181036000830152610c8e81610b68565b9050919050565b60006020820190508181036000830152610caf8184610b8b565b905092915050565b6000610cc1610cd2565b9050610ccd8282610e3e565b919050565b6000604051905090565b600067ffffffffffffffff821115610cf757610cf6610ecd565b5b610d0082610f10565b9050602081019050919050565b6000819050602082019050919050565b600081519050919050565b600081519050919050565b6000602082019050919050565b600082825260208201905092915050565b600082825260208201905092915050565b600082825260208201905092915050565b6000610d7e82610d98565b9050919050565b6000819050610d9382610f73565b919050565b600073ffffffffffffffffffffffffffffffffffffffff82169050919050565b6000610dc382610d85565b9050919050565b82818337600083830152505050565b60005b83811015610df7578082015181840152602081019050610ddc565b83811115610e06576000848401525b50505050565b60006002820490506001821680610e2457607f821691505b60208210811415610e3857610e37610e9e565b5b50919050565b610e4782610f10565b810181811067ffffffffffffffff82111715610e6657610e65610ecd565b5b80604052505050565b7f4e487b7100000000000000000000000000000000000000000000000000000000600052602160045260246000fd5b7f4e487b7100000000000000000000000000000000000000000000000000000000600052602260045260246000fd5b7f4e487b7100000000000000000000000000000000000000000000000000000000600052604160045260246000fd5b600080fd5b600080fd5b600080fd5b600080fd5b6000601f19601f8301169050919050565b7f616c726561647920726567697374657265640000000000000000000000000000600082015250565b7f4e6f7420616c6c6f776564000000000000000000000000000000000000000000600082015250565b60068110610f8457610f83610e6f565b5b50565b610f9081610d73565b8114610f9b57600080fd5b50565b60068110610fab57600080fd5b5056fea26469706673582212206fe785a197953fd896f0e1e9122e328c671a213c33c5ce40e105e08a51214de264736f6c63430008060033",
  "immutableReferences": {},
  "source": "// SPDX-License-Identifier: MIT\npragma solidity ^0.8.0;\n\ncontract Authentication {\n    enum Role { patient, doctor, researcher, pharmacist, labAgent, insuranceemployee }\n    address private owner;\nstruct MedicalRecord {\n        uint timestamp;\n        string diagnosis;\n        string treatment;\n    }\n    // event for EVM logging\n    event OwnerSet(address indexed oldOwner, address indexed newOwner);\n\n    // modifier to check if caller is owner\n    modifier isOwner() {\n    \n        require(msg.sender == owner, \"Caller is not owner\");\n        _;\n    }\n    struct User {\n    string signatureHash;\n    Role role; \n    address UserAddress;\n    }\n\n    mapping(address => User) private user;\n    address[] private userAddresses;\n\n    constructor() {\n        owner = msg.sender; // 'msg.sender' is sender of current call, contract deployer for a constructor\n        emit OwnerSet(address(0), owner);\n    }\n    function register(string memory _signature,Role UserRole) public {\n        require(\n            user[msg.sender].UserAddress ==\n                address(0x0000000000000000000000000000000000000000),\n            \"already registered\"\n        );\n\n        user[msg.sender].signatureHash = _signature;\n        user[msg.sender].role=UserRole;\n        user[msg.sender].UserAddress = msg.sender;\n        userAddresses.push(msg.sender);\n\n    }\n     function getSignatureHash() public view returns (string memory) {//user contract\n        require(msg.sender == user[msg.sender].UserAddress, \"Not allowed\");\n\n        return user[msg.sender].signatureHash;\n    }\n\n    function getUserAddress() public view returns (address) {//user contract\n        return user[msg.sender].UserAddress;\n    }\n    function getUser(address _address) public view returns (User memory) {\n        return user[_address];\n    }\n    function getAllUserAddresses() public view returns (address[] memory) {\n        return userAddresses;\n    }\n    function getRole() public view returns (Role) {\n        return user[msg.sender].role;\n    }\n}\n/*\ncontract Authentication {\n    uint256 public nbOfUsers;\n\n    struct User {\n        string signatureHash;\n        address userAddress;\n    }\n\n    mapping(address => User) private user;\n\n    constructor() {\n        nbOfUsers = 0;\n    }\n\n    function register(string memory _signature) public {\n        require(\n            user[msg.sender].userAddress ==\n                address(0x0000000000000000000000000000000000000000),\n            \"already registered\"\n        );\n\n        user[msg.sender].signatureHash = _signature;\n        user[msg.sender].userAddress = msg.sender;\n        nbOfUsers++;\n    }\n\n    function getSignatureHash() public view returns (string memory) {\n        require(msg.sender == user[msg.sender].userAddress, \"Not allowed\");\n\n        return user[msg.sender].signatureHash;\n    }\n\n    function getUserAddress() public view returns (address) {\n        return user[msg.sender].userAddress;\n    }\n}\n*/",
  "sourcePath": "C:\\Users\\hamma\\Downloads\\blockchain-based-authentication-main\\blockchain-based-authentication-main\\contracts\\Authentication.sol",
  "compiler": {
    "name": "solc",
    "version": "0.8.6+commit.11564f7e.Emscripten.clang"
  },
  "schemaVersion": "3.4.16",
  "updatedAt": "2024-04-07T01:49:42.221Z",
  "networkType": "ethereum",
  "devdoc": {
    "kind": "dev",
    "methods": {},
    "version": 1
  },
  "userdoc": {
    "kind": "user",
    "methods": {},
    "version": 1
  }
}