{
  "contractName": "DoctorContract",
  "abi": [
    {
      "inputs": [
        {
          "internalType": "address",
          "name": "_registerInstance",
          "type": "address"
        },
        {
          "internalType": "address",
          "name": "_contractBAddress",
          "type": "address"
        }
      ],
      "stateMutability": "nonpayable",
      "type": "constructor"
    },
    {
      "anonymous": false,
      "inputs": [
        {
          "indexed": false,
          "internalType": "address",
          "name": "requester",
          "type": "address"
        },
        {
          "indexed": false,
          "internalType": "address",
          "name": "patient",
          "type": "address"
        },
        {
          "indexed": false,
          "internalType": "string",
          "name": "publicKey",
          "type": "string"
        },
        {
          "indexed": false,
          "internalType": "string",
          "name": "doctorname",
          "type": "string"
        },
        {
          "indexed": false,
          "internalType": "string",
          "name": "role",
          "type": "string"
        },
        {
          "indexed": false,
          "internalType": "uint256",
          "name": "date",
          "type": "uint256"
        }
      ],
      "name": "AccessRequestMade",
      "type": "event"
    },
    {
      "anonymous": false,
      "inputs": [
        {
          "indexed": true,
          "internalType": "address",
          "name": "patient",
          "type": "address"
        },
        {
          "indexed": false,
          "internalType": "string",
          "name": "diagnosis",
          "type": "string"
        },
        {
          "indexed": true,
          "internalType": "address",
          "name": "doctor",
          "type": "address"
        },
        {
          "indexed": false,
          "internalType": "string[]",
          "name": "medicines",
          "type": "string[]"
        },
        {
          "indexed": false,
          "internalType": "string",
          "name": "category",
          "type": "string"
        },
        {
          "indexed": false,
          "internalType": "string",
          "name": "result",
          "type": "string"
        }
      ],
      "name": "MedicalRecordCreated",
      "type": "event"
    },
    {
      "anonymous": false,
      "inputs": [
        {
          "indexed": true,
          "internalType": "address",
          "name": "doctor",
          "type": "address"
        },
        {
          "indexed": true,
          "internalType": "address",
          "name": "patient",
          "type": "address"
        },
        {
          "indexed": false,
          "internalType": "string[]",
          "name": "medicines",
          "type": "string[]"
        },
        {
          "indexed": false,
          "internalType": "bool",
          "name": "fullyPurchased",
          "type": "bool"
        }
      ],
      "name": "PrescriptionCreated",
      "type": "event"
    },
    {
      "anonymous": false,
      "inputs": [
        {
          "indexed": false,
          "internalType": "uint16",
          "name": "newRecordId",
          "type": "uint16"
        }
      ],
      "name": "PrintNewRecordId",
      "type": "event"
    },
    {
      "anonymous": false,
      "inputs": [
        {
          "indexed": true,
          "internalType": "address",
          "name": "patient",
          "type": "address"
        },
        {
          "indexed": false,
          "internalType": "string",
          "name": "category",
          "type": "string"
        },
        {
          "indexed": false,
          "internalType": "string",
          "name": "result",
          "type": "string"
        },
        {
          "indexed": false,
          "internalType": "bool",
          "name": "done",
          "type": "bool"
        }
      ],
      "name": "TestCreated",
      "type": "event"
    },
    {
      "anonymous": false,
      "inputs": [
        {
          "indexed": false,
          "internalType": "address",
          "name": "_newEmployee",
          "type": "address"
        },
        {
          "indexed": false,
          "internalType": "string",
          "name": "_department",
          "type": "string"
        },
        {
          "indexed": false,
          "internalType": "string",
          "name": "_location",
          "type": "string"
        }
      ],
      "name": "doctoradded",
      "type": "event"
    },
    {
      "inputs": [
        {
          "internalType": "uint16",
          "name": "",
          "type": "uint16"
        }
      ],
      "name": "Prescriptions",
      "outputs": [
        {
          "internalType": "uint256",
          "name": "id",
          "type": "uint256"
        },
        {
          "internalType": "uint256",
          "name": "timestamp",
          "type": "uint256"
        },
        {
          "internalType": "address",
          "name": "doctor",
          "type": "address"
        },
        {
          "internalType": "address",
          "name": "patient",
          "type": "address"
        },
        {
          "internalType": "bool",
          "name": "fullyPurchased",
          "type": "bool"
        }
      ],
      "stateMutability": "view",
      "type": "function",
      "constant": true
    },
    {
      "inputs": [
        {
          "internalType": "address",
          "name": "",
          "type": "address"
        }
      ],
      "name": "doctors",
      "outputs": [
        {
          "internalType": "address",
          "name": "doctorAddress",
          "type": "address"
        },
        {
          "internalType": "string",
          "name": "firstname",
          "type": "string"
        },
        {
          "internalType": "string",
          "name": "lastname",
          "type": "string"
        },
        {
          "internalType": "string",
          "name": "specialty",
          "type": "string"
        },
        {
          "internalType": "string",
          "name": "location",
          "type": "string"
        }
      ],
      "stateMutability": "view",
      "type": "function",
      "constant": true
    },
    {
      "inputs": [
        {
          "internalType": "uint16",
          "name": "",
          "type": "uint16"
        }
      ],
      "name": "tests",
      "outputs": [
        {
          "internalType": "address",
          "name": "patient",
          "type": "address"
        },
        {
          "internalType": "uint256",
          "name": "timestamp",
          "type": "uint256"
        },
        {
          "internalType": "string",
          "name": "category",
          "type": "string"
        },
        {
          "internalType": "string",
          "name": "result",
          "type": "string"
        },
        {
          "internalType": "bool",
          "name": "done",
          "type": "bool"
        }
      ],
      "stateMutability": "view",
      "type": "function",
      "constant": true
    },
    {
      "inputs": [
        {
          "internalType": "string",
          "name": "_firstname",
          "type": "string"
        },
        {
          "internalType": "string",
          "name": "_lastname",
          "type": "string"
        },
        {
          "internalType": "string",
          "name": "_specialty",
          "type": "string"
        },
        {
          "internalType": "string",
          "name": "_location",
          "type": "string"
        }
      ],
      "name": "registerUserDetails",
      "outputs": [],
      "stateMutability": "nonpayable",
      "type": "function"
    },
    {
      "inputs": [],
      "name": "getUser",
      "outputs": [
        {
          "components": [
            {
              "internalType": "string",
              "name": "signatureHash",
              "type": "string"
            },
            {
              "internalType": "enum Authentication.Role",
              "name": "role",
              "type": "uint8"
            },
            {
              "internalType": "string",
              "name": "pubkey",
              "type": "string"
            },
            {
              "internalType": "address",
              "name": "UserAddress",
              "type": "address"
            }
          ],
          "internalType": "struct Authentication.User",
          "name": "",
          "type": "tuple"
        }
      ],
      "stateMutability": "view",
      "type": "function",
      "constant": true
    },
    {
      "inputs": [
        {
          "internalType": "address",
          "name": "_patient",
          "type": "address"
        },
        {
          "internalType": "uint256",
          "name": "_date",
          "type": "uint256"
        },
        {
          "internalType": "string",
          "name": "_purpose",
          "type": "string"
        }
      ],
      "name": "scheduleAppointment",
      "outputs": [],
      "stateMutability": "nonpayable",
      "type": "function"
    },
    {
      "inputs": [],
      "name": "NextAppointments",
      "outputs": [
        {
          "components": [
            {
              "internalType": "address",
              "name": "doctor",
              "type": "address"
            },
            {
              "internalType": "address",
              "name": "patient",
              "type": "address"
            },
            {
              "internalType": "uint256",
              "name": "date",
              "type": "uint256"
            },
            {
              "internalType": "string",
              "name": "purpose",
              "type": "string"
            },
            {
              "internalType": "bool",
              "name": "isConfirmed",
              "type": "bool"
            },
            {
              "components": [
                {
                  "internalType": "string",
                  "name": "name",
                  "type": "string"
                },
                {
                  "internalType": "string",
                  "name": "speciality",
                  "type": "string"
                }
              ],
              "internalType": "struct Authentication.doc",
              "name": "doctorN",
              "type": "tuple"
            }
          ],
          "internalType": "struct Authentication.Appointment[]",
          "name": "",
          "type": "tuple[]"
        }
      ],
      "stateMutability": "view",
      "type": "function",
      "constant": true
    },
    {
      "inputs": [
        {
          "internalType": "address",
          "name": "_patient",
          "type": "address"
        },
        {
          "internalType": "string",
          "name": "_diagnosis",
          "type": "string"
        },
        {
          "internalType": "string",
          "name": "date",
          "type": "string"
        }
      ],
      "name": "createMedicalRecord",
      "outputs": [],
      "stateMutability": "nonpayable",
      "type": "function"
    },
    {
      "inputs": [
        {
          "internalType": "address",
          "name": "_patient",
          "type": "address"
        },
        {
          "internalType": "string[]",
          "name": "_medicines",
          "type": "string[]"
        },
        {
          "internalType": "bool",
          "name": "_fullyPurchased",
          "type": "bool"
        }
      ],
      "name": "createPrescription",
      "outputs": [
        {
          "internalType": "uint256",
          "name": "",
          "type": "uint256"
        }
      ],
      "stateMutability": "nonpayable",
      "type": "function"
    },
    {
      "inputs": [
        {
          "internalType": "address",
          "name": "_patient",
          "type": "address"
        },
        {
          "internalType": "string",
          "name": "_category",
          "type": "string"
        },
        {
          "internalType": "string",
          "name": "_result",
          "type": "string"
        },
        {
          "internalType": "bool",
          "name": "_done",
          "type": "bool"
        }
      ],
      "name": "createTest",
      "outputs": [
        {
          "internalType": "uint256",
          "name": "",
          "type": "uint256"
        }
      ],
      "stateMutability": "nonpayable",
      "type": "function"
    },
    {
      "inputs": [
        {
          "internalType": "address",
          "name": "_fromPatient",
          "type": "address"
        }
      ],
      "name": "getFileHashFP",
      "outputs": [
        {
          "internalType": "string",
          "name": "",
          "type": "string"
        }
      ],
      "stateMutability": "view",
      "type": "function",
      "constant": true
    },
    {
      "inputs": [],
      "name": "getPatientlist",
      "outputs": [
        {
          "internalType": "address[]",
          "name": "",
          "type": "address[]"
        }
      ],
      "stateMutability": "view",
      "type": "function",
      "constant": true
    },
    {
      "inputs": [
        {
          "internalType": "address",
          "name": "_patient",
          "type": "address"
        }
      ],
      "name": "requestAccess",
      "outputs": [],
      "stateMutability": "nonpayable",
      "type": "function"
    }
  ],
  "bytecode": "0x608060405260006005553480156200001657600080fd5b506040516200439f3803806200439f83398181016040528101906200003c9190620000dc565b816000806101000a81548173ffffffffffffffffffffffffffffffffffffffff021916908373ffffffffffffffffffffffffffffffffffffffff16021790555080600160006101000a81548173ffffffffffffffffffffffffffffffffffffffff021916908373ffffffffffffffffffffffffffffffffffffffff160217905550505062000176565b600081519050620000d6816200015c565b92915050565b60008060408385031215620000f657620000f562000157565b5b60006200010685828601620000c5565b92505060206200011985828601620000c5565b9150509250929050565b6000620001308262000137565b9050919050565b600073ffffffffffffffffffffffffffffffffffffffff82169050919050565b600080fd5b620001678162000123565b81146200017357600080fd5b50565b61421980620001866000396000f3fe608060405234801561001057600080fd5b50600436106100ce5760003560e01c80637d5d9f131161008c5780639b1d3edf116100665780639b1d3edf14610211578063a9583c2214610245578063bf0e1e6e14610279578063dd1f098c146102ad576100ce565b80637d5d9f13146101a5578063832880e7146101d557806392f63589146101f3576100ce565b80629c4383146100d3578063022cb271146100ef57806304b2041a1461010b57806307dc7ab31461013b5780632b972fd51461016b57806350d9036114610189575b600080fd5b6100ed60048036038101906100e89190612d45565b6102c9565b005b61010960048036038101906101049190612a9a565b610467565b005b61012560048036038101906101209190612ac7565b61059b565b6040516101329190613b8a565b60405180910390f35b61015560048036038101906101509190612a9a565b61092a565b60405161016291906139f5565b60405180910390f35b6101736109e5565b6040516101809190613981565b60405180910390f35b6101a3600480360381019061019e9190612b36565b610ab3565b005b6101bf60048036038101906101ba9190612bc1565b6113bd565b6040516101cc9190613b8a565b60405180910390f35b6101dd6116d4565b6040516101ea9190613b4d565b60405180910390f35b6101fb61178f565b60405161020891906139d3565b60405180910390f35b61022b60048036038101906102269190612e65565b611ac9565b60405161023c959493929190613920565b60405180910390f35b61025f600480360381019061025a9190612a9a565b611c3c565b604051610270959493929190613881565b60405180910390f35b610293600480360381019061028e9190612e65565b611eb2565b6040516102a4959493929190613ba5565b60405180910390f35b6102c760048036038101906102c29190612c60565b611f35565b005b600160058111156102dd576102dc613fcb565b5b6102e56116d4565b6020015160058111156102fb576102fa613fcb565b5b1461033b576040517f08c379a000000000000000000000000000000000000000000000000000000000815260040161033290613afd565b60405180910390fd5b6000600260003373ffffffffffffffffffffffffffffffffffffffff1673ffffffffffffffffffffffffffffffffffffffff1681526020019081526020016000209050338160000160006101000a81548173ffffffffffffffffffffffffffffffffffffffff021916908373ffffffffffffffffffffffffffffffffffffffff160217905550848160010190805190602001906103d9929190612604565b50838160020190805190602001906103f2929190612604565b508281600301908051906020019061040b929190612604565b5081816004019080519060200190610424929190612604565b507f370f3f9ebfcbf9dbe13f7681dce41b55bc1a91555e74ee72e56e69598be65eb73384846040516104589392919061383c565b60405180910390a15050505050565b7f13d9284cb50c32a0efe3d8d0b774f4cccb31497ed14ba80919c63cebb0b36f4e338260008054906101000a900473ffffffffffffffffffffffffffffffffffffffff1673ffffffffffffffffffffffffffffffffffffffff16636f77926b336040518263ffffffff1660e01b81526004016104e39190613784565b60006040518083038186803b1580156104fb57600080fd5b505afa15801561050f573d6000803e3d6000fd5b505050506040513d6000823e3d601f19601f820116820180604052508101906105389190612e1c565b60400151600260003373ffffffffffffffffffffffffffffffffffffffff1673ffffffffffffffffffffffffffffffffffffffff168152602001908152602001600020600101426040516105909594939291906137c8565b60405180910390a150565b60003384600160058111156105b3576105b2613fcb565b5b6105bb6116d4565b6020015160058111156105d1576105d0613fcb565b5b14610611576040517f08c379a000000000000000000000000000000000000000000000000000000000815260040161060890613afd565b60405180910390fd5b600160009054906101000a900473ffffffffffffffffffffffffffffffffffffffff1673ffffffffffffffffffffffffffffffffffffffff166365e4ad9e83836040518363ffffffff1660e01b815260040161066e92919061379f565b60206040518083038186803b15801561068657600080fd5b505afa15801561069a573d6000803e3d6000fd5b505050506040513d601f19601f820116820180604052508101906106be9190612ccf565b6106fd576040517f08c379a00000000000000000000000000000000000000000000000000000000081526004016106f490613abd565b60405180910390fd5b6107056125a7565b600660006101000a81548161ffff021916908361ffff16021790555060006040518060c00160405280600660009054906101000a900461ffff1661ffff1681526020014281526020013373ffffffffffffffffffffffffffffffffffffffff1681526020018873ffffffffffffffffffffffffffffffffffffffff16815260200187815260200186151581525090508060046000600660009054906101000a900461ffff1661ffff1661ffff168152602001908152602001600020600082015181600001556020820151816001015560408201518160020160006101000a81548173ffffffffffffffffffffffffffffffffffffffff021916908373ffffffffffffffffffffffffffffffffffffffff16021790555060608201518160030160006101000a81548173ffffffffffffffffffffffffffffffffffffffff021916908373ffffffffffffffffffffffffffffffffffffffff160217905550608082015181600401908051906020019061087e92919061268a565b5060a08201518160050160006101000a81548160ff0219169083151502179055509050508673ffffffffffffffffffffffffffffffffffffffff163373ffffffffffffffffffffffffffffffffffffffff167fd6cacfffa60e2d1e7406e20a353a157812232bfc9fec5cab8c3e889abe6e77be88886040516109019291906139a3565b60405180910390a3600660009054906101000a900461ffff1661ffff1693505050509392505050565b6060600160009054906101000a900473ffffffffffffffffffffffffffffffffffffffff1673ffffffffffffffffffffffffffffffffffffffff1663ce4f5d4233846040518363ffffffff1660e01b815260040161098992919061379f565b60006040518083038186803b1580156109a157600080fd5b505afa1580156109b5573d6000803e3d6000fd5b505050506040513d6000823e3d601f19601f820116820180604052508101906109de9190612cfc565b9050919050565b6060600260003373ffffffffffffffffffffffffffffffffffffffff1673ffffffffffffffffffffffffffffffffffffffff168152602001908152602001600020600501805480602002602001604051908101604052809291908181526020018280548015610aa957602002820191906000526020600020905b8160009054906101000a900473ffffffffffffffffffffffffffffffffffffffff1673ffffffffffffffffffffffffffffffffffffffff1681526020019060010190808311610a5f575b5050505050905090565b338360016005811115610ac957610ac8613fcb565b5b610ad16116d4565b602001516005811115610ae757610ae6613fcb565b5b14610b27576040517f08c379a0000000000000000000000000000000000000000000000000000000008152600401610b1e90613afd565b60405180910390fd5b600160009054906101000a900473ffffffffffffffffffffffffffffffffffffffff1673ffffffffffffffffffffffffffffffffffffffff166365e4ad9e83836040518363ffffffff1660e01b8152600401610b8492919061379f565b60206040518083038186803b158015610b9c57600080fd5b505afa158015610bb0573d6000803e3d6000fd5b505050506040513d601f19601f82011682018060405250810190610bd49190612ccf565b610c13576040517f08c379a0000000000000000000000000000000000000000000000000000000008152600401610c0a90613abd565b60405180910390fd5b610c1b6125a7565b600660026101000a81548161ffff021916908361ffff16021790555060006040518060400160405280600260003373ffffffffffffffffffffffffffffffffffffffff1673ffffffffffffffffffffffffffffffffffffffff1681526020019081526020016000206001018054610c9190613e62565b80601f0160208091040260200160405190810160405280929190818152602001828054610cbd90613e62565b8015610d0a5780601f10610cdf57610100808354040283529160200191610d0a565b820191906000526020600020905b815481529060010190602001808311610ced57829003601f168201915b50505050508152602001600260003373ffffffffffffffffffffffffffffffffffffffff1673ffffffffffffffffffffffffffffffffffffffff1681526020019081526020016000206003018054610d6190613e62565b80601f0160208091040260200160405190810160405280929190818152602001828054610d8d90613e62565b8015610dda5780601f10610daf57610100808354040283529160200191610dda565b820191906000526020600020905b815481529060010190602001808311610dbd57829003601f168201915b5050505050815250905060006040518060e00160405280600660029054906101000a900461ffff1661ffff16815260200142815260200186815260200187815260200160046000600660009054906101000a900461ffff1661ffff1661ffff1681526020019081526020016000206040518060c001604052908160008201548152602001600182015481526020016002820160009054906101000a900473ffffffffffffffffffffffffffffffffffffffff1673ffffffffffffffffffffffffffffffffffffffff1673ffffffffffffffffffffffffffffffffffffffff1681526020016003820160009054906101000a900473ffffffffffffffffffffffffffffffffffffffff1673ffffffffffffffffffffffffffffffffffffffff1673ffffffffffffffffffffffffffffffffffffffff16815260200160048201805480602002602001604051908101604052809291908181526020016000905b82821015610fe4578382906000526020600020018054610f5790613e62565b80601f0160208091040260200160405190810160405280929190818152602001828054610f8390613e62565b8015610fd05780601f10610fa557610100808354040283529160200191610fd0565b820191906000526020600020905b815481529060010190602001808311610fb357829003601f168201915b505050505081526020019060010190610f38565b5050505081526020016005820160009054906101000a900460ff161515151581525050815260200160036000600660049054906101000a900461ffff1661ffff1661ffff1681526020019081526020016000206040518060a00160405290816000820160009054906101000a900473ffffffffffffffffffffffffffffffffffffffff1673ffffffffffffffffffffffffffffffffffffffff1673ffffffffffffffffffffffffffffffffffffffff168152602001600182015481526020016002820180546110b290613e62565b80601f01602080910402602001604051908101604052809291908181526020018280546110de90613e62565b801561112b5780601f106111005761010080835404028352916020019161112b565b820191906000526020600020905b81548152906001019060200180831161110e57829003601f168201915b5050505050815260200160038201805461114490613e62565b80601f016020809104026020016040519081016040528092919081815260200182805461117090613e62565b80156111bd5780601f10611192576101008083540402835291602001916111bd565b820191906000526020600020905b8154815290600101906020018083116111a057829003601f168201915b505050505081526020016004820160009054906101000a900460ff1615151515815250508152602001838152509050600160009054906101000a900473ffffffffffffffffffffffffffffffffffffffff1673ffffffffffffffffffffffffffffffffffffffff166371b73db082896040518363ffffffff1660e01b8152600401611249929190613b1d565b600060405180830381600087803b15801561126357600080fd5b505af1158015611277573d6000803e3d6000fd5b505050503373ffffffffffffffffffffffffffffffffffffffff168773ffffffffffffffffffffffffffffffffffffffff167fbf0636f092c7c4b1cf7522b59e0d82c4fde37f7c822ade3d7ccfe685348968018860046000600660029054906101000a900461ffff1661ffff1661ffff16815260200190815260200160002060040160036000600660029054906101000a900461ffff1661ffff1661ffff16815260200190815260200160002060020160036000600660029054906101000a900461ffff1661ffff1661ffff1681526020019081526020016000206003016040516113659493929190613a17565b60405180910390a37f7d4384d341025e3bfc4ccb361453de12c24ff8b0c19c68ed5159e52031d6275e600660029054906101000a900461ffff166040516113ac9190613b6f565b60405180910390a150505050505050565b60003385600160058111156113d5576113d4613fcb565b5b6113dd6116d4565b6020015160058111156113f3576113f2613fcb565b5b14611433576040517f08c379a000000000000000000000000000000000000000000000000000000000815260040161142a90613afd565b60405180910390fd5b600160009054906101000a900473ffffffffffffffffffffffffffffffffffffffff1673ffffffffffffffffffffffffffffffffffffffff166365e4ad9e83836040518363ffffffff1660e01b815260040161149092919061379f565b60206040518083038186803b1580156114a857600080fd5b505afa1580156114bc573d6000803e3d6000fd5b505050506040513d601f19601f820116820180604052508101906114e09190612ccf565b61151f576040517f08c379a000000000000000000000000000000000000000000000000000000000815260040161151690613abd565b60405180910390fd5b6115276125a7565b600660046101000a81548161ffff021916908361ffff16021790555060006040518060a001604052808973ffffffffffffffffffffffffffffffffffffffff16815260200142815260200188815260200187815260200186151581525090508060036000600660049054906101000a900461ffff1661ffff1661ffff16815260200190815260200160002060008201518160000160006101000a81548173ffffffffffffffffffffffffffffffffffffffff021916908373ffffffffffffffffffffffffffffffffffffffff16021790555060208201518160010155604082015181600201908051906020019061161f929190612604565b50606082015181600301908051906020019061163c929190612604565b5060808201518160040160006101000a81548160ff0219169083151502179055509050508773ffffffffffffffffffffffffffffffffffffffff167ff9d4ce6b5294d8883eac3cb6f63a5bdb043dba6ae0ffe0cd6b25976c9e37ac1e8888886040516116aa93929190613a78565b60405180910390a2600660049054906101000a900461ffff1661ffff169350505050949350505050565b6116dc6126ea565b60008054906101000a900473ffffffffffffffffffffffffffffffffffffffff1673ffffffffffffffffffffffffffffffffffffffff16636f77926b336040518263ffffffff1660e01b81526004016117359190613784565b60006040518083038186803b15801561174d57600080fd5b505afa158015611761573d6000803e3d6000fd5b505050506040513d6000823e3d601f19601f8201168201806040525081019061178a9190612e1c565b905090565b6060600260003373ffffffffffffffffffffffffffffffffffffffff1673ffffffffffffffffffffffffffffffffffffffff168152602001908152602001600020600601805480602002602001604051908101604052809291908181526020016000905b82821015611ac057838290600052602060002090600702016040518060c00160405290816000820160009054906101000a900473ffffffffffffffffffffffffffffffffffffffff1673ffffffffffffffffffffffffffffffffffffffff1673ffffffffffffffffffffffffffffffffffffffff1681526020016001820160009054906101000a900473ffffffffffffffffffffffffffffffffffffffff1673ffffffffffffffffffffffffffffffffffffffff1673ffffffffffffffffffffffffffffffffffffffff168152602001600282015481526020016003820180546118dc90613e62565b80601f016020809104026020016040519081016040528092919081815260200182805461190890613e62565b80156119555780601f1061192a57610100808354040283529160200191611955565b820191906000526020600020905b81548152906001019060200180831161193857829003601f168201915b505050505081526020016004820160009054906101000a900460ff161515151581526020016005820160405180604001604052908160008201805461199990613e62565b80601f01602080910402602001604051908101604052809291908181526020018280546119c590613e62565b8015611a125780601f106119e757610100808354040283529160200191611a12565b820191906000526020600020905b8154815290600101906020018083116119f557829003601f168201915b50505050508152602001600182018054611a2b90613e62565b80601f0160208091040260200160405190810160405280929190818152602001828054611a5790613e62565b8015611aa45780601f10611a7957610100808354040283529160200191611aa4565b820191906000526020600020905b815481529060010190602001808311611a8757829003601f168201915b50505050508152505081525050815260200190600101906117f3565b50505050905090565b60036020528060005260406000206000915090508060000160009054906101000a900473ffffffffffffffffffffffffffffffffffffffff1690806001015490806002018054611b1890613e62565b80601f0160208091040260200160405190810160405280929190818152602001828054611b4490613e62565b8015611b915780601f10611b6657610100808354040283529160200191611b91565b820191906000526020600020905b815481529060010190602001808311611b7457829003601f168201915b505050505090806003018054611ba690613e62565b80601f0160208091040260200160405190810160405280929190818152602001828054611bd290613e62565b8015611c1f5780601f10611bf457610100808354040283529160200191611c1f565b820191906000526020600020905b815481529060010190602001808311611c0257829003601f168201915b5050505050908060040160009054906101000a900460ff16905085565b60026020528060005260406000206000915090508060000160009054906101000a900473ffffffffffffffffffffffffffffffffffffffff1690806001018054611c8590613e62565b80601f0160208091040260200160405190810160405280929190818152602001828054611cb190613e62565b8015611cfe5780601f10611cd357610100808354040283529160200191611cfe565b820191906000526020600020905b815481529060010190602001808311611ce157829003601f168201915b505050505090806002018054611d1390613e62565b80601f0160208091040260200160405190810160405280929190818152602001828054611d3f90613e62565b8015611d8c5780601f10611d6157610100808354040283529160200191611d8c565b820191906000526020600020905b815481529060010190602001808311611d6f57829003601f168201915b505050505090806003018054611da190613e62565b80601f0160208091040260200160405190810160405280929190818152602001828054611dcd90613e62565b8015611e1a5780601f10611def57610100808354040283529160200191611e1a565b820191906000526020600020905b815481529060010190602001808311611dfd57829003601f168201915b505050505090806004018054611e2f90613e62565b80601f0160208091040260200160405190810160405280929190818152602001828054611e5b90613e62565b8015611ea85780601f10611e7d57610100808354040283529160200191611ea8565b820191906000526020600020905b815481529060010190602001808311611e8b57829003601f168201915b5050505050905085565b60046020528060005260406000206000915090508060000154908060010154908060020160009054906101000a900473ffffffffffffffffffffffffffffffffffffffff16908060030160009054906101000a900473ffffffffffffffffffffffffffffffffffffffff16908060050160009054906101000a900460ff16905085565b338360016005811115611f4b57611f4a613fcb565b5b611f536116d4565b602001516005811115611f6957611f68613fcb565b5b14611fa9576040517f08c379a0000000000000000000000000000000000000000000000000000000008152600401611fa090613afd565b60405180910390fd5b600160009054906101000a900473ffffffffffffffffffffffffffffffffffffffff1673ffffffffffffffffffffffffffffffffffffffff166365e4ad9e83836040518363ffffffff1660e01b815260040161200692919061379f565b60206040518083038186803b15801561201e57600080fd5b505afa158015612032573d6000803e3d6000fd5b505050506040513d601f19601f820116820180604052508101906120569190612ccf565b612095576040517f08c379a000000000000000000000000000000000000000000000000000000000815260040161208c90613abd565b60405180910390fd5b4284116120d7576040517f08c379a00000000000000000000000000000000000000000000000000000000081526004016120ce90613add565b60405180910390fd5b60006040518060400160405280600260003373ffffffffffffffffffffffffffffffffffffffff1673ffffffffffffffffffffffffffffffffffffffff168152602001908152602001600020600101805461213190613e62565b80601f016020809104026020016040519081016040528092919081815260200182805461215d90613e62565b80156121aa5780601f1061217f576101008083540402835291602001916121aa565b820191906000526020600020905b81548152906001019060200180831161218d57829003601f168201915b50505050508152602001600260003373ffffffffffffffffffffffffffffffffffffffff1673ffffffffffffffffffffffffffffffffffffffff168152602001908152602001600020600301805461220190613e62565b80601f016020809104026020016040519081016040528092919081815260200182805461222d90613e62565b801561227a5780601f1061224f5761010080835404028352916020019161227a565b820191906000526020600020905b81548152906001019060200180831161225d57829003601f168201915b5050505050815250905060006040518060c001604052803373ffffffffffffffffffffffffffffffffffffffff1681526020018873ffffffffffffffffffffffffffffffffffffffff168152602001878152602001868152602001600115158152602001838152509050600260003373ffffffffffffffffffffffffffffffffffffffff1673ffffffffffffffffffffffffffffffffffffffff168152602001908152602001600020600501879080600181540180825580915050600190039060005260206000200160009091909190916101000a81548173ffffffffffffffffffffffffffffffffffffffff021916908373ffffffffffffffffffffffffffffffffffffffff160217905550600260003373ffffffffffffffffffffffffffffffffffffffff1673ffffffffffffffffffffffffffffffffffffffff16815260200190815260200160002060060181908060018154018082558091505060019003906000526020600020906007020160009091909190915060008201518160000160006101000a81548173ffffffffffffffffffffffffffffffffffffffff021916908373ffffffffffffffffffffffffffffffffffffffff16021790555060208201518160010160006101000a81548173ffffffffffffffffffffffffffffffffffffffff021916908373ffffffffffffffffffffffffffffffffffffffff1602179055506040820151816002015560608201518160030190805190602001906124a7929190612604565b5060808201518160040160006101000a81548160ff02191690831515021790555060a08201518160050160008201518160000190805190602001906124ed929190612604565b50602082015181600101908051906020019061250a929190612604565b5050505050600160009054906101000a900473ffffffffffffffffffffffffffffffffffffffff1673ffffffffffffffffffffffffffffffffffffffff16638a0da09488836040518363ffffffff1660e01b815260040161256c9291906138f0565b600060405180830381600087803b15801561258657600080fd5b505af115801561259a573d6000803e3d6000fd5b5050505050505050505050565b6000600560008154809291906125bc90613ec5565b91905055506201000042336005546040516020016125dc93929190613747565b6040516020818303038152906040528051906020012060001c6125ff9190613f3c565b905090565b82805461261090613e62565b90600052602060002090601f0160209004810192826126325760008555612679565b82601f1061264b57805160ff1916838001178555612679565b82800160010185558215612679579182015b8281111561267857825182559160200191906001019061265d565b5b509050612686919061273a565b5090565b8280548282559060005260206000209081019282156126d9579160200282015b828111156126d85782518290805190602001906126c8929190612604565b50916020019190600101906126aa565b5b5090506126e69190612757565b5090565b604051806080016040528060608152602001600060058111156127105761270f613fcb565b5b815260200160608152602001600073ffffffffffffffffffffffffffffffffffffffff1681525090565b5b8082111561275357600081600090555060010161273b565b5090565b5b80821115612777576000818161276e919061277b565b50600101612758565b5090565b50805461278790613e62565b6000825580601f1061279957506127b8565b601f0160209004906000526020600020908101906127b7919061273a565b5b50565b60006127ce6127c984613c1d565b613bf8565b905080838252602082019050828560208602820111156127f1576127f0614067565b5b60005b8581101561283f57813567ffffffffffffffff81111561281757612816614058565b5b8086016128248982612964565b855260208501945060208401935050506001810190506127f4565b5050509392505050565b600061285c61285784613c49565b613bf8565b9050828152602081018484840111156128785761287761406c565b5b612883848285613e20565b509392505050565b600061289e61289984613c49565b613bf8565b9050828152602081018484840111156128ba576128b961406c565b5b6128c5848285613e2f565b509392505050565b6000813590506128dc81614177565b92915050565b6000815190506128f181614177565b92915050565b600082601f83011261290c5761290b614058565b5b813561291c8482602086016127bb565b91505092915050565b6000813590506129348161418e565b92915050565b6000815190506129498161418e565b92915050565b60008151905061295e816141a5565b92915050565b600082601f83011261297957612978614058565b5b8135612989848260208601612849565b91505092915050565b600082601f8301126129a7576129a6614058565b5b81516129b784826020860161288b565b91505092915050565b6000608082840312156129d6576129d561405d565b5b6129e06080613bf8565b9050600082015167ffffffffffffffff811115612a00576129ff614062565b5b612a0c84828501612992565b6000830152506020612a208482850161294f565b602083015250604082015167ffffffffffffffff811115612a4457612a43614062565b5b612a5084828501612992565b6040830152506060612a64848285016128e2565b60608301525092915050565b600081359050612a7f816141b5565b92915050565b600081359050612a94816141cc565b92915050565b600060208284031215612ab057612aaf614076565b5b6000612abe848285016128cd565b91505092915050565b600080600060608486031215612ae057612adf614076565b5b6000612aee868287016128cd565b935050602084013567ffffffffffffffff811115612b0f57612b0e614071565b5b612b1b868287016128f7565b9250506040612b2c86828701612925565b9150509250925092565b600080600060608486031215612b4f57612b4e614076565b5b6000612b5d868287016128cd565b935050602084013567ffffffffffffffff811115612b7e57612b7d614071565b5b612b8a86828701612964565b925050604084013567ffffffffffffffff811115612bab57612baa614071565b5b612bb786828701612964565b9150509250925092565b60008060008060808587031215612bdb57612bda614076565b5b6000612be9878288016128cd565b945050602085013567ffffffffffffffff811115612c0a57612c09614071565b5b612c1687828801612964565b935050604085013567ffffffffffffffff811115612c3757612c36614071565b5b612c4387828801612964565b9250506060612c5487828801612925565b91505092959194509250565b600080600060608486031215612c7957612c78614076565b5b6000612c87868287016128cd565b9350506020612c9886828701612a85565b925050604084013567ffffffffffffffff811115612cb957612cb8614071565b5b612cc586828701612964565b9150509250925092565b600060208284031215612ce557612ce4614076565b5b6000612cf38482850161293a565b91505092915050565b600060208284031215612d1257612d11614076565b5b600082015167ffffffffffffffff811115612d3057612d2f614071565b5b612d3c84828501612992565b91505092915050565b60008060008060808587031215612d5f57612d5e614076565b5b600085013567ffffffffffffffff811115612d7d57612d7c614071565b5b612d8987828801612964565b945050602085013567ffffffffffffffff811115612daa57612da9614071565b5b612db687828801612964565b935050604085013567ffffffffffffffff811115612dd757612dd6614071565b5b612de387828801612964565b925050606085013567ffffffffffffffff811115612e0457612e03614071565b5b612e1087828801612964565b91505092959194509250565b600060208284031215612e3257612e31614076565b5b600082015167ffffffffffffffff811115612e5057612e4f614071565b5b612e5c848285016129c0565b91505092915050565b600060208284031215612e7b57612e7a614076565b5b6000612e8984828501612a70565b91505092915050565b6000612e9e8383612ee6565b60208301905092915050565b6000612eb68383613179565b905092915050565b6000612eca83836131eb565b905092915050565b6000612ede8383613377565b905092915050565b612eef81613da5565b82525050565b612efe81613da5565b82525050565b612f15612f1082613da5565b613f0e565b82525050565b6000612f2682613cd4565b612f308185613d3f565b9350612f3b83613c7a565b8060005b83811015612f6c578151612f538882612e92565b9750612f5e83613d0b565b925050600181019050612f3f565b5085935050505092915050565b6000612f8482613cdf565b612f8e8185613d50565b935083602082028501612fa085613c8a565b8060005b85811015612fdc5784840389528151612fbd8582612eaa565b9450612fc883613d18565b925060208a01995050600181019050612fa4565b50829750879550505050505092915050565b6000612ff982613cdf565b6130038185613d61565b93508360208202850161301585613c8a565b8060005b8581101561305157848403895281516130328582612eaa565b945061303d83613d18565b925060208a01995050600181019050613019565b50829750879550505050505092915050565b600061306e82613cea565b6130788185613d61565b93508360208202850161308a85613c9a565b8060005b858110156130c5578484038952816130a68582612ebe565b94506130b183613d25565b925060208a0199505060018101905061308e565b50829750879550505050505092915050565b60006130e282613cf5565b6130ec8185613d72565b9350836020820285016130fe85613caf565b8060005b8581101561313a578484038952815161311b8582612ed2565b945061312683613d32565b925060208a01995050600181019050613102565b50829750879550505050505092915050565b61315581613db7565b82525050565b61316481613db7565b82525050565b61317381613e0e565b82525050565b600061318482613d00565b61318e8185613d83565b935061319e818560208601613e2f565b6131a78161407b565b840191505092915050565b60006131bd82613d00565b6131c78185613d94565b93506131d7818560208601613e2f565b6131e08161407b565b840191505092915050565b600081546131f881613e62565b6132028186613d83565b9450600182166000811461321d576001811461322f57613262565b60ff1983168652602086019350613262565b61323885613cbf565b60005b8381101561325a5781548189015260018201915060208101905061323b565b808801955050505b50505092915050565b6000815461327881613e62565b6132828186613d94565b9450600182166000811461329d57600181146132af576132e2565b60ff19831686526020860193506132e2565b6132b885613cbf565b60005b838110156132da578154818901526001820191506020810190506132bb565b808801955050505b50505092915050565b60006132f8601183613d94565b915061330382614099565b602082019050919050565b600061331b601883613d94565b9150613326826140c2565b602082019050919050565b600061333e600783613d94565b9150613349826140eb565b602082019050919050565b6000613361602283613d94565b915061336c82614114565b604082019050919050565b600060c08301600083015161338f6000860182612ee6565b5060208301516133a26020860182612ee6565b5060408301516133b56040860182613712565b50606083015184820360608601526133cd8282613179565b91505060808301516133e2608086018261314c565b5060a083015184820360a08601526133fa82826136bf565b9150508091505092915050565b600060c08301600083015161341f6000860182612ee6565b5060208301516134326020860182612ee6565b5060408301516134456040860182613712565b506060830151848203606086015261345d8282613179565b9150506080830151613472608086018261314c565b5060a083015184820360a086015261348a82826136bf565b9150508091505092915050565b600060e0830160008301516134af6000860182613712565b5060208301516134c26020860182613712565b50604083015184820360408601526134da8282613179565b915050606083015184820360608601526134f48282613179565b9150506080830151848203608086015261350e828261354f565b91505060a083015184820360a086015261352882826135d8565b91505060c083015184820360c086015261354282826136bf565b9150508091505092915050565b600060c0830160008301516135676000860182613712565b50602083015161357a6020860182613712565b50604083015161358d6040860182612ee6565b5060608301516135a06060860182612ee6565b50608083015184820360808601526135b88282612f79565b91505060a08301516135cd60a086018261314c565b508091505092915050565b600060a0830160008301516135f06000860182612ee6565b5060208301516136036020860182613712565b506040830151848203604086015261361b8282613179565b915050606083015184820360608601526136358282613179565b915050608083015161364a608086018261314c565b508091505092915050565b600060808301600083015184820360008601526136728282613179565b9150506020830151613687602086018261316a565b506040830151848203604086015261369f8282613179565b91505060608301516136b46060860182612ee6565b508091505092915050565b600060408301600083015184820360008601526136dc8282613179565b915050602083015184820360208601526136f68282613179565b9150508091505092915050565b61370c81613dd6565b82525050565b61371b81613e04565b82525050565b61372a81613e04565b82525050565b61374161373c82613e04565b613f32565b82525050565b60006137538286613730565b6020820191506137638285612f04565b6014820191506137738284613730565b602082019150819050949350505050565b60006020820190506137996000830184612ef5565b92915050565b60006040820190506137b46000830185612ef5565b6137c16020830184612ef5565b9392505050565b600060c0820190506137dd6000830188612ef5565b6137ea6020830187612ef5565b81810360408301526137fc81866131b2565b90508181036060830152613810818561326b565b9050818103608083015261382381613331565b905061383260a0830184613721565b9695505050505050565b60006060820190506138516000830186612ef5565b818103602083015261386381856131b2565b9050818103604083015261387781846131b2565b9050949350505050565b600060a0820190506138966000830188612ef5565b81810360208301526138a881876131b2565b905081810360408301526138bc81866131b2565b905081810360608301526138d081856131b2565b905081810360808301526138e481846131b2565b90509695505050505050565b60006040820190506139056000830185612ef5565b81810360208301526139178184613407565b90509392505050565b600060a0820190506139356000830188612ef5565b6139426020830187613721565b818103604083015261395481866131b2565b9050818103606083015261396881856131b2565b9050613977608083018461315b565b9695505050505050565b6000602082019050818103600083015261399b8184612f1b565b905092915050565b600060408201905081810360008301526139bd8185612fee565b90506139cc602083018461315b565b9392505050565b600060208201905081810360008301526139ed81846130d7565b905092915050565b60006020820190508181036000830152613a0f81846131b2565b905092915050565b60006080820190508181036000830152613a3181876131b2565b90508181036020830152613a458186613063565b90508181036040830152613a59818561326b565b90508181036060830152613a6d818461326b565b905095945050505050565b60006060820190508181036000830152613a9281866131b2565b90508181036020830152613aa681856131b2565b9050613ab5604083018461315b565b949350505050565b60006020820190508181036000830152613ad6816132eb565b9050919050565b60006020820190508181036000830152613af68161330e565b9050919050565b60006020820190508181036000830152613b1681613354565b9050919050565b60006040820190508181036000830152613b378185613497565b9050613b466020830184612ef5565b9392505050565b60006020820190508181036000830152613b678184613655565b905092915050565b6000602082019050613b846000830184613703565b92915050565b6000602082019050613b9f6000830184613721565b92915050565b600060a082019050613bba6000830188613721565b613bc76020830187613721565b613bd46040830186612ef5565b613be16060830185612ef5565b613bee608083018461315b565b9695505050505050565b6000613c02613c13565b9050613c0e8282613e94565b919050565b6000604051905090565b600067ffffffffffffffff821115613c3857613c37614029565b5b602082029050602081019050919050565b600067ffffffffffffffff821115613c6457613c63614029565b5b613c6d8261407b565b9050602081019050919050565b6000819050602082019050919050565b6000819050602082019050919050565b60008190508160005260206000209050919050565b6000819050602082019050919050565b60008190508160005260206000209050919050565b600081519050919050565b600081519050919050565b600081549050919050565b600081519050919050565b600081519050919050565b6000602082019050919050565b6000602082019050919050565b6000600182019050919050565b6000602082019050919050565b600082825260208201905092915050565b600082825260208201905092915050565b600082825260208201905092915050565b600082825260208201905092915050565b600082825260208201905092915050565b600082825260208201905092915050565b6000613db082613de4565b9050919050565b60008115159050919050565b6000819050613dd182614163565b919050565b600061ffff82169050919050565b600073ffffffffffffffffffffffffffffffffffffffff82169050919050565b6000819050919050565b6000613e1982613dc3565b9050919050565b82818337600083830152505050565b60005b83811015613e4d578082015181840152602081019050613e32565b83811115613e5c576000848401525b50505050565b60006002820490506001821680613e7a57607f821691505b60208210811415613e8e57613e8d613ffa565b5b50919050565b613e9d8261407b565b810181811067ffffffffffffffff82111715613ebc57613ebb614029565b5b80604052505050565b6000613ed082613e04565b91507fffffffffffffffffffffffffffffffffffffffffffffffffffffffffffffffff821415613f0357613f02613f6d565b5b600182019050919050565b6000613f1982613f20565b9050919050565b6000613f2b8261408c565b9050919050565b6000819050919050565b6000613f4782613e04565b9150613f5283613e04565b925082613f6257613f61613f9c565b5b828206905092915050565b7f4e487b7100000000000000000000000000000000000000000000000000000000600052601160045260246000fd5b7f4e487b7100000000000000000000000000000000000000000000000000000000600052601260045260246000fd5b7f4e487b7100000000000000000000000000000000000000000000000000000000600052602160045260246000fd5b7f4e487b7100000000000000000000000000000000000000000000000000000000600052602260045260246000fd5b7f4e487b7100000000000000000000000000000000000000000000000000000000600052604160045260246000fd5b600080fd5b600080fd5b600080fd5b600080fd5b600080fd5b600080fd5b600080fd5b6000601f19601f8301169050919050565b60008160601b9050919050565b7f556e617574686f72697a65642075736572000000000000000000000000000000600082015250565b7f496e76616c6964206170706f696e746d656e7420646174650000000000000000600082015250565b7f646f637465757200000000000000000000000000000000000000000000000000600082015250565b7f4f6e6c7920646f63746f72732063616e207375626d697420746869732074797060008201527f6520000000000000000000000000000000000000000000000000000000000000602082015250565b6006811061417457614173613fcb565b5b50565b61418081613da5565b811461418b57600080fd5b50565b61419781613db7565b81146141a257600080fd5b50565b600681106141b257600080fd5b50565b6141be81613dd6565b81146141c957600080fd5b50565b6141d581613e04565b81146141e057600080fd5b5056fea26469706673582212208374f6de47b64ac3d9983982071cf5057a22e2493d381a8c2d759ddba0a80e9764736f6c63430008060033",
  "immutableReferences": {},
  "source": "// SPDX-License-Identifier: GPL-3.0\r\npragma solidity ^0.8.0;\r\nimport \"./Authentication.sol\";\r\nimport \"./patientcontract.sol\";\r\ncontract DoctorContract {\r\n    Authentication private registerInstance;\r\n    Patients private contractPAInstance;\r\n    struct Doctor {\r\n        address doctorAddress;\r\n        string firstname;\r\n        string lastname;\r\n        string specialty;\r\n        string location;\r\n        address[] patientsList;\r\n        Authentication.Appointment[] appointmentsList;\r\n    }\r\n\r\n    constructor(address _registerInstance, address _contractBAddress) {\r\n        registerInstance = Authentication(_registerInstance);\r\n        contractPAInstance = Patients(_contractBAddress);\r\n    }\r\n\r\n    mapping(address => Doctor) public doctors;\r\n    mapping(uint16 => Authentication.Test) public tests;\r\n    mapping(uint16 => Authentication.Prescription) public Prescriptions;\r\n\r\n    event doctoradded(address  _newEmployee, string  _department,string  _location);\r\n\r\n    function registerUserDetails(\r\n        string memory _firstname,\r\n        string memory _lastname,\r\n        string memory _specialty,\r\n        string memory _location\r\n    ) public {\r\n        // Ensure only patients can call this function\r\n        require(\r\n            getUser().role == Authentication.Role.doctor,\r\n            \"Only doctors can submit this type \"\r\n        );\r\n\r\n        // Create a new doctor record\r\n        Doctor storage newDoctor = doctors[msg.sender];\r\n        newDoctor.doctorAddress = msg.sender;\r\n        newDoctor.firstname = _firstname;\r\n        newDoctor.lastname = _lastname;\r\n        newDoctor.specialty = _specialty;\r\n        newDoctor.location = _location;\r\n        // Optionally, emit an event or perform any additional logic\r\n        emit doctoradded(msg.sender, _specialty, _location);\r\n    }\r\n\r\n    function getUser() public view returns (Authentication.User memory) {\r\n        return registerInstance.getUser(msg.sender);\r\n    }\r\n\r\n    // Function to check if an address exists in the patientsList array\r\n    \r\n\r\n    modifier onlyAuthorizedDoctor(address _doctor, address _patient) {\r\n        require(\r\n            getUser().role == Authentication.Role.doctor,\r\n            \"Only doctors can submit this type \"\r\n        );\r\n        require(\r\n            contractPAInstance.isAuthorized(_doctor, _patient),\r\n            \"Unauthorized user\"\r\n        );\r\n        _;\r\n    }\r\n\r\n    function scheduleAppointment(\r\n        address _patient,\r\n        uint256 _date,\r\n        string memory _purpose\r\n    ) public onlyAuthorizedDoctor(msg.sender, _patient) {\r\n        // Ensure the appointment date is in the future\r\n        require(_date > block.timestamp, \"Invalid appointment date\");\r\n        Authentication.doc memory medecin = Authentication.doc({\r\n            name: doctors[msg.sender].firstname,\r\n            speciality: doctors[msg.sender].specialty\r\n        });\r\n        // Create the appointment\r\n        Authentication.Appointment memory newAppointment = Authentication\r\n            .Appointment({\r\n                doctor: msg.sender,\r\n                patient: _patient,\r\n                date: _date,\r\n                purpose: _purpose,\r\n                isConfirmed: true,\r\n                doctorN: medecin\r\n            });\r\n\r\n        // Add the appointment to the doctor's list and add patient to the doctor's patient list\r\n\r\n        doctors[msg.sender].patientsList.push(_patient);    \r\n        doctors[msg.sender].appointmentsList.push(newAppointment);\r\n        contractPAInstance.addAppointment(_patient, newAppointment);\r\n    }\r\n\r\n    function NextAppointments()\r\n        public\r\n        view\r\n        returns (Authentication.Appointment[] memory)\r\n    {\r\n        return doctors[msg.sender].appointmentsList;\r\n    }\r\n\r\n    // Event to log the creation of a medical record\r\n    event MedicalRecordCreated(\r\n        address indexed patient,\r\n        string diagnosis,\r\n        address indexed doctor,\r\n        string[] medicines,\r\n        string category,\r\n        string result\r\n    );\r\n\r\n    // Event to log the creation of a prescription\r\n    event PrescriptionCreated(\r\n        address indexed doctor,\r\n        address indexed patient,\r\n        string[] medicines,\r\n        bool fullyPurchased\r\n    );\r\n\r\n    // Event to log the creation of a test\r\n    event TestCreated(\r\n        address indexed patient,\r\n        string category,\r\n        string result,\r\n        bool done\r\n    );\r\n\r\n    uint256 private nonce = 0;\r\n    uint16 private newPrescriptionId;\r\n    uint16 private newRecordId;\r\n    uint16 private newTestId;\r\n\r\n    function randomId() private returns (uint16) {\r\n        nonce++;\r\n        return\r\n            uint16(\r\n                uint256(\r\n                    keccak256(\r\n                        abi.encodePacked(block.timestamp, msg.sender, nonce)\r\n                    )\r\n                ) % 65536\r\n            );\r\n    }\r\n\r\n    event PrintNewRecordId(uint16 newRecordId);\r\n\r\n    //this function should be called aftfer the creation of test or Prescription\r\n    function createMedicalRecord(\r\n        address _patient,\r\n        string memory _diagnosis,\r\n        string memory date\r\n    ) public onlyAuthorizedDoctor(msg.sender, _patient) {\r\n        newRecordId = randomId();\r\n        Authentication.doc memory medecin = Authentication.doc({\r\n            name: doctors[msg.sender].firstname,\r\n            speciality: doctors[msg.sender].specialty\r\n        });\r\n        Authentication.MedicalRecord memory newRecord = Authentication\r\n            .MedicalRecord({\r\n                id: newRecordId,\r\n                date: date,\r\n                timestamp: block.timestamp,\r\n                diagnosis: _diagnosis,\r\n                treatment: Prescriptions[newPrescriptionId], // Assurez-vous que cet ID a t utilis pour crer une prescription\r\n                test: tests[newTestId], // Assurez-vous que cet ID a t utilis pour crer un test\r\n                doctor: medecin\r\n            });\r\n\r\n        contractPAInstance.addrecordtoPatient(newRecord, _patient);\r\n        emit MedicalRecordCreated(\r\n            _patient,\r\n            _diagnosis,\r\n            msg.sender,\r\n            Prescriptions[newRecordId].medicines,\r\n            tests[newRecordId].category,\r\n            tests[newRecordId].result\r\n        );\r\n        emit PrintNewRecordId(newRecordId); // mettre l'vnement pour \"imprimer\" newRecordId\r\n    }\r\n\r\n    function createPrescription(\r\n        address _patient,\r\n        string[] memory _medicines,\r\n        bool _fullyPurchased\r\n    ) public onlyAuthorizedDoctor(msg.sender, _patient) returns (uint256) {\r\n        newPrescriptionId = randomId();\r\n        Authentication.Prescription memory newPrescription = Authentication\r\n            .Prescription({\r\n                id: newPrescriptionId,\r\n                timestamp: block.timestamp,\r\n                doctor: msg.sender,\r\n                patient: _patient,\r\n                medicines: _medicines,\r\n                fullyPurchased: _fullyPurchased\r\n            });\r\n        Prescriptions[newPrescriptionId] = newPrescription;\r\n        emit PrescriptionCreated(\r\n            msg.sender,\r\n            _patient,\r\n            _medicines,\r\n            _fullyPurchased\r\n        );\r\n        return newPrescriptionId;\r\n    }\r\n\r\n    function createTest(\r\n        address _patient,\r\n        string memory _category,\r\n        string memory _result,\r\n        bool _done\r\n    ) public onlyAuthorizedDoctor(msg.sender, _patient) returns (uint256) {\r\n        newTestId = randomId();\r\n        Authentication.Test memory newTest = Authentication.Test({\r\n            patient: _patient,\r\n            timestamp: block.timestamp,\r\n            category: _category,\r\n            result: _result,\r\n            done: _done\r\n        });\r\n        tests[newTestId] = newTest;\r\n        emit TestCreated(_patient, _category, _result, _done);\r\n        return newTestId;\r\n    }\r\n\r\n    function getFileHashFP(\r\n        address _fromPatient\r\n    ) public view returns (string memory) {\r\n        return contractPAInstance.getFileHash(msg.sender, _fromPatient);\r\n    }\r\n\r\n    function getPatientlist() public view returns (address[] memory) {\r\n        return doctors[msg.sender].patientsList;\r\n    }\r\n\r\n    // Event to emit when a request to access medical file is made\r\n    event AccessRequestMade(address requester, address patient,string publicKey,string doctorname,string role ,uint256 date);\r\n\r\n    // Function to make a request to access a patient's medical file\r\n    function requestAccess(address _patient) public {\r\n        // Emit the event to indicate the access request\r\n        emit AccessRequestMade(msg.sender, _patient,registerInstance.getUser(msg.sender).pubkey,doctors[msg.sender].firstname,\"docteur\",block.timestamp);\r\n    }\r\n}\r\n\r\n/*function isPatientInDoctor(\r\n        address _doctor,\r\n        address _targetAddress\r\n    ) public view returns (bool) {\r\n        for (uint256 i = 0; i < doctors[_doctor].patientsList.length; i++) {\r\n            if (doctors[_doctor].patientsList[i] == _targetAddress) {\r\n                return true;\r\n            }\r\n        }\r\n        return false;\r\n    }\r\n\r\n    function PatientIndex(\r\n        address _doctor,\r\n        address _patient\r\n    ) public view returns (uint256) {\r\n        for (uint256 i = 0; i < doctors[_doctor].patientsList.length; i++) {\r\n            if (doctors[_doctor].patientsList[i] == _patient) {\r\n                return i;\r\n            }\r\n        }\r\n        return 0;\r\n    } */",
  "sourcePath": "C:\\Users\\hamma\\Downloads\\blockchain-based-authentication-main\\blockchain-based-authentication-main\\contracts\\docteur.sol",
  "compiler": {
    "name": "solc",
    "version": "0.8.6+commit.11564f7e.Emscripten.clang"
  },
  "schemaVersion": "3.4.16",
  "updatedAt": "2024-05-12T12:25:42.971Z",
  "networkType": "ethereum",
  "devdoc": {
    "kind": "dev",
    "methods": {},
    "version": 1
  },
  "userdoc": {
    "kind": "user",
    "methods": {},
    "version": 1
  }
}