{
  "contractName": "Patients",
  "abi": [
    {
      "inputs": [
        {
          "internalType": "address",
          "name": "_contractBAddress",
          "type": "address"
        }
      ],
      "stateMutability": "nonpayable",
      "type": "constructor"
    },
    {
      "anonymous": false,
      "inputs": [
        {
          "indexed": true,
          "internalType": "address",
          "name": "patient",
          "type": "address"
        },
        {
          "indexed": false,
          "internalType": "uint256",
          "name": "prescriptionId",
          "type": "uint256"
        },
        {
          "indexed": false,
          "internalType": "uint256",
          "name": "timestamp",
          "type": "uint256"
        }
      ],
      "name": "OrdonnanceAchete",
      "type": "event"
    },
    {
      "anonymous": false,
      "inputs": [
        {
          "indexed": true,
          "internalType": "address",
          "name": "patient",
          "type": "address"
        },
        {
          "indexed": false,
          "internalType": "string",
          "name": "service",
          "type": "string"
        },
        {
          "indexed": false,
          "internalType": "uint256",
          "name": "timestamp",
          "type": "uint256"
        }
      ],
      "name": "RemboursementDemande",
      "type": "event"
    },
    {
      "anonymous": false,
      "inputs": [
        {
          "indexed": true,
          "internalType": "address",
          "name": "patient",
          "type": "address"
        },
        {
          "indexed": false,
          "internalType": "uint256",
          "name": "prescriptionId",
          "type": "uint256"
        }
      ],
      "name": "RemboursementDemandePrescription",
      "type": "event"
    },
    {
      "anonymous": false,
      "inputs": [
        {
          "indexed": true,
          "internalType": "address",
          "name": "patient",
          "type": "address"
        },
        {
          "indexed": true,
          "internalType": "address",
          "name": "doctor",
          "type": "address"
        },
        {
          "indexed": false,
          "internalType": "uint256",
          "name": "timestamp",
          "type": "uint256"
        }
      ],
      "name": "VisiteMedecinEffectuee",
      "type": "event"
    },
    {
      "inputs": [
        {
          "internalType": "address",
          "name": "",
          "type": "address"
        }
      ],
      "name": "patients",
      "outputs": [
        {
          "internalType": "string",
          "name": "firstname",
          "type": "string"
        },
        {
          "internalType": "string",
          "name": "lastname",
          "type": "string"
        },
        {
          "internalType": "uint256",
          "name": "age",
          "type": "uint256"
        },
        {
          "internalType": "string",
          "name": "location",
          "type": "string"
        },
        {
          "internalType": "string",
          "name": "phone",
          "type": "string"
        },
        {
          "internalType": "string",
          "name": "dossierHash",
          "type": "string"
        },
        {
          "internalType": "string",
          "name": "PublicKey",
          "type": "string"
        }
      ],
      "stateMutability": "view",
      "type": "function",
      "constant": true
    },
    {
      "inputs": [
        {
          "internalType": "string",
          "name": "_firstname",
          "type": "string"
        },
        {
          "internalType": "string",
          "name": "_lastname",
          "type": "string"
        },
        {
          "internalType": "uint256",
          "name": "_age",
          "type": "uint256"
        },
        {
          "internalType": "string",
          "name": "_dossierHash",
          "type": "string"
        },
        {
          "internalType": "string",
          "name": "location",
          "type": "string"
        },
        {
          "internalType": "string",
          "name": "phone",
          "type": "string"
        }
      ],
      "name": "registerUserDetails",
      "outputs": [],
      "stateMutability": "nonpayable",
      "type": "function"
    },
    {
      "inputs": [],
      "name": "getUser",
      "outputs": [
        {
          "components": [
            {
              "internalType": "string",
              "name": "signatureHash",
              "type": "string"
            },
            {
              "internalType": "enum Authentication.Role",
              "name": "role",
              "type": "uint8"
            },
            {
              "internalType": "string",
              "name": "pubkey",
              "type": "string"
            },
            {
              "internalType": "address",
              "name": "UserAddress",
              "type": "address"
            }
          ],
          "internalType": "struct Authentication.User",
          "name": "",
          "type": "tuple"
        }
      ],
      "stateMutability": "view",
      "type": "function",
      "constant": true
    },
    {
      "inputs": [
        {
          "internalType": "address",
          "name": "_patient",
          "type": "address"
        }
      ],
      "name": "getPatients",
      "outputs": [
        {
          "components": [
            {
              "internalType": "string",
              "name": "firstname",
              "type": "string"
            },
            {
              "internalType": "string",
              "name": "lastname",
              "type": "string"
            },
            {
              "internalType": "uint256",
              "name": "age",
              "type": "uint256"
            },
            {
              "internalType": "string",
              "name": "location",
              "type": "string"
            },
            {
              "internalType": "string",
              "name": "phone",
              "type": "string"
            },
            {
              "internalType": "address[]",
              "name": "authorizedUsers",
              "type": "address[]"
            },
            {
              "internalType": "string",
              "name": "dossierHash",
              "type": "string"
            },
            {
              "internalType": "string",
              "name": "PublicKey",
              "type": "string"
            },
            {
              "components": [
                {
                  "internalType": "uint256",
                  "name": "id",
                  "type": "uint256"
                },
                {
                  "internalType": "uint256",
                  "name": "timestamp",
                  "type": "uint256"
                },
                {
                  "internalType": "string",
                  "name": "date",
                  "type": "string"
                },
                {
                  "internalType": "string",
                  "name": "diagnosis",
                  "type": "string"
                },
                {
                  "components": [
                    {
                      "internalType": "uint256",
                      "name": "timestamp",
                      "type": "uint256"
                    },
                    {
                      "internalType": "address",
                      "name": "doctor",
                      "type": "address"
                    },
                    {
                      "internalType": "address",
                      "name": "patient",
                      "type": "address"
                    },
                    {
                      "internalType": "string[]",
                      "name": "medicines",
                      "type": "string[]"
                    },
                    {
                      "internalType": "bool",
                      "name": "fullyPurchased",
                      "type": "bool"
                    }
                  ],
                  "internalType": "struct Authentication.Prescription",
                  "name": "treatment",
                  "type": "tuple"
                },
                {
                  "components": [
                    {
                      "internalType": "address",
                      "name": "patient",
                      "type": "address"
                    },
                    {
                      "internalType": "uint256",
                      "name": "timestamp",
                      "type": "uint256"
                    },
                    {
                      "internalType": "string",
                      "name": "category",
                      "type": "string"
                    },
                    {
                      "internalType": "string",
                      "name": "result",
                      "type": "string"
                    },
                    {
                      "internalType": "bool",
                      "name": "done",
                      "type": "bool"
                    }
                  ],
                  "internalType": "struct Authentication.Test",
                  "name": "test",
                  "type": "tuple"
                },
                {
                  "components": [
                    {
                      "internalType": "string",
                      "name": "name",
                      "type": "string"
                    },
                    {
                      "internalType": "string",
                      "name": "speciality",
                      "type": "string"
                    }
                  ],
                  "internalType": "struct Authentication.doc",
                  "name": "doctor",
                  "type": "tuple"
                }
              ],
              "internalType": "struct Authentication.MedicalRecord[]",
              "name": "record",
              "type": "tuple[]"
            },
            {
              "components": [
                {
                  "internalType": "address",
                  "name": "doctor",
                  "type": "address"
                },
                {
                  "internalType": "address",
                  "name": "patient",
                  "type": "address"
                },
                {
                  "internalType": "uint256",
                  "name": "date",
                  "type": "uint256"
                },
                {
                  "internalType": "string",
                  "name": "purpose",
                  "type": "string"
                },
                {
                  "internalType": "bool",
                  "name": "isConfirmed",
                  "type": "bool"
                },
                {
                  "components": [
                    {
                      "internalType": "string",
                      "name": "name",
                      "type": "string"
                    },
                    {
                      "internalType": "string",
                      "name": "speciality",
                      "type": "string"
                    }
                  ],
                  "internalType": "struct Authentication.doc",
                  "name": "doctorN",
                  "type": "tuple"
                }
              ],
              "internalType": "struct Authentication.Appointment[]",
              "name": "Appointmentslist",
              "type": "tuple[]"
            }
          ],
          "internalType": "struct Patients.Patient",
          "name": "",
          "type": "tuple"
        }
      ],
      "stateMutability": "view",
      "type": "function",
      "constant": true
    },
    {
      "inputs": [
        {
          "internalType": "address",
          "name": "_patient",
          "type": "address"
        },
        {
          "components": [
            {
              "internalType": "address",
              "name": "doctor",
              "type": "address"
            },
            {
              "internalType": "address",
              "name": "patient",
              "type": "address"
            },
            {
              "internalType": "uint256",
              "name": "date",
              "type": "uint256"
            },
            {
              "internalType": "string",
              "name": "purpose",
              "type": "string"
            },
            {
              "internalType": "bool",
              "name": "isConfirmed",
              "type": "bool"
            },
            {
              "components": [
                {
                  "internalType": "string",
                  "name": "name",
                  "type": "string"
                },
                {
                  "internalType": "string",
                  "name": "speciality",
                  "type": "string"
                }
              ],
              "internalType": "struct Authentication.doc",
              "name": "doctorN",
              "type": "tuple"
            }
          ],
          "internalType": "struct Authentication.Appointment",
          "name": "newAppointment",
          "type": "tuple"
        }
      ],
      "name": "addAppointment",
      "outputs": [],
      "stateMutability": "nonpayable",
      "type": "function"
    },
    {
      "inputs": [
        {
          "components": [
            {
              "internalType": "uint256",
              "name": "id",
              "type": "uint256"
            },
            {
              "internalType": "uint256",
              "name": "timestamp",
              "type": "uint256"
            },
            {
              "internalType": "string",
              "name": "date",
              "type": "string"
            },
            {
              "internalType": "string",
              "name": "diagnosis",
              "type": "string"
            },
            {
              "components": [
                {
                  "internalType": "uint256",
                  "name": "timestamp",
                  "type": "uint256"
                },
                {
                  "internalType": "address",
                  "name": "doctor",
                  "type": "address"
                },
                {
                  "internalType": "address",
                  "name": "patient",
                  "type": "address"
                },
                {
                  "internalType": "string[]",
                  "name": "medicines",
                  "type": "string[]"
                },
                {
                  "internalType": "bool",
                  "name": "fullyPurchased",
                  "type": "bool"
                }
              ],
              "internalType": "struct Authentication.Prescription",
              "name": "treatment",
              "type": "tuple"
            },
            {
              "components": [
                {
                  "internalType": "address",
                  "name": "patient",
                  "type": "address"
                },
                {
                  "internalType": "uint256",
                  "name": "timestamp",
                  "type": "uint256"
                },
                {
                  "internalType": "string",
                  "name": "category",
                  "type": "string"
                },
                {
                  "internalType": "string",
                  "name": "result",
                  "type": "string"
                },
                {
                  "internalType": "bool",
                  "name": "done",
                  "type": "bool"
                }
              ],
              "internalType": "struct Authentication.Test",
              "name": "test",
              "type": "tuple"
            },
            {
              "components": [
                {
                  "internalType": "string",
                  "name": "name",
                  "type": "string"
                },
                {
                  "internalType": "string",
                  "name": "speciality",
                  "type": "string"
                }
              ],
              "internalType": "struct Authentication.doc",
              "name": "doctor",
              "type": "tuple"
            }
          ],
          "internalType": "struct Authentication.MedicalRecord",
          "name": "record",
          "type": "tuple"
        },
        {
          "internalType": "address",
          "name": "_patient",
          "type": "address"
        }
      ],
      "name": "addrecordtoPatient",
      "outputs": [],
      "stateMutability": "nonpayable",
      "type": "function"
    },
    {
      "inputs": [
        {
          "internalType": "address",
          "name": "_patient",
          "type": "address"
        },
        {
          "internalType": "uint256",
          "name": "_id",
          "type": "uint256"
        }
      ],
      "name": "getRecordById",
      "outputs": [
        {
          "components": [
            {
              "internalType": "uint256",
              "name": "id",
              "type": "uint256"
            },
            {
              "internalType": "uint256",
              "name": "timestamp",
              "type": "uint256"
            },
            {
              "internalType": "string",
              "name": "date",
              "type": "string"
            },
            {
              "internalType": "string",
              "name": "diagnosis",
              "type": "string"
            },
            {
              "components": [
                {
                  "internalType": "uint256",
                  "name": "timestamp",
                  "type": "uint256"
                },
                {
                  "internalType": "address",
                  "name": "doctor",
                  "type": "address"
                },
                {
                  "internalType": "address",
                  "name": "patient",
                  "type": "address"
                },
                {
                  "internalType": "string[]",
                  "name": "medicines",
                  "type": "string[]"
                },
                {
                  "internalType": "bool",
                  "name": "fullyPurchased",
                  "type": "bool"
                }
              ],
              "internalType": "struct Authentication.Prescription",
              "name": "treatment",
              "type": "tuple"
            },
            {
              "components": [
                {
                  "internalType": "address",
                  "name": "patient",
                  "type": "address"
                },
                {
                  "internalType": "uint256",
                  "name": "timestamp",
                  "type": "uint256"
                },
                {
                  "internalType": "string",
                  "name": "category",
                  "type": "string"
                },
                {
                  "internalType": "string",
                  "name": "result",
                  "type": "string"
                },
                {
                  "internalType": "bool",
                  "name": "done",
                  "type": "bool"
                }
              ],
              "internalType": "struct Authentication.Test",
              "name": "test",
              "type": "tuple"
            },
            {
              "components": [
                {
                  "internalType": "string",
                  "name": "name",
                  "type": "string"
                },
                {
                  "internalType": "string",
                  "name": "speciality",
                  "type": "string"
                }
              ],
              "internalType": "struct Authentication.doc",
              "name": "doctor",
              "type": "tuple"
            }
          ],
          "internalType": "struct Authentication.MedicalRecord",
          "name": "",
          "type": "tuple"
        }
      ],
      "stateMutability": "view",
      "type": "function",
      "constant": true
    },
    {
      "inputs": [
        {
          "internalType": "address",
          "name": "_patient",
          "type": "address"
        },
        {
          "internalType": "uint256",
          "name": "i",
          "type": "uint256"
        }
      ],
      "name": "printpatientrecord",
      "outputs": [
        {
          "components": [
            {
              "internalType": "uint256",
              "name": "timestamp",
              "type": "uint256"
            },
            {
              "internalType": "address",
              "name": "doctor",
              "type": "address"
            },
            {
              "internalType": "address",
              "name": "patient",
              "type": "address"
            },
            {
              "internalType": "string[]",
              "name": "medicines",
              "type": "string[]"
            },
            {
              "internalType": "bool",
              "name": "fullyPurchased",
              "type": "bool"
            }
          ],
          "internalType": "struct Authentication.Prescription",
          "name": "",
          "type": "tuple"
        }
      ],
      "stateMutability": "view",
      "type": "function",
      "constant": true
    },
    {
      "inputs": [
        {
          "internalType": "address",
          "name": "_patient",
          "type": "address"
        },
        {
          "internalType": "uint256",
          "name": "_id",
          "type": "uint256"
        },
        {
          "internalType": "string",
          "name": "_result",
          "type": "string"
        }
      ],
      "name": "addTestResultToPatient",
      "outputs": [],
      "stateMutability": "nonpayable",
      "type": "function"
    },
    {
      "inputs": [
        {
          "internalType": "uint256",
          "name": "prescriptionId",
          "type": "uint256"
        },
        {
          "internalType": "uint256",
          "name": "recordid",
          "type": "uint256"
        }
      ],
      "name": "demanderRemboursementPrescription",
      "outputs": [],
      "stateMutability": "nonpayable",
      "type": "function"
    },
    {
      "inputs": [
        {
          "internalType": "address",
          "name": "_user",
          "type": "address"
        }
      ],
      "name": "AuthorizeUser",
      "outputs": [],
      "stateMutability": "nonpayable",
      "type": "function"
    },
    {
      "inputs": [
        {
          "internalType": "address",
          "name": "_user",
          "type": "address"
        }
      ],
      "name": "removeAuthorizedUser",
      "outputs": [],
      "stateMutability": "nonpayable",
      "type": "function"
    },
    {
      "inputs": [
        {
          "internalType": "string",
          "name": "_ipfsfilehash",
          "type": "string"
        },
        {
          "internalType": "string",
          "name": "_pubkey",
          "type": "string"
        }
      ],
      "name": "StorePatientFileHash",
      "outputs": [
        {
          "internalType": "bool",
          "name": "",
          "type": "bool"
        }
      ],
      "stateMutability": "nonpayable",
      "type": "function"
    },
    {
      "inputs": [
        {
          "internalType": "address",
          "name": "_fromPatient",
          "type": "address"
        }
      ],
      "name": "getAuthorizedUsers",
      "outputs": [
        {
          "internalType": "address[]",
          "name": "",
          "type": "address[]"
        }
      ],
      "stateMutability": "view",
      "type": "function",
      "constant": true
    },
    {
      "inputs": [
        {
          "internalType": "address",
          "name": "_user",
          "type": "address"
        },
        {
          "internalType": "address",
          "name": "_fromPatient",
          "type": "address"
        }
      ],
      "name": "isAuthorized",
      "outputs": [
        {
          "internalType": "bool",
          "name": "",
          "type": "bool"
        }
      ],
      "stateMutability": "view",
      "type": "function",
      "constant": true
    },
    {
      "inputs": [
        {
          "internalType": "address",
          "name": "_user",
          "type": "address"
        },
        {
          "internalType": "address",
          "name": "_fromPatient",
          "type": "address"
        }
      ],
      "name": "getFileHash",
      "outputs": [
        {
          "internalType": "string",
          "name": "",
          "type": "string"
        }
      ],
      "stateMutability": "view",
      "type": "function",
      "constant": true
    },
    {
      "inputs": [],
      "name": "visualiserProchainsRendezVous",
      "outputs": [
        {
          "components": [
            {
              "internalType": "address",
              "name": "doctor",
              "type": "address"
            },
            {
              "internalType": "address",
              "name": "patient",
              "type": "address"
            },
            {
              "internalType": "uint256",
              "name": "date",
              "type": "uint256"
            },
            {
              "internalType": "string",
              "name": "purpose",
              "type": "string"
            },
            {
              "internalType": "bool",
              "name": "isConfirmed",
              "type": "bool"
            },
            {
              "components": [
                {
                  "internalType": "string",
                  "name": "name",
                  "type": "string"
                },
                {
                  "internalType": "string",
                  "name": "speciality",
                  "type": "string"
                }
              ],
              "internalType": "struct Authentication.doc",
              "name": "doctorN",
              "type": "tuple"
            }
          ],
          "internalType": "struct Authentication.Appointment[]",
          "name": "",
          "type": "tuple[]"
        }
      ],
      "stateMutability": "view",
      "type": "function",
      "constant": true
    },
    {
      "inputs": [
        {
          "internalType": "address",
          "name": "_patient",
          "type": "address"
        },
        {
          "internalType": "uint256",
          "name": "prescriptionId",
          "type": "uint256"
        }
      ],
      "name": "notifierAchatOrdonnance",
      "outputs": [],
      "stateMutability": "nonpayable",
      "type": "function"
    },
    {
      "inputs": [
        {
          "internalType": "address",
          "name": "_patient",
          "type": "address"
        },
        {
          "internalType": "address",
          "name": "_doctor",
          "type": "address"
        }
      ],
      "name": "notifierVisiteMedecin",
      "outputs": [],
      "stateMutability": "nonpayable",
      "type": "function"
    },
    {
      "inputs": [
        {
          "internalType": "address",
          "name": "_patient",
          "type": "address"
        },
        {
          "internalType": "string",
          "name": "_service",
          "type": "string"
        }
      ],
      "name": "notifierDemandeRemboursement",
      "outputs": [],
      "stateMutability": "nonpayable",
      "type": "function"
    }
  ],
  "bytecode": "0x60806040523480156200001157600080fd5b506040516200593938038062005939833981810160405281019062000037919062000095565b806000806101000a81548173ffffffffffffffffffffffffffffffffffffffff021916908373ffffffffffffffffffffffffffffffffffffffff160217905550506200011a565b6000815190506200008f8162000100565b92915050565b600060208284031215620000ae57620000ad620000fb565b5b6000620000be848285016200007e565b91505092915050565b6000620000d482620000db565b9050919050565b600073ffffffffffffffffffffffffffffffffffffffff82169050919050565b600080fd5b6200010b81620000c7565b81146200011757600080fd5b50565b61580f806200012a6000396000f3fe608060405234801561001057600080fd5b506004361061012c5760003560e01c8063755ca919116100ad578063a88f928c11610071578063a88f928c14610357578063bda06c4814610373578063c22037fd146103a3578063c6cc3885146103bf578063ce4f5d42146103db5761012c565b8063755ca919146102b5578063832880e7146102e557806389fabc80146103035780638a0da0941461031f57806396f548c11461033b5761012c565b80634e6ddf66116100f45780634e6ddf66146101ff5780635e43b7f41461021b578063618062ce1461024b578063641038cd1461026957806365e4ad9e146102855761012c565b80630869cfbc146101315780631176c48a1461016757806320dbc77f146101975780632679ccca146101c75780632cf58ac2146101e3575b600080fd5b61014b600480360381019061014691906140e3565b61040b565b60405161015e9796959493929190614f60565b60405180910390f35b610181600480360381019061017c9190614208565b61077d565b60405161018e919061510d565b60405180910390f35b6101b160048036038101906101ac91906140e3565b6109a7565b6040516101be9190614edf565b60405180910390f35b6101e160048036038101906101dc9190614208565b610a77565b005b6101fd60048036038101906101f891906140e3565b610acb565b005b6102196004803603810190610214919061432f565b610d34565b005b610235600480360381019061023091906140e3565b610e78565b60405161024291906150eb565b60405180910390f35b610253611c10565b6040516102609190614f01565b60405180910390f35b610283600480360381019061027e9190614448565b611f50565b005b61029f600480360381019061029a9190614110565b6121eb565b6040516102ac9190614f23565b60405180910390f35b6102cf60048036038101906102ca9190614208565b61227e565b6040516102dc91906150c9565b60405180910390f35b6102ed6129ee565b6040516102fa919061512f565b60405180910390f35b61031d600480360381019061031891906140e3565b612aa9565b005b610339600480360381019061033491906141ac565b612e59565b005b610355600480360381019061035091906144ed565b612fe5565b005b610371600480360381019061036c9190614150565b6130ec565b005b61038d600480360381019061038891906142b7565b613140565b60405161039a9190614f23565b60405180910390f35b6103bd60048036038101906103b89190614248565b6131fa565b005b6103d960048036038101906103d49190614110565b613580565b005b6103f560048036038101906103f09190614110565b6135e9565b6040516104029190614f3e565b60405180910390f35b600160205280600052604060002060009150905080600001805461042e90615483565b80601f016020809104026020016040519081016040528092919081815260200182805461045a90615483565b80156104a75780601f1061047c576101008083540402835291602001916104a7565b820191906000526020600020905b81548152906001019060200180831161048a57829003601f168201915b5050505050908060010180546104bc90615483565b80601f01602080910402602001604051908101604052809291908181526020018280546104e890615483565b80156105355780601f1061050a57610100808354040283529160200191610535565b820191906000526020600020905b81548152906001019060200180831161051857829003601f168201915b50505050509080600201549080600301805461055090615483565b80601f016020809104026020016040519081016040528092919081815260200182805461057c90615483565b80156105c95780601f1061059e576101008083540402835291602001916105c9565b820191906000526020600020905b8154815290600101906020018083116105ac57829003601f168201915b5050505050908060040180546105de90615483565b80601f016020809104026020016040519081016040528092919081815260200182805461060a90615483565b80156106575780601f1061062c57610100808354040283529160200191610657565b820191906000526020600020905b81548152906001019060200180831161063a57829003601f168201915b50505050509080600601805461066c90615483565b80601f016020809104026020016040519081016040528092919081815260200182805461069890615483565b80156106e55780601f106106ba576101008083540402835291602001916106e5565b820191906000526020600020905b8154815290600101906020018083116106c857829003601f168201915b5050505050908060070180546106fa90615483565b80601f016020809104026020016040519081016040528092919081815260200182805461072690615483565b80156107735780601f1061074857610100808354040283529160200191610773565b820191906000526020600020905b81548152906001019060200180831161075657829003601f168201915b5050505050905087565b61078561370b565b600160008473ffffffffffffffffffffffffffffffffffffffff1673ffffffffffffffffffffffffffffffffffffffff16815260200190815260200160002060080182815481106107d9576107d86155eb565b5b90600052602060002090601002016004016040518060a0016040529081600082015481526020016001820160009054906101000a900473ffffffffffffffffffffffffffffffffffffffff1673ffffffffffffffffffffffffffffffffffffffff1673ffffffffffffffffffffffffffffffffffffffff1681526020016002820160009054906101000a900473ffffffffffffffffffffffffffffffffffffffff1673ffffffffffffffffffffffffffffffffffffffff1673ffffffffffffffffffffffffffffffffffffffff16815260200160038201805480602002602001604051908101604052809291908181526020016000905b8282101561097c5783829060005260206000200180546108ef90615483565b80601f016020809104026020016040519081016040528092919081815260200182805461091b90615483565b80156109685780601f1061093d57610100808354040283529160200191610968565b820191906000526020600020905b81548152906001019060200180831161094b57829003601f168201915b5050505050815260200190600101906108d0565b5050505081526020016004820160009054906101000a900460ff161515151581525050905092915050565b6060600160008373ffffffffffffffffffffffffffffffffffffffff1673ffffffffffffffffffffffffffffffffffffffff168152602001908152602001600020600501805480602002602001604051908101604052809291908181526020018280548015610a6b57602002820191906000526020600020905b8160009054906101000a900473ffffffffffffffffffffffffffffffffffffffff1673ffffffffffffffffffffffffffffffffffffffff1681526020019060010190808311610a21575b50505050509050919050565b8173ffffffffffffffffffffffffffffffffffffffff167f13151214deac50762a7f9c04662d98bd1b46334dddb1a30853039ad7bc46adb78242604051610abf92919061516c565b60405180910390a25050565b60006005811115610adf57610ade61555e565b5b610ae76129ee565b602001516005811115610afd57610afc61555e565b5b14610b3d576040517f08c379a0000000000000000000000000000000000000000000000000000000008152600401610b3490615069565b60405180910390fd5b60005b600160003373ffffffffffffffffffffffffffffffffffffffff1673ffffffffffffffffffffffffffffffffffffffff16815260200190815260200160002060050180549050811015610c8d578173ffffffffffffffffffffffffffffffffffffffff16600160003373ffffffffffffffffffffffffffffffffffffffff1673ffffffffffffffffffffffffffffffffffffffff1681526020019081526020016000206005018281548110610bf857610bf76155eb565b5b9060005260206000200160009054906101000a900473ffffffffffffffffffffffffffffffffffffffff1673ffffffffffffffffffffffffffffffffffffffff161415610c7a576040517f08c379a0000000000000000000000000000000000000000000000000000000008152600401610c7190615089565b60405180910390fd5b8080610c85906154e6565b915050610b40565b50600160003373ffffffffffffffffffffffffffffffffffffffff1673ffffffffffffffffffffffffffffffffffffffff168152602001908152602001600020600501819080600181540180825580915050600190039060005260206000200160009091909190916101000a81548173ffffffffffffffffffffffffffffffffffffffff021916908373ffffffffffffffffffffffffffffffffffffffff16021790555050565b60006005811115610d4857610d4761555e565b5b610d506129ee565b602001516005811115610d6657610d6561555e565b5b14610da6576040517f08c379a0000000000000000000000000000000000000000000000000000000008152600401610d9d90615069565b60405180910390fd5b6000600160003373ffffffffffffffffffffffffffffffffffffffff1673ffffffffffffffffffffffffffffffffffffffff168152602001908152602001600020905086816000019080519060200190610e01929190613768565b5085816001019080519060200190610e1a929190613768565b5084816002018190555083816006019080519060200190610e3c929190613768565b5082816003019080519060200190610e55929190613768565b5081816004019080519060200190610e6e929190613768565b5050505050505050565b610e806137ee565b600160008373ffffffffffffffffffffffffffffffffffffffff1673ffffffffffffffffffffffffffffffffffffffff16815260200190815260200160002060405180610140016040529081600082018054610edb90615483565b80601f0160208091040260200160405190810160405280929190818152602001828054610f0790615483565b8015610f545780601f10610f2957610100808354040283529160200191610f54565b820191906000526020600020905b815481529060010190602001808311610f3757829003601f168201915b50505050508152602001600182018054610f6d90615483565b80601f0160208091040260200160405190810160405280929190818152602001828054610f9990615483565b8015610fe65780601f10610fbb57610100808354040283529160200191610fe6565b820191906000526020600020905b815481529060010190602001808311610fc957829003601f168201915b505050505081526020016002820154815260200160038201805461100990615483565b80601f016020809104026020016040519081016040528092919081815260200182805461103590615483565b80156110825780601f1061105757610100808354040283529160200191611082565b820191906000526020600020905b81548152906001019060200180831161106557829003601f168201915b5050505050815260200160048201805461109b90615483565b80601f01602080910402602001604051908101604052809291908181526020018280546110c790615483565b80156111145780601f106110e957610100808354040283529160200191611114565b820191906000526020600020905b8154815290600101906020018083116110f757829003601f168201915b50505050508152602001600582018054806020026020016040519081016040528092919081815260200182805480156111a257602002820191906000526020600020905b8160009054906101000a900473ffffffffffffffffffffffffffffffffffffffff1673ffffffffffffffffffffffffffffffffffffffff1681526020019060010190808311611158575b505050505081526020016006820180546111bb90615483565b80601f01602080910402602001604051908101604052809291908181526020018280546111e790615483565b80156112345780601f1061120957610100808354040283529160200191611234565b820191906000526020600020905b81548152906001019060200180831161121757829003601f168201915b5050505050815260200160078201805461124d90615483565b80601f016020809104026020016040519081016040528092919081815260200182805461127990615483565b80156112c65780601f1061129b576101008083540402835291602001916112c6565b820191906000526020600020905b8154815290600101906020018083116112a957829003601f168201915b5050505050815260200160088201805480602002602001604051908101604052809291908181526020016000905b8282101561190757838290600052602060002090601002016040518060e0016040529081600082015481526020016001820154815260200160028201805461133b90615483565b80601f016020809104026020016040519081016040528092919081815260200182805461136790615483565b80156113b45780601f10611389576101008083540402835291602001916113b4565b820191906000526020600020905b81548152906001019060200180831161139757829003601f168201915b505050505081526020016003820180546113cd90615483565b80601f01602080910402602001604051908101604052809291908181526020018280546113f990615483565b80156114465780601f1061141b57610100808354040283529160200191611446565b820191906000526020600020905b81548152906001019060200180831161142957829003601f168201915b50505050508152602001600482016040518060a0016040529081600082015481526020016001820160009054906101000a900473ffffffffffffffffffffffffffffffffffffffff1673ffffffffffffffffffffffffffffffffffffffff1673ffffffffffffffffffffffffffffffffffffffff1681526020016002820160009054906101000a900473ffffffffffffffffffffffffffffffffffffffff1673ffffffffffffffffffffffffffffffffffffffff1673ffffffffffffffffffffffffffffffffffffffff16815260200160038201805480602002602001604051908101604052809291908181526020016000905b828210156115e657838290600052602060002001805461155990615483565b80601f016020809104026020016040519081016040528092919081815260200182805461158590615483565b80156115d25780601f106115a7576101008083540402835291602001916115d2565b820191906000526020600020905b8154815290600101906020018083116115b557829003601f168201915b50505050508152602001906001019061153a565b5050505081526020016004820160009054906101000a900460ff1615151515815250508152602001600982016040518060a00160405290816000820160009054906101000a900473ffffffffffffffffffffffffffffffffffffffff1673ffffffffffffffffffffffffffffffffffffffff1673ffffffffffffffffffffffffffffffffffffffff1681526020016001820154815260200160028201805461168d90615483565b80601f01602080910402602001604051908101604052809291908181526020018280546116b990615483565b80156117065780601f106116db57610100808354040283529160200191611706565b820191906000526020600020905b8154815290600101906020018083116116e957829003601f168201915b5050505050815260200160038201805461171f90615483565b80601f016020809104026020016040519081016040528092919081815260200182805461174b90615483565b80156117985780601f1061176d57610100808354040283529160200191611798565b820191906000526020600020905b81548152906001019060200180831161177b57829003601f168201915b505050505081526020016004820160009054906101000a900460ff1615151515815250508152602001600e82016040518060400160405290816000820180546117e090615483565b80601f016020809104026020016040519081016040528092919081815260200182805461180c90615483565b80156118595780601f1061182e57610100808354040283529160200191611859565b820191906000526020600020905b81548152906001019060200180831161183c57829003601f168201915b5050505050815260200160018201805461187290615483565b80601f016020809104026020016040519081016040528092919081815260200182805461189e90615483565b80156118eb5780601f106118c0576101008083540402835291602001916118eb565b820191906000526020600020905b8154815290600101906020018083116118ce57829003601f168201915b50505050508152505081525050815260200190600101906112f4565b50505050815260200160098201805480602002602001604051908101604052809291908181526020016000905b82821015611c0157838290600052602060002090600702016040518060c00160405290816000820160009054906101000a900473ffffffffffffffffffffffffffffffffffffffff1673ffffffffffffffffffffffffffffffffffffffff1673ffffffffffffffffffffffffffffffffffffffff1681526020016001820160009054906101000a900473ffffffffffffffffffffffffffffffffffffffff1673ffffffffffffffffffffffffffffffffffffffff1673ffffffffffffffffffffffffffffffffffffffff16815260200160028201548152602001600382018054611a1d90615483565b80601f0160208091040260200160405190810160405280929190818152602001828054611a4990615483565b8015611a965780601f10611a6b57610100808354040283529160200191611a96565b820191906000526020600020905b815481529060010190602001808311611a7957829003601f168201915b505050505081526020016004820160009054906101000a900460ff1615151515815260200160058201604051806040016040529081600082018054611ada90615483565b80601f0160208091040260200160405190810160405280929190818152602001828054611b0690615483565b8015611b535780601f10611b2857610100808354040283529160200191611b53565b820191906000526020600020905b815481529060010190602001808311611b3657829003601f168201915b50505050508152602001600182018054611b6c90615483565b80601f0160208091040260200160405190810160405280929190818152602001828054611b9890615483565b8015611be55780601f10611bba57610100808354040283529160200191611be5565b820191906000526020600020905b815481529060010190602001808311611bc857829003601f168201915b5050505050815250508152505081526020019060010190611934565b50505050815250509050919050565b60606000600160003373ffffffffffffffffffffffffffffffffffffffff1673ffffffffffffffffffffffffffffffffffffffff168152602001908152602001600020905080600901805480602002602001604051908101604052809291908181526020016000905b82821015611f4657838290600052602060002090600702016040518060c00160405290816000820160009054906101000a900473ffffffffffffffffffffffffffffffffffffffff1673ffffffffffffffffffffffffffffffffffffffff1673ffffffffffffffffffffffffffffffffffffffff1681526020016001820160009054906101000a900473ffffffffffffffffffffffffffffffffffffffff1673ffffffffffffffffffffffffffffffffffffffff1673ffffffffffffffffffffffffffffffffffffffff16815260200160028201548152602001600382018054611d6290615483565b80601f0160208091040260200160405190810160405280929190818152602001828054611d8e90615483565b8015611ddb5780601f10611db057610100808354040283529160200191611ddb565b820191906000526020600020905b815481529060010190602001808311611dbe57829003601f168201915b505050505081526020016004820160009054906101000a900460ff1615151515815260200160058201604051806040016040529081600082018054611e1f90615483565b80601f0160208091040260200160405190810160405280929190818152602001828054611e4b90615483565b8015611e985780601f10611e6d57610100808354040283529160200191611e98565b820191906000526020600020905b815481529060010190602001808311611e7b57829003601f168201915b50505050508152602001600182018054611eb190615483565b80601f0160208091040260200160405190810160405280929190818152602001828054611edd90615483565b8015611f2a5780601f10611eff57610100808354040283529160200191611f2a565b820191906000526020600020905b815481529060010190602001808311611f0d57829003601f168201915b5050505050815250508152505081526020019060010190611c79565b5050505091505090565b600160008273ffffffffffffffffffffffffffffffffffffffff1673ffffffffffffffffffffffffffffffffffffffff16815260200190815260200160002060080182908060018154018082558091505060019003906000526020600020906010020160009091909190915060008201518160000155602082015181600101556040820151816002019080519060200190611fec929190613768565b506060820151816003019080519060200190612009929190613768565b506080820151816004016000820151816000015560208201518160010160006101000a81548173ffffffffffffffffffffffffffffffffffffffff021916908373ffffffffffffffffffffffffffffffffffffffff16021790555060408201518160020160006101000a81548173ffffffffffffffffffffffffffffffffffffffff021916908373ffffffffffffffffffffffffffffffffffffffff16021790555060608201518160030190805190602001906120c7929190613841565b5060808201518160040160006101000a81548160ff021916908315150217905550505060a08201518160090160008201518160000160006101000a81548173ffffffffffffffffffffffffffffffffffffffff021916908373ffffffffffffffffffffffffffffffffffffffff160217905550602082015181600101556040820151816002019080519060200190612160929190613768565b50606082015181600301908051906020019061217d929190613768565b5060808201518160040160006101000a81548160ff021916908315150217905550505060c082015181600e0160008201518160000190805190602001906121c5929190613768565b5060208201518160010190805190602001906121e2929190613768565b50505050505050565b6000806121f7836109a7565b905060005b8151811015612271578473ffffffffffffffffffffffffffffffffffffffff1682828151811061222f5761222e6155eb565b5b602002602001015173ffffffffffffffffffffffffffffffffffffffff16141561225e57600192505050612278565b8080612269906154e6565b9150506121fc565b5060009150505b92915050565b6122866138a1565b60005b600160008573ffffffffffffffffffffffffffffffffffffffff1673ffffffffffffffffffffffffffffffffffffffff168152602001908152602001600020600801805490508110156129ac5782600160008673ffffffffffffffffffffffffffffffffffffffff1673ffffffffffffffffffffffffffffffffffffffff168152602001908152602001600020600801828154811061232b5761232a6155eb565b5b906000526020600020906010020160000154141561299957600160008573ffffffffffffffffffffffffffffffffffffffff1673ffffffffffffffffffffffffffffffffffffffff1681526020019081526020016000206008018181548110612397576123966155eb565b5b90600052602060002090601002016040518060e001604052908160008201548152602001600182015481526020016002820180546123d490615483565b80601f016020809104026020016040519081016040528092919081815260200182805461240090615483565b801561244d5780601f106124225761010080835404028352916020019161244d565b820191906000526020600020905b81548152906001019060200180831161243057829003601f168201915b5050505050815260200160038201805461246690615483565b80601f016020809104026020016040519081016040528092919081815260200182805461249290615483565b80156124df5780601f106124b4576101008083540402835291602001916124df565b820191906000526020600020905b8154815290600101906020018083116124c257829003601f168201915b50505050508152602001600482016040518060a0016040529081600082015481526020016001820160009054906101000a900473ffffffffffffffffffffffffffffffffffffffff1673ffffffffffffffffffffffffffffffffffffffff1673ffffffffffffffffffffffffffffffffffffffff1681526020016002820160009054906101000a900473ffffffffffffffffffffffffffffffffffffffff1673ffffffffffffffffffffffffffffffffffffffff1673ffffffffffffffffffffffffffffffffffffffff16815260200160038201805480602002602001604051908101604052809291908181526020016000905b8282101561267f5783829060005260206000200180546125f290615483565b80601f016020809104026020016040519081016040528092919081815260200182805461261e90615483565b801561266b5780601f106126405761010080835404028352916020019161266b565b820191906000526020600020905b81548152906001019060200180831161264e57829003601f168201915b5050505050815260200190600101906125d3565b5050505081526020016004820160009054906101000a900460ff1615151515815250508152602001600982016040518060a00160405290816000820160009054906101000a900473ffffffffffffffffffffffffffffffffffffffff1673ffffffffffffffffffffffffffffffffffffffff1673ffffffffffffffffffffffffffffffffffffffff1681526020016001820154815260200160028201805461272690615483565b80601f016020809104026020016040519081016040528092919081815260200182805461275290615483565b801561279f5780601f106127745761010080835404028352916020019161279f565b820191906000526020600020905b81548152906001019060200180831161278257829003601f168201915b505050505081526020016003820180546127b890615483565b80601f01602080910402602001604051908101604052809291908181526020018280546127e490615483565b80156128315780601f1061280657610100808354040283529160200191612831565b820191906000526020600020905b81548152906001019060200180831161281457829003601f168201915b505050505081526020016004820160009054906101000a900460ff1615151515815250508152602001600e820160405180604001604052908160008201805461287990615483565b80601f01602080910402602001604051908101604052809291908181526020018280546128a590615483565b80156128f25780601f106128c7576101008083540402835291602001916128f2565b820191906000526020600020905b8154815290600101906020018083116128d557829003601f168201915b5050505050815260200160018201805461290b90615483565b80601f016020809104026020016040519081016040528092919081815260200182805461293790615483565b80156129845780601f1061295957610100808354040283529160200191612984565b820191906000526020600020905b81548152906001019060200180831161296757829003601f168201915b505050505081525050815250509150506129e8565b80806129a4906154e6565b915050612289565b506040517f08c379a00000000000000000000000000000000000000000000000000000000081526004016129df906150a9565b60405180910390fd5b92915050565b6129f66138f0565b60008054906101000a900473ffffffffffffffffffffffffffffffffffffffff1673ffffffffffffffffffffffffffffffffffffffff16636f77926b336040518263ffffffff1660e01b8152600401612a4f9190614ec4565b60006040518083038186803b158015612a6757600080fd5b505afa158015612a7b573d6000803e3d6000fd5b505050506040513d6000823e3d601f19601f82011682018060405250810190612aa491906144a4565b905090565b60006005811115612abd57612abc61555e565b5b612ac56129ee565b602001516005811115612adb57612ada61555e565b5b14612b1b576040517f08c379a0000000000000000000000000000000000000000000000000000000008152600401612b1290615069565b60405180910390fd5b60005b600160003373ffffffffffffffffffffffffffffffffffffffff1673ffffffffffffffffffffffffffffffffffffffff16815260200190815260200160002060050180549050811015612e55578173ffffffffffffffffffffffffffffffffffffffff16600160003373ffffffffffffffffffffffffffffffffffffffff1673ffffffffffffffffffffffffffffffffffffffff1681526020019081526020016000206005018281548110612bd657612bd56155eb565b5b9060005260206000200160009054906101000a900473ffffffffffffffffffffffffffffffffffffffff1673ffffffffffffffffffffffffffffffffffffffff161415612e425760008190505b60018060003373ffffffffffffffffffffffffffffffffffffffff1673ffffffffffffffffffffffffffffffffffffffff16815260200190815260200160002060050180549050612c7491906153a0565b811015612db557600160003373ffffffffffffffffffffffffffffffffffffffff1673ffffffffffffffffffffffffffffffffffffffff168152602001908152602001600020600501600182612cca919061534a565b81548110612cdb57612cda6155eb565b5b9060005260206000200160009054906101000a900473ffffffffffffffffffffffffffffffffffffffff16600160003373ffffffffffffffffffffffffffffffffffffffff1673ffffffffffffffffffffffffffffffffffffffff1681526020019081526020016000206005018281548110612d5a57612d596155eb565b5b9060005260206000200160006101000a81548173ffffffffffffffffffffffffffffffffffffffff021916908373ffffffffffffffffffffffffffffffffffffffff1602179055508080612dad906154e6565b915050612c23565b50600160003373ffffffffffffffffffffffffffffffffffffffff1673ffffffffffffffffffffffffffffffffffffffff168152602001908152602001600020600501805480612e0857612e076155bc565b5b6001900381819060005260206000200160006101000a81549073ffffffffffffffffffffffffffffffffffffffff02191690559055612e55565b8080612e4d906154e6565b915050612b1e565b5050565b600160008373ffffffffffffffffffffffffffffffffffffffff1673ffffffffffffffffffffffffffffffffffffffff16815260200190815260200160002060090181908060018154018082558091505060019003906000526020600020906007020160009091909190915060008201518160000160006101000a81548173ffffffffffffffffffffffffffffffffffffffff021916908373ffffffffffffffffffffffffffffffffffffffff16021790555060208201518160010160006101000a81548173ffffffffffffffffffffffffffffffffffffffff021916908373ffffffffffffffffffffffffffffffffffffffff160217905550604082015181600201556060820151816003019080519060200190612f79929190613768565b5060808201518160040160006101000a81548160ff02191690831515021790555060a0820151816005016000820151816000019080519060200190612fbf929190613768565b506020820151816001019080519060200190612fdc929190613768565b50505050505050565b600160003373ffffffffffffffffffffffffffffffffffffffff1673ffffffffffffffffffffffffffffffffffffffff1681526020019081526020016000206008018181548110613039576130386155eb565b5b906000526020600020906010020160040160040160009054906101000a900460ff1661309a576040517f08c379a000000000000000000000000000000000000000000000000000000000815260040161309190615049565b60405180910390fd5b3373ffffffffffffffffffffffffffffffffffffffff167f6a60ebfdaa84ee71252ccda75c47802d0aff8e9c3c0f57ccfff3932cce1f73ff836040516130e09190615151565b60405180910390a25050565b8173ffffffffffffffffffffffffffffffffffffffff167f90c9c656e0c29a4cc17f930e8cd709c9c190a65648dd2c9a321dd5c4d4edcad48242604051613134929190614ff9565b60405180910390a25050565b600082600160003373ffffffffffffffffffffffffffffffffffffffff1673ffffffffffffffffffffffffffffffffffffffff1681526020019081526020016000206006019080519060200190613198929190613768565b5081600160003373ffffffffffffffffffffffffffffffffffffffff1673ffffffffffffffffffffffffffffffffffffffff16815260200190815260200160002060070190805190602001906131ef929190613768565b506001905092915050565b6000613206848461227e565b9050818160a001516060018190525060005b600160008673ffffffffffffffffffffffffffffffffffffffff1673ffffffffffffffffffffffffffffffffffffffff168152602001908152602001600020600801805490508110156135795783600160008773ffffffffffffffffffffffffffffffffffffffff1673ffffffffffffffffffffffffffffffffffffffff16815260200190815260200160002060080182815481106132ba576132b96155eb565b5b90600052602060002090601002016000015414156135665781600160008773ffffffffffffffffffffffffffffffffffffffff1673ffffffffffffffffffffffffffffffffffffffff1681526020019081526020016000206008018281548110613327576133266155eb565b5b906000526020600020906010020160008201518160000155602082015181600101556040820151816002019080519060200190613365929190613768565b506060820151816003019080519060200190613382929190613768565b506080820151816004016000820151816000015560208201518160010160006101000a81548173ffffffffffffffffffffffffffffffffffffffff021916908373ffffffffffffffffffffffffffffffffffffffff16021790555060408201518160020160006101000a81548173ffffffffffffffffffffffffffffffffffffffff021916908373ffffffffffffffffffffffffffffffffffffffff1602179055506060820151816003019080519060200190613440929190613841565b5060808201518160040160006101000a81548160ff021916908315150217905550505060a08201518160090160008201518160000160006101000a81548173ffffffffffffffffffffffffffffffffffffffff021916908373ffffffffffffffffffffffffffffffffffffffff1602179055506020820151816001015560408201518160020190805190602001906134d9929190613768565b5060608201518160030190805190602001906134f6929190613768565b5060808201518160040160006101000a81548160ff021916908315150217905550505060c082015181600e01600082015181600001908051906020019061353e929190613768565b50602082015181600101908051906020019061355b929190613768565b505050905050613579565b8080613571906154e6565b915050613218565b5050505050565b8073ffffffffffffffffffffffffffffffffffffffff168273ffffffffffffffffffffffffffffffffffffffff167febecf520a958b0cb48874386db018f5c344793f0b669b6078c86b566a132d5da426040516135dd9190615151565b60405180910390a35050565b606082826135f782826121eb565b613636576040517f08c379a000000000000000000000000000000000000000000000000000000000815260040161362d90615029565b60405180910390fd5b600160008573ffffffffffffffffffffffffffffffffffffffff1673ffffffffffffffffffffffffffffffffffffffff168152602001908152602001600020600601805461368390615483565b80601f01602080910402602001604051908101604052809291908181526020018280546136af90615483565b80156136fc5780601f106136d1576101008083540402835291602001916136fc565b820191906000526020600020905b8154815290600101906020018083116136df57829003601f168201915b50505050509250505092915050565b6040518060a0016040528060008152602001600073ffffffffffffffffffffffffffffffffffffffff168152602001600073ffffffffffffffffffffffffffffffffffffffff168152602001606081526020016000151581525090565b82805461377490615483565b90600052602060002090601f01602090048101928261379657600085556137dd565b82601f106137af57805160ff19168380011785556137dd565b828001600101855582156137dd579182015b828111156137dc5782518255916020019190600101906137c1565b5b5090506137ea9190613940565b5090565b604051806101400160405280606081526020016060815260200160008152602001606081526020016060815260200160608152602001606081526020016060815260200160608152602001606081525090565b828054828255906000526020600020908101928215613890579160200282015b8281111561388f57825182908051906020019061387f929190613768565b5091602001919060010190613861565b5b50905061389d919061395d565b5090565b6040518060e00160405280600081526020016000815260200160608152602001606081526020016138d061370b565b81526020016138dd613981565b81526020016138ea6139c8565b81525090565b604051806080016040528060608152602001600060058111156139165761391561555e565b5b815260200160608152602001600073ffffffffffffffffffffffffffffffffffffffff1681525090565b5b80821115613959576000816000905550600101613941565b5090565b5b8082111561397d576000818161397491906139e2565b5060010161395e565b5090565b6040518060a00160405280600073ffffffffffffffffffffffffffffffffffffffff1681526020016000815260200160608152602001606081526020016000151581525090565b604051806040016040528060608152602001606081525090565b5080546139ee90615483565b6000825580601f10613a005750613a1f565b601f016020900490600052602060002090810190613a1e9190613940565b5b50565b6000613a35613a30846151ba565b615195565b90508083825260208201905082856020860282011115613a5857613a57615658565b5b60005b85811015613aa657813567ffffffffffffffff811115613a7e57613a7d615649565b5b808601613a8b8982613bb6565b85526020850194506020840193505050600181019050613a5b565b5050509392505050565b6000613ac3613abe846151e6565b615195565b905082815260208101848484011115613adf57613ade61565d565b5b613aea848285615441565b509392505050565b6000613b05613b00846151e6565b615195565b905082815260208101848484011115613b2157613b2061565d565b5b613b2c848285615450565b509392505050565b600081359050613b4381615784565b92915050565b600081519050613b5881615784565b92915050565b600082601f830112613b7357613b72615649565b5b8135613b83848260208601613a22565b91505092915050565b600081359050613b9b8161579b565b92915050565b600081519050613bb0816157b2565b92915050565b600082601f830112613bcb57613bca615649565b5b8135613bdb848260208601613ab0565b91505092915050565b600082601f830112613bf957613bf8615649565b5b8151613c09848260208601613af2565b91505092915050565b600060c08284031215613c2857613c2761564e565b5b613c3260c0615195565b90506000613c4284828501613b34565b6000830152506020613c5684828501613b34565b6020830152506040613c6a848285016140ce565b604083015250606082013567ffffffffffffffff811115613c8e57613c8d615653565b5b613c9a84828501613bb6565b6060830152506080613cae84828501613b8c565b60808301525060a082013567ffffffffffffffff811115613cd257613cd1615653565b5b613cde84828501614046565b60a08301525092915050565b600060e08284031215613d0057613cff61564e565b5b613d0a60e0615195565b90506000613d1a848285016140ce565b6000830152506020613d2e848285016140ce565b602083015250604082013567ffffffffffffffff811115613d5257613d51615653565b5b613d5e84828501613bb6565b604083015250606082013567ffffffffffffffff811115613d8257613d81615653565b5b613d8e84828501613bb6565b606083015250608082013567ffffffffffffffff811115613db257613db1615653565b5b613dbe84828501613e2a565b60808301525060a082013567ffffffffffffffff811115613de257613de1615653565b5b613dee84828501613ed2565b60a08301525060c082013567ffffffffffffffff811115613e1257613e11615653565b5b613e1e84828501614046565b60c08301525092915050565b600060a08284031215613e4057613e3f61564e565b5b613e4a60a0615195565b90506000613e5a848285016140ce565b6000830152506020613e6e84828501613b34565b6020830152506040613e8284828501613b34565b604083015250606082013567ffffffffffffffff811115613ea657613ea5615653565b5b613eb284828501613b5e565b6060830152506080613ec684828501613b8c565b60808301525092915050565b600060a08284031215613ee857613ee761564e565b5b613ef260a0615195565b90506000613f0284828501613b34565b6000830152506020613f16848285016140ce565b602083015250604082013567ffffffffffffffff811115613f3a57613f39615653565b5b613f4684828501613bb6565b604083015250606082013567ffffffffffffffff811115613f6a57613f69615653565b5b613f7684828501613bb6565b6060830152506080613f8a84828501613b8c565b60808301525092915050565b600060808284031215613fac57613fab61564e565b5b613fb66080615195565b9050600082015167ffffffffffffffff811115613fd657613fd5615653565b5b613fe284828501613be4565b6000830152506020613ff684828501613ba1565b602083015250604082015167ffffffffffffffff81111561401a57614019615653565b5b61402684828501613be4565b604083015250606061403a84828501613b49565b60608301525092915050565b60006040828403121561405c5761405b61564e565b5b6140666040615195565b9050600082013567ffffffffffffffff81111561408657614085615653565b5b61409284828501613bb6565b600083015250602082013567ffffffffffffffff8111156140b6576140b5615653565b5b6140c284828501613bb6565b60208301525092915050565b6000813590506140dd816157c2565b92915050565b6000602082840312156140f9576140f8615667565b5b600061410784828501613b34565b91505092915050565b6000806040838503121561412757614126615667565b5b600061413585828601613b34565b925050602061414685828601613b34565b9150509250929050565b6000806040838503121561416757614166615667565b5b600061417585828601613b34565b925050602083013567ffffffffffffffff81111561419657614195615662565b5b6141a285828601613bb6565b9150509250929050565b600080604083850312156141c3576141c2615667565b5b60006141d185828601613b34565b925050602083013567ffffffffffffffff8111156141f2576141f1615662565b5b6141fe85828601613c12565b9150509250929050565b6000806040838503121561421f5761421e615667565b5b600061422d85828601613b34565b925050602061423e858286016140ce565b9150509250929050565b60008060006060848603121561426157614260615667565b5b600061426f86828701613b34565b9350506020614280868287016140ce565b925050604084013567ffffffffffffffff8111156142a1576142a0615662565b5b6142ad86828701613bb6565b9150509250925092565b600080604083850312156142ce576142cd615667565b5b600083013567ffffffffffffffff8111156142ec576142eb615662565b5b6142f885828601613bb6565b925050602083013567ffffffffffffffff81111561431957614318615662565b5b61432585828601613bb6565b9150509250929050565b60008060008060008060c0878903121561434c5761434b615667565b5b600087013567ffffffffffffffff81111561436a57614369615662565b5b61437689828a01613bb6565b965050602087013567ffffffffffffffff81111561439757614396615662565b5b6143a389828a01613bb6565b95505060406143b489828a016140ce565b945050606087013567ffffffffffffffff8111156143d5576143d4615662565b5b6143e189828a01613bb6565b935050608087013567ffffffffffffffff81111561440257614401615662565b5b61440e89828a01613bb6565b92505060a087013567ffffffffffffffff81111561442f5761442e615662565b5b61443b89828a01613bb6565b9150509295509295509295565b6000806040838503121561445f5761445e615667565b5b600083013567ffffffffffffffff81111561447d5761447c615662565b5b61448985828601613cea565b925050602061449a85828601613b34565b9150509250929050565b6000602082840312156144ba576144b9615667565b5b600082015167ffffffffffffffff8111156144d8576144d7615662565b5b6144e484828501613f96565b91505092915050565b6000806040838503121561450457614503615667565b5b6000614512858286016140ce565b9250506020614523858286016140ce565b9150509250929050565b60006145398383614581565b60208301905092915050565b6000614551838361485c565b905092915050565b6000614565838361497d565b905092915050565b60006145798383614a0d565b905092915050565b61458a816153d4565b82525050565b614599816153d4565b82525050565b60006145aa82615257565b6145b481856152c2565b93506145bf83615217565b8060005b838110156145f05781516145d7888261452d565b97506145e28361528e565b9250506001810190506145c3565b5085935050505092915050565b600061460882615257565b61461281856152d3565b935061461d83615217565b8060005b8381101561464e578151614635888261452d565b97506146408361528e565b925050600181019050614621565b5085935050505092915050565b600061466682615262565b61467081856152e4565b93508360208202850161468285615227565b8060005b858110156146be578484038952815161469f8582614545565b94506146aa8361529b565b925060208a01995050600181019050614686565b50829750879550505050505092915050565b60006146db8261526d565b6146e581856152f5565b9350836020820285016146f785615237565b8060005b8581101561473357848403895281516147148582614559565b945061471f836152a8565b925060208a019950506001810190506146fb565b50829750879550505050505092915050565b60006147508261526d565b61475a8185615306565b93508360208202850161476c85615237565b8060005b858110156147a857848403895281516147898582614559565b9450614794836152a8565b925060208a01995050600181019050614770565b50829750879550505050505092915050565b60006147c582615278565b6147cf8185615317565b9350836020820285016147e185615247565b8060005b8581101561481d57848403895281516147fe858261456d565b9450614809836152b5565b925060208a019950506001810190506147e5565b50829750879550505050505092915050565b614838816153e6565b82525050565b614847816153e6565b82525050565b6148568161542f565b82525050565b600061486782615283565b6148718185615328565b9350614881818560208601615450565b61488a8161566c565b840191505092915050565b60006148a082615283565b6148aa8185615339565b93506148ba818560208601615450565b6148c38161566c565b840191505092915050565b60006148db601183615339565b91506148e68261567d565b602082019050919050565b60006148fe602083615339565b9150614909826156a6565b602082019050919050565b6000614921602383615339565b915061492c826156cf565b604082019050919050565b6000614944601783615339565b915061494f8261571e565b602082019050919050565b6000614967601883615339565b915061497282615747565b602082019050919050565b600060c0830160008301516149956000860182614581565b5060208301516149a86020860182614581565b5060408301516149bb6040860182614ea6565b50606083015184820360608601526149d3828261485c565b91505060808301516149e8608086018261482f565b5060a083015184820360a0860152614a008282614e62565b9150508091505092915050565b600060e083016000830151614a256000860182614ea6565b506020830151614a386020860182614ea6565b5060408301518482036040860152614a50828261485c565b91505060608301518482036060860152614a6a828261485c565b91505060808301518482036080860152614a848282614c8f565b91505060a083015184820360a0860152614a9e8282614d7b565b91505060c083015184820360c0860152614ab88282614e62565b9150508091505092915050565b600060e083016000830151614add6000860182614ea6565b506020830151614af06020860182614ea6565b5060408301518482036040860152614b08828261485c565b91505060608301518482036060860152614b22828261485c565b91505060808301518482036080860152614b3c8282614c8f565b91505060a083015184820360a0860152614b568282614d7b565b91505060c083015184820360c0860152614b708282614e62565b9150508091505092915050565b6000610140830160008301518482036000860152614b9b828261485c565b91505060208301518482036020860152614bb5828261485c565b9150506040830151614bca6040860182614ea6565b5060608301518482036060860152614be2828261485c565b91505060808301518482036080860152614bfc828261485c565b91505060a083015184820360a0860152614c16828261459f565b91505060c083015184820360c0860152614c30828261485c565b91505060e083015184820360e0860152614c4a828261485c565b915050610100830151848203610100860152614c6682826147ba565b915050610120830151848203610120860152614c8282826146d0565b9150508091505092915050565b600060a083016000830151614ca76000860182614ea6565b506020830151614cba6020860182614581565b506040830151614ccd6040860182614581565b5060608301518482036060860152614ce5828261465b565b9150506080830151614cfa608086018261482f565b508091505092915050565b600060a083016000830151614d1d6000860182614ea6565b506020830151614d306020860182614581565b506040830151614d436040860182614581565b5060608301518482036060860152614d5b828261465b565b9150506080830151614d70608086018261482f565b508091505092915050565b600060a083016000830151614d936000860182614581565b506020830151614da66020860182614ea6565b5060408301518482036040860152614dbe828261485c565b91505060608301518482036060860152614dd8828261485c565b9150506080830151614ded608086018261482f565b508091505092915050565b60006080830160008301518482036000860152614e15828261485c565b9150506020830151614e2a602086018261484d565b5060408301518482036040860152614e42828261485c565b9150506060830151614e576060860182614581565b508091505092915050565b60006040830160008301518482036000860152614e7f828261485c565b91505060208301518482036020860152614e99828261485c565b9150508091505092915050565b614eaf81615425565b82525050565b614ebe81615425565b82525050565b6000602082019050614ed96000830184614590565b92915050565b60006020820190508181036000830152614ef981846145fd565b905092915050565b60006020820190508181036000830152614f1b8184614745565b905092915050565b6000602082019050614f38600083018461483e565b92915050565b60006020820190508181036000830152614f588184614895565b905092915050565b600060e0820190508181036000830152614f7a818a614895565b90508181036020830152614f8e8189614895565b9050614f9d6040830188614eb5565b8181036060830152614faf8187614895565b90508181036080830152614fc38186614895565b905081810360a0830152614fd78185614895565b905081810360c0830152614feb8184614895565b905098975050505050505050565b600060408201905081810360008301526150138185614895565b90506150226020830184614eb5565b9392505050565b60006020820190508181036000830152615042816148ce565b9050919050565b60006020820190508181036000830152615062816148f1565b9050919050565b6000602082019050818103600083015261508281614914565b9050919050565b600060208201905081810360008301526150a281614937565b9050919050565b600060208201905081810360008301526150c28161495a565b9050919050565b600060208201905081810360008301526150e38184614ac5565b905092915050565b600060208201905081810360008301526151058184614b7d565b905092915050565b600060208201905081810360008301526151278184614d05565b905092915050565b600060208201905081810360008301526151498184614df8565b905092915050565b60006020820190506151666000830184614eb5565b92915050565b60006040820190506151816000830185614eb5565b61518e6020830184614eb5565b9392505050565b600061519f6151b0565b90506151ab82826154b5565b919050565b6000604051905090565b600067ffffffffffffffff8211156151d5576151d461561a565b5b602082029050602081019050919050565b600067ffffffffffffffff8211156152015761520061561a565b5b61520a8261566c565b9050602081019050919050565b6000819050602082019050919050565b6000819050602082019050919050565b6000819050602082019050919050565b6000819050602082019050919050565b600081519050919050565b600081519050919050565b600081519050919050565b600081519050919050565b600081519050919050565b6000602082019050919050565b6000602082019050919050565b6000602082019050919050565b6000602082019050919050565b600082825260208201905092915050565b600082825260208201905092915050565b600082825260208201905092915050565b600082825260208201905092915050565b600082825260208201905092915050565b600082825260208201905092915050565b600082825260208201905092915050565b600082825260208201905092915050565b600061535582615425565b915061536083615425565b9250827fffffffffffffffffffffffffffffffffffffffffffffffffffffffffffffffff038211156153955761539461552f565b5b828201905092915050565b60006153ab82615425565b91506153b683615425565b9250828210156153c9576153c861552f565b5b828203905092915050565b60006153df82615405565b9050919050565b60008115159050919050565b600081905061540082615770565b919050565b600073ffffffffffffffffffffffffffffffffffffffff82169050919050565b6000819050919050565b600061543a826153f2565b9050919050565b82818337600083830152505050565b60005b8381101561546e578082015181840152602081019050615453565b8381111561547d576000848401525b50505050565b6000600282049050600182168061549b57607f821691505b602082108114156154af576154ae61558d565b5b50919050565b6154be8261566c565b810181811067ffffffffffffffff821117156154dd576154dc61561a565b5b80604052505050565b60006154f182615425565b91507fffffffffffffffffffffffffffffffffffffffffffffffffffffffffffffffff8214156155245761552361552f565b5b600182019050919050565b7f4e487b7100000000000000000000000000000000000000000000000000000000600052601160045260246000fd5b7f4e487b7100000000000000000000000000000000000000000000000000000000600052602160045260246000fd5b7f4e487b7100000000000000000000000000000000000000000000000000000000600052602260045260246000fd5b7f4e487b7100000000000000000000000000000000000000000000000000000000600052603160045260246000fd5b7f4e487b7100000000000000000000000000000000000000000000000000000000600052603260045260246000fd5b7f4e487b7100000000000000000000000000000000000000000000000000000000600052604160045260246000fd5b600080fd5b600080fd5b600080fd5b600080fd5b600080fd5b600080fd5b600080fd5b6000601f19601f8301169050919050565b7f556e617574686f72697a65642075736572000000000000000000000000000000600082015250565b7f54726561746d656e74206973206e6f742066756c6c7920707572636861736564600082015250565b7f4f6e6c792070617469656e74732063616e207375626d6974207468697320747960008201527f7065200000000000000000000000000000000000000000000000000000000000602082015250565b7f5573657220616c726561647920617574686f72697a6564000000000000000000600082015250565b7f4d65646963616c207265636f7264206e6f7420666f756e640000000000000000600082015250565b600681106157815761578061555e565b5b50565b61578d816153d4565b811461579857600080fd5b50565b6157a4816153e6565b81146157af57600080fd5b50565b600681106157bf57600080fd5b50565b6157cb81615425565b81146157d657600080fd5b5056fea26469706673582212208d7dd14799a853b38a156cdfdcdcbc8fee4ed504c1322cfb7f1af5328600cf5364736f6c63430008060033",
  "immutableReferences": {},
  "source": "// SPDX-License-Identifier: GPL-3.0\r\n\r\nimport './Authentication.sol';\r\npragma solidity ^0.8.0;\r\ncontract Patients  {\r\n \r\n    Authentication private contractRInstance;\r\n\r\n    constructor(address _contractBAddress) {\r\n        contractRInstance = Authentication(_contractBAddress);\r\n    }\r\n\r\n\r\nstruct Patient {\r\n    string firstname;\r\n    string lastname;\r\n    uint age;\r\n    string location;\r\n    string phone;\r\n    address[] authorizedUsers; // List of addresses of authorized doctors\r\n    string dossierHash; // Medical history of the patient\r\n    string PublicKey;\r\n    Authentication.MedicalRecord[]  record;\r\n    Authentication.Appointment[] Appointmentslist;\r\n    //here i will add records option but its should contain both test and ordonnance \r\n}\r\n\r\n\r\n\r\n\r\n\r\nmapping(address => Patient) public patients;\r\n\r\nfunction registerUserDetails( string memory _firstname,string memory _lastname,uint _age,string memory _dossierHash ,string memory location,string memory phone)public\r\n{\r\n        require(getUser().role == Authentication.Role.patient, \"Only patients can submit this type \");\r\n        Patient storage patient = patients[msg.sender];\r\n        patient.firstname = _firstname;\r\n        patient.lastname = _lastname;\r\n        patient.age = _age;\r\n        patient.dossierHash = _dossierHash;\r\n        patient.location=location;\r\n        patient.phone=phone;\r\n        \r\n\r\n       \r\n}\r\n\r\n\r\n\r\n//open for more modifications other users \r\n   function getUser() public view   returns (Authentication.User memory) {\r\n        return contractRInstance.getUser(msg.sender);\r\n    }\r\n  \r\n function getPatients(address _patient) public view   returns (Patient memory) {\r\n        return patients[_patient];\r\n}\r\n\r\nfunction addAppointment(address _patient,Authentication.Appointment memory newAppointment) public {\r\n        patients[_patient].Appointmentslist.push(newAppointment);\r\n}\r\nfunction addrecordtoPatient(Authentication.MedicalRecord  memory record,address _patient)public{\r\n     patients[_patient].record.push(record);\r\n}\r\n\r\nfunction getRecordById(address _patient, uint _id) public view returns (Authentication.MedicalRecord memory) {\r\n    for (uint i = 0; i < patients[_patient].record.length; i++) {\r\n        if (patients[_patient].record[i].id == _id) {\r\n            return patients[_patient].record[i];\r\n        }\r\n    }\r\n    revert(\"Medical record not found\"); // Revert if medical record with given ID is not found\r\n}\r\nfunction printpatientrecord(address _patient, uint i) public view returns (Authentication.Prescription memory) {\r\n    return patients[_patient].record[i].treatment;\r\n}\r\n\r\n\r\n\r\nfunction addTestResultToPatient(address _patient, uint _id, string memory _result) public {\r\n    Authentication.MedicalRecord memory medicalRecord = getRecordById(_patient, _id);\r\n    \r\n    // Update the test result in the medical record\r\n    medicalRecord.test.result = _result;\r\n    \r\n    // Optionally, emit an event or perform any additional logic\r\n    \r\n    // Update the medical record in the patient's records array\r\n    for (uint i = 0; i < patients[_patient].record.length; i++) {\r\n        if (patients[_patient].record[i].id == _id) {\r\n            patients[_patient].record[i] = medicalRecord;\r\n            break; // Break the loop once the medical record is updated\r\n        }\r\n    }\r\n}\r\n\r\n\r\nevent RemboursementDemandePrescription(address indexed patient, uint256 prescriptionId);\r\n\r\nfunction demanderRemboursementPrescription(uint256 prescriptionId,uint recordid) public {\r\n    require(patients[msg.sender].record[recordid].treatment.fullyPurchased,\"Treatment is not fully purchased\");\r\n    // Autres vrifications ventuelles...\r\n\r\n    // Enregistrer la demande de remboursement pour cette prescription\r\n    // mettre un vnement pour informer l'agent d'assurance\r\n    emit RemboursementDemandePrescription(msg.sender, prescriptionId);\r\n}\r\n\r\n\r\n\r\nfunction AuthorizeUser(address  _user) public {//maybe add modifier so only patient can use ths function ;patient contract \r\n    require(getUser().role == Authentication.Role.patient, \"Only patients can submit this type \");\r\n    for (uint i = 0; i < patients[msg.sender].authorizedUsers.length; i++) {\r\n        require(patients[msg.sender].authorizedUsers[i] != _user, \"User already authorized\");\r\n      }\r\n      patients[msg.sender].authorizedUsers.push(_user);\r\n}\r\n\r\n\r\n\r\n\r\nfunction removeAuthorizedUser(address _user) public {//patient contract \r\n    // Find the index of the user in the authorized list\r\n    require(getUser().role == Authentication.Role.patient, \"Only patients can submit this type \");\r\n    for (uint i = 0; i < patients[msg.sender].authorizedUsers.length; i++) {\r\n        if (patients[msg.sender].authorizedUsers[i] == _user) {\r\n            // Remove the user by shifting the elements and decreasing the array length\r\n            for (uint j = i; j < patients[msg.sender].authorizedUsers.length - 1; j++) {\r\n                patients[msg.sender].authorizedUsers[j] = patients[msg.sender].authorizedUsers[j + 1];\r\n            }\r\n            patients[msg.sender].authorizedUsers.pop(); // Remove the last element\r\n            break;\r\n        }\r\n    }\r\n}\r\n\r\n\r\n\r\n\r\nfunction StorePatientFileHash(string memory _ipfsfilehash,string memory _pubkey) public returns (bool) {//patient contract\r\n     patients[msg.sender].dossierHash=_ipfsfilehash;\r\n     patients[msg.sender].PublicKey=_pubkey;\r\n     return true ;   \r\n} \r\n\r\n\r\nfunction getAuthorizedUsers(address _fromPatient )public view returns (address[] memory ) {//patient contract\r\nreturn patients[_fromPatient].authorizedUsers;\r\n}\r\n\r\nfunction isAuthorized(address _user,address _fromPatient) public view returns (bool) {//patient contract\r\n    // Retrieve the patient's authorized users\r\n    address[] memory authorizedUsers = getAuthorizedUsers(_fromPatient);\r\n\r\n    // Check if the given address is in the list of authorized users\r\n    for (uint i = 0; i < authorizedUsers.length; i++) {\r\n        if (authorizedUsers[i] == _user) {\r\n            return true; // Address is authorized\r\n        }\r\n    }\r\n    return false; // Address is not authorized\r\n\r\n}\r\n\r\n\r\n modifier onlyAuthorizedUser(address _user,address _fromPatient) {//patient contract\r\n        require(isAuthorized(_user,_fromPatient), \"Unauthorized user\");\r\n        _;\r\n    }\r\n\r\n\r\n\r\nfunction getFileHash(address _user,address _fromPatient) public view onlyAuthorizedUser(_user,_fromPatient) returns (string memory) {//user contract with permission\r\n    // Retrieve and return the file hash\r\n    return patients[_fromPatient].dossierHash;\r\n}\r\n\r\n  \r\nfunction visualiserProchainsRendezVous() public view returns (Authentication.Appointment[] memory) {//patient contract \r\n    // Obtenez les prochains rendez-vous du patient actuel\r\n    Patient storage patient = patients[msg.sender];\r\n    return patient.Appointmentslist;\r\n}\r\n\r\n\r\n// vnement pour notifier l'achat d'une ordonnance\r\nevent OrdonnanceAchete(address indexed patient, uint256 prescriptionId,uint256 timestamp);\r\n\r\n// Fonction pour notifier l'achat d'une ordonnance par le pharmacien\r\nfunction notifierAchatOrdonnance(address _patient, uint256 prescriptionId) public {\r\n    // Autres vrifications ventuelles...\r\n\r\n    // mettre un vnement pour notifier l'achat de l'ordonnance\r\n    emit OrdonnanceAchete(_patient, prescriptionId,block.timestamp);\r\n}\r\n\r\n// vnement pour notifier la visite chez le mdecin\r\nevent VisiteMedecinEffectuee(address indexed patient, address indexed doctor, uint256 timestamp);\r\n\r\n// Fonction pour notifier la visite chez le mdecin\r\nfunction notifierVisiteMedecin(address _patient, address _doctor) public {\r\n    // Autres vrifications ventuelles...\r\n\r\n    // mettre un vnement pour notifier la visite chez le mdecin\r\n    emit VisiteMedecinEffectuee(_patient, _doctor, block.timestamp);\r\n}\r\n\r\n// vnement pour notifier la demande de remboursement\r\nevent RemboursementDemande(address indexed patient, string service, uint256 timestamp);\r\n\r\n// Fonction pour notifier la demande de remboursement d'un service\r\nfunction notifierDemandeRemboursement(address _patient, string memory _service) public {\r\n    // Autres vrifications ventuelles...\r\n\r\n    // mettre un vnement pour notifier la demande de remboursement\r\n    emit RemboursementDemande(_patient, _service, block.timestamp);\r\n}\r\n}\r\n\r\n\r\n\r\n\r\n\r\n\r\n\r\n\r\n\r\n\r\n\r\n\r\n\r\n/*contract Patients  {\r\n \r\n    Authentication private contractRInstance;\r\n\r\n    constructor(address _contractBAddress) {\r\n        contractRInstance = Authentication(_contractBAddress);\r\n    }\r\n\r\n\r\nstruct Patient {\r\n    string firstname;\r\n    string lastname;\r\n    uint age;\r\n    string location;\r\n    string phone;\r\n    address[] authorizedUsers; // List of addresses of authorized doctors\r\n    string dossierHash; // Medical history of the patient\r\n    string PublicKey;\r\n    Authentication.MedicalRecord[]  record;\r\n    Authentication.Appointment[] Appointmentslist;\r\n}\r\n\r\n\r\n\r\n\r\n\r\nmapping(address => Patient) public patients;\r\n\r\nfunction registerUserDetails( string memory _firstname,string memory _lastname,uint _age,string memory _dossierHash ,string memory location,string memory phone)public\r\n{\r\n        require(getUser().role == Authentication.Role.patient, \"Only patients can submit this type \");\r\n        Patient storage patient = patients[msg.sender];\r\n        patient.firstname = _firstname;\r\n        patient.lastname = _lastname;\r\n        patient.age = _age;\r\n        patient.dossierHash = _dossierHash;\r\n        patient.location=location;\r\n        patient.phone=phone;\r\n        \r\n\r\n       \r\n}\r\n\r\nfunction SetHash(string memory _dossierHash) public {\r\n    patients[msg.sender].dossierHash = _dossierHash;\r\n}\r\n\r\n\r\n//open for more modifications other users \r\n   function getUser() public view   returns (Authentication.User memory) {\r\n        return contractRInstance.getUser(msg.sender);\r\n    }\r\n  \r\n function getPatients(address _patient) public view   returns (Patient memory) {\r\n        return patients[_patient];\r\n}\r\n\r\nfunction addAppointment(address _patient,Authentication.Appointment memory newAppointment) public {\r\n        patients[_patient].Appointmentslist.push(newAppointment);\r\n}\r\nfunction addrecordtoPatient(Authentication.MedicalRecord  memory record,address _patient)public{\r\n     patients[_patient].record.push(record);\r\n}\r\n\r\nfunction getRecordById(address _patient, uint _id) public view returns (Authentication.MedicalRecord memory) {\r\n    for (uint i = 0; i < patients[_patient].record.length; i++) {\r\n        if (patients[_patient].record[i].id == _id) {\r\n            return patients[_patient].record[i];\r\n        }\r\n    }\r\n    revert(\"Medical record not found\"); // Revert if medical record with given ID is not found\r\n}\r\nfunction addTestResultToPatient(address _patient, uint _id, string memory _result) public {\r\n    Authentication.MedicalRecord memory medicalRecord = getRecordById(_patient, _id);\r\n    \r\n    // Update the test result in the medical record\r\n    medicalRecord.test.result = _result;\r\n    \r\n    // Optionally, emit an event or perform any additional logic\r\n    \r\n    // Update the medical record in the patient's records array\r\n    for (uint i = 0; i < patients[_patient].record.length; i++) {\r\n        if (patients[_patient].record[i].id == _id) {\r\n            patients[_patient].record[i] = medicalRecord;\r\n            break; // Break the loop once the medical record is updated\r\n        }\r\n    }\r\n}\r\nevent \r\nevent ReimbursementRequested(address indexed patient, uint256 timestamp);\r\n\r\nfunction demanderemboursement() public {//this will emit an event in the blockchain so the agent see it and then ...;patient contract\r\n    require(getUser().role == Authentication.Role.patient, \"Only patients can submit reimbursement requests\");\r\n    emit ReimbursementRequested(msg.sender, block.timestamp);\r\n}\r\n\r\n\r\n\r\nfunction AuthorizeUser(address  _user) public {//maybe add modifier so only patient can use ths function ;patient contract \r\n    require(getUser().role == Authentication.Role.patient, \"Only patients can submit this type \");\r\n    for (uint i = 0; i < patients[msg.sender].authorizedUsers.length; i++) {\r\n        require(patients[msg.sender].authorizedUsers[i] != _user, \"User already authorized\");\r\n      }\r\n      patients[msg.sender].authorizedUsers.push(_user);\r\n}\r\n\r\n\r\n\r\n\r\nfunction removeAuthorizedUser(address _user) public {//patient contract \r\n    // Find the index of the user in the authorized list\r\n    require(getUser().role == Authentication.Role.patient, \"Only patients can submit this type \");\r\n    for (uint i = 0; i < patients[msg.sender].authorizedUsers.length; i++) {\r\n        if (patients[msg.sender].authorizedUsers[i] == _user) {\r\n            // Remove the user by shifting the elements and decreasing the array length\r\n            for (uint j = i; j < patients[msg.sender].authorizedUsers.length - 1; j++) {\r\n                patients[msg.sender].authorizedUsers[j] = patients[msg.sender].authorizedUsers[j + 1];\r\n            }\r\n            patients[msg.sender].authorizedUsers.pop(); // Remove the last element\r\n            break;\r\n        }\r\n    }\r\n}\r\n\r\n\r\n\r\n\r\nfunction StorePatientFileHash(string memory _ipfsfilehash,string memory _pubkey) public returns (bool) {//patient contract\r\n     patients[msg.sender].dossierHash=_ipfsfilehash;\r\n     patients[msg.sender].PublicKey=_pubkey;\r\n     return true ;   \r\n} \r\n\r\n\r\nfunction getAuthorizedUsers(address _fromPatient )public view returns (address[] memory ) {//patient contract\r\nreturn patients[_fromPatient].authorizedUsers;\r\n}\r\n\r\nfunction isAuthorized(address _user,address _fromPatient) public view returns (bool) {//patient contract\r\n    // Retrieve the patient's authorized users\r\n    address[] memory authorizedUsers = getAuthorizedUsers(_fromPatient);\r\n\r\n    // Check if the given address is in the list of authorized users\r\n    for (uint i = 0; i < authorizedUsers.length; i++) {\r\n        if (authorizedUsers[i] == _user) {\r\n            return true; // Address is authorized\r\n        }\r\n    }\r\n    return false; // Address is not authorized\r\n\r\n}\r\n\r\n\r\n modifier onlyAuthorizedUser(address _user,address _fromPatient) {//patient contract\r\n        require(isAuthorized(_user,_fromPatient), \"Unauthorized user\");\r\n        _;\r\n    }\r\n\r\n\r\n\r\nfunction getFileHash(address _user,address _fromPatient) public view onlyAuthorizedUser(_user,_fromPatient) returns (string memory) {//user contract with permission\r\n    // Retrieve and return the file hash\r\n    return patients[_fromPatient].dossierHash;\r\n}\r\n\r\n  \r\nfunction visualiserProchainsRendezVous() public view returns (Authentication.Appointment[] memory) {//patient contract \r\n    // Obtenez les prochains rendez-vous du patient actuel\r\n    Patient storage patient = patients[msg.sender];\r\n    return patient.Appointmentslist;\r\n}\r\n\r\nfunction setPublicKey(string memory _pubkey) public {\r\n    patients[msg.sender].PublicKey = _pubkey;   \r\n}\r\n\r\n}*/",
  "sourcePath": "C:\\Users\\hamma\\Downloads\\blockchain-based-authentication-main\\blockchain-based-authentication-main\\contracts\\patientcontract.sol",
  "compiler": {
    "name": "solc",
    "version": "0.8.6+commit.11564f7e.Emscripten.clang"
  },
  "schemaVersion": "3.4.16",
  "updatedAt": "2024-04-21T15:02:07.245Z",
  "networkType": "ethereum",
  "devdoc": {
    "kind": "dev",
    "methods": {},
    "version": 1
  },
  "userdoc": {
    "kind": "user",
    "methods": {},
    "version": 1
  }
}