{
  "contractName": "Patients",
  "abi": [
    {
      "inputs": [
        {
          "internalType": "address",
          "name": "_contractBAddress",
          "type": "address"
        }
      ],
      "stateMutability": "nonpayable",
      "type": "constructor"
    },
    {
      "anonymous": false,
      "inputs": [
        {
          "indexed": true,
          "internalType": "address",
          "name": "patient",
          "type": "address"
        },
        {
          "indexed": false,
          "internalType": "uint256",
          "name": "recordId",
          "type": "uint256"
        },
        {
          "indexed": false,
          "internalType": "uint256",
          "name": "timestamp",
          "type": "uint256"
        },
        {
          "indexed": false,
          "internalType": "string",
          "name": "firstname",
          "type": "string"
        },
        {
          "indexed": false,
          "internalType": "string",
          "name": "lastname",
          "type": "string"
        },
        {
          "indexed": true,
          "internalType": "address",
          "name": "pharmacieaddress",
          "type": "address"
        }
      ],
      "name": "OrdonnanceAchete",
      "type": "event"
    },
    {
      "anonymous": false,
      "inputs": [
        {
          "indexed": true,
          "internalType": "address",
          "name": "patient",
          "type": "address"
        },
        {
          "indexed": false,
          "internalType": "uint256",
          "name": "recordId",
          "type": "uint256"
        },
        {
          "indexed": false,
          "internalType": "string",
          "name": "service",
          "type": "string"
        },
        {
          "indexed": false,
          "internalType": "uint256",
          "name": "timestamp",
          "type": "uint256"
        }
      ],
      "name": "RemboursementDemande",
      "type": "event"
    },
    {
      "anonymous": false,
      "inputs": [
        {
          "indexed": true,
          "internalType": "address",
          "name": "patient",
          "type": "address"
        },
        {
          "indexed": false,
          "internalType": "uint256",
          "name": "prescriptionId",
          "type": "uint256"
        }
      ],
      "name": "RemboursementDemandePrescription",
      "type": "event"
    },
    {
      "anonymous": false,
      "inputs": [
        {
          "indexed": true,
          "internalType": "address",
          "name": "patient",
          "type": "address"
        },
        {
          "indexed": true,
          "internalType": "address",
          "name": "doctor",
          "type": "address"
        },
        {
          "indexed": false,
          "internalType": "uint256",
          "name": "timestamp",
          "type": "uint256"
        },
        {
          "indexed": false,
          "internalType": "string",
          "name": "firstname",
          "type": "string"
        },
        {
          "indexed": false,
          "internalType": "string",
          "name": "lastname",
          "type": "string"
        }
      ],
      "name": "VisiteMedecinEffectuee",
      "type": "event"
    },
    {
      "anonymous": false,
      "inputs": [
        {
          "indexed": true,
          "internalType": "address",
          "name": "patient",
          "type": "address"
        },
        {
          "indexed": false,
          "internalType": "string",
          "name": "firstname",
          "type": "string"
        },
        {
          "indexed": false,
          "internalType": "string",
          "name": "lastname",
          "type": "string"
        },
        {
          "indexed": false,
          "internalType": "uint256",
          "name": "age",
          "type": "uint256"
        }
      ],
      "name": "patientadded",
      "type": "event"
    },
    {
      "inputs": [
        {
          "internalType": "address",
          "name": "",
          "type": "address"
        }
      ],
      "name": "patients",
      "outputs": [
        {
          "internalType": "string",
          "name": "firstname",
          "type": "string"
        },
        {
          "internalType": "string",
          "name": "lastname",
          "type": "string"
        },
        {
          "internalType": "uint256",
          "name": "age",
          "type": "uint256"
        },
        {
          "internalType": "string",
          "name": "location",
          "type": "string"
        },
        {
          "internalType": "string",
          "name": "phone",
          "type": "string"
        },
        {
          "internalType": "string",
          "name": "dossierHash",
          "type": "string"
        },
        {
          "internalType": "string",
          "name": "PublicKey",
          "type": "string"
        }
      ],
      "stateMutability": "view",
      "type": "function",
      "constant": true
    },
    {
      "inputs": [
        {
          "internalType": "string",
          "name": "_firstname",
          "type": "string"
        },
        {
          "internalType": "string",
          "name": "_lastname",
          "type": "string"
        },
        {
          "internalType": "uint256",
          "name": "_age",
          "type": "uint256"
        },
        {
          "internalType": "string",
          "name": "_dossierHash",
          "type": "string"
        },
        {
          "internalType": "string",
          "name": "location",
          "type": "string"
        },
        {
          "internalType": "string",
          "name": "phone",
          "type": "string"
        }
      ],
      "name": "registerUserDetails",
      "outputs": [],
      "stateMutability": "nonpayable",
      "type": "function"
    },
    {
      "inputs": [],
      "name": "getUser",
      "outputs": [
        {
          "components": [
            {
              "internalType": "string",
              "name": "signatureHash",
              "type": "string"
            },
            {
              "internalType": "enum Authentication.Role",
              "name": "role",
              "type": "uint8"
            },
            {
              "internalType": "string",
              "name": "pubkey",
              "type": "string"
            },
            {
              "internalType": "address",
              "name": "UserAddress",
              "type": "address"
            }
          ],
          "internalType": "struct Authentication.User",
          "name": "",
          "type": "tuple"
        }
      ],
      "stateMutability": "view",
      "type": "function",
      "constant": true
    },
    {
      "inputs": [
        {
          "internalType": "address",
          "name": "_patient",
          "type": "address"
        }
      ],
      "name": "getPatients",
      "outputs": [
        {
          "components": [
            {
              "internalType": "string",
              "name": "firstname",
              "type": "string"
            },
            {
              "internalType": "string",
              "name": "lastname",
              "type": "string"
            },
            {
              "internalType": "uint256",
              "name": "age",
              "type": "uint256"
            },
            {
              "internalType": "string",
              "name": "location",
              "type": "string"
            },
            {
              "internalType": "string",
              "name": "phone",
              "type": "string"
            },
            {
              "internalType": "address[]",
              "name": "authorizedUsers",
              "type": "address[]"
            },
            {
              "internalType": "string",
              "name": "dossierHash",
              "type": "string"
            },
            {
              "internalType": "string",
              "name": "PublicKey",
              "type": "string"
            },
            {
              "components": [
                {
                  "internalType": "uint256",
                  "name": "id",
                  "type": "uint256"
                },
                {
                  "internalType": "uint256",
                  "name": "timestamp",
                  "type": "uint256"
                },
                {
                  "internalType": "string",
                  "name": "date",
                  "type": "string"
                },
                {
                  "internalType": "string",
                  "name": "diagnosis",
                  "type": "string"
                },
                {
                  "components": [
                    {
                      "internalType": "uint256",
                      "name": "id",
                      "type": "uint256"
                    },
                    {
                      "internalType": "uint256",
                      "name": "timestamp",
                      "type": "uint256"
                    },
                    {
                      "internalType": "address",
                      "name": "doctor",
                      "type": "address"
                    },
                    {
                      "internalType": "address",
                      "name": "patient",
                      "type": "address"
                    },
                    {
                      "internalType": "string[]",
                      "name": "medicines",
                      "type": "string[]"
                    },
                    {
                      "internalType": "bool",
                      "name": "fullyPurchased",
                      "type": "bool"
                    }
                  ],
                  "internalType": "struct Authentication.Prescription",
                  "name": "treatment",
                  "type": "tuple"
                },
                {
                  "components": [
                    {
                      "internalType": "address",
                      "name": "patient",
                      "type": "address"
                    },
                    {
                      "internalType": "uint256",
                      "name": "timestamp",
                      "type": "uint256"
                    },
                    {
                      "internalType": "string",
                      "name": "category",
                      "type": "string"
                    },
                    {
                      "internalType": "string",
                      "name": "result",
                      "type": "string"
                    },
                    {
                      "internalType": "bool",
                      "name": "done",
                      "type": "bool"
                    }
                  ],
                  "internalType": "struct Authentication.Test",
                  "name": "test",
                  "type": "tuple"
                },
                {
                  "components": [
                    {
                      "internalType": "string",
                      "name": "name",
                      "type": "string"
                    },
                    {
                      "internalType": "string",
                      "name": "speciality",
                      "type": "string"
                    }
                  ],
                  "internalType": "struct Authentication.doc",
                  "name": "doctor",
                  "type": "tuple"
                }
              ],
              "internalType": "struct Authentication.MedicalRecord[]",
              "name": "record",
              "type": "tuple[]"
            },
            {
              "components": [
                {
                  "internalType": "address",
                  "name": "doctor",
                  "type": "address"
                },
                {
                  "internalType": "address",
                  "name": "patient",
                  "type": "address"
                },
                {
                  "internalType": "uint256",
                  "name": "date",
                  "type": "uint256"
                },
                {
                  "internalType": "string",
                  "name": "purpose",
                  "type": "string"
                },
                {
                  "internalType": "bool",
                  "name": "isConfirmed",
                  "type": "bool"
                },
                {
                  "components": [
                    {
                      "internalType": "string",
                      "name": "name",
                      "type": "string"
                    },
                    {
                      "internalType": "string",
                      "name": "speciality",
                      "type": "string"
                    }
                  ],
                  "internalType": "struct Authentication.doc",
                  "name": "doctorN",
                  "type": "tuple"
                }
              ],
              "internalType": "struct Authentication.Appointment[]",
              "name": "Appointmentslist",
              "type": "tuple[]"
            }
          ],
          "internalType": "struct Patients.Patient",
          "name": "",
          "type": "tuple"
        }
      ],
      "stateMutability": "view",
      "type": "function",
      "constant": true
    },
    {
      "inputs": [
        {
          "internalType": "address",
          "name": "_patient",
          "type": "address"
        },
        {
          "components": [
            {
              "internalType": "address",
              "name": "doctor",
              "type": "address"
            },
            {
              "internalType": "address",
              "name": "patient",
              "type": "address"
            },
            {
              "internalType": "uint256",
              "name": "date",
              "type": "uint256"
            },
            {
              "internalType": "string",
              "name": "purpose",
              "type": "string"
            },
            {
              "internalType": "bool",
              "name": "isConfirmed",
              "type": "bool"
            },
            {
              "components": [
                {
                  "internalType": "string",
                  "name": "name",
                  "type": "string"
                },
                {
                  "internalType": "string",
                  "name": "speciality",
                  "type": "string"
                }
              ],
              "internalType": "struct Authentication.doc",
              "name": "doctorN",
              "type": "tuple"
            }
          ],
          "internalType": "struct Authentication.Appointment",
          "name": "newAppointment",
          "type": "tuple"
        }
      ],
      "name": "addAppointment",
      "outputs": [],
      "stateMutability": "nonpayable",
      "type": "function"
    },
    {
      "inputs": [
        {
          "components": [
            {
              "internalType": "uint256",
              "name": "id",
              "type": "uint256"
            },
            {
              "internalType": "uint256",
              "name": "timestamp",
              "type": "uint256"
            },
            {
              "internalType": "string",
              "name": "date",
              "type": "string"
            },
            {
              "internalType": "string",
              "name": "diagnosis",
              "type": "string"
            },
            {
              "components": [
                {
                  "internalType": "uint256",
                  "name": "id",
                  "type": "uint256"
                },
                {
                  "internalType": "uint256",
                  "name": "timestamp",
                  "type": "uint256"
                },
                {
                  "internalType": "address",
                  "name": "doctor",
                  "type": "address"
                },
                {
                  "internalType": "address",
                  "name": "patient",
                  "type": "address"
                },
                {
                  "internalType": "string[]",
                  "name": "medicines",
                  "type": "string[]"
                },
                {
                  "internalType": "bool",
                  "name": "fullyPurchased",
                  "type": "bool"
                }
              ],
              "internalType": "struct Authentication.Prescription",
              "name": "treatment",
              "type": "tuple"
            },
            {
              "components": [
                {
                  "internalType": "address",
                  "name": "patient",
                  "type": "address"
                },
                {
                  "internalType": "uint256",
                  "name": "timestamp",
                  "type": "uint256"
                },
                {
                  "internalType": "string",
                  "name": "category",
                  "type": "string"
                },
                {
                  "internalType": "string",
                  "name": "result",
                  "type": "string"
                },
                {
                  "internalType": "bool",
                  "name": "done",
                  "type": "bool"
                }
              ],
              "internalType": "struct Authentication.Test",
              "name": "test",
              "type": "tuple"
            },
            {
              "components": [
                {
                  "internalType": "string",
                  "name": "name",
                  "type": "string"
                },
                {
                  "internalType": "string",
                  "name": "speciality",
                  "type": "string"
                }
              ],
              "internalType": "struct Authentication.doc",
              "name": "doctor",
              "type": "tuple"
            }
          ],
          "internalType": "struct Authentication.MedicalRecord",
          "name": "record",
          "type": "tuple"
        },
        {
          "internalType": "address",
          "name": "_patient",
          "type": "address"
        }
      ],
      "name": "addrecordtoPatient",
      "outputs": [],
      "stateMutability": "nonpayable",
      "type": "function"
    },
    {
      "inputs": [
        {
          "internalType": "address",
          "name": "_patient",
          "type": "address"
        },
        {
          "internalType": "uint256",
          "name": "_id",
          "type": "uint256"
        }
      ],
      "name": "getRecordById",
      "outputs": [
        {
          "components": [
            {
              "internalType": "uint256",
              "name": "id",
              "type": "uint256"
            },
            {
              "internalType": "uint256",
              "name": "timestamp",
              "type": "uint256"
            },
            {
              "internalType": "string",
              "name": "date",
              "type": "string"
            },
            {
              "internalType": "string",
              "name": "diagnosis",
              "type": "string"
            },
            {
              "components": [
                {
                  "internalType": "uint256",
                  "name": "id",
                  "type": "uint256"
                },
                {
                  "internalType": "uint256",
                  "name": "timestamp",
                  "type": "uint256"
                },
                {
                  "internalType": "address",
                  "name": "doctor",
                  "type": "address"
                },
                {
                  "internalType": "address",
                  "name": "patient",
                  "type": "address"
                },
                {
                  "internalType": "string[]",
                  "name": "medicines",
                  "type": "string[]"
                },
                {
                  "internalType": "bool",
                  "name": "fullyPurchased",
                  "type": "bool"
                }
              ],
              "internalType": "struct Authentication.Prescription",
              "name": "treatment",
              "type": "tuple"
            },
            {
              "components": [
                {
                  "internalType": "address",
                  "name": "patient",
                  "type": "address"
                },
                {
                  "internalType": "uint256",
                  "name": "timestamp",
                  "type": "uint256"
                },
                {
                  "internalType": "string",
                  "name": "category",
                  "type": "string"
                },
                {
                  "internalType": "string",
                  "name": "result",
                  "type": "string"
                },
                {
                  "internalType": "bool",
                  "name": "done",
                  "type": "bool"
                }
              ],
              "internalType": "struct Authentication.Test",
              "name": "test",
              "type": "tuple"
            },
            {
              "components": [
                {
                  "internalType": "string",
                  "name": "name",
                  "type": "string"
                },
                {
                  "internalType": "string",
                  "name": "speciality",
                  "type": "string"
                }
              ],
              "internalType": "struct Authentication.doc",
              "name": "doctor",
              "type": "tuple"
            }
          ],
          "internalType": "struct Authentication.MedicalRecord",
          "name": "",
          "type": "tuple"
        }
      ],
      "stateMutability": "view",
      "type": "function",
      "constant": true
    },
    {
      "inputs": [
        {
          "internalType": "address",
          "name": "_patient",
          "type": "address"
        },
        {
          "internalType": "uint256",
          "name": "i",
          "type": "uint256"
        }
      ],
      "name": "printpatientrecord",
      "outputs": [
        {
          "components": [
            {
              "internalType": "uint256",
              "name": "id",
              "type": "uint256"
            },
            {
              "internalType": "uint256",
              "name": "timestamp",
              "type": "uint256"
            },
            {
              "internalType": "address",
              "name": "doctor",
              "type": "address"
            },
            {
              "internalType": "address",
              "name": "patient",
              "type": "address"
            },
            {
              "internalType": "string[]",
              "name": "medicines",
              "type": "string[]"
            },
            {
              "internalType": "bool",
              "name": "fullyPurchased",
              "type": "bool"
            }
          ],
          "internalType": "struct Authentication.Prescription",
          "name": "",
          "type": "tuple"
        }
      ],
      "stateMutability": "view",
      "type": "function",
      "constant": true
    },
    {
      "inputs": [
        {
          "internalType": "address",
          "name": "_user",
          "type": "address"
        },
        {
          "internalType": "address",
          "name": "_patient",
          "type": "address"
        },
        {
          "internalType": "uint256",
          "name": "_id",
          "type": "uint256"
        },
        {
          "internalType": "bool",
          "name": "_result",
          "type": "bool"
        }
      ],
      "name": "addPrescriptionResultToPatient",
      "outputs": [],
      "stateMutability": "nonpayable",
      "type": "function"
    },
    {
      "inputs": [
        {
          "internalType": "address",
          "name": "_patient",
          "type": "address"
        },
        {
          "internalType": "uint256",
          "name": "_id",
          "type": "uint256"
        },
        {
          "internalType": "string",
          "name": "_result",
          "type": "string"
        }
      ],
      "name": "addTestResultToPatient",
      "outputs": [],
      "stateMutability": "nonpayable",
      "type": "function"
    },
    {
      "inputs": [
        {
          "internalType": "uint256",
          "name": "prescriptionId",
          "type": "uint256"
        },
        {
          "internalType": "uint256",
          "name": "recordid",
          "type": "uint256"
        }
      ],
      "name": "demanderRemboursementPrescription",
      "outputs": [],
      "stateMutability": "nonpayable",
      "type": "function"
    },
    {
      "inputs": [
        {
          "internalType": "address",
          "name": "_user",
          "type": "address"
        }
      ],
      "name": "AuthorizeUser",
      "outputs": [],
      "stateMutability": "nonpayable",
      "type": "function"
    },
    {
      "inputs": [
        {
          "internalType": "address",
          "name": "_user",
          "type": "address"
        }
      ],
      "name": "removeAuthorizedUser",
      "outputs": [],
      "stateMutability": "nonpayable",
      "type": "function"
    },
    {
      "inputs": [
        {
          "internalType": "string",
          "name": "_ipfsfilehash",
          "type": "string"
        },
        {
          "internalType": "string",
          "name": "_pubkey",
          "type": "string"
        }
      ],
      "name": "StorePatientFileHash",
      "outputs": [
        {
          "internalType": "bool",
          "name": "",
          "type": "bool"
        }
      ],
      "stateMutability": "nonpayable",
      "type": "function"
    },
    {
      "inputs": [
        {
          "internalType": "address",
          "name": "_fromPatient",
          "type": "address"
        }
      ],
      "name": "getAuthorizedUsers",
      "outputs": [
        {
          "internalType": "address[]",
          "name": "",
          "type": "address[]"
        }
      ],
      "stateMutability": "view",
      "type": "function",
      "constant": true
    },
    {
      "inputs": [
        {
          "internalType": "address",
          "name": "_user",
          "type": "address"
        },
        {
          "internalType": "address",
          "name": "_fromPatient",
          "type": "address"
        }
      ],
      "name": "isAuthorized",
      "outputs": [
        {
          "internalType": "bool",
          "name": "",
          "type": "bool"
        }
      ],
      "stateMutability": "view",
      "type": "function",
      "constant": true
    },
    {
      "inputs": [
        {
          "internalType": "address",
          "name": "_user",
          "type": "address"
        },
        {
          "internalType": "address",
          "name": "_fromPatient",
          "type": "address"
        }
      ],
      "name": "getFileHash",
      "outputs": [
        {
          "internalType": "string",
          "name": "",
          "type": "string"
        }
      ],
      "stateMutability": "view",
      "type": "function",
      "constant": true
    },
    {
      "inputs": [],
      "name": "visualiserProchainsRendezVous",
      "outputs": [
        {
          "components": [
            {
              "internalType": "address",
              "name": "doctor",
              "type": "address"
            },
            {
              "internalType": "address",
              "name": "patient",
              "type": "address"
            },
            {
              "internalType": "uint256",
              "name": "date",
              "type": "uint256"
            },
            {
              "internalType": "string",
              "name": "purpose",
              "type": "string"
            },
            {
              "internalType": "bool",
              "name": "isConfirmed",
              "type": "bool"
            },
            {
              "components": [
                {
                  "internalType": "string",
                  "name": "name",
                  "type": "string"
                },
                {
                  "internalType": "string",
                  "name": "speciality",
                  "type": "string"
                }
              ],
              "internalType": "struct Authentication.doc",
              "name": "doctorN",
              "type": "tuple"
            }
          ],
          "internalType": "struct Authentication.Appointment[]",
          "name": "",
          "type": "tuple[]"
        }
      ],
      "stateMutability": "view",
      "type": "function",
      "constant": true
    },
    {
      "inputs": [
        {
          "internalType": "address",
          "name": "_patient",
          "type": "address"
        },
        {
          "internalType": "uint256",
          "name": "recordId",
          "type": "uint256"
        },
        {
          "internalType": "address",
          "name": "pharmachieaddress",
          "type": "address"
        }
      ],
      "name": "notifierAchatOrdonnance",
      "outputs": [],
      "stateMutability": "nonpayable",
      "type": "function"
    },
    {
      "inputs": [
        {
          "internalType": "address",
          "name": "_patient",
          "type": "address"
        },
        {
          "internalType": "address",
          "name": "_doctor",
          "type": "address"
        }
      ],
      "name": "notifierVisiteMedecin",
      "outputs": [],
      "stateMutability": "nonpayable",
      "type": "function"
    },
    {
      "inputs": [
        {
          "internalType": "address",
          "name": "_patient",
          "type": "address"
        },
        {
          "internalType": "uint256",
          "name": "recordId",
          "type": "uint256"
        },
        {
          "internalType": "string",
          "name": "_service",
          "type": "string"
        }
      ],
      "name": "notifierDemandeRemboursement",
      "outputs": [],
      "stateMutability": "nonpayable",
      "type": "function"
    }
  ],
  "bytecode": "0x60806040523480156200001157600080fd5b50604051620060e5380380620060e5833981810160405281019062000037919062000095565b806000806101000a81548173ffffffffffffffffffffffffffffffffffffffff021916908373ffffffffffffffffffffffffffffffffffffffff160217905550506200011a565b6000815190506200008f8162000100565b92915050565b600060208284031215620000ae57620000ad620000fb565b5b6000620000be848285016200007e565b91505092915050565b6000620000d482620000db565b9050919050565b600073ffffffffffffffffffffffffffffffffffffffff82169050919050565b600080fd5b6200010b81620000c7565b81146200011757600080fd5b50565b615fbb806200012a6000396000f3fe608060405234801561001057600080fd5b50600436106101365760003560e01c806371b73db0116100b857806396f548c11161007c57806396f548c114610361578063a0bef2131461037d578063bda06c4814610399578063c22037fd146103c9578063c6cc3885146103e5578063ce4f5d421461040157610136565b806371b73db0146102bf578063755ca919146102db578063832880e71461030b57806389fabc80146103295780638a0da0941461034557610136565b80632cf58ac2116100ff5780632cf58ac2146102095780634e6ddf66146102255780635e43b7f414610241578063618062ce1461027157806365e4ad9e1461028f57610136565b806206a8501461013b5780630869cfbc1461015757806308dd1a1e1461018d5780631176c48a146101a957806320dbc77f146101d9575b600080fd5b61015560048036038101906101509190614824565b610431565b005b610171600480360381019061016c91906146b4565b610523565b604051610184979695949392919061567a565b60405180910390f35b6101a760048036038101906101a29190614877565b610895565b005b6101c360048036038101906101be91906147e4565b6108ec565b6040516101d091906157f7565b60405180910390f35b6101f360048036038101906101ee91906146b4565b610b20565b60405161020091906155b4565b60405180910390f35b610223600480360381019061021e91906146b4565b610bf0565b005b61023f600480360381019061023a919061495e565b610e59565b005b61025b600480360381019061025691906146b4565b610fef565b60405161026891906157d5565b60405180910390f35b610279611d91565b60405161028691906155d6565b60405180910390f35b6102a960048036038101906102a491906146e1565b6120d1565b6040516102b691906155f8565b60405180910390f35b6102d960048036038101906102d49190614a77565b612164565b005b6102f560048036038101906102f091906147e4565b612409565b60405161030291906157b3565b60405180910390f35b610313612b83565b6040516103209190615819565b60405180910390f35b610343600480360381019061033e91906146b4565b612c3e565b005b61035f600480360381019061035a9190614788565b612fee565b005b61037b60048036038101906103769190614b1c565b61317a565b005b61039760048036038101906103929190614721565b613281565b005b6103b360048036038101906103ae91906148e6565b613666565b6040516103c091906155f8565b60405180910390f35b6103e360048036038101906103de9190614877565b613720565b005b6103ff60048036038101906103fa91906146e1565b613ab0565b005b61041b600480360381019061041691906146e1565b613b9f565b6040516104289190615613565b60405180910390f35b8073ffffffffffffffffffffffffffffffffffffffff168373ffffffffffffffffffffffffffffffffffffffff167ff477a5ab6704a78b8a27323cd480bfcae8c34ebaf6528f8d12f73d5a5c214aec8442600160008973ffffffffffffffffffffffffffffffffffffffff1673ffffffffffffffffffffffffffffffffffffffff168152602001908152602001600020600001600160008a73ffffffffffffffffffffffffffffffffffffffff1673ffffffffffffffffffffffffffffffffffffffff16815260200190815260200160002060010160405161051694939291906158d9565b60405180910390a3505050565b600160205280600052604060002060009150905080600001805461054690615c2f565b80601f016020809104026020016040519081016040528092919081815260200182805461057290615c2f565b80156105bf5780601f10610594576101008083540402835291602001916105bf565b820191906000526020600020905b8154815290600101906020018083116105a257829003601f168201915b5050505050908060010180546105d490615c2f565b80601f016020809104026020016040519081016040528092919081815260200182805461060090615c2f565b801561064d5780601f106106225761010080835404028352916020019161064d565b820191906000526020600020905b81548152906001019060200180831161063057829003601f168201915b50505050509080600201549080600301805461066890615c2f565b80601f016020809104026020016040519081016040528092919081815260200182805461069490615c2f565b80156106e15780601f106106b6576101008083540402835291602001916106e1565b820191906000526020600020905b8154815290600101906020018083116106c457829003601f168201915b5050505050908060040180546106f690615c2f565b80601f016020809104026020016040519081016040528092919081815260200182805461072290615c2f565b801561076f5780601f106107445761010080835404028352916020019161076f565b820191906000526020600020905b81548152906001019060200180831161075257829003601f168201915b50505050509080600601805461078490615c2f565b80601f01602080910402602001604051908101604052809291908181526020018280546107b090615c2f565b80156107fd5780601f106107d2576101008083540402835291602001916107fd565b820191906000526020600020905b8154815290600101906020018083116107e057829003601f168201915b50505050509080600701805461081290615c2f565b80601f016020809104026020016040519081016040528092919081815260200182805461083e90615c2f565b801561088b5780601f106108605761010080835404028352916020019161088b565b820191906000526020600020905b81548152906001019060200180831161086e57829003601f168201915b5050505050905087565b8273ffffffffffffffffffffffffffffffffffffffff167f3317f3a0e0db1b4fb9e4723d92dd4f5595f27dc9acbb2bb04aa03d3637973d9c8383426040516108df93929190615856565b60405180910390a2505050565b6108f4613cc1565b600160008473ffffffffffffffffffffffffffffffffffffffff1673ffffffffffffffffffffffffffffffffffffffff168152602001908152602001600020600801828154811061094857610947615d97565b5b90600052602060002090601102016004016040518060c001604052908160008201548152602001600182015481526020016002820160009054906101000a900473ffffffffffffffffffffffffffffffffffffffff1673ffffffffffffffffffffffffffffffffffffffff1673ffffffffffffffffffffffffffffffffffffffff1681526020016003820160009054906101000a900473ffffffffffffffffffffffffffffffffffffffff1673ffffffffffffffffffffffffffffffffffffffff1673ffffffffffffffffffffffffffffffffffffffff16815260200160048201805480602002602001604051908101604052809291908181526020016000905b82821015610af5578382906000526020600020018054610a6890615c2f565b80601f0160208091040260200160405190810160405280929190818152602001828054610a9490615c2f565b8015610ae15780601f10610ab657610100808354040283529160200191610ae1565b820191906000526020600020905b815481529060010190602001808311610ac457829003601f168201915b505050505081526020019060010190610a49565b5050505081526020016005820160009054906101000a900460ff161515151581525050905092915050565b6060600160008373ffffffffffffffffffffffffffffffffffffffff1673ffffffffffffffffffffffffffffffffffffffff168152602001908152602001600020600501805480602002602001604051908101604052809291908181526020018280548015610be457602002820191906000526020600020905b8160009054906101000a900473ffffffffffffffffffffffffffffffffffffffff1673ffffffffffffffffffffffffffffffffffffffff1681526020019060010190808311610b9a575b50505050509050919050565b60006005811115610c0457610c03615d0a565b5b610c0c612b83565b602001516005811115610c2257610c21615d0a565b5b14610c62576040517f08c379a0000000000000000000000000000000000000000000000000000000008152600401610c5990615753565b60405180910390fd5b60005b600160003373ffffffffffffffffffffffffffffffffffffffff1673ffffffffffffffffffffffffffffffffffffffff16815260200190815260200160002060050180549050811015610db2578173ffffffffffffffffffffffffffffffffffffffff16600160003373ffffffffffffffffffffffffffffffffffffffff1673ffffffffffffffffffffffffffffffffffffffff1681526020019081526020016000206005018281548110610d1d57610d1c615d97565b5b9060005260206000200160009054906101000a900473ffffffffffffffffffffffffffffffffffffffff1673ffffffffffffffffffffffffffffffffffffffff161415610d9f576040517f08c379a0000000000000000000000000000000000000000000000000000000008152600401610d9690615773565b60405180910390fd5b8080610daa90615c92565b915050610c65565b50600160003373ffffffffffffffffffffffffffffffffffffffff1673ffffffffffffffffffffffffffffffffffffffff168152602001908152602001600020600501819080600181540180825580915050600190039060005260206000200160009091909190916101000a81548173ffffffffffffffffffffffffffffffffffffffff021916908373ffffffffffffffffffffffffffffffffffffffff16021790555050565b60006005811115610e6d57610e6c615d0a565b5b610e75612b83565b602001516005811115610e8b57610e8a615d0a565b5b14610ecb576040517f08c379a0000000000000000000000000000000000000000000000000000000008152600401610ec290615753565b60405180910390fd5b6000600160003373ffffffffffffffffffffffffffffffffffffffff1673ffffffffffffffffffffffffffffffffffffffff168152602001908152602001600020905086816000019080519060200190610f26929190613d25565b5085816001019080519060200190610f3f929190613d25565b5084816002018190555083816006019080519060200190610f61929190613d25565b5082816003019080519060200190610f7a929190613d25565b5081816004019080519060200190610f93929190613d25565b503373ffffffffffffffffffffffffffffffffffffffff167fadd218b24ff5b25f4b80ecf05df8cf672da7cf9d0a05add2de877a20f0c8ba66888888604051610fde93929190615635565b60405180910390a250505050505050565b610ff7613dab565b600160008373ffffffffffffffffffffffffffffffffffffffff1673ffffffffffffffffffffffffffffffffffffffff1681526020019081526020016000206040518061014001604052908160008201805461105290615c2f565b80601f016020809104026020016040519081016040528092919081815260200182805461107e90615c2f565b80156110cb5780601f106110a0576101008083540402835291602001916110cb565b820191906000526020600020905b8154815290600101906020018083116110ae57829003601f168201915b505050505081526020016001820180546110e490615c2f565b80601f016020809104026020016040519081016040528092919081815260200182805461111090615c2f565b801561115d5780601f106111325761010080835404028352916020019161115d565b820191906000526020600020905b81548152906001019060200180831161114057829003601f168201915b505050505081526020016002820154815260200160038201805461118090615c2f565b80601f01602080910402602001604051908101604052809291908181526020018280546111ac90615c2f565b80156111f95780601f106111ce576101008083540402835291602001916111f9565b820191906000526020600020905b8154815290600101906020018083116111dc57829003601f168201915b5050505050815260200160048201805461121290615c2f565b80601f016020809104026020016040519081016040528092919081815260200182805461123e90615c2f565b801561128b5780601f106112605761010080835404028352916020019161128b565b820191906000526020600020905b81548152906001019060200180831161126e57829003601f168201915b505050505081526020016005820180548060200260200160405190810160405280929190818152602001828054801561131957602002820191906000526020600020905b8160009054906101000a900473ffffffffffffffffffffffffffffffffffffffff1673ffffffffffffffffffffffffffffffffffffffff16815260200190600101908083116112cf575b5050505050815260200160068201805461133290615c2f565b80601f016020809104026020016040519081016040528092919081815260200182805461135e90615c2f565b80156113ab5780601f10611380576101008083540402835291602001916113ab565b820191906000526020600020905b81548152906001019060200180831161138e57829003601f168201915b505050505081526020016007820180546113c490615c2f565b80601f01602080910402602001604051908101604052809291908181526020018280546113f090615c2f565b801561143d5780601f106114125761010080835404028352916020019161143d565b820191906000526020600020905b81548152906001019060200180831161142057829003601f168201915b5050505050815260200160088201805480602002602001604051908101604052809291908181526020016000905b82821015611a8857838290600052602060002090601102016040518060e001604052908160008201548152602001600182015481526020016002820180546114b290615c2f565b80601f01602080910402602001604051908101604052809291908181526020018280546114de90615c2f565b801561152b5780601f106115005761010080835404028352916020019161152b565b820191906000526020600020905b81548152906001019060200180831161150e57829003601f168201915b5050505050815260200160038201805461154490615c2f565b80601f016020809104026020016040519081016040528092919081815260200182805461157090615c2f565b80156115bd5780601f10611592576101008083540402835291602001916115bd565b820191906000526020600020905b8154815290600101906020018083116115a057829003601f168201915b50505050508152602001600482016040518060c001604052908160008201548152602001600182015481526020016002820160009054906101000a900473ffffffffffffffffffffffffffffffffffffffff1673ffffffffffffffffffffffffffffffffffffffff1673ffffffffffffffffffffffffffffffffffffffff1681526020016003820160009054906101000a900473ffffffffffffffffffffffffffffffffffffffff1673ffffffffffffffffffffffffffffffffffffffff1673ffffffffffffffffffffffffffffffffffffffff16815260200160048201805480602002602001604051908101604052809291908181526020016000905b828210156117675783829060005260206000200180546116da90615c2f565b80601f016020809104026020016040519081016040528092919081815260200182805461170690615c2f565b80156117535780601f1061172857610100808354040283529160200191611753565b820191906000526020600020905b81548152906001019060200180831161173657829003601f168201915b5050505050815260200190600101906116bb565b5050505081526020016005820160009054906101000a900460ff1615151515815250508152602001600a82016040518060a00160405290816000820160009054906101000a900473ffffffffffffffffffffffffffffffffffffffff1673ffffffffffffffffffffffffffffffffffffffff1673ffffffffffffffffffffffffffffffffffffffff1681526020016001820154815260200160028201805461180e90615c2f565b80601f016020809104026020016040519081016040528092919081815260200182805461183a90615c2f565b80156118875780601f1061185c57610100808354040283529160200191611887565b820191906000526020600020905b81548152906001019060200180831161186a57829003601f168201915b505050505081526020016003820180546118a090615c2f565b80601f01602080910402602001604051908101604052809291908181526020018280546118cc90615c2f565b80156119195780601f106118ee57610100808354040283529160200191611919565b820191906000526020600020905b8154815290600101906020018083116118fc57829003601f168201915b505050505081526020016004820160009054906101000a900460ff1615151515815250508152602001600f820160405180604001604052908160008201805461196190615c2f565b80601f016020809104026020016040519081016040528092919081815260200182805461198d90615c2f565b80156119da5780601f106119af576101008083540402835291602001916119da565b820191906000526020600020905b8154815290600101906020018083116119bd57829003601f168201915b505050505081526020016001820180546119f390615c2f565b80601f0160208091040260200160405190810160405280929190818152602001828054611a1f90615c2f565b8015611a6c5780601f10611a4157610100808354040283529160200191611a6c565b820191906000526020600020905b815481529060010190602001808311611a4f57829003601f168201915b505050505081525050815250508152602001906001019061146b565b50505050815260200160098201805480602002602001604051908101604052809291908181526020016000905b82821015611d8257838290600052602060002090600702016040518060c00160405290816000820160009054906101000a900473ffffffffffffffffffffffffffffffffffffffff1673ffffffffffffffffffffffffffffffffffffffff1673ffffffffffffffffffffffffffffffffffffffff1681526020016001820160009054906101000a900473ffffffffffffffffffffffffffffffffffffffff1673ffffffffffffffffffffffffffffffffffffffff1673ffffffffffffffffffffffffffffffffffffffff16815260200160028201548152602001600382018054611b9e90615c2f565b80601f0160208091040260200160405190810160405280929190818152602001828054611bca90615c2f565b8015611c175780601f10611bec57610100808354040283529160200191611c17565b820191906000526020600020905b815481529060010190602001808311611bfa57829003601f168201915b505050505081526020016004820160009054906101000a900460ff1615151515815260200160058201604051806040016040529081600082018054611c5b90615c2f565b80601f0160208091040260200160405190810160405280929190818152602001828054611c8790615c2f565b8015611cd45780601f10611ca957610100808354040283529160200191611cd4565b820191906000526020600020905b815481529060010190602001808311611cb757829003601f168201915b50505050508152602001600182018054611ced90615c2f565b80601f0160208091040260200160405190810160405280929190818152602001828054611d1990615c2f565b8015611d665780601f10611d3b57610100808354040283529160200191611d66565b820191906000526020600020905b815481529060010190602001808311611d4957829003601f168201915b5050505050815250508152505081526020019060010190611ab5565b50505050815250509050919050565b60606000600160003373ffffffffffffffffffffffffffffffffffffffff1673ffffffffffffffffffffffffffffffffffffffff168152602001908152602001600020905080600901805480602002602001604051908101604052809291908181526020016000905b828210156120c757838290600052602060002090600702016040518060c00160405290816000820160009054906101000a900473ffffffffffffffffffffffffffffffffffffffff1673ffffffffffffffffffffffffffffffffffffffff1673ffffffffffffffffffffffffffffffffffffffff1681526020016001820160009054906101000a900473ffffffffffffffffffffffffffffffffffffffff1673ffffffffffffffffffffffffffffffffffffffff1673ffffffffffffffffffffffffffffffffffffffff16815260200160028201548152602001600382018054611ee390615c2f565b80601f0160208091040260200160405190810160405280929190818152602001828054611f0f90615c2f565b8015611f5c5780601f10611f3157610100808354040283529160200191611f5c565b820191906000526020600020905b815481529060010190602001808311611f3f57829003601f168201915b505050505081526020016004820160009054906101000a900460ff1615151515815260200160058201604051806040016040529081600082018054611fa090615c2f565b80601f0160208091040260200160405190810160405280929190818152602001828054611fcc90615c2f565b80156120195780601f10611fee57610100808354040283529160200191612019565b820191906000526020600020905b815481529060010190602001808311611ffc57829003601f168201915b5050505050815260200160018201805461203290615c2f565b80601f016020809104026020016040519081016040528092919081815260200182805461205e90615c2f565b80156120ab5780601f10612080576101008083540402835291602001916120ab565b820191906000526020600020905b81548152906001019060200180831161208e57829003601f168201915b5050505050815250508152505081526020019060010190611dfa565b5050505091505090565b6000806120dd83610b20565b905060005b8151811015612157578473ffffffffffffffffffffffffffffffffffffffff1682828151811061211557612114615d97565b5b602002602001015173ffffffffffffffffffffffffffffffffffffffff1614156121445760019250505061215e565b808061214f90615c92565b9150506120e2565b5060009150505b92915050565b600160008273ffffffffffffffffffffffffffffffffffffffff1673ffffffffffffffffffffffffffffffffffffffff16815260200190815260200160002060080182908060018154018082558091505060019003906000526020600020906011020160009091909190915060008201518160000155602082015181600101556040820151816002019080519060200190612200929190613d25565b50606082015181600301908051906020019061221d929190613d25565b50608082015181600401600082015181600001556020820151816001015560408201518160020160006101000a81548173ffffffffffffffffffffffffffffffffffffffff021916908373ffffffffffffffffffffffffffffffffffffffff16021790555060608201518160030160006101000a81548173ffffffffffffffffffffffffffffffffffffffff021916908373ffffffffffffffffffffffffffffffffffffffff16021790555060808201518160040190805190602001906122e5929190613dfe565b5060a08201518160050160006101000a81548160ff021916908315150217905550505060a082015181600a0160008201518160000160006101000a81548173ffffffffffffffffffffffffffffffffffffffff021916908373ffffffffffffffffffffffffffffffffffffffff16021790555060208201518160010155604082015181600201908051906020019061237e929190613d25565b50606082015181600301908051906020019061239b929190613d25565b5060808201518160040160006101000a81548160ff021916908315150217905550505060c082015181600f0160008201518160000190805190602001906123e3929190613d25565b506020820151816001019080519060200190612400929190613d25565b50505050505050565b612411613e5e565b60005b600160008573ffffffffffffffffffffffffffffffffffffffff1673ffffffffffffffffffffffffffffffffffffffff16815260200190815260200160002060080180549050811015612b415782600160008673ffffffffffffffffffffffffffffffffffffffff1673ffffffffffffffffffffffffffffffffffffffff16815260200190815260200160002060080182815481106124b6576124b5615d97565b5b9060005260206000209060110201600001541415612b2e57600160008573ffffffffffffffffffffffffffffffffffffffff1673ffffffffffffffffffffffffffffffffffffffff168152602001908152602001600020600801818154811061252257612521615d97565b5b90600052602060002090601102016040518060e0016040529081600082015481526020016001820154815260200160028201805461255f90615c2f565b80601f016020809104026020016040519081016040528092919081815260200182805461258b90615c2f565b80156125d85780601f106125ad576101008083540402835291602001916125d8565b820191906000526020600020905b8154815290600101906020018083116125bb57829003601f168201915b505050505081526020016003820180546125f190615c2f565b80601f016020809104026020016040519081016040528092919081815260200182805461261d90615c2f565b801561266a5780601f1061263f5761010080835404028352916020019161266a565b820191906000526020600020905b81548152906001019060200180831161264d57829003601f168201915b50505050508152602001600482016040518060c001604052908160008201548152602001600182015481526020016002820160009054906101000a900473ffffffffffffffffffffffffffffffffffffffff1673ffffffffffffffffffffffffffffffffffffffff1673ffffffffffffffffffffffffffffffffffffffff1681526020016003820160009054906101000a900473ffffffffffffffffffffffffffffffffffffffff1673ffffffffffffffffffffffffffffffffffffffff1673ffffffffffffffffffffffffffffffffffffffff16815260200160048201805480602002602001604051908101604052809291908181526020016000905b8282101561281457838290600052602060002001805461278790615c2f565b80601f01602080910402602001604051908101604052809291908181526020018280546127b390615c2f565b80156128005780601f106127d557610100808354040283529160200191612800565b820191906000526020600020905b8154815290600101906020018083116127e357829003601f168201915b505050505081526020019060010190612768565b5050505081526020016005820160009054906101000a900460ff1615151515815250508152602001600a82016040518060a00160405290816000820160009054906101000a900473ffffffffffffffffffffffffffffffffffffffff1673ffffffffffffffffffffffffffffffffffffffff1673ffffffffffffffffffffffffffffffffffffffff168152602001600182015481526020016002820180546128bb90615c2f565b80601f01602080910402602001604051908101604052809291908181526020018280546128e790615c2f565b80156129345780601f1061290957610100808354040283529160200191612934565b820191906000526020600020905b81548152906001019060200180831161291757829003601f168201915b5050505050815260200160038201805461294d90615c2f565b80601f016020809104026020016040519081016040528092919081815260200182805461297990615c2f565b80156129c65780601f1061299b576101008083540402835291602001916129c6565b820191906000526020600020905b8154815290600101906020018083116129a957829003601f168201915b505050505081526020016004820160009054906101000a900460ff1615151515815250508152602001600f8201604051806040016040529081600082018054612a0e90615c2f565b80601f0160208091040260200160405190810160405280929190818152602001828054612a3a90615c2f565b8015612a875780601f10612a5c57610100808354040283529160200191612a87565b820191906000526020600020905b815481529060010190602001808311612a6a57829003601f168201915b50505050508152602001600182018054612aa090615c2f565b80601f0160208091040260200160405190810160405280929190818152602001828054612acc90615c2f565b8015612b195780601f10612aee57610100808354040283529160200191612b19565b820191906000526020600020905b815481529060010190602001808311612afc57829003601f168201915b50505050508152505081525050915050612b7d565b8080612b3990615c92565b915050612414565b506040517f08c379a0000000000000000000000000000000000000000000000000000000008152600401612b7490615793565b60405180910390fd5b92915050565b612b8b613ead565b60008054906101000a900473ffffffffffffffffffffffffffffffffffffffff1673ffffffffffffffffffffffffffffffffffffffff16636f77926b336040518263ffffffff1660e01b8152600401612be49190615599565b60006040518083038186803b158015612bfc57600080fd5b505afa158015612c10573d6000803e3d6000fd5b505050506040513d6000823e3d601f19601f82011682018060405250810190612c399190614ad3565b905090565b60006005811115612c5257612c51615d0a565b5b612c5a612b83565b602001516005811115612c7057612c6f615d0a565b5b14612cb0576040517f08c379a0000000000000000000000000000000000000000000000000000000008152600401612ca790615753565b60405180910390fd5b60005b600160003373ffffffffffffffffffffffffffffffffffffffff1673ffffffffffffffffffffffffffffffffffffffff16815260200190815260200160002060050180549050811015612fea578173ffffffffffffffffffffffffffffffffffffffff16600160003373ffffffffffffffffffffffffffffffffffffffff1673ffffffffffffffffffffffffffffffffffffffff1681526020019081526020016000206005018281548110612d6b57612d6a615d97565b5b9060005260206000200160009054906101000a900473ffffffffffffffffffffffffffffffffffffffff1673ffffffffffffffffffffffffffffffffffffffff161415612fd75760008190505b60018060003373ffffffffffffffffffffffffffffffffffffffff1673ffffffffffffffffffffffffffffffffffffffff16815260200190815260200160002060050180549050612e099190615b4c565b811015612f4a57600160003373ffffffffffffffffffffffffffffffffffffffff1673ffffffffffffffffffffffffffffffffffffffff168152602001908152602001600020600501600182612e5f9190615af6565b81548110612e7057612e6f615d97565b5b9060005260206000200160009054906101000a900473ffffffffffffffffffffffffffffffffffffffff16600160003373ffffffffffffffffffffffffffffffffffffffff1673ffffffffffffffffffffffffffffffffffffffff1681526020019081526020016000206005018281548110612eef57612eee615d97565b5b9060005260206000200160006101000a81548173ffffffffffffffffffffffffffffffffffffffff021916908373ffffffffffffffffffffffffffffffffffffffff1602179055508080612f4290615c92565b915050612db8565b50600160003373ffffffffffffffffffffffffffffffffffffffff1673ffffffffffffffffffffffffffffffffffffffff168152602001908152602001600020600501805480612f9d57612f9c615d68565b5b6001900381819060005260206000200160006101000a81549073ffffffffffffffffffffffffffffffffffffffff02191690559055612fea565b8080612fe290615c92565b915050612cb3565b5050565b600160008373ffffffffffffffffffffffffffffffffffffffff1673ffffffffffffffffffffffffffffffffffffffff16815260200190815260200160002060090181908060018154018082558091505060019003906000526020600020906007020160009091909190915060008201518160000160006101000a81548173ffffffffffffffffffffffffffffffffffffffff021916908373ffffffffffffffffffffffffffffffffffffffff16021790555060208201518160010160006101000a81548173ffffffffffffffffffffffffffffffffffffffff021916908373ffffffffffffffffffffffffffffffffffffffff16021790555060408201518160020155606082015181600301908051906020019061310e929190613d25565b5060808201518160040160006101000a81548160ff02191690831515021790555060a0820151816005016000820151816000019080519060200190613154929190613d25565b506020820151816001019080519060200190613171929190613d25565b50505050505050565b600160003373ffffffffffffffffffffffffffffffffffffffff1673ffffffffffffffffffffffffffffffffffffffff16815260200190815260200160002060080181815481106131ce576131cd615d97565b5b906000526020600020906011020160040160050160009054906101000a900460ff1661322f576040517f08c379a000000000000000000000000000000000000000000000000000000000815260040161322690615733565b60405180910390fd5b3373ffffffffffffffffffffffffffffffffffffffff167f6a60ebfdaa84ee71252ccda75c47802d0aff8e9c3c0f57ccfff3932cce1f73ff83604051613275919061583b565b60405180910390a25050565b838361328d82826120d1565b6132cc576040517f08c379a00000000000000000000000000000000000000000000000000000000081526004016132c390615713565b60405180910390fd5b60006132d88686612409565b905083816080015160a001901515908115158152505060005b600160008873ffffffffffffffffffffffffffffffffffffffff1673ffffffffffffffffffffffffffffffffffffffff1681526020019081526020016000206008018054905081101561365c5785600160008973ffffffffffffffffffffffffffffffffffffffff1673ffffffffffffffffffffffffffffffffffffffff168152602001908152602001600020600801828154811061339357613392615d97565b5b90600052602060002090601102016000015414156136495781600160008973ffffffffffffffffffffffffffffffffffffffff1673ffffffffffffffffffffffffffffffffffffffff1681526020019081526020016000206008018281548110613400576133ff615d97565b5b90600052602060002090601102016000820151816000015560208201518160010155604082015181600201908051906020019061343e929190613d25565b50606082015181600301908051906020019061345b929190613d25565b50608082015181600401600082015181600001556020820151816001015560408201518160020160006101000a81548173ffffffffffffffffffffffffffffffffffffffff021916908373ffffffffffffffffffffffffffffffffffffffff16021790555060608201518160030160006101000a81548173ffffffffffffffffffffffffffffffffffffffff021916908373ffffffffffffffffffffffffffffffffffffffff1602179055506080820151816004019080519060200190613523929190613dfe565b5060a08201518160050160006101000a81548160ff021916908315150217905550505060a082015181600a0160008201518160000160006101000a81548173ffffffffffffffffffffffffffffffffffffffff021916908373ffffffffffffffffffffffffffffffffffffffff1602179055506020820151816001015560408201518160020190805190602001906135bc929190613d25565b5060608201518160030190805190602001906135d9929190613d25565b5060808201518160040160006101000a81548160ff021916908315150217905550505060c082015181600f016000820151816000019080519060200190613621929190613d25565b50602082015181600101908051906020019061363e929190613d25565b50505090505061365c565b808061365490615c92565b9150506132f1565b5050505050505050565b600082600160003373ffffffffffffffffffffffffffffffffffffffff1673ffffffffffffffffffffffffffffffffffffffff16815260200190815260200160002060060190805190602001906136be929190613d25565b5081600160003373ffffffffffffffffffffffffffffffffffffffff1673ffffffffffffffffffffffffffffffffffffffff1681526020019081526020016000206007019080519060200190613715929190613d25565b506001905092915050565b600061372c8484612409565b9050818160a001516060018190525060005b600160008673ffffffffffffffffffffffffffffffffffffffff1673ffffffffffffffffffffffffffffffffffffffff16815260200190815260200160002060080180549050811015613aa95783600160008773ffffffffffffffffffffffffffffffffffffffff1673ffffffffffffffffffffffffffffffffffffffff16815260200190815260200160002060080182815481106137e0576137df615d97565b5b9060005260206000209060110201600001541415613a965781600160008773ffffffffffffffffffffffffffffffffffffffff1673ffffffffffffffffffffffffffffffffffffffff168152602001908152602001600020600801828154811061384d5761384c615d97565b5b90600052602060002090601102016000820151816000015560208201518160010155604082015181600201908051906020019061388b929190613d25565b5060608201518160030190805190602001906138a8929190613d25565b50608082015181600401600082015181600001556020820151816001015560408201518160020160006101000a81548173ffffffffffffffffffffffffffffffffffffffff021916908373ffffffffffffffffffffffffffffffffffffffff16021790555060608201518160030160006101000a81548173ffffffffffffffffffffffffffffffffffffffff021916908373ffffffffffffffffffffffffffffffffffffffff1602179055506080820151816004019080519060200190613970929190613dfe565b5060a08201518160050160006101000a81548160ff021916908315150217905550505060a082015181600a0160008201518160000160006101000a81548173ffffffffffffffffffffffffffffffffffffffff021916908373ffffffffffffffffffffffffffffffffffffffff160217905550602082015181600101556040820151816002019080519060200190613a09929190613d25565b506060820151816003019080519060200190613a26929190613d25565b5060808201518160040160006101000a81548160ff021916908315150217905550505060c082015181600f016000820151816000019080519060200190613a6e929190613d25565b506020820151816001019080519060200190613a8b929190613d25565b505050905050613aa9565b8080613aa190615c92565b91505061373e565b5050505050565b8073ffffffffffffffffffffffffffffffffffffffff168273ffffffffffffffffffffffffffffffffffffffff167fe3de6f62618d9e28e49b529ffc3b61b9a0cc8e0f1a92770f964a1ee76603fb4942600160008773ffffffffffffffffffffffffffffffffffffffff1673ffffffffffffffffffffffffffffffffffffffff168152602001908152602001600020600001600160008873ffffffffffffffffffffffffffffffffffffffff1673ffffffffffffffffffffffffffffffffffffffff168152602001908152602001600020600101604051613b9393929190615894565b60405180910390a35050565b60608282613bad82826120d1565b613bec576040517f08c379a0000000000000000000000000000000000000000000000000000000008152600401613be390615713565b60405180910390fd5b600160008573ffffffffffffffffffffffffffffffffffffffff1673ffffffffffffffffffffffffffffffffffffffff1681526020019081526020016000206006018054613c3990615c2f565b80601f0160208091040260200160405190810160405280929190818152602001828054613c6590615c2f565b8015613cb25780601f10613c8757610100808354040283529160200191613cb2565b820191906000526020600020905b815481529060010190602001808311613c9557829003601f168201915b50505050509250505092915050565b6040518060c001604052806000815260200160008152602001600073ffffffffffffffffffffffffffffffffffffffff168152602001600073ffffffffffffffffffffffffffffffffffffffff168152602001606081526020016000151581525090565b828054613d3190615c2f565b90600052602060002090601f016020900481019282613d535760008555613d9a565b82601f10613d6c57805160ff1916838001178555613d9a565b82800160010185558215613d9a579182015b82811115613d99578251825591602001919060010190613d7e565b5b509050613da79190613efd565b5090565b604051806101400160405280606081526020016060815260200160008152602001606081526020016060815260200160608152602001606081526020016060815260200160608152602001606081525090565b828054828255906000526020600020908101928215613e4d579160200282015b82811115613e4c578251829080519060200190613e3c929190613d25565b5091602001919060010190613e1e565b5b509050613e5a9190613f1a565b5090565b6040518060e0016040528060008152602001600081526020016060815260200160608152602001613e8d613cc1565b8152602001613e9a613f3e565b8152602001613ea7613f85565b81525090565b60405180608001604052806060815260200160006005811115613ed357613ed2615d0a565b5b815260200160608152602001600073ffffffffffffffffffffffffffffffffffffffff1681525090565b5b80821115613f16576000816000905550600101613efe565b5090565b5b80821115613f3a5760008181613f319190613f9f565b50600101613f1b565b5090565b6040518060a00160405280600073ffffffffffffffffffffffffffffffffffffffff1681526020016000815260200160608152602001606081526020016000151581525090565b604051806040016040528060608152602001606081525090565b508054613fab90615c2f565b6000825580601f10613fbd5750613fdc565b601f016020900490600052602060002090810190613fdb9190613efd565b5b50565b6000613ff2613fed84615951565b61592c565b9050808382526020820190508285602086028201111561401557614014615e04565b5b60005b8581101561406357813567ffffffffffffffff81111561403b5761403a615df5565b5b8086016140488982614173565b85526020850194506020840193505050600181019050614018565b5050509392505050565b600061408061407b8461597d565b61592c565b90508281526020810184848401111561409c5761409b615e09565b5b6140a7848285615bed565b509392505050565b60006140c26140bd8461597d565b61592c565b9050828152602081018484840111156140de576140dd615e09565b5b6140e9848285615bfc565b509392505050565b60008135905061410081615f30565b92915050565b60008151905061411581615f30565b92915050565b600082601f8301126141305761412f615df5565b5b8135614140848260208601613fdf565b91505092915050565b60008135905061415881615f47565b92915050565b60008151905061416d81615f5e565b92915050565b600082601f83011261418857614187615df5565b5b813561419884826020860161406d565b91505092915050565b600082601f8301126141b6576141b5615df5565b5b81516141c68482602086016140af565b91505092915050565b600060c082840312156141e5576141e4615dfa565b5b6141ef60c061592c565b905060006141ff848285016140f1565b6000830152506020614213848285016140f1565b60208301525060406142278482850161469f565b604083015250606082013567ffffffffffffffff81111561424b5761424a615dff565b5b61425784828501614173565b606083015250608061426b84828501614149565b60808301525060a082013567ffffffffffffffff81111561428f5761428e615dff565b5b61429b84828501614617565b60a08301525092915050565b600060e082840312156142bd576142bc615dfa565b5b6142c760e061592c565b905060006142d78482850161469f565b60008301525060206142eb8482850161469f565b602083015250604082013567ffffffffffffffff81111561430f5761430e615dff565b5b61431b84828501614173565b604083015250606082013567ffffffffffffffff81111561433f5761433e615dff565b5b61434b84828501614173565b606083015250608082013567ffffffffffffffff81111561436f5761436e615dff565b5b61437b848285016143e7565b60808301525060a082013567ffffffffffffffff81111561439f5761439e615dff565b5b6143ab848285016144a3565b60a08301525060c082013567ffffffffffffffff8111156143cf576143ce615dff565b5b6143db84828501614617565b60c08301525092915050565b600060c082840312156143fd576143fc615dfa565b5b61440760c061592c565b905060006144178482850161469f565b600083015250602061442b8482850161469f565b602083015250604061443f848285016140f1565b6040830152506060614453848285016140f1565b606083015250608082013567ffffffffffffffff81111561447757614476615dff565b5b6144838482850161411b565b60808301525060a061449784828501614149565b60a08301525092915050565b600060a082840312156144b9576144b8615dfa565b5b6144c360a061592c565b905060006144d3848285016140f1565b60008301525060206144e78482850161469f565b602083015250604082013567ffffffffffffffff81111561450b5761450a615dff565b5b61451784828501614173565b604083015250606082013567ffffffffffffffff81111561453b5761453a615dff565b5b61454784828501614173565b606083015250608061455b84828501614149565b60808301525092915050565b60006080828403121561457d5761457c615dfa565b5b614587608061592c565b9050600082015167ffffffffffffffff8111156145a7576145a6615dff565b5b6145b3848285016141a1565b60008301525060206145c78482850161415e565b602083015250604082015167ffffffffffffffff8111156145eb576145ea615dff565b5b6145f7848285016141a1565b604083015250606061460b84828501614106565b60608301525092915050565b60006040828403121561462d5761462c615dfa565b5b614637604061592c565b9050600082013567ffffffffffffffff81111561465757614656615dff565b5b61466384828501614173565b600083015250602082013567ffffffffffffffff81111561468757614686615dff565b5b61469384828501614173565b60208301525092915050565b6000813590506146ae81615f6e565b92915050565b6000602082840312156146ca576146c9615e13565b5b60006146d8848285016140f1565b91505092915050565b600080604083850312156146f8576146f7615e13565b5b6000614706858286016140f1565b9250506020614717858286016140f1565b9150509250929050565b6000806000806080858703121561473b5761473a615e13565b5b6000614749878288016140f1565b945050602061475a878288016140f1565b935050604061476b8782880161469f565b925050606061477c87828801614149565b91505092959194509250565b6000806040838503121561479f5761479e615e13565b5b60006147ad858286016140f1565b925050602083013567ffffffffffffffff8111156147ce576147cd615e0e565b5b6147da858286016141cf565b9150509250929050565b600080604083850312156147fb576147fa615e13565b5b6000614809858286016140f1565b925050602061481a8582860161469f565b9150509250929050565b60008060006060848603121561483d5761483c615e13565b5b600061484b868287016140f1565b935050602061485c8682870161469f565b925050604061486d868287016140f1565b9150509250925092565b6000806000606084860312156148905761488f615e13565b5b600061489e868287016140f1565b93505060206148af8682870161469f565b925050604084013567ffffffffffffffff8111156148d0576148cf615e0e565b5b6148dc86828701614173565b9150509250925092565b600080604083850312156148fd576148fc615e13565b5b600083013567ffffffffffffffff81111561491b5761491a615e0e565b5b61492785828601614173565b925050602083013567ffffffffffffffff81111561494857614947615e0e565b5b61495485828601614173565b9150509250929050565b60008060008060008060c0878903121561497b5761497a615e13565b5b600087013567ffffffffffffffff81111561499957614998615e0e565b5b6149a589828a01614173565b965050602087013567ffffffffffffffff8111156149c6576149c5615e0e565b5b6149d289828a01614173565b95505060406149e389828a0161469f565b945050606087013567ffffffffffffffff811115614a0457614a03615e0e565b5b614a1089828a01614173565b935050608087013567ffffffffffffffff811115614a3157614a30615e0e565b5b614a3d89828a01614173565b92505060a087013567ffffffffffffffff811115614a5e57614a5d615e0e565b5b614a6a89828a01614173565b9150509295509295509295565b60008060408385031215614a8e57614a8d615e13565b5b600083013567ffffffffffffffff811115614aac57614aab615e0e565b5b614ab8858286016142a7565b9250506020614ac9858286016140f1565b9150509250929050565b600060208284031215614ae957614ae8615e13565b5b600082015167ffffffffffffffff811115614b0757614b06615e0e565b5b614b1384828501614567565b91505092915050565b60008060408385031215614b3357614b32615e13565b5b6000614b418582860161469f565b9250506020614b528582860161469f565b9150509250929050565b6000614b688383614bb0565b60208301905092915050565b6000614b808383614e8b565b905092915050565b6000614b94838361502c565b905092915050565b6000614ba883836150bc565b905092915050565b614bb981615b80565b82525050565b614bc881615b80565b82525050565b6000614bd982615a03565b614be38185615a6e565b9350614bee836159ae565b8060005b83811015614c1f578151614c068882614b5c565b9750614c1183615a3a565b925050600181019050614bf2565b5085935050505092915050565b6000614c3782615a03565b614c418185615a7f565b9350614c4c836159ae565b8060005b83811015614c7d578151614c648882614b5c565b9750614c6f83615a3a565b925050600181019050614c50565b5085935050505092915050565b6000614c9582615a0e565b614c9f8185615a90565b935083602082028501614cb1856159be565b8060005b85811015614ced5784840389528151614cce8582614b74565b9450614cd983615a47565b925060208a01995050600181019050614cb5565b50829750879550505050505092915050565b6000614d0a82615a19565b614d148185615aa1565b935083602082028501614d26856159ce565b8060005b85811015614d625784840389528151614d438582614b88565b9450614d4e83615a54565b925060208a01995050600181019050614d2a565b50829750879550505050505092915050565b6000614d7f82615a19565b614d898185615ab2565b935083602082028501614d9b856159ce565b8060005b85811015614dd75784840389528151614db88582614b88565b9450614dc383615a54565b925060208a01995050600181019050614d9f565b50829750879550505050505092915050565b6000614df482615a24565b614dfe8185615ac3565b935083602082028501614e10856159de565b8060005b85811015614e4c5784840389528151614e2d8582614b9c565b9450614e3883615a61565b925060208a01995050600181019050614e14565b50829750879550505050505092915050565b614e6781615b92565b82525050565b614e7681615b92565b82525050565b614e8581615bdb565b82525050565b6000614e9682615a2f565b614ea08185615ad4565b9350614eb0818560208601615bfc565b614eb981615e18565b840191505092915050565b6000614ecf82615a2f565b614ed98185615ae5565b9350614ee9818560208601615bfc565b614ef281615e18565b840191505092915050565b60008154614f0a81615c2f565b614f148186615ae5565b94506001821660008114614f2f5760018114614f4157614f74565b60ff1983168652602086019350614f74565b614f4a856159ee565b60005b83811015614f6c57815481890152600182019150602081019050614f4d565b808801955050505b50505092915050565b6000614f8a601183615ae5565b9150614f9582615e29565b602082019050919050565b6000614fad602083615ae5565b9150614fb882615e52565b602082019050919050565b6000614fd0602383615ae5565b9150614fdb82615e7b565b604082019050919050565b6000614ff3601783615ae5565b9150614ffe82615eca565b602082019050919050565b6000615016601883615ae5565b915061502182615ef3565b602082019050919050565b600060c0830160008301516150446000860182614bb0565b5060208301516150576020860182614bb0565b50604083015161506a604086018261557b565b50606083015184820360608601526150828282614e8b565b91505060808301516150976080860182614e5e565b5060a083015184820360a08601526150af8282615537565b9150508091505092915050565b600060e0830160008301516150d4600086018261557b565b5060208301516150e7602086018261557b565b50604083015184820360408601526150ff8282614e8b565b915050606083015184820360608601526151198282614e8b565b91505060808301518482036080860152615133828261533e565b91505060a083015184820360a086015261514d8282615450565b91505060c083015184820360c08601526151678282615537565b9150508091505092915050565b600060e08301600083015161518c600086018261557b565b50602083015161519f602086018261557b565b50604083015184820360408601526151b78282614e8b565b915050606083015184820360608601526151d18282614e8b565b915050608083015184820360808601526151eb828261533e565b91505060a083015184820360a08601526152058282615450565b91505060c083015184820360c086015261521f8282615537565b9150508091505092915050565b600061014083016000830151848203600086015261524a8282614e8b565b915050602083015184820360208601526152648282614e8b565b9150506040830151615279604086018261557b565b50606083015184820360608601526152918282614e8b565b915050608083015184820360808601526152ab8282614e8b565b91505060a083015184820360a08601526152c58282614bce565b91505060c083015184820360c08601526152df8282614e8b565b91505060e083015184820360e08601526152f98282614e8b565b9150506101008301518482036101008601526153158282614de9565b9150506101208301518482036101208601526153318282614cff565b9150508091505092915050565b600060c083016000830151615356600086018261557b565b506020830151615369602086018261557b565b50604083015161537c6040860182614bb0565b50606083015161538f6060860182614bb0565b50608083015184820360808601526153a78282614c8a565b91505060a08301516153bc60a0860182614e5e565b508091505092915050565b600060c0830160008301516153df600086018261557b565b5060208301516153f2602086018261557b565b5060408301516154056040860182614bb0565b5060608301516154186060860182614bb0565b50608083015184820360808601526154308282614c8a565b91505060a083015161544560a0860182614e5e565b508091505092915050565b600060a0830160008301516154686000860182614bb0565b50602083015161547b602086018261557b565b50604083015184820360408601526154938282614e8b565b915050606083015184820360608601526154ad8282614e8b565b91505060808301516154c26080860182614e5e565b508091505092915050565b600060808301600083015184820360008601526154ea8282614e8b565b91505060208301516154ff6020860182614e7c565b50604083015184820360408601526155178282614e8b565b915050606083015161552c6060860182614bb0565b508091505092915050565b600060408301600083015184820360008601526155548282614e8b565b9150506020830151848203602086015261556e8282614e8b565b9150508091505092915050565b61558481615bd1565b82525050565b61559381615bd1565b82525050565b60006020820190506155ae6000830184614bbf565b92915050565b600060208201905081810360008301526155ce8184614c2c565b905092915050565b600060208201905081810360008301526155f08184614d74565b905092915050565b600060208201905061560d6000830184614e6d565b92915050565b6000602082019050818103600083015261562d8184614ec4565b905092915050565b6000606082019050818103600083015261564f8186614ec4565b905081810360208301526156638185614ec4565b9050615672604083018461558a565b949350505050565b600060e0820190508181036000830152615694818a614ec4565b905081810360208301526156a88189614ec4565b90506156b7604083018861558a565b81810360608301526156c98187614ec4565b905081810360808301526156dd8186614ec4565b905081810360a08301526156f18185614ec4565b905081810360c08301526157058184614ec4565b905098975050505050505050565b6000602082019050818103600083015261572c81614f7d565b9050919050565b6000602082019050818103600083015261574c81614fa0565b9050919050565b6000602082019050818103600083015261576c81614fc3565b9050919050565b6000602082019050818103600083015261578c81614fe6565b9050919050565b600060208201905081810360008301526157ac81615009565b9050919050565b600060208201905081810360008301526157cd8184615174565b905092915050565b600060208201905081810360008301526157ef818461522c565b905092915050565b6000602082019050818103600083015261581181846153c7565b905092915050565b6000602082019050818103600083015261583381846154cd565b905092915050565b6000602082019050615850600083018461558a565b92915050565b600060608201905061586b600083018661558a565b818103602083015261587d8185614ec4565b905061588c604083018461558a565b949350505050565b60006060820190506158a9600083018661558a565b81810360208301526158bb8185614efd565b905081810360408301526158cf8184614efd565b9050949350505050565b60006080820190506158ee600083018761558a565b6158fb602083018661558a565b818103604083015261590d8185614efd565b905081810360608301526159218184614efd565b905095945050505050565b6000615936615947565b90506159428282615c61565b919050565b6000604051905090565b600067ffffffffffffffff82111561596c5761596b615dc6565b5b602082029050602081019050919050565b600067ffffffffffffffff82111561599857615997615dc6565b5b6159a182615e18565b9050602081019050919050565b6000819050602082019050919050565b6000819050602082019050919050565b6000819050602082019050919050565b6000819050602082019050919050565b60008190508160005260206000209050919050565b600081519050919050565b600081519050919050565b600081519050919050565b600081519050919050565b600081519050919050565b6000602082019050919050565b6000602082019050919050565b6000602082019050919050565b6000602082019050919050565b600082825260208201905092915050565b600082825260208201905092915050565b600082825260208201905092915050565b600082825260208201905092915050565b600082825260208201905092915050565b600082825260208201905092915050565b600082825260208201905092915050565b600082825260208201905092915050565b6000615b0182615bd1565b9150615b0c83615bd1565b9250827fffffffffffffffffffffffffffffffffffffffffffffffffffffffffffffffff03821115615b4157615b40615cdb565b5b828201905092915050565b6000615b5782615bd1565b9150615b6283615bd1565b925082821015615b7557615b74615cdb565b5b828203905092915050565b6000615b8b82615bb1565b9050919050565b60008115159050919050565b6000819050615bac82615f1c565b919050565b600073ffffffffffffffffffffffffffffffffffffffff82169050919050565b6000819050919050565b6000615be682615b9e565b9050919050565b82818337600083830152505050565b60005b83811015615c1a578082015181840152602081019050615bff565b83811115615c29576000848401525b50505050565b60006002820490506001821680615c4757607f821691505b60208210811415615c5b57615c5a615d39565b5b50919050565b615c6a82615e18565b810181811067ffffffffffffffff82111715615c8957615c88615dc6565b5b80604052505050565b6000615c9d82615bd1565b91507fffffffffffffffffffffffffffffffffffffffffffffffffffffffffffffffff821415615cd057615ccf615cdb565b5b600182019050919050565b7f4e487b7100000000000000000000000000000000000000000000000000000000600052601160045260246000fd5b7f4e487b7100000000000000000000000000000000000000000000000000000000600052602160045260246000fd5b7f4e487b7100000000000000000000000000000000000000000000000000000000600052602260045260246000fd5b7f4e487b7100000000000000000000000000000000000000000000000000000000600052603160045260246000fd5b7f4e487b7100000000000000000000000000000000000000000000000000000000600052603260045260246000fd5b7f4e487b7100000000000000000000000000000000000000000000000000000000600052604160045260246000fd5b600080fd5b600080fd5b600080fd5b600080fd5b600080fd5b600080fd5b600080fd5b6000601f19601f8301169050919050565b7f556e617574686f72697a65642075736572000000000000000000000000000000600082015250565b7f54726561746d656e74206973206e6f742066756c6c7920707572636861736564600082015250565b7f4f6e6c792070617469656e74732063616e207375626d6974207468697320747960008201527f7065200000000000000000000000000000000000000000000000000000000000602082015250565b7f5573657220616c726561647920617574686f72697a6564000000000000000000600082015250565b7f4d65646963616c207265636f7264206e6f7420666f756e640000000000000000600082015250565b60068110615f2d57615f2c615d0a565b5b50565b615f3981615b80565b8114615f4457600080fd5b50565b615f5081615b92565b8114615f5b57600080fd5b50565b60068110615f6b57600080fd5b50565b615f7781615bd1565b8114615f8257600080fd5b5056fea2646970667358221220ab38e842cbe8493a73a49312b72e17beb46bd83efc627082b2be43956491f3f664736f6c63430008060033",
  "immutableReferences": {},
  "source": "// SPDX-License-Identifier: GPL-3.0\r\n\r\nimport './Authentication.sol';\r\npragma solidity ^0.8.0;\r\ncontract Patients  {\r\n \r\n    Authentication private contractRInstance;\r\n\r\n    constructor(address _contractBAddress) {\r\n        contractRInstance = Authentication(_contractBAddress);\r\n    }\r\n\r\n\r\nstruct Patient {\r\n    string firstname;\r\n    string lastname;\r\n    uint age;\r\n    string location;\r\n    string phone;\r\n    address[] authorizedUsers; // List of addresses of authorized doctors\r\n    string dossierHash; // Medical history of the patient\r\n    string PublicKey;\r\n    Authentication.MedicalRecord[]  record;\r\n    Authentication.Appointment[] Appointmentslist;\r\n    //here i will add records option but its should contain both test and ordonnance \r\n}\r\n\r\n\r\nevent patientadded(address indexed patient, string firstname,string lastname,uint age);\r\n\r\nmapping(address => Patient) public patients;\r\n\r\nfunction registerUserDetails( string memory _firstname,string memory _lastname,uint _age,string memory _dossierHash ,string memory location,string memory phone)public\r\n{\r\n        require(getUser().role == Authentication.Role.patient, \"Only patients can submit this type \");\r\n        Patient storage patient = patients[msg.sender];\r\n        patient.firstname = _firstname;\r\n        patient.lastname = _lastname;\r\n        patient.age = _age;\r\n        patient.dossierHash = _dossierHash;\r\n        patient.location=location;\r\n        patient.phone=phone;\r\n\r\n        emit patientadded(msg.sender,_firstname,_lastname,_age);\r\n\r\n       \r\n}\r\n\r\n\r\n\r\n//open for more modifications other users \r\n   function getUser() public view   returns (Authentication.User memory) {\r\n        return contractRInstance.getUser(msg.sender);\r\n    }\r\n  \r\n function getPatients(address _patient) public view   returns (Patient memory) {\r\n        return patients[_patient];\r\n}\r\n\r\nfunction addAppointment(address _patient,Authentication.Appointment memory newAppointment) public {\r\n        patients[_patient].Appointmentslist.push(newAppointment);\r\n}\r\nfunction addrecordtoPatient(Authentication.MedicalRecord  memory record,address _patient)public{\r\n     patients[_patient].record.push(record);\r\n}\r\n\r\nfunction getRecordById(address _patient, uint _id) public view returns (Authentication.MedicalRecord memory) {\r\n    for (uint i = 0; i < patients[_patient].record.length; i++) {\r\n        if (patients[_patient].record[i].id == _id) {\r\n            return patients[_patient].record[i];\r\n        }\r\n    }\r\n    revert(\"Medical record not found\"); // Revert if medical record with given ID is not found\r\n}\r\nfunction printpatientrecord(address _patient, uint i) public view returns (Authentication.Prescription memory) {\r\n    return patients[_patient].record[i].treatment;\r\n}\r\n/* // Function to validate the purchase of a prescription\r\n    function validatePrescriptionPurchase(address _patient, uint256 _recordid) public {\r\n        // Check that the user is a pharmacist\r\n        require(getUser().role == Authentication.Role.pharmacist, \"Only pharmacists can validate prescription purchases\");\r\n\r\n        // Update the state of the prescription\r\n        patientInstance.addPrescriptionResultToPatient(msg.sender ,_patient, _recordid, true);\r\n\r\n        // Emit an event to signal the validation of the purchase\r\n        emit PrescriptionPurchaseValidated(_patient, _recordid);\r\n    } */\r\n\r\nfunction addPrescriptionResultToPatient(address _user,address _patient, uint _id, bool _result) public onlyAuthorizedUser(_user,_patient) {//patient contract\r\n    Authentication.MedicalRecord memory medicalRecord = getRecordById(_patient, _id);\r\n\r\n    // Update the prescription purchase status in the medical record\r\n    medicalRecord.treatment.fullyPurchased = _result;\r\n\r\n    // Optionally, emit an event or perform any additional logic\r\n\r\n    // Update the medical record in the patient's records array\r\n    for (uint i = 0; i < patients[_patient].record.length; i++) {\r\n        if (patients[_patient].record[i].id == _id) {\r\n            patients[_patient].record[i] = medicalRecord;\r\n            break; // Break the loop once the medical record is updated\r\n        }\r\n    }\r\n}\r\n\r\n\r\n\r\n\r\nfunction addTestResultToPatient(address _patient, uint _id, string memory _result) public {\r\n    Authentication.MedicalRecord memory medicalRecord = getRecordById(_patient, _id);\r\n    \r\n    // Update the test result in the medical record\r\n    medicalRecord.test.result = _result;\r\n    \r\n    // Optionally, emit an event or perform any additional logic\r\n    \r\n    // Update the medical record in the patient's records array\r\n    for (uint i = 0; i < patients[_patient].record.length; i++) {\r\n        if (patients[_patient].record[i].id == _id) {\r\n            patients[_patient].record[i] = medicalRecord;\r\n            break; // Break the loop once the medical record is updated\r\n        }\r\n    }\r\n}\r\n\r\n\r\nevent RemboursementDemandePrescription(address indexed patient, uint256 prescriptionId);\r\n\r\nfunction demanderRemboursementPrescription(uint256 prescriptionId,uint recordid) public {\r\n    require(patients[msg.sender].record[recordid].treatment.fullyPurchased,\"Treatment is not fully purchased\");\r\n    // Autres vrifications ventuelles...\r\n\r\n    // Enregistrer la demande de remboursement pour cette prescription\r\n    // mettre un vnement pour informer l'agent d'assurance\r\n    emit RemboursementDemandePrescription(msg.sender, prescriptionId);\r\n}\r\n\r\n\r\n\r\nfunction AuthorizeUser(address  _user) public {//maybe add modifier so only patient can use ths function ;patient contract \r\n    require(getUser().role == Authentication.Role.patient, \"Only patients can submit this type \");\r\n    for (uint i = 0; i < patients[msg.sender].authorizedUsers.length; i++) {\r\n        require(patients[msg.sender].authorizedUsers[i] != _user, \"User already authorized\");\r\n      }\r\n      patients[msg.sender].authorizedUsers.push(_user);\r\n}\r\n\r\n\r\n\r\n\r\nfunction removeAuthorizedUser(address _user) public {//patient contract \r\n    // Find the index of the user in the authorized list\r\n    require(getUser().role == Authentication.Role.patient, \"Only patients can submit this type \");\r\n    for (uint i = 0; i < patients[msg.sender].authorizedUsers.length; i++) {\r\n        if (patients[msg.sender].authorizedUsers[i] == _user) {\r\n            // Remove the user by shifting the elements and decreasing the array length\r\n            for (uint j = i; j < patients[msg.sender].authorizedUsers.length - 1; j++) {\r\n                patients[msg.sender].authorizedUsers[j] = patients[msg.sender].authorizedUsers[j + 1];\r\n            }\r\n            patients[msg.sender].authorizedUsers.pop(); // Remove the last element\r\n            break;\r\n        }\r\n    }\r\n}\r\n\r\n\r\n\r\n\r\nfunction StorePatientFileHash(string memory _ipfsfilehash,string memory _pubkey) public returns (bool) {//patient contract\r\n     patients[msg.sender].dossierHash=_ipfsfilehash;\r\n     patients[msg.sender].PublicKey=_pubkey;\r\n     return true ;   \r\n} \r\n\r\n\r\nfunction getAuthorizedUsers(address _fromPatient )public view returns (address[] memory ) {//patient contract\r\nreturn patients[_fromPatient].authorizedUsers;\r\n}\r\n\r\nfunction isAuthorized(address _user,address _fromPatient) public view returns (bool) {//patient contract\r\n    // Retrieve the patient's authorized users\r\n    address[] memory authorizedUsers = getAuthorizedUsers(_fromPatient);\r\n\r\n    // Check if the given address is in the list of authorized users\r\n    for (uint i = 0; i < authorizedUsers.length; i++) {\r\n        if (authorizedUsers[i] == _user) {\r\n            return true; // Address is authorized\r\n        }\r\n    }\r\n    return false; // Address is not authorized\r\n\r\n}\r\n\r\n\r\n modifier onlyAuthorizedUser(address _user,address _fromPatient) {//patient contract\r\n        require(isAuthorized(_user,_fromPatient), \"Unauthorized user\");\r\n        _;\r\n    }\r\n\r\n\r\n\r\nfunction getFileHash(address _user,address _fromPatient) public view onlyAuthorizedUser(_user,_fromPatient) returns (string memory) {//user contract with permission\r\n    // Retrieve and return the file hash\r\n    return patients[_fromPatient].dossierHash;\r\n}\r\n\r\n  \r\nfunction visualiserProchainsRendezVous() public view returns (Authentication.Appointment[] memory) {//patient contract \r\n    // Obtenez les prochains rendez-vous du patient actuel\r\n    Patient storage patient = patients[msg.sender];\r\n    return patient.Appointmentslist;\r\n}\r\n\r\n\r\n\r\n// vnement pour notifier l'achat d'une ordonnance\r\nevent OrdonnanceAchete(address indexed patient, uint256 recordId, uint256 timestamp,string firstname,string lastname,address indexed pharmacieaddress);\r\n// Fonction pour notifier l'achat d'une ordonnance par le pharmacien\r\nfunction notifierAchatOrdonnance(address _patient, uint256 recordId,address pharmachieaddress) external {\r\n    // Autres vrifications ventuelles...\r\n\r\n    // mettre un vnement pour notifier l'achat de l'ordonnance\r\n    emit OrdonnanceAchete(_patient, recordId, block.timestamp,patients[_patient].firstname,patients[_patient].lastname,pharmachieaddress);\r\n}\r\n\r\n// vnement pour notifier la visite chez le mdecin\r\nevent VisiteMedecinEffectuee(address indexed patient, address indexed doctor, uint256 timestamp,string firstname,string lastname);\r\n\r\n// Fonction pour notifier la visite chez le mdecin\r\nfunction notifierVisiteMedecin(address _patient, address _doctor) external {\r\n    // Autres vrifications ventuelles...\r\n\r\n    // mettre un vnement pour notifier la visite chez le mdecin\r\n    emit VisiteMedecinEffectuee(_patient, _doctor, block.timestamp,patients[_patient].firstname,patients[_patient].lastname);    \r\n}\r\n\r\n// vnement pour notifier la demande de remboursement\r\nevent RemboursementDemande(address indexed patient, uint256 recordId, string service, uint256 timestamp);\r\n\r\n// Fonction pour notifier la demande de remboursement d'un service\r\nfunction notifierDemandeRemboursement(address _patient, uint256 recordId, string memory _service) external {//i will add prescription id here \r\n    // Autres vrifications ventuelles...\r\n\r\n    // mettre un vnement pour notifier la demande de remboursement\r\n    emit RemboursementDemande(_patient, recordId, _service, block.timestamp);\r\n}\r\n\r\n}\r\n\r\n\r\n\r\n\r\n\r\n\r\n\r\n\r\n\r\n\r\n\r\n\r\n\r\n/*contract Patients  {\r\n \r\n    Authentication private contractRInstance;\r\n\r\n    constructor(address _contractBAddress) {\r\n        contractRInstance = Authentication(_contractBAddress);\r\n    }\r\n\r\n\r\nstruct Patient {\r\n    string firstname;\r\n    string lastname;\r\n    uint age;\r\n    string location;\r\n    string phone;\r\n    address[] authorizedUsers; // List of addresses of authorized doctors\r\n    string dossierHash; // Medical history of the patient\r\n    string PublicKey;\r\n    Authentication.MedicalRecord[]  record;\r\n    Authentication.Appointment[] Appointmentslist;\r\n}\r\n\r\n\r\n\r\n\r\n\r\nmapping(address => Patient) public patients;\r\n\r\nfunction registerUserDetails( string memory _firstname,string memory _lastname,uint _age,string memory _dossierHash ,string memory location,string memory phone)public\r\n{\r\n        require(getUser().role == Authentication.Role.patient, \"Only patients can submit this type \");\r\n        Patient storage patient = patients[msg.sender];\r\n        patient.firstname = _firstname;\r\n        patient.lastname = _lastname;\r\n        patient.age = _age;\r\n        patient.dossierHash = _dossierHash;\r\n        patient.location=location;\r\n        patient.phone=phone;\r\n        \r\n\r\n       \r\n}\r\n\r\nfunction SetHash(string memory _dossierHash) public {\r\n    patients[msg.sender].dossierHash = _dossierHash;\r\n}\r\n\r\n\r\n//open for more modifications other users \r\n   function getUser() public view   returns (Authentication.User memory) {\r\n        return contractRInstance.getUser(msg.sender);\r\n    }\r\n  \r\n function getPatients(address _patient) public view   returns (Patient memory) {\r\n        return patients[_patient];\r\n}\r\n\r\nfunction addAppointment(address _patient,Authentication.Appointment memory newAppointment) public {\r\n        patients[_patient].Appointmentslist.push(newAppointment);\r\n}\r\nfunction addrecordtoPatient(Authentication.MedicalRecord  memory record,address _patient)public{\r\n     patients[_patient].record.push(record);\r\n}\r\n\r\nfunction getRecordById(address _patient, uint _id) public view returns (Authentication.MedicalRecord memory) {\r\n    for (uint i = 0; i < patients[_patient].record.length; i++) {\r\n        if (patients[_patient].record[i].id == _id) {\r\n            return patients[_patient].record[i];\r\n        }\r\n    }\r\n    revert(\"Medical record not found\"); // Revert if medical record with given ID is not found\r\n}\r\nfunction addTestResultToPatient(address _patient, uint _id, string memory _result) public {\r\n    Authentication.MedicalRecord memory medicalRecord = getRecordById(_patient, _id);\r\n    \r\n    // Update the test result in the medical record\r\n    medicalRecord.test.result = _result;\r\n    \r\n    // Optionally, emit an event or perform any additional logic\r\n    \r\n    // Update the medical record in the patient's records array\r\n    for (uint i = 0; i < patients[_patient].record.length; i++) {\r\n        if (patients[_patient].record[i].id == _id) {\r\n            patients[_patient].record[i] = medicalRecord;\r\n            break; // Break the loop once the medical record is updated\r\n        }\r\n    }\r\n}\r\nevent \r\nevent ReimbursementRequested(address indexed patient, uint256 timestamp);\r\n\r\nfunction demanderemboursement() public {//this will emit an event in the blockchain so the agent see it and then ...;patient contract\r\n    require(getUser().role == Authentication.Role.patient, \"Only patients can submit reimbursement requests\");\r\n    emit ReimbursementRequested(msg.sender, block.timestamp);\r\n}\r\n\r\n\r\n\r\nfunction AuthorizeUser(address  _user) public {//maybe add modifier so only patient can use ths function ;patient contract \r\n    require(getUser().role == Authentication.Role.patient, \"Only patients can submit this type \");\r\n    for (uint i = 0; i < patients[msg.sender].authorizedUsers.length; i++) {\r\n        require(patients[msg.sender].authorizedUsers[i] != _user, \"User already authorized\");\r\n      }\r\n      patients[msg.sender].authorizedUsers.push(_user);\r\n}\r\n\r\n\r\n\r\n\r\nfunction removeAuthorizedUser(address _user) public {//patient contract \r\n    // Find the index of the user in the authorized list\r\n    require(getUser().role == Authentication.Role.patient, \"Only patients can submit this type \");\r\n    for (uint i = 0; i < patients[msg.sender].authorizedUsers.length; i++) {\r\n        if (patients[msg.sender].authorizedUsers[i] == _user) {\r\n            // Remove the user by shifting the elements and decreasing the array length\r\n            for (uint j = i; j < patients[msg.sender].authorizedUsers.length - 1; j++) {\r\n                patients[msg.sender].authorizedUsers[j] = patients[msg.sender].authorizedUsers[j + 1];\r\n            }\r\n            patients[msg.sender].authorizedUsers.pop(); // Remove the last element\r\n            break;\r\n        }\r\n    }\r\n}\r\n\r\n\r\n\r\n\r\nfunction StorePatientFileHash(string memory _ipfsfilehash,string memory _pubkey) public returns (bool) {//patient contract\r\n     patients[msg.sender].dossierHash=_ipfsfilehash;\r\n     patients[msg.sender].PublicKey=_pubkey;\r\n     return true ;   \r\n} \r\n\r\n\r\nfunction getAuthorizedUsers(address _fromPatient )public view returns (address[] memory ) {//patient contract\r\nreturn patients[_fromPatient].authorizedUsers;\r\n}\r\n\r\nfunction isAuthorized(address _user,address _fromPatient) public view returns (bool) {//patient contract\r\n    // Retrieve the patient's authorized users\r\n    address[] memory authorizedUsers = getAuthorizedUsers(_fromPatient);\r\n\r\n    // Check if the given address is in the list of authorized users\r\n    for (uint i = 0; i < authorizedUsers.length; i++) {\r\n        if (authorizedUsers[i] == _user) {\r\n            return true; // Address is authorized\r\n        }\r\n    }\r\n    return false; // Address is not authorized\r\n\r\n}\r\n\r\n\r\n modifier onlyAuthorizedUser(address _user,address _fromPatient) {//patient contract\r\n        require(isAuthorized(_user,_fromPatient), \"Unauthorized user\");\r\n        _;\r\n    }\r\n\r\n\r\n\r\nfunction getFileHash(address _user,address _fromPatient) public view onlyAuthorizedUser(_user,_fromPatient) returns (string memory) {//user contract with permission\r\n    // Retrieve and return the file hash\r\n    return patients[_fromPatient].dossierHash;\r\n}\r\n\r\n  \r\nfunction visualiserProchainsRendezVous() public view returns (Authentication.Appointment[] memory) {//patient contract \r\n    // Obtenez les prochains rendez-vous du patient actuel\r\n    Patient storage patient = patients[msg.sender];\r\n    return patient.Appointmentslist;\r\n}\r\n\r\nfunction setPublicKey(string memory _pubkey) public {\r\n    patients[msg.sender].PublicKey = _pubkey;   \r\n}\r\n\r\n}*/",
  "sourcePath": "C:\\Users\\hamma\\Downloads\\blockchain-based-authentication-main\\blockchain-based-authentication-main\\contracts\\patientcontract.sol",
  "compiler": {
    "name": "solc",
    "version": "0.8.6+commit.11564f7e.Emscripten.clang"
  },
  "schemaVersion": "3.4.16",
  "updatedAt": "2024-05-12T12:25:42.920Z",
  "networkType": "ethereum",
  "devdoc": {
    "kind": "dev",
    "methods": {},
    "version": 1
  },
  "userdoc": {
    "kind": "user",
    "methods": {},
    "version": 1
  }
}