{
  "contractName": "Patients",
  "abi": [
    {
      "inputs": [
        {
          "internalType": "address",
          "name": "_contractBAddress",
          "type": "address"
        }
      ],
      "stateMutability": "nonpayable",
      "type": "constructor"
    },
    {
      "anonymous": false,
      "inputs": [
        {
          "indexed": true,
          "internalType": "address",
          "name": "patient",
          "type": "address"
        },
        {
          "indexed": false,
          "internalType": "uint256",
          "name": "timestamp",
          "type": "uint256"
        }
      ],
      "name": "ReimbursementRequested",
      "type": "event"
    },
    {
      "inputs": [
        {
          "internalType": "address",
          "name": "",
          "type": "address"
        }
      ],
      "name": "patients",
      "outputs": [
        {
          "internalType": "string",
          "name": "firstname",
          "type": "string"
        },
        {
          "internalType": "string",
          "name": "lastname",
          "type": "string"
        },
        {
          "internalType": "uint256",
          "name": "age",
          "type": "uint256"
        },
        {
          "internalType": "string",
          "name": "location",
          "type": "string"
        },
        {
          "internalType": "string",
          "name": "phone",
          "type": "string"
        },
        {
          "internalType": "string",
          "name": "dossierHash",
          "type": "string"
        },
        {
          "internalType": "string",
          "name": "PublicKey",
          "type": "string"
        }
      ],
      "stateMutability": "view",
      "type": "function",
      "constant": true
    },
    {
      "inputs": [
        {
          "internalType": "string",
          "name": "_firstname",
          "type": "string"
        },
        {
          "internalType": "string",
          "name": "_lastname",
          "type": "string"
        },
        {
          "internalType": "uint256",
          "name": "_age",
          "type": "uint256"
        },
        {
          "internalType": "string",
          "name": "_dossierHash",
          "type": "string"
        },
        {
          "internalType": "string",
          "name": "location",
          "type": "string"
        },
        {
          "internalType": "string",
          "name": "phone",
          "type": "string"
        }
      ],
      "name": "registerUserDetails",
      "outputs": [],
      "stateMutability": "nonpayable",
      "type": "function"
    },
    {
      "inputs": [],
      "name": "getUser",
      "outputs": [
        {
          "components": [
            {
              "internalType": "string",
              "name": "signatureHash",
              "type": "string"
            },
            {
              "internalType": "enum Authentication.Role",
              "name": "role",
              "type": "uint8"
            },
            {
              "internalType": "string",
              "name": "pubkey",
              "type": "string"
            },
            {
              "internalType": "address",
              "name": "UserAddress",
              "type": "address"
            }
          ],
          "internalType": "struct Authentication.User",
          "name": "",
          "type": "tuple"
        }
      ],
      "stateMutability": "view",
      "type": "function",
      "constant": true
    },
    {
      "inputs": [
        {
          "internalType": "address",
          "name": "_patient",
          "type": "address"
        }
      ],
      "name": "getPatients",
      "outputs": [
        {
          "components": [
            {
              "internalType": "string",
              "name": "firstname",
              "type": "string"
            },
            {
              "internalType": "string",
              "name": "lastname",
              "type": "string"
            },
            {
              "internalType": "uint256",
              "name": "age",
              "type": "uint256"
            },
            {
              "internalType": "string",
              "name": "location",
              "type": "string"
            },
            {
              "internalType": "string",
              "name": "phone",
              "type": "string"
            },
            {
              "internalType": "address[]",
              "name": "authorizedUsers",
              "type": "address[]"
            },
            {
              "internalType": "string",
              "name": "dossierHash",
              "type": "string"
            },
            {
              "internalType": "string",
              "name": "PublicKey",
              "type": "string"
            },
            {
              "components": [
                {
                  "internalType": "uint256",
                  "name": "id",
                  "type": "uint256"
                },
                {
                  "internalType": "uint256",
                  "name": "timestamp",
                  "type": "uint256"
                },
                {
                  "internalType": "string",
                  "name": "diagnosis",
                  "type": "string"
                },
                {
                  "components": [
                    {
                      "internalType": "uint256",
                      "name": "timestamp",
                      "type": "uint256"
                    },
                    {
                      "internalType": "address",
                      "name": "doctor",
                      "type": "address"
                    },
                    {
                      "internalType": "address",
                      "name": "patient",
                      "type": "address"
                    },
                    {
                      "internalType": "string[]",
                      "name": "medicines",
                      "type": "string[]"
                    },
                    {
                      "internalType": "bool",
                      "name": "fullyPurchased",
                      "type": "bool"
                    }
                  ],
                  "internalType": "struct Authentication.Prescription",
                  "name": "treatment",
                  "type": "tuple"
                },
                {
                  "components": [
                    {
                      "internalType": "address",
                      "name": "patient",
                      "type": "address"
                    },
                    {
                      "internalType": "uint256",
                      "name": "timestamp",
                      "type": "uint256"
                    },
                    {
                      "internalType": "string",
                      "name": "category",
                      "type": "string"
                    },
                    {
                      "internalType": "string",
                      "name": "result",
                      "type": "string"
                    },
                    {
                      "internalType": "bool",
                      "name": "done",
                      "type": "bool"
                    }
                  ],
                  "internalType": "struct Authentication.Test",
                  "name": "test",
                  "type": "tuple"
                },
                {
                  "internalType": "address",
                  "name": "doctor",
                  "type": "address"
                }
              ],
              "internalType": "struct Authentication.MedicalRecord[]",
              "name": "record",
              "type": "tuple[]"
            },
            {
              "components": [
                {
                  "internalType": "address",
                  "name": "doctor",
                  "type": "address"
                },
                {
                  "internalType": "address",
                  "name": "patient",
                  "type": "address"
                },
                {
                  "internalType": "uint256",
                  "name": "date",
                  "type": "uint256"
                },
                {
                  "internalType": "string",
                  "name": "purpose",
                  "type": "string"
                },
                {
                  "internalType": "bool",
                  "name": "isConfirmed",
                  "type": "bool"
                }
              ],
              "internalType": "struct Authentication.Appointment[]",
              "name": "Appointmentslist",
              "type": "tuple[]"
            }
          ],
          "internalType": "struct Patients.Patient",
          "name": "",
          "type": "tuple"
        }
      ],
      "stateMutability": "view",
      "type": "function",
      "constant": true
    },
    {
      "inputs": [
        {
          "internalType": "address",
          "name": "_patient",
          "type": "address"
        },
        {
          "components": [
            {
              "internalType": "address",
              "name": "doctor",
              "type": "address"
            },
            {
              "internalType": "address",
              "name": "patient",
              "type": "address"
            },
            {
              "internalType": "uint256",
              "name": "date",
              "type": "uint256"
            },
            {
              "internalType": "string",
              "name": "purpose",
              "type": "string"
            },
            {
              "internalType": "bool",
              "name": "isConfirmed",
              "type": "bool"
            }
          ],
          "internalType": "struct Authentication.Appointment",
          "name": "newAppointment",
          "type": "tuple"
        }
      ],
      "name": "addAppointment",
      "outputs": [],
      "stateMutability": "nonpayable",
      "type": "function"
    },
    {
      "inputs": [
        {
          "components": [
            {
              "internalType": "uint256",
              "name": "id",
              "type": "uint256"
            },
            {
              "internalType": "uint256",
              "name": "timestamp",
              "type": "uint256"
            },
            {
              "internalType": "string",
              "name": "diagnosis",
              "type": "string"
            },
            {
              "components": [
                {
                  "internalType": "uint256",
                  "name": "timestamp",
                  "type": "uint256"
                },
                {
                  "internalType": "address",
                  "name": "doctor",
                  "type": "address"
                },
                {
                  "internalType": "address",
                  "name": "patient",
                  "type": "address"
                },
                {
                  "internalType": "string[]",
                  "name": "medicines",
                  "type": "string[]"
                },
                {
                  "internalType": "bool",
                  "name": "fullyPurchased",
                  "type": "bool"
                }
              ],
              "internalType": "struct Authentication.Prescription",
              "name": "treatment",
              "type": "tuple"
            },
            {
              "components": [
                {
                  "internalType": "address",
                  "name": "patient",
                  "type": "address"
                },
                {
                  "internalType": "uint256",
                  "name": "timestamp",
                  "type": "uint256"
                },
                {
                  "internalType": "string",
                  "name": "category",
                  "type": "string"
                },
                {
                  "internalType": "string",
                  "name": "result",
                  "type": "string"
                },
                {
                  "internalType": "bool",
                  "name": "done",
                  "type": "bool"
                }
              ],
              "internalType": "struct Authentication.Test",
              "name": "test",
              "type": "tuple"
            },
            {
              "internalType": "address",
              "name": "doctor",
              "type": "address"
            }
          ],
          "internalType": "struct Authentication.MedicalRecord",
          "name": "record",
          "type": "tuple"
        },
        {
          "internalType": "address",
          "name": "_patient",
          "type": "address"
        }
      ],
      "name": "addrecordtoPatient",
      "outputs": [],
      "stateMutability": "nonpayable",
      "type": "function"
    },
    {
      "inputs": [
        {
          "internalType": "address",
          "name": "_patient",
          "type": "address"
        },
        {
          "internalType": "uint256",
          "name": "_id",
          "type": "uint256"
        }
      ],
      "name": "getRecordById",
      "outputs": [
        {
          "components": [
            {
              "internalType": "uint256",
              "name": "id",
              "type": "uint256"
            },
            {
              "internalType": "uint256",
              "name": "timestamp",
              "type": "uint256"
            },
            {
              "internalType": "string",
              "name": "diagnosis",
              "type": "string"
            },
            {
              "components": [
                {
                  "internalType": "uint256",
                  "name": "timestamp",
                  "type": "uint256"
                },
                {
                  "internalType": "address",
                  "name": "doctor",
                  "type": "address"
                },
                {
                  "internalType": "address",
                  "name": "patient",
                  "type": "address"
                },
                {
                  "internalType": "string[]",
                  "name": "medicines",
                  "type": "string[]"
                },
                {
                  "internalType": "bool",
                  "name": "fullyPurchased",
                  "type": "bool"
                }
              ],
              "internalType": "struct Authentication.Prescription",
              "name": "treatment",
              "type": "tuple"
            },
            {
              "components": [
                {
                  "internalType": "address",
                  "name": "patient",
                  "type": "address"
                },
                {
                  "internalType": "uint256",
                  "name": "timestamp",
                  "type": "uint256"
                },
                {
                  "internalType": "string",
                  "name": "category",
                  "type": "string"
                },
                {
                  "internalType": "string",
                  "name": "result",
                  "type": "string"
                },
                {
                  "internalType": "bool",
                  "name": "done",
                  "type": "bool"
                }
              ],
              "internalType": "struct Authentication.Test",
              "name": "test",
              "type": "tuple"
            },
            {
              "internalType": "address",
              "name": "doctor",
              "type": "address"
            }
          ],
          "internalType": "struct Authentication.MedicalRecord",
          "name": "",
          "type": "tuple"
        }
      ],
      "stateMutability": "view",
      "type": "function",
      "constant": true
    },
    {
      "inputs": [
        {
          "internalType": "address",
          "name": "_patient",
          "type": "address"
        },
        {
          "internalType": "uint256",
          "name": "_id",
          "type": "uint256"
        },
        {
          "internalType": "string",
          "name": "_result",
          "type": "string"
        }
      ],
      "name": "addTestResultToPatient",
      "outputs": [],
      "stateMutability": "nonpayable",
      "type": "function"
    },
    {
      "inputs": [],
      "name": "demanderemboursement",
      "outputs": [],
      "stateMutability": "nonpayable",
      "type": "function"
    },
    {
      "inputs": [
        {
          "internalType": "address",
          "name": "_user",
          "type": "address"
        }
      ],
      "name": "AuthorizeUser",
      "outputs": [],
      "stateMutability": "nonpayable",
      "type": "function"
    },
    {
      "inputs": [
        {
          "internalType": "address",
          "name": "_user",
          "type": "address"
        }
      ],
      "name": "removeAuthorizedUser",
      "outputs": [],
      "stateMutability": "nonpayable",
      "type": "function"
    },
    {
      "inputs": [
        {
          "internalType": "string",
          "name": "_ipfsfilehash",
          "type": "string"
        },
        {
          "internalType": "string",
          "name": "_pubkey",
          "type": "string"
        }
      ],
      "name": "StorePatientFileHash",
      "outputs": [
        {
          "internalType": "bool",
          "name": "",
          "type": "bool"
        }
      ],
      "stateMutability": "nonpayable",
      "type": "function"
    },
    {
      "inputs": [
        {
          "internalType": "address",
          "name": "_fromPatient",
          "type": "address"
        }
      ],
      "name": "getAuthorizedUsers",
      "outputs": [
        {
          "internalType": "address[]",
          "name": "",
          "type": "address[]"
        }
      ],
      "stateMutability": "view",
      "type": "function",
      "constant": true
    },
    {
      "inputs": [
        {
          "internalType": "address",
          "name": "_user",
          "type": "address"
        },
        {
          "internalType": "address",
          "name": "_fromPatient",
          "type": "address"
        }
      ],
      "name": "isAuthorized",
      "outputs": [
        {
          "internalType": "bool",
          "name": "",
          "type": "bool"
        }
      ],
      "stateMutability": "view",
      "type": "function",
      "constant": true
    },
    {
      "inputs": [
        {
          "internalType": "address",
          "name": "_user",
          "type": "address"
        },
        {
          "internalType": "address",
          "name": "_fromPatient",
          "type": "address"
        }
      ],
      "name": "getFileHash",
      "outputs": [
        {
          "internalType": "string",
          "name": "",
          "type": "string"
        }
      ],
      "stateMutability": "view",
      "type": "function",
      "constant": true
    },
    {
      "inputs": [],
      "name": "visualiserProchainsRendezVous",
      "outputs": [
        {
          "components": [
            {
              "internalType": "address",
              "name": "doctor",
              "type": "address"
            },
            {
              "internalType": "address",
              "name": "patient",
              "type": "address"
            },
            {
              "internalType": "uint256",
              "name": "date",
              "type": "uint256"
            },
            {
              "internalType": "string",
              "name": "purpose",
              "type": "string"
            },
            {
              "internalType": "bool",
              "name": "isConfirmed",
              "type": "bool"
            }
          ],
          "internalType": "struct Authentication.Appointment[]",
          "name": "",
          "type": "tuple[]"
        }
      ],
      "stateMutability": "view",
      "type": "function",
      "constant": true
    },
    {
      "inputs": [
        {
          "internalType": "string",
          "name": "_pubkey",
          "type": "string"
        }
      ],
      "name": "setPublicKey",
      "outputs": [],
      "stateMutability": "nonpayable",
      "type": "function"
    }
  ],
  "bytecode": "0x60806040523480156200001157600080fd5b5060405162004bce38038062004bce833981810160405281019062000037919062000095565b806000806101000a81548173ffffffffffffffffffffffffffffffffffffffff021916908373ffffffffffffffffffffffffffffffffffffffff160217905550506200011a565b6000815190506200008f8162000100565b92915050565b600060208284031215620000ae57620000ad620000fb565b5b6000620000be848285016200007e565b91505092915050565b6000620000d482620000db565b9050919050565b600073ffffffffffffffffffffffffffffffffffffffff82169050919050565b600080fd5b6200010b81620000c7565b81146200011757600080fd5b50565b614aa4806200012a6000396000f3fe608060405234801561001057600080fd5b506004361061010b5760003560e01c80636e7c1ec3116100a257806389fabc801161007157806389fabc80146102ce578063bda06c48146102ea578063c22037fd1461031a578063ce4f5d4214610336578063d6fedba3146103665761010b565b80636e7c1ec3146102485780636f6fc07714610264578063755ca91914610280578063832880e7146102b05761010b565b80634e6ddf66116100de5780634e6ddf66146101ae5780635e43b7f4146101ca578063618062ce146101fa57806365e4ad9e146102185761010b565b80630869cfbc1461011057806320dbc77f146101465780632cf58ac2146101765780632f34ecb614610192575b600080fd5b61012a600480360381019061012591906135c8565b610370565b60405161013d97969594939291906142b9565b60405180910390f35b610160600480360381019061015b91906135c8565b6106e2565b60405161016d9190614238565b60405180910390f35b610190600480360381019061018b91906135c8565b6107b2565b005b6101ac60048036038101906101a7919061391a565b610a1b565b005b6101c860048036038101906101c39190613801565b610c9b565b005b6101e460048036038101906101df91906135c8565b610ddf565b6040516101f191906143f4565b60405180910390f35b6102026118cb565b60405161020f919061425a565b60405180910390f35b610232600480360381019061022d91906135f5565b611ad3565b60405161023f919061427c565b60405180910390f35b610262600480360381019061025d9190613635565b611b66565b005b61027e60048036038101906102799190613740565b611cad565b005b61029a60048036038101906102959190613691565b611d07565b6040516102a791906143d2565b60405180910390f35b6102b8612303565b6040516102c59190614416565b60405180910390f35b6102e860048036038101906102e391906135c8565b6123be565b005b61030460048036038101906102ff9190613789565b61276e565b604051610311919061427c565b60405180910390f35b610334600480360381019061032f91906136d1565b612828565b005b610350600480360381019061034b91906135f5565b612b93565b60405161035d9190614297565b60405180910390f35b61036e612cb5565b005b600160205280600052604060002060009150905080600001805461039390614741565b80601f01602080910402602001604051908101604052809291908181526020018280546103bf90614741565b801561040c5780601f106103e15761010080835404028352916020019161040c565b820191906000526020600020905b8154815290600101906020018083116103ef57829003601f168201915b50505050509080600101805461042190614741565b80601f016020809104026020016040519081016040528092919081815260200182805461044d90614741565b801561049a5780601f1061046f5761010080835404028352916020019161049a565b820191906000526020600020905b81548152906001019060200180831161047d57829003601f168201915b5050505050908060020154908060030180546104b590614741565b80601f01602080910402602001604051908101604052809291908181526020018280546104e190614741565b801561052e5780601f106105035761010080835404028352916020019161052e565b820191906000526020600020905b81548152906001019060200180831161051157829003601f168201915b50505050509080600401805461054390614741565b80601f016020809104026020016040519081016040528092919081815260200182805461056f90614741565b80156105bc5780601f10610591576101008083540402835291602001916105bc565b820191906000526020600020905b81548152906001019060200180831161059f57829003601f168201915b5050505050908060060180546105d190614741565b80601f01602080910402602001604051908101604052809291908181526020018280546105fd90614741565b801561064a5780601f1061061f5761010080835404028352916020019161064a565b820191906000526020600020905b81548152906001019060200180831161062d57829003601f168201915b50505050509080600701805461065f90614741565b80601f016020809104026020016040519081016040528092919081815260200182805461068b90614741565b80156106d85780601f106106ad576101008083540402835291602001916106d8565b820191906000526020600020905b8154815290600101906020018083116106bb57829003601f168201915b5050505050905087565b6060600160008373ffffffffffffffffffffffffffffffffffffffff1673ffffffffffffffffffffffffffffffffffffffff1681526020019081526020016000206005018054806020026020016040519081016040528092919081815260200182805480156107a657602002820191906000526020600020905b8160009054906101000a900473ffffffffffffffffffffffffffffffffffffffff1673ffffffffffffffffffffffffffffffffffffffff168152602001906001019080831161075c575b50505050509050919050565b600060058111156107c6576107c561481c565b5b6107ce612303565b6020015160058111156107e4576107e361481c565b5b14610824576040517f08c379a000000000000000000000000000000000000000000000000000000000815260040161081b90614372565b60405180910390fd5b60005b600160003373ffffffffffffffffffffffffffffffffffffffff1673ffffffffffffffffffffffffffffffffffffffff16815260200190815260200160002060050180549050811015610974578173ffffffffffffffffffffffffffffffffffffffff16600160003373ffffffffffffffffffffffffffffffffffffffff1673ffffffffffffffffffffffffffffffffffffffff16815260200190815260200160002060050182815481106108df576108de6148a9565b5b9060005260206000200160009054906101000a900473ffffffffffffffffffffffffffffffffffffffff1673ffffffffffffffffffffffffffffffffffffffff161415610961576040517f08c379a000000000000000000000000000000000000000000000000000000000815260040161095890614392565b60405180910390fd5b808061096c906147a4565b915050610827565b50600160003373ffffffffffffffffffffffffffffffffffffffff1673ffffffffffffffffffffffffffffffffffffffff168152602001908152602001600020600501819080600181540180825580915050600190039060005260206000200160009091909190916101000a81548173ffffffffffffffffffffffffffffffffffffffff021916908373ffffffffffffffffffffffffffffffffffffffff16021790555050565b600160008273ffffffffffffffffffffffffffffffffffffffff1673ffffffffffffffffffffffffffffffffffffffff1681526020019081526020016000206008018290806001815401808255809150506001900390600052602060002090600e020160009091909190915060008201518160000155602082015181600101556040820151816002019080519060200190610ab7929190612d05565b506060820151816003016000820151816000015560208201518160010160006101000a81548173ffffffffffffffffffffffffffffffffffffffff021916908373ffffffffffffffffffffffffffffffffffffffff16021790555060408201518160020160006101000a81548173ffffffffffffffffffffffffffffffffffffffff021916908373ffffffffffffffffffffffffffffffffffffffff1602179055506060820151816003019080519060200190610b75929190612d8b565b5060808201518160040160006101000a81548160ff021916908315150217905550505060808201518160080160008201518160000160006101000a81548173ffffffffffffffffffffffffffffffffffffffff021916908373ffffffffffffffffffffffffffffffffffffffff160217905550602082015181600101556040820151816002019080519060200190610c0e929190612d05565b506060820151816003019080519060200190610c2b929190612d05565b5060808201518160040160006101000a81548160ff021916908315150217905550505060a082015181600d0160006101000a81548173ffffffffffffffffffffffffffffffffffffffff021916908373ffffffffffffffffffffffffffffffffffffffff16021790555050505050565b60006005811115610caf57610cae61481c565b5b610cb7612303565b602001516005811115610ccd57610ccc61481c565b5b14610d0d576040517f08c379a0000000000000000000000000000000000000000000000000000000008152600401610d0490614372565b60405180910390fd5b6000600160003373ffffffffffffffffffffffffffffffffffffffff1673ffffffffffffffffffffffffffffffffffffffff168152602001908152602001600020905086816000019080519060200190610d68929190612d05565b5085816001019080519060200190610d81929190612d05565b5084816002018190555083816006019080519060200190610da3929190612d05565b5082816003019080519060200190610dbc929190612d05565b5081816004019080519060200190610dd5929190612d05565b5050505050505050565b610de7612deb565b600160008373ffffffffffffffffffffffffffffffffffffffff1673ffffffffffffffffffffffffffffffffffffffff16815260200190815260200160002060405180610140016040529081600082018054610e4290614741565b80601f0160208091040260200160405190810160405280929190818152602001828054610e6e90614741565b8015610ebb5780601f10610e9057610100808354040283529160200191610ebb565b820191906000526020600020905b815481529060010190602001808311610e9e57829003601f168201915b50505050508152602001600182018054610ed490614741565b80601f0160208091040260200160405190810160405280929190818152602001828054610f0090614741565b8015610f4d5780601f10610f2257610100808354040283529160200191610f4d565b820191906000526020600020905b815481529060010190602001808311610f3057829003601f168201915b5050505050815260200160028201548152602001600382018054610f7090614741565b80601f0160208091040260200160405190810160405280929190818152602001828054610f9c90614741565b8015610fe95780601f10610fbe57610100808354040283529160200191610fe9565b820191906000526020600020905b815481529060010190602001808311610fcc57829003601f168201915b5050505050815260200160048201805461100290614741565b80601f016020809104026020016040519081016040528092919081815260200182805461102e90614741565b801561107b5780601f106110505761010080835404028352916020019161107b565b820191906000526020600020905b81548152906001019060200180831161105e57829003601f168201915b505050505081526020016005820180548060200260200160405190810160405280929190818152602001828054801561110957602002820191906000526020600020905b8160009054906101000a900473ffffffffffffffffffffffffffffffffffffffff1673ffffffffffffffffffffffffffffffffffffffff16815260200190600101908083116110bf575b5050505050815260200160068201805461112290614741565b80601f016020809104026020016040519081016040528092919081815260200182805461114e90614741565b801561119b5780601f106111705761010080835404028352916020019161119b565b820191906000526020600020905b81548152906001019060200180831161117e57829003601f168201915b505050505081526020016007820180546111b490614741565b80601f01602080910402602001604051908101604052809291908181526020018280546111e090614741565b801561122d5780601f106112025761010080835404028352916020019161122d565b820191906000526020600020905b81548152906001019060200180831161121057829003601f168201915b5050505050815260200160088201805480602002602001604051908101604052809291908181526020016000905b828210156116fa57838290600052602060002090600e02016040518060c001604052908160008201548152602001600182015481526020016002820180546112a290614741565b80601f01602080910402602001604051908101604052809291908181526020018280546112ce90614741565b801561131b5780601f106112f05761010080835404028352916020019161131b565b820191906000526020600020905b8154815290600101906020018083116112fe57829003601f168201915b50505050508152602001600382016040518060a0016040529081600082015481526020016001820160009054906101000a900473ffffffffffffffffffffffffffffffffffffffff1673ffffffffffffffffffffffffffffffffffffffff1673ffffffffffffffffffffffffffffffffffffffff1681526020016002820160009054906101000a900473ffffffffffffffffffffffffffffffffffffffff1673ffffffffffffffffffffffffffffffffffffffff1673ffffffffffffffffffffffffffffffffffffffff16815260200160038201805480602002602001604051908101604052809291908181526020016000905b828210156114bb57838290600052602060002001805461142e90614741565b80601f016020809104026020016040519081016040528092919081815260200182805461145a90614741565b80156114a75780601f1061147c576101008083540402835291602001916114a7565b820191906000526020600020905b81548152906001019060200180831161148a57829003601f168201915b50505050508152602001906001019061140f565b5050505081526020016004820160009054906101000a900460ff1615151515815250508152602001600882016040518060a00160405290816000820160009054906101000a900473ffffffffffffffffffffffffffffffffffffffff1673ffffffffffffffffffffffffffffffffffffffff1673ffffffffffffffffffffffffffffffffffffffff1681526020016001820154815260200160028201805461156290614741565b80601f016020809104026020016040519081016040528092919081815260200182805461158e90614741565b80156115db5780601f106115b0576101008083540402835291602001916115db565b820191906000526020600020905b8154815290600101906020018083116115be57829003601f168201915b505050505081526020016003820180546115f490614741565b80601f016020809104026020016040519081016040528092919081815260200182805461162090614741565b801561166d5780601f106116425761010080835404028352916020019161166d565b820191906000526020600020905b81548152906001019060200180831161165057829003601f168201915b505050505081526020016004820160009054906101000a900460ff1615151515815250508152602001600d820160009054906101000a900473ffffffffffffffffffffffffffffffffffffffff1673ffffffffffffffffffffffffffffffffffffffff1673ffffffffffffffffffffffffffffffffffffffff16815250508152602001906001019061125b565b50505050815260200160098201805480602002602001604051908101604052809291908181526020016000905b828210156118bc57838290600052602060002090600502016040518060a00160405290816000820160009054906101000a900473ffffffffffffffffffffffffffffffffffffffff1673ffffffffffffffffffffffffffffffffffffffff1673ffffffffffffffffffffffffffffffffffffffff1681526020016001820160009054906101000a900473ffffffffffffffffffffffffffffffffffffffff1673ffffffffffffffffffffffffffffffffffffffff1673ffffffffffffffffffffffffffffffffffffffff1681526020016002820154815260200160038201805461181090614741565b80601f016020809104026020016040519081016040528092919081815260200182805461183c90614741565b80156118895780601f1061185e57610100808354040283529160200191611889565b820191906000526020600020905b81548152906001019060200180831161186c57829003601f168201915b505050505081526020016004820160009054906101000a900460ff16151515158152505081526020019060010190611727565b50505050815250509050919050565b60606000600160003373ffffffffffffffffffffffffffffffffffffffff1673ffffffffffffffffffffffffffffffffffffffff168152602001908152602001600020905080600901805480602002602001604051908101604052809291908181526020016000905b82821015611ac957838290600052602060002090600502016040518060a00160405290816000820160009054906101000a900473ffffffffffffffffffffffffffffffffffffffff1673ffffffffffffffffffffffffffffffffffffffff1673ffffffffffffffffffffffffffffffffffffffff1681526020016001820160009054906101000a900473ffffffffffffffffffffffffffffffffffffffff1673ffffffffffffffffffffffffffffffffffffffff1673ffffffffffffffffffffffffffffffffffffffff16815260200160028201548152602001600382018054611a1d90614741565b80601f0160208091040260200160405190810160405280929190818152602001828054611a4990614741565b8015611a965780601f10611a6b57610100808354040283529160200191611a96565b820191906000526020600020905b815481529060010190602001808311611a7957829003601f168201915b505050505081526020016004820160009054906101000a900460ff16151515158152505081526020019060010190611934565b5050505091505090565b600080611adf836106e2565b905060005b8151811015611b59578473ffffffffffffffffffffffffffffffffffffffff16828281518110611b1757611b166148a9565b5b602002602001015173ffffffffffffffffffffffffffffffffffffffff161415611b4657600192505050611b60565b8080611b51906147a4565b915050611ae4565b5060009150505b92915050565b600160008373ffffffffffffffffffffffffffffffffffffffff1673ffffffffffffffffffffffffffffffffffffffff16815260200190815260200160002060090181908060018154018082558091505060019003906000526020600020906005020160009091909190915060008201518160000160006101000a81548173ffffffffffffffffffffffffffffffffffffffff021916908373ffffffffffffffffffffffffffffffffffffffff16021790555060208201518160010160006101000a81548173ffffffffffffffffffffffffffffffffffffffff021916908373ffffffffffffffffffffffffffffffffffffffff160217905550604082015181600201556060820151816003019080519060200190611c86929190612d05565b5060808201518160040160006101000a81548160ff02191690831515021790555050505050565b80600160003373ffffffffffffffffffffffffffffffffffffffff1673ffffffffffffffffffffffffffffffffffffffff1681526020019081526020016000206007019080519060200190611d03929190612d05565b5050565b611d0f612e3e565b60005b600160008573ffffffffffffffffffffffffffffffffffffffff1673ffffffffffffffffffffffffffffffffffffffff168152602001908152602001600020600801805490508110156122c15782600160008673ffffffffffffffffffffffffffffffffffffffff1673ffffffffffffffffffffffffffffffffffffffff1681526020019081526020016000206008018281548110611db457611db36148a9565b5b90600052602060002090600e02016000015414156122ae57600160008573ffffffffffffffffffffffffffffffffffffffff1673ffffffffffffffffffffffffffffffffffffffff1681526020019081526020016000206008018181548110611e2057611e1f6148a9565b5b90600052602060002090600e02016040518060c00160405290816000820154815260200160018201548152602001600282018054611e5d90614741565b80601f0160208091040260200160405190810160405280929190818152602001828054611e8990614741565b8015611ed65780601f10611eab57610100808354040283529160200191611ed6565b820191906000526020600020905b815481529060010190602001808311611eb957829003601f168201915b50505050508152602001600382016040518060a0016040529081600082015481526020016001820160009054906101000a900473ffffffffffffffffffffffffffffffffffffffff1673ffffffffffffffffffffffffffffffffffffffff1673ffffffffffffffffffffffffffffffffffffffff1681526020016002820160009054906101000a900473ffffffffffffffffffffffffffffffffffffffff1673ffffffffffffffffffffffffffffffffffffffff1673ffffffffffffffffffffffffffffffffffffffff16815260200160038201805480602002602001604051908101604052809291908181526020016000905b82821015612076578382906000526020600020018054611fe990614741565b80601f016020809104026020016040519081016040528092919081815260200182805461201590614741565b80156120625780601f1061203757610100808354040283529160200191612062565b820191906000526020600020905b81548152906001019060200180831161204557829003601f168201915b505050505081526020019060010190611fca565b5050505081526020016004820160009054906101000a900460ff1615151515815250508152602001600882016040518060a00160405290816000820160009054906101000a900473ffffffffffffffffffffffffffffffffffffffff1673ffffffffffffffffffffffffffffffffffffffff1673ffffffffffffffffffffffffffffffffffffffff1681526020016001820154815260200160028201805461211d90614741565b80601f016020809104026020016040519081016040528092919081815260200182805461214990614741565b80156121965780601f1061216b57610100808354040283529160200191612196565b820191906000526020600020905b81548152906001019060200180831161217957829003601f168201915b505050505081526020016003820180546121af90614741565b80601f01602080910402602001604051908101604052809291908181526020018280546121db90614741565b80156122285780601f106121fd57610100808354040283529160200191612228565b820191906000526020600020905b81548152906001019060200180831161220b57829003601f168201915b505050505081526020016004820160009054906101000a900460ff1615151515815250508152602001600d820160009054906101000a900473ffffffffffffffffffffffffffffffffffffffff1673ffffffffffffffffffffffffffffffffffffffff1673ffffffffffffffffffffffffffffffffffffffff16815250509150506122fd565b80806122b9906147a4565b915050611d12565b506040517f08c379a00000000000000000000000000000000000000000000000000000000081526004016122f4906143b2565b60405180910390fd5b92915050565b61230b612e96565b60008054906101000a900473ffffffffffffffffffffffffffffffffffffffff1673ffffffffffffffffffffffffffffffffffffffff16636f77926b336040518263ffffffff1660e01b8152600401612364919061421d565b60006040518083038186803b15801561237c57600080fd5b505afa158015612390573d6000803e3d6000fd5b505050506040513d6000823e3d601f19601f820116820180604052508101906123b99190613976565b905090565b600060058111156123d2576123d161481c565b5b6123da612303565b6020015160058111156123f0576123ef61481c565b5b14612430576040517f08c379a000000000000000000000000000000000000000000000000000000000815260040161242790614372565b60405180910390fd5b60005b600160003373ffffffffffffffffffffffffffffffffffffffff1673ffffffffffffffffffffffffffffffffffffffff1681526020019081526020016000206005018054905081101561276a578173ffffffffffffffffffffffffffffffffffffffff16600160003373ffffffffffffffffffffffffffffffffffffffff1673ffffffffffffffffffffffffffffffffffffffff16815260200190815260200160002060050182815481106124eb576124ea6148a9565b5b9060005260206000200160009054906101000a900473ffffffffffffffffffffffffffffffffffffffff1673ffffffffffffffffffffffffffffffffffffffff1614156127575760008190505b60018060003373ffffffffffffffffffffffffffffffffffffffff1673ffffffffffffffffffffffffffffffffffffffff16815260200190815260200160002060050180549050612589919061465e565b8110156126ca57600160003373ffffffffffffffffffffffffffffffffffffffff1673ffffffffffffffffffffffffffffffffffffffff1681526020019081526020016000206005016001826125df9190614608565b815481106125f0576125ef6148a9565b5b9060005260206000200160009054906101000a900473ffffffffffffffffffffffffffffffffffffffff16600160003373ffffffffffffffffffffffffffffffffffffffff1673ffffffffffffffffffffffffffffffffffffffff168152602001908152602001600020600501828154811061266f5761266e6148a9565b5b9060005260206000200160006101000a81548173ffffffffffffffffffffffffffffffffffffffff021916908373ffffffffffffffffffffffffffffffffffffffff16021790555080806126c2906147a4565b915050612538565b50600160003373ffffffffffffffffffffffffffffffffffffffff1673ffffffffffffffffffffffffffffffffffffffff16815260200190815260200160002060050180548061271d5761271c61487a565b5b6001900381819060005260206000200160006101000a81549073ffffffffffffffffffffffffffffffffffffffff0219169055905561276a565b8080612762906147a4565b915050612433565b5050565b600082600160003373ffffffffffffffffffffffffffffffffffffffff1673ffffffffffffffffffffffffffffffffffffffff16815260200190815260200160002060060190805190602001906127c6929190612d05565b5081600160003373ffffffffffffffffffffffffffffffffffffffff1673ffffffffffffffffffffffffffffffffffffffff168152602001908152602001600020600701908051906020019061281d929190612d05565b506001905092915050565b60006128348484611d07565b90508181608001516060018190525060005b600160008673ffffffffffffffffffffffffffffffffffffffff1673ffffffffffffffffffffffffffffffffffffffff16815260200190815260200160002060080180549050811015612b8c5783600160008773ffffffffffffffffffffffffffffffffffffffff1673ffffffffffffffffffffffffffffffffffffffff16815260200190815260200160002060080182815481106128e8576128e76148a9565b5b90600052602060002090600e0201600001541415612b795781600160008773ffffffffffffffffffffffffffffffffffffffff1673ffffffffffffffffffffffffffffffffffffffff1681526020019081526020016000206008018281548110612955576129546148a9565b5b90600052602060002090600e020160008201518160000155602082015181600101556040820151816002019080519060200190612993929190612d05565b506060820151816003016000820151816000015560208201518160010160006101000a81548173ffffffffffffffffffffffffffffffffffffffff021916908373ffffffffffffffffffffffffffffffffffffffff16021790555060408201518160020160006101000a81548173ffffffffffffffffffffffffffffffffffffffff021916908373ffffffffffffffffffffffffffffffffffffffff1602179055506060820151816003019080519060200190612a51929190612d8b565b5060808201518160040160006101000a81548160ff021916908315150217905550505060808201518160080160008201518160000160006101000a81548173ffffffffffffffffffffffffffffffffffffffff021916908373ffffffffffffffffffffffffffffffffffffffff160217905550602082015181600101556040820151816002019080519060200190612aea929190612d05565b506060820151816003019080519060200190612b07929190612d05565b5060808201518160040160006101000a81548160ff021916908315150217905550505060a082015181600d0160006101000a81548173ffffffffffffffffffffffffffffffffffffffff021916908373ffffffffffffffffffffffffffffffffffffffff160217905550905050612b8c565b8080612b84906147a4565b915050612846565b5050505050565b60608282612ba18282611ad3565b612be0576040517f08c379a0000000000000000000000000000000000000000000000000000000008152600401612bd790614352565b60405180910390fd5b600160008573ffffffffffffffffffffffffffffffffffffffff1673ffffffffffffffffffffffffffffffffffffffff1681526020019081526020016000206006018054612c2d90614741565b80601f0160208091040260200160405190810160405280929190818152602001828054612c5990614741565b8015612ca65780601f10612c7b57610100808354040283529160200191612ca6565b820191906000526020600020905b815481529060010190602001808311612c8957829003601f168201915b50505050509250505092915050565b3373ffffffffffffffffffffffffffffffffffffffff167fcb2451a2bc5cc917c6c8c84591bf7dc92e343dd33521c11161e070c9f4d6b91042604051612cfb9190614438565b60405180910390a2565b828054612d1190614741565b90600052602060002090601f016020900481019282612d335760008555612d7a565b82601f10612d4c57805160ff1916838001178555612d7a565b82800160010185558215612d7a579182015b82811115612d79578251825591602001919060010190612d5e565b5b509050612d879190612ee6565b5090565b828054828255906000526020600020908101928215612dda579160200282015b82811115612dd9578251829080519060200190612dc9929190612d05565b5091602001919060010190612dab565b5b509050612de79190612f03565b5090565b604051806101400160405280606081526020016060815260200160008152602001606081526020016060815260200160608152602001606081526020016060815260200160608152602001606081525090565b6040518060c00160405280600081526020016000815260200160608152602001612e66612f27565b8152602001612e73612f84565b8152602001600073ffffffffffffffffffffffffffffffffffffffff1681525090565b60405180608001604052806060815260200160006005811115612ebc57612ebb61481c565b5b815260200160608152602001600073ffffffffffffffffffffffffffffffffffffffff1681525090565b5b80821115612eff576000816000905550600101612ee7565b5090565b5b80821115612f235760008181612f1a9190612fcb565b50600101612f04565b5090565b6040518060a0016040528060008152602001600073ffffffffffffffffffffffffffffffffffffffff168152602001600073ffffffffffffffffffffffffffffffffffffffff168152602001606081526020016000151581525090565b6040518060a00160405280600073ffffffffffffffffffffffffffffffffffffffff1681526020016000815260200160608152602001606081526020016000151581525090565b508054612fd790614741565b6000825580601f10612fe95750613008565b601f0160209004906000526020600020908101906130079190612ee6565b5b50565b600061301e61301984614478565b614453565b9050808382526020820190508285602086028201111561304157613040614916565b5b60005b8581101561308f57813567ffffffffffffffff81111561306757613066614907565b5b808601613074898261319f565b85526020850194506020840193505050600181019050613044565b5050509392505050565b60006130ac6130a7846144a4565b614453565b9050828152602081018484840111156130c8576130c761491b565b5b6130d38482856146ff565b509392505050565b60006130ee6130e9846144a4565b614453565b90508281526020810184848401111561310a5761310961491b565b5b61311584828561470e565b509392505050565b60008135905061312c81614a19565b92915050565b60008151905061314181614a19565b92915050565b600082601f83011261315c5761315b614907565b5b813561316c84826020860161300b565b91505092915050565b60008135905061318481614a30565b92915050565b60008151905061319981614a47565b92915050565b600082601f8301126131b4576131b3614907565b5b81356131c4848260208601613099565b91505092915050565b600082601f8301126131e2576131e1614907565b5b81516131f28482602086016130db565b91505092915050565b600060a082840312156132115761321061490c565b5b61321b60a0614453565b9050600061322b8482850161311d565b600083015250602061323f8482850161311d565b6020830152506040613253848285016135b3565b604083015250606082013567ffffffffffffffff81111561327757613276614911565b5b6132838482850161319f565b606083015250608061329784828501613175565b60808301525092915050565b600060c082840312156132b9576132b861490c565b5b6132c360c0614453565b905060006132d3848285016135b3565b60008301525060206132e7848285016135b3565b602083015250604082013567ffffffffffffffff81111561330b5761330a614911565b5b6133178482850161319f565b604083015250606082013567ffffffffffffffff81111561333b5761333a614911565b5b61334784828501613397565b606083015250608082013567ffffffffffffffff81111561336b5761336a614911565b5b6133778482850161343f565b60808301525060a061338b8482850161311d565b60a08301525092915050565b600060a082840312156133ad576133ac61490c565b5b6133b760a0614453565b905060006133c7848285016135b3565b60008301525060206133db8482850161311d565b60208301525060406133ef8482850161311d565b604083015250606082013567ffffffffffffffff81111561341357613412614911565b5b61341f84828501613147565b606083015250608061343384828501613175565b60808301525092915050565b600060a082840312156134555761345461490c565b5b61345f60a0614453565b9050600061346f8482850161311d565b6000830152506020613483848285016135b3565b602083015250604082013567ffffffffffffffff8111156134a7576134a6614911565b5b6134b38482850161319f565b604083015250606082013567ffffffffffffffff8111156134d7576134d6614911565b5b6134e38482850161319f565b60608301525060806134f784828501613175565b60808301525092915050565b6000608082840312156135195761351861490c565b5b6135236080614453565b9050600082015167ffffffffffffffff81111561354357613542614911565b5b61354f848285016131cd565b60008301525060206135638482850161318a565b602083015250604082015167ffffffffffffffff81111561358757613586614911565b5b613593848285016131cd565b60408301525060606135a784828501613132565b60608301525092915050565b6000813590506135c281614a57565b92915050565b6000602082840312156135de576135dd614925565b5b60006135ec8482850161311d565b91505092915050565b6000806040838503121561360c5761360b614925565b5b600061361a8582860161311d565b925050602061362b8582860161311d565b9150509250929050565b6000806040838503121561364c5761364b614925565b5b600061365a8582860161311d565b925050602083013567ffffffffffffffff81111561367b5761367a614920565b5b613687858286016131fb565b9150509250929050565b600080604083850312156136a8576136a7614925565b5b60006136b68582860161311d565b92505060206136c7858286016135b3565b9150509250929050565b6000806000606084860312156136ea576136e9614925565b5b60006136f88682870161311d565b9350506020613709868287016135b3565b925050604084013567ffffffffffffffff81111561372a57613729614920565b5b6137368682870161319f565b9150509250925092565b60006020828403121561375657613755614925565b5b600082013567ffffffffffffffff81111561377457613773614920565b5b6137808482850161319f565b91505092915050565b600080604083850312156137a05761379f614925565b5b600083013567ffffffffffffffff8111156137be576137bd614920565b5b6137ca8582860161319f565b925050602083013567ffffffffffffffff8111156137eb576137ea614920565b5b6137f78582860161319f565b9150509250929050565b60008060008060008060c0878903121561381e5761381d614925565b5b600087013567ffffffffffffffff81111561383c5761383b614920565b5b61384889828a0161319f565b965050602087013567ffffffffffffffff81111561386957613868614920565b5b61387589828a0161319f565b955050604061388689828a016135b3565b945050606087013567ffffffffffffffff8111156138a7576138a6614920565b5b6138b389828a0161319f565b935050608087013567ffffffffffffffff8111156138d4576138d3614920565b5b6138e089828a0161319f565b92505060a087013567ffffffffffffffff81111561390157613900614920565b5b61390d89828a0161319f565b9150509295509295509295565b6000806040838503121561393157613930614925565b5b600083013567ffffffffffffffff81111561394f5761394e614920565b5b61395b858286016132a3565b925050602061396c8582860161311d565b9150509250929050565b60006020828403121561398c5761398b614925565b5b600082015167ffffffffffffffff8111156139aa576139a9614920565b5b6139b684828501613503565b91505092915050565b60006139cb8383613a13565b60208301905092915050565b60006139e38383613cee565b905092915050565b60006139f78383613dec565b905092915050565b6000613a0b8383613e62565b905092915050565b613a1c81614692565b82525050565b613a2b81614692565b82525050565b6000613a3c82614515565b613a468185614580565b9350613a51836144d5565b8060005b83811015613a82578151613a6988826139bf565b9750613a748361454c565b925050600181019050613a55565b5085935050505092915050565b6000613a9a82614515565b613aa48185614591565b9350613aaf836144d5565b8060005b83811015613ae0578151613ac788826139bf565b9750613ad28361454c565b925050600181019050613ab3565b5085935050505092915050565b6000613af882614520565b613b0281856145a2565b935083602082028501613b14856144e5565b8060005b85811015613b505784840389528151613b3185826139d7565b9450613b3c83614559565b925060208a01995050600181019050613b18565b50829750879550505050505092915050565b6000613b6d8261452b565b613b7781856145b3565b935083602082028501613b89856144f5565b8060005b85811015613bc55784840389528151613ba685826139eb565b9450613bb183614566565b925060208a01995050600181019050613b8d565b50829750879550505050505092915050565b6000613be28261452b565b613bec81856145c4565b935083602082028501613bfe856144f5565b8060005b85811015613c3a5784840389528151613c1b85826139eb565b9450613c2683614566565b925060208a01995050600181019050613c02565b50829750879550505050505092915050565b6000613c5782614536565b613c6181856145d5565b935083602082028501613c7385614505565b8060005b85811015613caf5784840389528151613c9085826139ff565b9450613c9b83614573565b925060208a01995050600181019050613c77565b50829750879550505050505092915050565b613cca816146a4565b82525050565b613cd9816146a4565b82525050565b613ce8816146ed565b82525050565b6000613cf982614541565b613d0381856145e6565b9350613d1381856020860161470e565b613d1c8161492a565b840191505092915050565b6000613d3282614541565b613d3c81856145f7565b9350613d4c81856020860161470e565b613d558161492a565b840191505092915050565b6000613d6d6011836145f7565b9150613d788261493b565b602082019050919050565b6000613d906023836145f7565b9150613d9b82614964565b604082019050919050565b6000613db36017836145f7565b9150613dbe826149b3565b602082019050919050565b6000613dd66018836145f7565b9150613de1826149dc565b602082019050919050565b600060a083016000830151613e046000860182613a13565b506020830151613e176020860182613a13565b506040830151613e2a60408601826141ff565b5060608301518482036060860152613e428282613cee565b9150506080830151613e576080860182613cc1565b508091505092915050565b600060c083016000830151613e7a60008601826141ff565b506020830151613e8d60208601826141ff565b5060408301518482036040860152613ea58282613cee565b91505060608301518482036060860152613ebf82826140a2565b91505060808301518482036080860152613ed98282614118565b91505060a0830151613eee60a0860182613a13565b508091505092915050565b600060c083016000830151613f1160008601826141ff565b506020830151613f2460208601826141ff565b5060408301518482036040860152613f3c8282613cee565b91505060608301518482036060860152613f5682826140a2565b91505060808301518482036080860152613f708282614118565b91505060a0830151613f8560a0860182613a13565b508091505092915050565b6000610140830160008301518482036000860152613fae8282613cee565b91505060208301518482036020860152613fc88282613cee565b9150506040830151613fdd60408601826141ff565b5060608301518482036060860152613ff58282613cee565b9150506080830151848203608086015261400f8282613cee565b91505060a083015184820360a08601526140298282613a31565b91505060c083015184820360c08601526140438282613cee565b91505060e083015184820360e086015261405d8282613cee565b9150506101008301518482036101008601526140798282613c4c565b9150506101208301518482036101208601526140958282613b62565b9150508091505092915050565b600060a0830160008301516140ba60008601826141ff565b5060208301516140cd6020860182613a13565b5060408301516140e06040860182613a13565b50606083015184820360608601526140f88282613aed565b915050608083015161410d6080860182613cc1565b508091505092915050565b600060a0830160008301516141306000860182613a13565b50602083015161414360208601826141ff565b506040830151848203604086015261415b8282613cee565b915050606083015184820360608601526141758282613cee565b915050608083015161418a6080860182613cc1565b508091505092915050565b600060808301600083015184820360008601526141b28282613cee565b91505060208301516141c76020860182613cdf565b50604083015184820360408601526141df8282613cee565b91505060608301516141f46060860182613a13565b508091505092915050565b614208816146e3565b82525050565b614217816146e3565b82525050565b60006020820190506142326000830184613a22565b92915050565b600060208201905081810360008301526142528184613a8f565b905092915050565b600060208201905081810360008301526142748184613bd7565b905092915050565b60006020820190506142916000830184613cd0565b92915050565b600060208201905081810360008301526142b18184613d27565b905092915050565b600060e08201905081810360008301526142d3818a613d27565b905081810360208301526142e78189613d27565b90506142f6604083018861420e565b81810360608301526143088187613d27565b9050818103608083015261431c8186613d27565b905081810360a08301526143308185613d27565b905081810360c08301526143448184613d27565b905098975050505050505050565b6000602082019050818103600083015261436b81613d60565b9050919050565b6000602082019050818103600083015261438b81613d83565b9050919050565b600060208201905081810360008301526143ab81613da6565b9050919050565b600060208201905081810360008301526143cb81613dc9565b9050919050565b600060208201905081810360008301526143ec8184613ef9565b905092915050565b6000602082019050818103600083015261440e8184613f90565b905092915050565b600060208201905081810360008301526144308184614195565b905092915050565b600060208201905061444d600083018461420e565b92915050565b600061445d61446e565b90506144698282614773565b919050565b6000604051905090565b600067ffffffffffffffff821115614493576144926148d8565b5b602082029050602081019050919050565b600067ffffffffffffffff8211156144bf576144be6148d8565b5b6144c88261492a565b9050602081019050919050565b6000819050602082019050919050565b6000819050602082019050919050565b6000819050602082019050919050565b6000819050602082019050919050565b600081519050919050565b600081519050919050565b600081519050919050565b600081519050919050565b600081519050919050565b6000602082019050919050565b6000602082019050919050565b6000602082019050919050565b6000602082019050919050565b600082825260208201905092915050565b600082825260208201905092915050565b600082825260208201905092915050565b600082825260208201905092915050565b600082825260208201905092915050565b600082825260208201905092915050565b600082825260208201905092915050565b600082825260208201905092915050565b6000614613826146e3565b915061461e836146e3565b9250827fffffffffffffffffffffffffffffffffffffffffffffffffffffffffffffffff03821115614653576146526147ed565b5b828201905092915050565b6000614669826146e3565b9150614674836146e3565b925082821015614687576146866147ed565b5b828203905092915050565b600061469d826146c3565b9050919050565b60008115159050919050565b60008190506146be82614a05565b919050565b600073ffffffffffffffffffffffffffffffffffffffff82169050919050565b6000819050919050565b60006146f8826146b0565b9050919050565b82818337600083830152505050565b60005b8381101561472c578082015181840152602081019050614711565b8381111561473b576000848401525b50505050565b6000600282049050600182168061475957607f821691505b6020821081141561476d5761476c61484b565b5b50919050565b61477c8261492a565b810181811067ffffffffffffffff8211171561479b5761479a6148d8565b5b80604052505050565b60006147af826146e3565b91507fffffffffffffffffffffffffffffffffffffffffffffffffffffffffffffffff8214156147e2576147e16147ed565b5b600182019050919050565b7f4e487b7100000000000000000000000000000000000000000000000000000000600052601160045260246000fd5b7f4e487b7100000000000000000000000000000000000000000000000000000000600052602160045260246000fd5b7f4e487b7100000000000000000000000000000000000000000000000000000000600052602260045260246000fd5b7f4e487b7100000000000000000000000000000000000000000000000000000000600052603160045260246000fd5b7f4e487b7100000000000000000000000000000000000000000000000000000000600052603260045260246000fd5b7f4e487b7100000000000000000000000000000000000000000000000000000000600052604160045260246000fd5b600080fd5b600080fd5b600080fd5b600080fd5b600080fd5b600080fd5b600080fd5b6000601f19601f8301169050919050565b7f556e617574686f72697a65642075736572000000000000000000000000000000600082015250565b7f4f6e6c792070617469656e74732063616e207375626d6974207468697320747960008201527f7065200000000000000000000000000000000000000000000000000000000000602082015250565b7f5573657220616c726561647920617574686f72697a6564000000000000000000600082015250565b7f4d65646963616c207265636f7264206e6f7420666f756e640000000000000000600082015250565b60068110614a1657614a1561481c565b5b50565b614a2281614692565b8114614a2d57600080fd5b50565b614a39816146a4565b8114614a4457600080fd5b50565b60068110614a5457600080fd5b50565b614a60816146e3565b8114614a6b57600080fd5b5056fea26469706673582212200f0f284c78443172e3d0e55d278b16afd73748f0a542075b612a32fdc44dbaad64736f6c63430008060033",
  "immutableReferences": {},
  "source": "// SPDX-License-Identifier: GPL-3.0\r\n\r\nimport './Authentication.sol';\r\npragma solidity ^0.8.0;\r\ncontract Patients  {\r\n \r\n    Authentication private contractRInstance;\r\n\r\n    constructor(address _contractBAddress) {\r\n        contractRInstance = Authentication(_contractBAddress);\r\n    }\r\n\r\n\r\nstruct Patient {\r\n    string firstname;\r\n    string lastname;\r\n    uint age;\r\n    string location;\r\n    string phone;\r\n    address[] authorizedUsers; // List of addresses of authorized doctors\r\n    string dossierHash; // Medical history of the patient\r\n    string PublicKey;\r\n    Authentication.MedicalRecord[]  record;\r\n    Authentication.Appointment[] Appointmentslist;\r\n}\r\n\r\n\r\n\r\n\r\n\r\nmapping(address => Patient) public patients;\r\n\r\nfunction registerUserDetails( string memory _firstname,string memory _lastname,uint _age,string memory _dossierHash ,string memory location,string memory phone)public\r\n{\r\n        require(getUser().role == Authentication.Role.patient, \"Only patients can submit this type \");\r\n        Patient storage patient = patients[msg.sender];\r\n        patient.firstname = _firstname;\r\n        patient.lastname = _lastname;\r\n        patient.age = _age;\r\n        patient.dossierHash = _dossierHash;\r\n        patient.location=location;\r\n        patient.phone=phone;\r\n        \r\n\r\n       \r\n}\r\n\r\n\r\n\r\n//open for more modifications other users \r\n   function getUser() public view   returns (Authentication.User memory) {\r\n        return contractRInstance.getUser(msg.sender);\r\n    }\r\n  \r\n function getPatients(address _patient) public view   returns (Patient memory) {\r\n        return patients[_patient];\r\n}\r\n\r\nfunction addAppointment(address _patient,Authentication.Appointment memory newAppointment) public {\r\n        patients[_patient].Appointmentslist.push(newAppointment);\r\n}\r\nfunction addrecordtoPatient(Authentication.MedicalRecord  memory record,address _patient)public{\r\n     patients[_patient].record.push(record);\r\n}\r\n\r\nfunction getRecordById(address _patient, uint _id) public view returns (Authentication.MedicalRecord memory) {\r\n    for (uint i = 0; i < patients[_patient].record.length; i++) {\r\n        if (patients[_patient].record[i].id == _id) {\r\n            return patients[_patient].record[i];\r\n        }\r\n    }\r\n    revert(\"Medical record not found\"); // Revert if medical record with given ID is not found\r\n}\r\nfunction addTestResultToPatient(address _patient, uint _id, string memory _result) public {\r\n    Authentication.MedicalRecord memory medicalRecord = getRecordById(_patient, _id);\r\n    \r\n    // Update the test result in the medical record\r\n    medicalRecord.test.result = _result;\r\n    \r\n    // Optionally, emit an event or perform any additional logic\r\n    \r\n    // Update the medical record in the patient's records array\r\n    for (uint i = 0; i < patients[_patient].record.length; i++) {\r\n        if (patients[_patient].record[i].id == _id) {\r\n            patients[_patient].record[i] = medicalRecord;\r\n            break; // Break the loop once the medical record is updated\r\n        }\r\n    }\r\n}\r\n\r\nevent ReimbursementRequested(address indexed patient, uint256 timestamp);\r\n\r\nfunction demanderemboursement() public {//this will emit an event in the blockchain so the agent see it and then ...;patient contract\r\n    //require(getUser().role == Authentication.Role.patient, \"Only patients can submit reimbursement requests\");\r\n    emit ReimbursementRequested(msg.sender, block.timestamp);\r\n}\r\n\r\n\r\n\r\nfunction AuthorizeUser(address  _user) public {//maybe add modifier so only patient can use ths function ;patient contract \r\n    require(getUser().role == Authentication.Role.patient, \"Only patients can submit this type \");\r\n    for (uint i = 0; i < patients[msg.sender].authorizedUsers.length; i++) {\r\n        require(patients[msg.sender].authorizedUsers[i] != _user, \"User already authorized\");\r\n      }\r\n      patients[msg.sender].authorizedUsers.push(_user);\r\n}\r\n\r\n\r\n\r\n\r\nfunction removeAuthorizedUser(address _user) public {//patient contract \r\n    // Find the index of the user in the authorized list\r\n    require(getUser().role == Authentication.Role.patient, \"Only patients can submit this type \");\r\n    for (uint i = 0; i < patients[msg.sender].authorizedUsers.length; i++) {\r\n        if (patients[msg.sender].authorizedUsers[i] == _user) {\r\n            // Remove the user by shifting the elements and decreasing the array length\r\n            for (uint j = i; j < patients[msg.sender].authorizedUsers.length - 1; j++) {\r\n                patients[msg.sender].authorizedUsers[j] = patients[msg.sender].authorizedUsers[j + 1];\r\n            }\r\n            patients[msg.sender].authorizedUsers.pop(); // Remove the last element\r\n            break;\r\n        }\r\n    }\r\n}\r\n\r\n\r\n\r\n\r\nfunction StorePatientFileHash(string memory _ipfsfilehash,string memory _pubkey) public returns (bool) {//patient contract\r\n     patients[msg.sender].dossierHash=_ipfsfilehash;\r\n     patients[msg.sender].PublicKey=_pubkey;\r\n     return true ;   \r\n} \r\n\r\n\r\nfunction getAuthorizedUsers(address _fromPatient )public view returns (address[] memory ) {//patient contract\r\nreturn patients[_fromPatient].authorizedUsers;\r\n}\r\n\r\nfunction isAuthorized(address _user,address _fromPatient) public view returns (bool) {//patient contract\r\n    // Retrieve the patient's authorized users\r\n    address[] memory authorizedUsers = getAuthorizedUsers(_fromPatient);\r\n\r\n    // Check if the given address is in the list of authorized users\r\n    for (uint i = 0; i < authorizedUsers.length; i++) {\r\n        if (authorizedUsers[i] == _user) {\r\n            return true; // Address is authorized\r\n        }\r\n    }\r\n    return false; // Address is not authorized\r\n\r\n}\r\n\r\n\r\n modifier onlyAuthorizedUser(address _user,address _fromPatient) {//patient contract\r\n        require(isAuthorized(_user,_fromPatient), \"Unauthorized user\");\r\n        _;\r\n    }\r\n\r\n\r\n\r\nfunction getFileHash(address _user,address _fromPatient) public view onlyAuthorizedUser(_user,_fromPatient) returns (string memory) {//user contract with permission\r\n    // Retrieve and return the file hash\r\n    return patients[_fromPatient].dossierHash;\r\n}\r\n\r\n  \r\nfunction visualiserProchainsRendezVous() public view returns (Authentication.Appointment[] memory) {//patient contract \r\n    // Obtenez les prochains rendez-vous du patient actuel\r\n    Patient storage patient = patients[msg.sender];\r\n    return patient.Appointmentslist;\r\n}\r\n\r\nfunction setPublicKey(string memory _pubkey) public {\r\n    patients[msg.sender].PublicKey = _pubkey;   \r\n}\r\n\r\n}\r\n\r\n\r\n\r\n\r\n\r\n\r\n/*\r\ncontract Patients  {\r\n \r\n    Authentication private contractRInstance;\r\n\r\n  constructor(address _contractBAddress) {\r\n        contractRInstance = Authentication(_contractBAddress);\r\n    }\r\nstruct Appointment {\r\n    string date;\r\n    string time;\r\n    string doctorName;\r\n    string location;\r\n}\r\n\r\n\r\nstruct Patient {\r\n    string firstname;\r\n    string lastname;\r\n    uint age;\r\n    string location;\r\n    string phone;\r\n    address[] authorizedUsers; // List of addresses of authorized doctors\r\n    string dossierHash; // Medical history of the patient\r\n    string PublicKey;\r\n    Authentication.MedicalRecord[]  record;\r\n    Appointment[] Appointments;\r\n    //here i will add records option but its should contain both test and ordonnance \r\n}\r\n\r\n\r\n\r\n\r\n\r\n\r\nmapping(address => Patient) public patients;\r\n\r\nfunction registerUserDetails( string memory _firstname,string memory _lastname,uint _age,address   _authorizedUsers,string memory _dossierHash)public   \r\n{//we can use a struct json from the webapp \r\n        require(getUser().role == Authentication.Role.patient, \"Only patients can submit this type \");\r\n        Patient storage patient = patients[msg.sender];\r\n        patient.firstname = _firstname;\r\n        patient.lastname = _lastname;\r\n        patient.age = _age;\r\n        patient.authorizedUsers.push(_authorizedUsers);\r\n        patient.dossierHash = _dossierHash;//optional\r\n\r\n       \r\n}\r\n\r\n\r\n\r\n//open for more modifications other users \r\n   function getUser() public view   returns (Authentication.User memory) {\r\n        return contractRInstance.getUser(msg.sender);\r\n    }\r\n    function getPatient() public view   returns (Patient memory) {\r\n        return patients[msg.sender];\r\n    }\r\n\r\n\r\n\r\nevent ReimbursementRequested(address indexed patient, uint256 timestamp);\r\n\r\nfunction demanderemboursement() public {//this will emit an event in the blockchain so the agent see it and then ...;patient contract\r\n    //require(getUser().role == Authentication.Role.patient, \"Only patients can submit reimbursement requests\");\r\n    emit ReimbursementRequested(msg.sender, block.timestamp);\r\n}\r\n\r\n\r\n\r\nfunction AuthorizeUser(address  _user) public {//maybe add modifier so only patient can use ths function ;patient contract \r\n    require(getUser().role == Authentication.Role.patient, \"Only patients can submit this type \");\r\n    for (uint i = 0; i < patients[msg.sender].authorizedUsers.length; i++) {\r\n        require(patients[msg.sender].authorizedUsers[i] != _user, \"User already authorized\");\r\n      }\r\n      patients[msg.sender].authorizedUsers.push(_user);\r\n}\r\n\r\n\r\n\r\n\r\nfunction removeAuthorizedUser(address _user) public {//patient contract \r\n    // Find the index of the user in the authorized list\r\n    require(getUser().role == Authentication.Role.patient, \"Only patients can submit this type \");\r\n    for (uint i = 0; i < patients[msg.sender].authorizedUsers.length; i++) {\r\n        if (patients[msg.sender].authorizedUsers[i] == _user) {\r\n            // Remove the user by shifting the elements and decreasing the array length\r\n            for (uint j = i; j < patients[msg.sender].authorizedUsers.length - 1; j++) {\r\n                patients[msg.sender].authorizedUsers[j] = patients[msg.sender].authorizedUsers[j + 1];\r\n            }\r\n            patients[msg.sender].authorizedUsers.pop(); // Remove the last element\r\n            break;\r\n        }\r\n    }\r\n}\r\n\r\n\r\n\r\n\r\nfunction StorePatientFileHash(string memory _ipfsfilehash,string memory _pubkey) public returns (bool) {//patient contract\r\n     patients[msg.sender].dossierHash=_ipfsfilehash;\r\n     patients[msg.sender].PublicKey=_pubkey;\r\n     return true ;   \r\n} \r\n\r\n\r\nfunction getAuthorizedUsers(address _fromPatient )public view returns (address[] memory ) {//patient contract\r\nreturn patients[_fromPatient].authorizedUsers;\r\n}\r\n\r\nfunction isAuthorized(address _user,address _fromPatient) internal view returns (bool) {//patient contract\r\n    // Retrieve the patient's authorized users\r\n    address[] memory authorizedUsers = getAuthorizedUsers(_fromPatient);\r\n\r\n    // Check if the given address is in the list of authorized users\r\n    for (uint i = 0; i < authorizedUsers.length; i++) {\r\n        if (authorizedUsers[i] == _user) {\r\n            return true; // Address is authorized\r\n        }\r\n    }\r\n    return false; // Address is not authorized\r\n\r\n}\r\n\r\n\r\n modifier onlyAuthorizedUser(address _user,address _fromPatient) {//patient contract\r\n        require(isAuthorized(_user,_fromPatient), \"Unauthorized user\");\r\n        _;\r\n    }\r\n\r\n\r\n\r\nfunction getFileHash(address _user,address _fromPatient) public view onlyAuthorizedUser(_user,_fromPatient) returns (string memory) {//user contract with permission\r\n    // Retrieve and return the file hash\r\n    return patients[_fromPatient].dossierHash;\r\n}\r\n\r\n  \r\nfunction visualiserProchainsRendezVous() public view returns (Appointment[] memory) {//patient contract \r\n    // Obtenez les prochains rendez-vous du patient actuel\r\n    Patient storage patient = patients[msg.sender];\r\n    return patient.Appointments;\r\n}\r\n\r\n function addAppointment(//called by the doctor\r\n        string memory _date,\r\n        string memory _time,\r\n        string memory _doctorName,\r\n        string memory _location\r\n    ) public {\r\n        // Ensure that only patients can add appointments\r\n        require(getUser().role == Authentication.Role.doctor, \"Only doctors can add appointments.\");\r\n\r\n        // Create the new appointment\r\n        Appointment memory newAppointment = Appointment({\r\n            date: _date,\r\n            time: _time,\r\n            doctorName: _doctorName,\r\n            location: _location\r\n        });\r\n\r\n        // Add the new appointment to the patient's appointments array\r\n        patients[msg.sender].Appointments.push(newAppointment);\r\n    }\r\n\r\n}*/",
  "sourcePath": "C:\\Users\\hamma\\Downloads\\blockchain-based-authentication-main\\blockchain-based-authentication-main\\contracts\\patientcontract.sol",
  "compiler": {
    "name": "solc",
    "version": "0.8.6+commit.11564f7e.Emscripten.clang"
  },
  "schemaVersion": "3.4.16",
  "updatedAt": "2024-04-13T15:35:20.338Z",
  "networkType": "ethereum",
  "devdoc": {
    "kind": "dev",
    "methods": {},
    "version": 1
  },
  "userdoc": {
    "kind": "user",
    "methods": {},
    "version": 1
  }
}