{
  "contractName": "Patients",
  "abi": [
    {
      "inputs": [
        {
          "internalType": "address",
          "name": "_contractBAddress",
          "type": "address"
        }
      ],
      "stateMutability": "nonpayable",
      "type": "constructor"
    },
    {
      "anonymous": false,
      "inputs": [
        {
          "indexed": true,
          "internalType": "address",
          "name": "patient",
          "type": "address"
        },
        {
          "indexed": false,
          "internalType": "uint256",
          "name": "timestamp",
          "type": "uint256"
        }
      ],
      "name": "ReimbursementRequested",
      "type": "event"
    },
    {
      "inputs": [
        {
          "internalType": "address",
          "name": "",
          "type": "address"
        }
      ],
      "name": "patients",
      "outputs": [
        {
          "internalType": "string",
          "name": "firstname",
          "type": "string"
        },
        {
          "internalType": "string",
          "name": "lastname",
          "type": "string"
        },
        {
          "internalType": "uint256",
          "name": "age",
          "type": "uint256"
        },
        {
          "internalType": "string",
          "name": "location",
          "type": "string"
        },
        {
          "internalType": "string",
          "name": "phone",
          "type": "string"
        },
        {
          "internalType": "string",
          "name": "dossierHash",
          "type": "string"
        },
        {
          "internalType": "string",
          "name": "PublicKey",
          "type": "string"
        }
      ],
      "stateMutability": "view",
      "type": "function",
      "constant": true
    },
    {
      "inputs": [
        {
          "internalType": "string",
          "name": "_firstname",
          "type": "string"
        },
        {
          "internalType": "string",
          "name": "_lastname",
          "type": "string"
        },
        {
          "internalType": "uint256",
          "name": "_age",
          "type": "uint256"
        },
        {
          "internalType": "address",
          "name": "_authorizedUsers",
          "type": "address"
        },
        {
          "internalType": "string",
          "name": "_dossierHash",
          "type": "string"
        }
      ],
      "name": "registerUserDetails",
      "outputs": [],
      "stateMutability": "nonpayable",
      "type": "function"
    },
    {
      "inputs": [],
      "name": "getUser",
      "outputs": [
        {
          "components": [
            {
              "internalType": "string",
              "name": "signatureHash",
              "type": "string"
            },
            {
              "internalType": "enum Authentication.Role",
              "name": "role",
              "type": "uint8"
            },
            {
              "internalType": "address",
              "name": "UserAddress",
              "type": "address"
            }
          ],
          "internalType": "struct Authentication.User",
          "name": "",
          "type": "tuple"
        }
      ],
      "stateMutability": "view",
      "type": "function",
      "constant": true
    },
    {
      "inputs": [],
      "name": "getPatient",
      "outputs": [
        {
          "components": [
            {
              "internalType": "string",
              "name": "firstname",
              "type": "string"
            },
            {
              "internalType": "string",
              "name": "lastname",
              "type": "string"
            },
            {
              "internalType": "uint256",
              "name": "age",
              "type": "uint256"
            },
            {
              "internalType": "string",
              "name": "location",
              "type": "string"
            },
            {
              "internalType": "string",
              "name": "phone",
              "type": "string"
            },
            {
              "internalType": "address[]",
              "name": "authorizedUsers",
              "type": "address[]"
            },
            {
              "internalType": "string",
              "name": "dossierHash",
              "type": "string"
            },
            {
              "internalType": "string",
              "name": "PublicKey",
              "type": "string"
            },
            {
              "components": [
                {
                  "internalType": "uint256",
                  "name": "timestamp",
                  "type": "uint256"
                },
                {
                  "internalType": "string",
                  "name": "diagnosis",
                  "type": "string"
                },
                {
                  "internalType": "string",
                  "name": "treatment",
                  "type": "string"
                }
              ],
              "internalType": "struct Authentication.MedicalRecord[]",
              "name": "record",
              "type": "tuple[]"
            },
            {
              "components": [
                {
                  "internalType": "string",
                  "name": "date",
                  "type": "string"
                },
                {
                  "internalType": "string",
                  "name": "time",
                  "type": "string"
                },
                {
                  "internalType": "string",
                  "name": "doctorName",
                  "type": "string"
                },
                {
                  "internalType": "string",
                  "name": "location",
                  "type": "string"
                }
              ],
              "internalType": "struct Patients.Appointment[]",
              "name": "Appointments",
              "type": "tuple[]"
            }
          ],
          "internalType": "struct Patients.Patient",
          "name": "",
          "type": "tuple"
        }
      ],
      "stateMutability": "view",
      "type": "function",
      "constant": true
    },
    {
      "inputs": [],
      "name": "demanderemboursement",
      "outputs": [],
      "stateMutability": "nonpayable",
      "type": "function"
    },
    {
      "inputs": [
        {
          "internalType": "address",
          "name": "_user",
          "type": "address"
        }
      ],
      "name": "AuthorizeUser",
      "outputs": [],
      "stateMutability": "nonpayable",
      "type": "function"
    },
    {
      "inputs": [
        {
          "internalType": "address",
          "name": "_user",
          "type": "address"
        }
      ],
      "name": "removeAuthorizedUser",
      "outputs": [],
      "stateMutability": "nonpayable",
      "type": "function"
    },
    {
      "inputs": [
        {
          "internalType": "string",
          "name": "_ipfsfilehash",
          "type": "string"
        },
        {
          "internalType": "string",
          "name": "_pubkey",
          "type": "string"
        }
      ],
      "name": "StorePatientFileHash",
      "outputs": [
        {
          "internalType": "bool",
          "name": "",
          "type": "bool"
        }
      ],
      "stateMutability": "nonpayable",
      "type": "function"
    },
    {
      "inputs": [
        {
          "internalType": "address",
          "name": "_fromPatient",
          "type": "address"
        }
      ],
      "name": "getAuthorizedUsers",
      "outputs": [
        {
          "internalType": "address[]",
          "name": "",
          "type": "address[]"
        }
      ],
      "stateMutability": "view",
      "type": "function",
      "constant": true
    },
    {
      "inputs": [
        {
          "internalType": "address",
          "name": "_user",
          "type": "address"
        },
        {
          "internalType": "address",
          "name": "_fromPatient",
          "type": "address"
        }
      ],
      "name": "getFileHash",
      "outputs": [
        {
          "internalType": "string",
          "name": "",
          "type": "string"
        }
      ],
      "stateMutability": "view",
      "type": "function",
      "constant": true
    },
    {
      "inputs": [],
      "name": "visualiserProchainsRendezVous",
      "outputs": [
        {
          "components": [
            {
              "internalType": "string",
              "name": "date",
              "type": "string"
            },
            {
              "internalType": "string",
              "name": "time",
              "type": "string"
            },
            {
              "internalType": "string",
              "name": "doctorName",
              "type": "string"
            },
            {
              "internalType": "string",
              "name": "location",
              "type": "string"
            }
          ],
          "internalType": "struct Patients.Appointment[]",
          "name": "",
          "type": "tuple[]"
        }
      ],
      "stateMutability": "view",
      "type": "function",
      "constant": true
    },
    {
      "inputs": [
        {
          "internalType": "string",
          "name": "_date",
          "type": "string"
        },
        {
          "internalType": "string",
          "name": "_time",
          "type": "string"
        },
        {
          "internalType": "string",
          "name": "_doctorName",
          "type": "string"
        },
        {
          "internalType": "string",
          "name": "_location",
          "type": "string"
        }
      ],
      "name": "addAppointment",
      "outputs": [],
      "stateMutability": "nonpayable",
      "type": "function"
    }
  ],
  "bytecode": "0x60806040523480156200001157600080fd5b506040516200337a3803806200337a833981810160405281019062000037919062000095565b806000806101000a81548173ffffffffffffffffffffffffffffffffffffffff021916908373ffffffffffffffffffffffffffffffffffffffff160217905550506200011a565b6000815190506200008f8162000100565b92915050565b600060208284031215620000ae57620000ad620000fb565b5b6000620000be848285016200007e565b91505092915050565b6000620000d482620000db565b9050919050565b600073ffffffffffffffffffffffffffffffffffffffff82169050919050565b600080fd5b6200010b81620000c7565b81146200011757600080fd5b50565b613250806200012a6000396000f3fe608060405234801561001057600080fd5b50600436106100b45760003560e01c80637b0f9a36116100715780637b0f9a3614610191578063832880e7146101af57806389fabc80146101cd578063bda06c48146101e9578063ce4f5d4214610219578063d6fedba314610249576100b4565b80630869cfbc146100b95780630aa7924e146100ef57806320dbc77f1461010b5780632cf58ac21461013b57806336ddb1c714610157578063618062ce14610173575b600080fd5b6100d360048036038101906100ce919061218e565b610253565b6040516100e69796959493929190612ae2565b60405180910390f35b61010960048036038101906101049190612273565b6105c5565b005b6101256004803603810190610120919061218e565b610745565b6040516101329190612a61565b60405180910390f35b6101556004803603810190610150919061218e565b610815565b005b610171600480360381019061016c919061234a565b610a7e565b005b61017b610bf4565b6040516101889190612a83565b60405180910390f35b610199610ee1565b6040516101a69190612bfb565b60405180910390f35b6101b7611771565b6040516101c49190612c1d565b60405180910390f35b6101e760048036038101906101e2919061218e565b61182c565b005b61020360048036038101906101fe91906121fb565b611bdc565b6040516102109190612aa5565b60405180910390f35b610233600480360381019061022e91906121bb565b611c96565b6040516102409190612ac0565b60405180910390f35b610251611db8565b005b600160205280600052604060002060009150905080600001805461027690612ee3565b80601f01602080910402602001604051908101604052809291908181526020018280546102a290612ee3565b80156102ef5780601f106102c4576101008083540402835291602001916102ef565b820191906000526020600020905b8154815290600101906020018083116102d257829003601f168201915b50505050509080600101805461030490612ee3565b80601f016020809104026020016040519081016040528092919081815260200182805461033090612ee3565b801561037d5780601f106103525761010080835404028352916020019161037d565b820191906000526020600020905b81548152906001019060200180831161036057829003601f168201915b50505050509080600201549080600301805461039890612ee3565b80601f01602080910402602001604051908101604052809291908181526020018280546103c490612ee3565b80156104115780601f106103e657610100808354040283529160200191610411565b820191906000526020600020905b8154815290600101906020018083116103f457829003601f168201915b50505050509080600401805461042690612ee3565b80601f016020809104026020016040519081016040528092919081815260200182805461045290612ee3565b801561049f5780601f106104745761010080835404028352916020019161049f565b820191906000526020600020905b81548152906001019060200180831161048257829003601f168201915b5050505050908060060180546104b490612ee3565b80601f01602080910402602001604051908101604052809291908181526020018280546104e090612ee3565b801561052d5780601f106105025761010080835404028352916020019161052d565b820191906000526020600020905b81548152906001019060200180831161051057829003601f168201915b50505050509080600701805461054290612ee3565b80601f016020809104026020016040519081016040528092919081815260200182805461056e90612ee3565b80156105bb5780601f10610590576101008083540402835291602001916105bb565b820191906000526020600020905b81548152906001019060200180831161059e57829003601f168201915b5050505050905087565b600160058111156105d9576105d8612fbe565b5b6105e1611771565b6020015160058111156105f7576105f6612fbe565b5b14610637576040517f08c379a000000000000000000000000000000000000000000000000000000000815260040161062e90612b9b565b60405180910390fd5b60006040518060800160405280868152602001858152602001848152602001838152509050600160003373ffffffffffffffffffffffffffffffffffffffff1673ffffffffffffffffffffffffffffffffffffffff16815260200190815260200160002060090181908060018154018082558091505060019003906000526020600020906004020160009091909190915060008201518160000190805190602001906106e4929190611e9b565b506020820151816001019080519060200190610701929190611e9b565b50604082015181600201908051906020019061071e929190611e9b565b50606082015181600301908051906020019061073b929190611e9b565b5050505050505050565b6060600160008373ffffffffffffffffffffffffffffffffffffffff1673ffffffffffffffffffffffffffffffffffffffff16815260200190815260200160002060050180548060200260200160405190810160405280929190818152602001828054801561080957602002820191906000526020600020905b8160009054906101000a900473ffffffffffffffffffffffffffffffffffffffff1673ffffffffffffffffffffffffffffffffffffffff16815260200190600101908083116107bf575b50505050509050919050565b6000600581111561082957610828612fbe565b5b610831611771565b60200151600581111561084757610846612fbe565b5b14610887576040517f08c379a000000000000000000000000000000000000000000000000000000000815260040161087e90612bbb565b60405180910390fd5b60005b600160003373ffffffffffffffffffffffffffffffffffffffff1673ffffffffffffffffffffffffffffffffffffffff168152602001908152602001600020600501805490508110156109d7578173ffffffffffffffffffffffffffffffffffffffff16600160003373ffffffffffffffffffffffffffffffffffffffff1673ffffffffffffffffffffffffffffffffffffffff16815260200190815260200160002060050182815481106109425761094161304b565b5b9060005260206000200160009054906101000a900473ffffffffffffffffffffffffffffffffffffffff1673ffffffffffffffffffffffffffffffffffffffff1614156109c4576040517f08c379a00000000000000000000000000000000000000000000000000000000081526004016109bb90612bdb565b60405180910390fd5b80806109cf90612f46565b91505061088a565b50600160003373ffffffffffffffffffffffffffffffffffffffff1673ffffffffffffffffffffffffffffffffffffffff168152602001908152602001600020600501819080600181540180825580915050600190039060005260206000200160009091909190916101000a81548173ffffffffffffffffffffffffffffffffffffffff021916908373ffffffffffffffffffffffffffffffffffffffff16021790555050565b60006005811115610a9257610a91612fbe565b5b610a9a611771565b602001516005811115610ab057610aaf612fbe565b5b14610af0576040517f08c379a0000000000000000000000000000000000000000000000000000000008152600401610ae790612bbb565b60405180910390fd5b6000600160003373ffffffffffffffffffffffffffffffffffffffff1673ffffffffffffffffffffffffffffffffffffffff168152602001908152602001600020905085816000019080519060200190610b4b929190611e9b565b5084816001019080519060200190610b64929190611e9b565b5083816002018190555080600501839080600181540180825580915050600190039060005260206000200160009091909190916101000a81548173ffffffffffffffffffffffffffffffffffffffff021916908373ffffffffffffffffffffffffffffffffffffffff16021790555081816006019080519060200190610beb929190611e9b565b50505050505050565b60606000600160003373ffffffffffffffffffffffffffffffffffffffff1673ffffffffffffffffffffffffffffffffffffffff168152602001908152602001600020905080600901805480602002602001604051908101604052809291908181526020016000905b82821015610ed75783829060005260206000209060040201604051806080016040529081600082018054610c9090612ee3565b80601f0160208091040260200160405190810160405280929190818152602001828054610cbc90612ee3565b8015610d095780601f10610cde57610100808354040283529160200191610d09565b820191906000526020600020905b815481529060010190602001808311610cec57829003601f168201915b50505050508152602001600182018054610d2290612ee3565b80601f0160208091040260200160405190810160405280929190818152602001828054610d4e90612ee3565b8015610d9b5780601f10610d7057610100808354040283529160200191610d9b565b820191906000526020600020905b815481529060010190602001808311610d7e57829003601f168201915b50505050508152602001600282018054610db490612ee3565b80601f0160208091040260200160405190810160405280929190818152602001828054610de090612ee3565b8015610e2d5780601f10610e0257610100808354040283529160200191610e2d565b820191906000526020600020905b815481529060010190602001808311610e1057829003601f168201915b50505050508152602001600382018054610e4690612ee3565b80601f0160208091040260200160405190810160405280929190818152602001828054610e7290612ee3565b8015610ebf5780601f10610e9457610100808354040283529160200191610ebf565b820191906000526020600020905b815481529060010190602001808311610ea257829003601f168201915b50505050508152505081526020019060010190610c5d565b5050505091505090565b610ee9611f21565b600160003373ffffffffffffffffffffffffffffffffffffffff1673ffffffffffffffffffffffffffffffffffffffff16815260200190815260200160002060405180610140016040529081600082018054610f4490612ee3565b80601f0160208091040260200160405190810160405280929190818152602001828054610f7090612ee3565b8015610fbd5780601f10610f9257610100808354040283529160200191610fbd565b820191906000526020600020905b815481529060010190602001808311610fa057829003601f168201915b50505050508152602001600182018054610fd690612ee3565b80601f016020809104026020016040519081016040528092919081815260200182805461100290612ee3565b801561104f5780601f106110245761010080835404028352916020019161104f565b820191906000526020600020905b81548152906001019060200180831161103257829003601f168201915b505050505081526020016002820154815260200160038201805461107290612ee3565b80601f016020809104026020016040519081016040528092919081815260200182805461109e90612ee3565b80156110eb5780601f106110c0576101008083540402835291602001916110eb565b820191906000526020600020905b8154815290600101906020018083116110ce57829003601f168201915b5050505050815260200160048201805461110490612ee3565b80601f016020809104026020016040519081016040528092919081815260200182805461113090612ee3565b801561117d5780601f106111525761010080835404028352916020019161117d565b820191906000526020600020905b81548152906001019060200180831161116057829003601f168201915b505050505081526020016005820180548060200260200160405190810160405280929190818152602001828054801561120b57602002820191906000526020600020905b8160009054906101000a900473ffffffffffffffffffffffffffffffffffffffff1673ffffffffffffffffffffffffffffffffffffffff16815260200190600101908083116111c1575b5050505050815260200160068201805461122490612ee3565b80601f016020809104026020016040519081016040528092919081815260200182805461125090612ee3565b801561129d5780601f106112725761010080835404028352916020019161129d565b820191906000526020600020905b81548152906001019060200180831161128057829003601f168201915b505050505081526020016007820180546112b690612ee3565b80601f01602080910402602001604051908101604052809291908181526020018280546112e290612ee3565b801561132f5780601f106113045761010080835404028352916020019161132f565b820191906000526020600020905b81548152906001019060200180831161131257829003601f168201915b5050505050815260200160088201805480602002602001604051908101604052809291908181526020016000905b828210156114bd57838290600052602060002090600302016040518060600160405290816000820154815260200160018201805461139a90612ee3565b80601f01602080910402602001604051908101604052809291908181526020018280546113c690612ee3565b80156114135780601f106113e857610100808354040283529160200191611413565b820191906000526020600020905b8154815290600101906020018083116113f657829003601f168201915b5050505050815260200160028201805461142c90612ee3565b80601f016020809104026020016040519081016040528092919081815260200182805461145890612ee3565b80156114a55780601f1061147a576101008083540402835291602001916114a5565b820191906000526020600020905b81548152906001019060200180831161148857829003601f168201915b5050505050815250508152602001906001019061135d565b50505050815260200160098201805480602002602001604051908101604052809291908181526020016000905b82821015611764578382906000526020600020906004020160405180608001604052908160008201805461151d90612ee3565b80601f016020809104026020016040519081016040528092919081815260200182805461154990612ee3565b80156115965780601f1061156b57610100808354040283529160200191611596565b820191906000526020600020905b81548152906001019060200180831161157957829003601f168201915b505050505081526020016001820180546115af90612ee3565b80601f01602080910402602001604051908101604052809291908181526020018280546115db90612ee3565b80156116285780601f106115fd57610100808354040283529160200191611628565b820191906000526020600020905b81548152906001019060200180831161160b57829003601f168201915b5050505050815260200160028201805461164190612ee3565b80601f016020809104026020016040519081016040528092919081815260200182805461166d90612ee3565b80156116ba5780601f1061168f576101008083540402835291602001916116ba565b820191906000526020600020905b81548152906001019060200180831161169d57829003601f168201915b505050505081526020016003820180546116d390612ee3565b80601f01602080910402602001604051908101604052809291908181526020018280546116ff90612ee3565b801561174c5780601f106117215761010080835404028352916020019161174c565b820191906000526020600020905b81548152906001019060200180831161172f57829003601f168201915b505050505081525050815260200190600101906114ea565b5050505081525050905090565b611779611f74565b60008054906101000a900473ffffffffffffffffffffffffffffffffffffffff1673ffffffffffffffffffffffffffffffffffffffff16636f77926b336040518263ffffffff1660e01b81526004016117d29190612a46565b60006040518083038186803b1580156117ea57600080fd5b505afa1580156117fe573d6000803e3d6000fd5b505050506040513d6000823e3d601f19601f820116820180604052508101906118279190612419565b905090565b600060058111156118405761183f612fbe565b5b611848611771565b60200151600581111561185e5761185d612fbe565b5b1461189e576040517f08c379a000000000000000000000000000000000000000000000000000000000815260040161189590612bbb565b60405180910390fd5b60005b600160003373ffffffffffffffffffffffffffffffffffffffff1673ffffffffffffffffffffffffffffffffffffffff16815260200190815260200160002060050180549050811015611bd8578173ffffffffffffffffffffffffffffffffffffffff16600160003373ffffffffffffffffffffffffffffffffffffffff1673ffffffffffffffffffffffffffffffffffffffff16815260200190815260200160002060050182815481106119595761195861304b565b5b9060005260206000200160009054906101000a900473ffffffffffffffffffffffffffffffffffffffff1673ffffffffffffffffffffffffffffffffffffffff161415611bc55760008190505b60018060003373ffffffffffffffffffffffffffffffffffffffff1673ffffffffffffffffffffffffffffffffffffffff168152602001908152602001600020600501805490506119f79190612e00565b811015611b3857600160003373ffffffffffffffffffffffffffffffffffffffff1673ffffffffffffffffffffffffffffffffffffffff168152602001908152602001600020600501600182611a4d9190612daa565b81548110611a5e57611a5d61304b565b5b9060005260206000200160009054906101000a900473ffffffffffffffffffffffffffffffffffffffff16600160003373ffffffffffffffffffffffffffffffffffffffff1673ffffffffffffffffffffffffffffffffffffffff1681526020019081526020016000206005018281548110611add57611adc61304b565b5b9060005260206000200160006101000a81548173ffffffffffffffffffffffffffffffffffffffff021916908373ffffffffffffffffffffffffffffffffffffffff1602179055508080611b3090612f46565b9150506119a6565b50600160003373ffffffffffffffffffffffffffffffffffffffff1673ffffffffffffffffffffffffffffffffffffffff168152602001908152602001600020600501805480611b8b57611b8a61301c565b5b6001900381819060005260206000200160006101000a81549073ffffffffffffffffffffffffffffffffffffffff02191690559055611bd8565b8080611bd090612f46565b9150506118a1565b5050565b600082600160003373ffffffffffffffffffffffffffffffffffffffff1673ffffffffffffffffffffffffffffffffffffffff1681526020019081526020016000206006019080519060200190611c34929190611e9b565b5081600160003373ffffffffffffffffffffffffffffffffffffffff1673ffffffffffffffffffffffffffffffffffffffff1681526020019081526020016000206007019080519060200190611c8b929190611e9b565b506001905092915050565b60608282611ca48282611e08565b611ce3576040517f08c379a0000000000000000000000000000000000000000000000000000000008152600401611cda90612b7b565b60405180910390fd5b600160008573ffffffffffffffffffffffffffffffffffffffff1673ffffffffffffffffffffffffffffffffffffffff1681526020019081526020016000206006018054611d3090612ee3565b80601f0160208091040260200160405190810160405280929190818152602001828054611d5c90612ee3565b8015611da95780601f10611d7e57610100808354040283529160200191611da9565b820191906000526020600020905b815481529060010190602001808311611d8c57829003601f168201915b50505050509250505092915050565b3373ffffffffffffffffffffffffffffffffffffffff167fcb2451a2bc5cc917c6c8c84591bf7dc92e343dd33521c11161e070c9f4d6b91042604051611dfe9190612c3f565b60405180910390a2565b600080611e1483610745565b905060005b8151811015611e8e578473ffffffffffffffffffffffffffffffffffffffff16828281518110611e4c57611e4b61304b565b5b602002602001015173ffffffffffffffffffffffffffffffffffffffff161415611e7b57600192505050611e95565b8080611e8690612f46565b915050611e19565b5060009150505b92915050565b828054611ea790612ee3565b90600052602060002090601f016020900481019282611ec95760008555611f10565b82601f10611ee257805160ff1916838001178555611f10565b82800160010185558215611f10579182015b82811115611f0f578251825591602001919060010190611ef4565b5b509050611f1d9190611fbd565b5090565b604051806101400160405280606081526020016060815260200160008152602001606081526020016060815260200160608152602001606081526020016060815260200160608152602001606081525090565b60405180606001604052806060815260200160006005811115611f9a57611f99612fbe565b5b8152602001600073ffffffffffffffffffffffffffffffffffffffff1681525090565b5b80821115611fd6576000816000905550600101611fbe565b5090565b6000611fed611fe884612c7f565b612c5a565b905082815260208101848484011115612009576120086130b8565b5b612014848285612ea1565b509392505050565b600061202f61202a84612c7f565b612c5a565b90508281526020810184848401111561204b5761204a6130b8565b5b612056848285612eb0565b509392505050565b60008135905061206d816131dc565b92915050565b600081519050612082816131dc565b92915050565b600081519050612097816131f3565b92915050565b600082601f8301126120b2576120b16130a9565b5b81356120c2848260208601611fda565b91505092915050565b600082601f8301126120e0576120df6130a9565b5b81516120f084826020860161201c565b91505092915050565b60006060828403121561210f5761210e6130ae565b5b6121196060612c5a565b9050600082015167ffffffffffffffff811115612139576121386130b3565b5b612145848285016120cb565b600083015250602061215984828501612088565b602083015250604061216d84828501612073565b60408301525092915050565b60008135905061218881613203565b92915050565b6000602082840312156121a4576121a36130c2565b5b60006121b28482850161205e565b91505092915050565b600080604083850312156121d2576121d16130c2565b5b60006121e08582860161205e565b92505060206121f18582860161205e565b9150509250929050565b60008060408385031215612212576122116130c2565b5b600083013567ffffffffffffffff8111156122305761222f6130bd565b5b61223c8582860161209d565b925050602083013567ffffffffffffffff81111561225d5761225c6130bd565b5b6122698582860161209d565b9150509250929050565b6000806000806080858703121561228d5761228c6130c2565b5b600085013567ffffffffffffffff8111156122ab576122aa6130bd565b5b6122b78782880161209d565b945050602085013567ffffffffffffffff8111156122d8576122d76130bd565b5b6122e48782880161209d565b935050604085013567ffffffffffffffff811115612305576123046130bd565b5b6123118782880161209d565b925050606085013567ffffffffffffffff811115612332576123316130bd565b5b61233e8782880161209d565b91505092959194509250565b600080600080600060a08688031215612366576123656130c2565b5b600086013567ffffffffffffffff811115612384576123836130bd565b5b6123908882890161209d565b955050602086013567ffffffffffffffff8111156123b1576123b06130bd565b5b6123bd8882890161209d565b94505060406123ce88828901612179565b93505060606123df8882890161205e565b925050608086013567ffffffffffffffff811115612400576123ff6130bd565b5b61240c8882890161209d565b9150509295509295909350565b60006020828403121561242f5761242e6130c2565b5b600082015167ffffffffffffffff81111561244d5761244c6130bd565b5b612459848285016120f9565b91505092915050565b600061246e83836124a2565b60208301905092915050565b600061248683836127f7565b905092915050565b600061249a838361286f565b905092915050565b6124ab81612e34565b82525050565b6124ba81612e34565b82525050565b60006124cb82612ce0565b6124d58185612d33565b93506124e083612cb0565b8060005b838110156125115781516124f88882612462565b975061250383612d0c565b9250506001810190506124e4565b5085935050505092915050565b600061252982612ce0565b6125338185612d44565b935061253e83612cb0565b8060005b8381101561256f5781516125568882612462565b975061256183612d0c565b925050600181019050612542565b5085935050505092915050565b600061258782612ceb565b6125918185612d55565b9350836020820285016125a385612cc0565b8060005b858110156125df57848403895281516125c0858261247a565b94506125cb83612d19565b925060208a019950506001810190506125a7565b50829750879550505050505092915050565b60006125fc82612ceb565b6126068185612d66565b93508360208202850161261885612cc0565b8060005b858110156126545784840389528151612635858261247a565b945061264083612d19565b925060208a0199505060018101905061261c565b50829750879550505050505092915050565b600061267182612cf6565b61267b8185612d77565b93508360208202850161268d85612cd0565b8060005b858110156126c957848403895281516126aa858261248e565b94506126b583612d26565b925060208a01995050600181019050612691565b50829750879550505050505092915050565b6126e481612e46565b82525050565b6126f381612e8f565b82525050565b600061270482612d01565b61270e8185612d88565b935061271e818560208601612eb0565b612727816130c7565b840191505092915050565b600061273d82612d01565b6127478185612d99565b9350612757818560208601612eb0565b612760816130c7565b840191505092915050565b6000612778601183612d99565b9150612783826130d8565b602082019050919050565b600061279b602283612d99565b91506127a682613101565b604082019050919050565b60006127be602383612d99565b91506127c982613150565b604082019050919050565b60006127e1601783612d99565b91506127ec8261319f565b602082019050919050565b6000608083016000830151848203600086015261281482826126f9565b9150506020830151848203602086015261282e82826126f9565b9150506040830151848203604086015261284882826126f9565b9150506060830151848203606086015261286282826126f9565b9150508091505092915050565b60006060830160008301516128876000860182612a28565b506020830151848203602086015261289f82826126f9565b915050604083015184820360408601526128b982826126f9565b9150508091505092915050565b60006101408301600083015184820360008601526128e482826126f9565b915050602083015184820360208601526128fe82826126f9565b91505060408301516129136040860182612a28565b506060830151848203606086015261292b82826126f9565b9150506080830151848203608086015261294582826126f9565b91505060a083015184820360a086015261295f82826124c0565b91505060c083015184820360c086015261297982826126f9565b91505060e083015184820360e086015261299382826126f9565b9150506101008301518482036101008601526129af8282612666565b9150506101208301518482036101208601526129cb828261257c565b9150508091505092915050565b600060608301600083015184820360008601526129f582826126f9565b9150506020830151612a0a60208601826126ea565b506040830151612a1d60408601826124a2565b508091505092915050565b612a3181612e85565b82525050565b612a4081612e85565b82525050565b6000602082019050612a5b60008301846124b1565b92915050565b60006020820190508181036000830152612a7b818461251e565b905092915050565b60006020820190508181036000830152612a9d81846125f1565b905092915050565b6000602082019050612aba60008301846126db565b92915050565b60006020820190508181036000830152612ada8184612732565b905092915050565b600060e0820190508181036000830152612afc818a612732565b90508181036020830152612b108189612732565b9050612b1f6040830188612a37565b8181036060830152612b318187612732565b90508181036080830152612b458186612732565b905081810360a0830152612b598185612732565b905081810360c0830152612b6d8184612732565b905098975050505050505050565b60006020820190508181036000830152612b948161276b565b9050919050565b60006020820190508181036000830152612bb48161278e565b9050919050565b60006020820190508181036000830152612bd4816127b1565b9050919050565b60006020820190508181036000830152612bf4816127d4565b9050919050565b60006020820190508181036000830152612c1581846128c6565b905092915050565b60006020820190508181036000830152612c3781846129d8565b905092915050565b6000602082019050612c546000830184612a37565b92915050565b6000612c64612c75565b9050612c708282612f15565b919050565b6000604051905090565b600067ffffffffffffffff821115612c9a57612c9961307a565b5b612ca3826130c7565b9050602081019050919050565b6000819050602082019050919050565b6000819050602082019050919050565b6000819050602082019050919050565b600081519050919050565b600081519050919050565b600081519050919050565b600081519050919050565b6000602082019050919050565b6000602082019050919050565b6000602082019050919050565b600082825260208201905092915050565b600082825260208201905092915050565b600082825260208201905092915050565b600082825260208201905092915050565b600082825260208201905092915050565b600082825260208201905092915050565b600082825260208201905092915050565b6000612db582612e85565b9150612dc083612e85565b9250827fffffffffffffffffffffffffffffffffffffffffffffffffffffffffffffffff03821115612df557612df4612f8f565b5b828201905092915050565b6000612e0b82612e85565b9150612e1683612e85565b925082821015612e2957612e28612f8f565b5b828203905092915050565b6000612e3f82612e65565b9050919050565b60008115159050919050565b6000819050612e60826131c8565b919050565b600073ffffffffffffffffffffffffffffffffffffffff82169050919050565b6000819050919050565b6000612e9a82612e52565b9050919050565b82818337600083830152505050565b60005b83811015612ece578082015181840152602081019050612eb3565b83811115612edd576000848401525b50505050565b60006002820490506001821680612efb57607f821691505b60208210811415612f0f57612f0e612fed565b5b50919050565b612f1e826130c7565b810181811067ffffffffffffffff82111715612f3d57612f3c61307a565b5b80604052505050565b6000612f5182612e85565b91507fffffffffffffffffffffffffffffffffffffffffffffffffffffffffffffffff821415612f8457612f83612f8f565b5b600182019050919050565b7f4e487b7100000000000000000000000000000000000000000000000000000000600052601160045260246000fd5b7f4e487b7100000000000000000000000000000000000000000000000000000000600052602160045260246000fd5b7f4e487b7100000000000000000000000000000000000000000000000000000000600052602260045260246000fd5b7f4e487b7100000000000000000000000000000000000000000000000000000000600052603160045260246000fd5b7f4e487b7100000000000000000000000000000000000000000000000000000000600052603260045260246000fd5b7f4e487b7100000000000000000000000000000000000000000000000000000000600052604160045260246000fd5b600080fd5b600080fd5b600080fd5b600080fd5b600080fd5b600080fd5b6000601f19601f8301169050919050565b7f556e617574686f72697a65642075736572000000000000000000000000000000600082015250565b7f4f6e6c7920646f63746f72732063616e20616464206170706f696e746d656e7460008201527f732e000000000000000000000000000000000000000000000000000000000000602082015250565b7f4f6e6c792070617469656e74732063616e207375626d6974207468697320747960008201527f7065200000000000000000000000000000000000000000000000000000000000602082015250565b7f5573657220616c726561647920617574686f72697a6564000000000000000000600082015250565b600681106131d9576131d8612fbe565b5b50565b6131e581612e34565b81146131f057600080fd5b50565b6006811061320057600080fd5b50565b61320c81612e85565b811461321757600080fd5b5056fea264697066735822122047db08ea8ecba84beee3cb481d4fbce59648f08e3aef0752048dabaff56257c864736f6c63430008060033",
  "immutableReferences": {},
  "source": "// SPDX-License-Identifier: GPL-3.0\r\n\r\nimport './Authentication.sol';\r\npragma solidity ^0.8.0;\r\ncontract Patients  {\r\n \r\n    Authentication private contractRInstance;\r\n\r\n  constructor(address _contractBAddress) {\r\n        contractRInstance = Authentication(_contractBAddress);\r\n    }\r\nstruct Appointment {\r\n    string date;\r\n    string time;\r\n    string doctorName;\r\n    string location;\r\n}\r\n\r\n\r\nstruct Patient {\r\n    string firstname;\r\n    string lastname;\r\n    uint age;\r\n    string location;\r\n    string phone;\r\n    address[] authorizedUsers; // List of addresses of authorized doctors\r\n    string dossierHash; // Medical history of the patient\r\n    string PublicKey;\r\n    Authentication.MedicalRecord[]  record;\r\n    Appointment[] Appointments;\r\n    //here i will add records option but its should contain both test and ordonnance \r\n}\r\n\r\n\r\n\r\n\r\n\r\n\r\nmapping(address => Patient) public patients;\r\n\r\nfunction registerUserDetails( string memory _firstname,string memory _lastname,uint _age,address   _authorizedUsers,string memory _dossierHash)public   \r\n{//we can use a struct json from the webapp \r\n        require(getUser().role == Authentication.Role.patient, \"Only patients can submit this type \");\r\n        Patient storage patient = patients[msg.sender];\r\n        patient.firstname = _firstname;\r\n        patient.lastname = _lastname;\r\n        patient.age = _age;\r\n        patient.authorizedUsers.push(_authorizedUsers);\r\n        patient.dossierHash = _dossierHash;//optional\r\n\r\n       \r\n}\r\n\r\n\r\n\r\n//open for more modifications other users \r\n   function getUser() public view   returns (Authentication.User memory) {\r\n        return contractRInstance.getUser(msg.sender);\r\n    }\r\n    function getPatient() public view   returns (Patient memory) {\r\n        return patients[msg.sender];\r\n    }\r\n\r\n\r\n\r\nevent ReimbursementRequested(address indexed patient, uint256 timestamp);\r\nfunction demanderemboursement() public {//this will emit an event in the blockchain so the agent see it and then ...;patient contract\r\n    //require(getUser().role == Authentication.Role.patient, \"Only patients can submit reimbursement requests\");\r\n    emit ReimbursementRequested(msg.sender, block.timestamp);\r\n}\r\n\r\n\r\n\r\nfunction AuthorizeUser(address  _user) public {//maybe add modifier so only patient can use ths function ;patient contract \r\n    require(getUser().role == Authentication.Role.patient, \"Only patients can submit this type \");\r\n    for (uint i = 0; i < patients[msg.sender].authorizedUsers.length; i++) {\r\n        require(patients[msg.sender].authorizedUsers[i] != _user, \"User already authorized\");\r\n      }\r\n      patients[msg.sender].authorizedUsers.push(_user);\r\n}\r\n\r\n\r\n\r\n\r\nfunction removeAuthorizedUser(address _user) public {//patient contract \r\n    // Find the index of the user in the authorized list\r\n    require(getUser().role == Authentication.Role.patient, \"Only patients can submit this type \");\r\n    for (uint i = 0; i < patients[msg.sender].authorizedUsers.length; i++) {\r\n        if (patients[msg.sender].authorizedUsers[i] == _user) {\r\n            // Remove the user by shifting the elements and decreasing the array length\r\n            for (uint j = i; j < patients[msg.sender].authorizedUsers.length - 1; j++) {\r\n                patients[msg.sender].authorizedUsers[j] = patients[msg.sender].authorizedUsers[j + 1];\r\n            }\r\n            patients[msg.sender].authorizedUsers.pop(); // Remove the last element\r\n            break;\r\n        }\r\n    }\r\n}\r\n\r\n\r\n\r\n\r\nfunction StorePatientFileHash(string memory _ipfsfilehash,string memory _pubkey) public returns (bool) {//patient contract\r\n     patients[msg.sender].dossierHash=_ipfsfilehash;\r\n     patients[msg.sender].PublicKey=_pubkey;\r\n     return true ;   \r\n} \r\n\r\n\r\nfunction getAuthorizedUsers(address _fromPatient )public view returns (address[] memory ) {//patient contract\r\nreturn patients[_fromPatient].authorizedUsers;\r\n}\r\n\r\nfunction isAuthorized(address _user,address _fromPatient) internal view returns (bool) {//patient contract\r\n    // Retrieve the patient's authorized users\r\n    address[] memory authorizedUsers = getAuthorizedUsers(_fromPatient);\r\n\r\n    // Check if the given address is in the list of authorized users\r\n    for (uint i = 0; i < authorizedUsers.length; i++) {\r\n        if (authorizedUsers[i] == _user) {\r\n            return true; // Address is authorized\r\n        }\r\n    }\r\n    return false; // Address is not authorized\r\n\r\n}\r\n\r\n\r\n modifier onlyAuthorizedUser(address _user,address _fromPatient) {//patient contract\r\n        require(isAuthorized(_user,_fromPatient), \"Unauthorized user\");\r\n        _;\r\n    }\r\n\r\n\r\n\r\nfunction getFileHash(address _user,address _fromPatient) public view onlyAuthorizedUser(_user,_fromPatient) returns (string memory) {//user contract with permission\r\n    // Retrieve and return the file hash\r\n    return patients[_fromPatient].dossierHash;\r\n}\r\n\r\n  \r\nfunction visualiserProchainsRendezVous() public view returns (Appointment[] memory) {//patient contract \r\n    // Obtenez les prochains rendez-vous du patient actuel\r\n    Patient storage patient = patients[msg.sender];\r\n    return patient.Appointments;\r\n}\r\n\r\n function addAppointment(//called by the doctor\r\n        string memory _date,\r\n        string memory _time,\r\n        string memory _doctorName,\r\n        string memory _location\r\n    ) public {\r\n        // Ensure that only patients can add appointments\r\n        require(getUser().role == Authentication.Role.doctor, \"Only doctors can add appointments.\");\r\n\r\n        // Create the new appointment\r\n        Appointment memory newAppointment = Appointment({\r\n            date: _date,\r\n            time: _time,\r\n            doctorName: _doctorName,\r\n            location: _location\r\n        });\r\n\r\n        // Add the new appointment to the patient's appointments array\r\n        patients[msg.sender].Appointments.push(newAppointment);\r\n    }\r\n\r\n}",
  "sourcePath": "C:\\Users\\hamma\\Downloads\\blockchain-based-authentication-main\\blockchain-based-authentication-main\\contracts\\patientcontract.sol",
  "compiler": {
    "name": "solc",
    "version": "0.8.6+commit.11564f7e.Emscripten.clang"
  },
  "schemaVersion": "3.4.16",
  "updatedAt": "2024-04-07T01:49:42.242Z",
  "networkType": "ethereum",
  "devdoc": {
    "kind": "dev",
    "methods": {},
    "version": 1
  },
  "userdoc": {
    "kind": "user",
    "methods": {},
    "version": 1
  }
}