{
  "contractName": "Pharmacist",
  "abi": [
    {
      "inputs": [
        {
          "internalType": "address",
          "name": "_contractBAddress",
          "type": "address"
        },
        {
          "internalType": "address",
          "name": "_contractPAddress",
          "type": "address"
        }
      ],
      "stateMutability": "nonpayable",
      "type": "constructor"
    },
    {
      "anonymous": false,
      "inputs": [
        {
          "indexed": true,
          "internalType": "address",
          "name": "_pharmacien",
          "type": "address"
        },
        {
          "indexed": true,
          "internalType": "address",
          "name": "patient",
          "type": "address"
        },
        {
          "indexed": false,
          "internalType": "string",
          "name": "_pharmacie",
          "type": "string"
        },
        {
          "indexed": false,
          "internalType": "uint256",
          "name": "prescriptionId",
          "type": "uint256"
        }
      ],
      "name": "PrescriptionPurchaseValidated",
      "type": "event"
    },
    {
      "anonymous": false,
      "inputs": [
        {
          "indexed": true,
          "internalType": "address",
          "name": "_newEmployee",
          "type": "address"
        },
        {
          "indexed": false,
          "internalType": "string",
          "name": "_firstname",
          "type": "string"
        },
        {
          "indexed": false,
          "internalType": "string",
          "name": "_lastname",
          "type": "string"
        },
        {
          "indexed": false,
          "internalType": "string",
          "name": "_location",
          "type": "string"
        },
        {
          "indexed": false,
          "internalType": "string",
          "name": "_pharmacie",
          "type": "string"
        },
        {
          "indexed": false,
          "internalType": "string",
          "name": "_pharmacieid",
          "type": "string"
        }
      ],
      "name": "pharmaciensadded",
      "type": "event"
    },
    {
      "inputs": [
        {
          "internalType": "address",
          "name": "",
          "type": "address"
        }
      ],
      "name": "pharmaciens",
      "outputs": [
        {
          "internalType": "string",
          "name": "firstname",
          "type": "string"
        },
        {
          "internalType": "string",
          "name": "lastname",
          "type": "string"
        },
        {
          "internalType": "string",
          "name": "location",
          "type": "string"
        },
        {
          "internalType": "string",
          "name": "phone",
          "type": "string"
        },
        {
          "internalType": "string",
          "name": "pharmacie",
          "type": "string"
        },
        {
          "internalType": "string",
          "name": "pharmacieid",
          "type": "string"
        }
      ],
      "stateMutability": "view",
      "type": "function",
      "constant": true
    },
    {
      "inputs": [
        {
          "internalType": "address",
          "name": "",
          "type": "address"
        },
        {
          "internalType": "uint256",
          "name": "",
          "type": "uint256"
        }
      ],
      "name": "prescriptionAccess",
      "outputs": [
        {
          "internalType": "bool",
          "name": "",
          "type": "bool"
        }
      ],
      "stateMutability": "view",
      "type": "function",
      "constant": true
    },
    {
      "inputs": [
        {
          "internalType": "string",
          "name": "_firstname",
          "type": "string"
        },
        {
          "internalType": "string",
          "name": "_lastname",
          "type": "string"
        },
        {
          "internalType": "string",
          "name": "_location",
          "type": "string"
        },
        {
          "internalType": "string",
          "name": "_phone",
          "type": "string"
        },
        {
          "internalType": "string",
          "name": "_pharmacie",
          "type": "string"
        },
        {
          "internalType": "string",
          "name": "_pharmacieid",
          "type": "string"
        }
      ],
      "name": "registerPharmacist",
      "outputs": [],
      "stateMutability": "nonpayable",
      "type": "function"
    },
    {
      "inputs": [],
      "name": "getUser",
      "outputs": [
        {
          "components": [
            {
              "internalType": "string",
              "name": "signatureHash",
              "type": "string"
            },
            {
              "internalType": "enum Authentication.Role",
              "name": "role",
              "type": "uint8"
            },
            {
              "internalType": "string",
              "name": "pubkey",
              "type": "string"
            },
            {
              "internalType": "address",
              "name": "UserAddress",
              "type": "address"
            }
          ],
          "internalType": "struct Authentication.User",
          "name": "",
          "type": "tuple"
        }
      ],
      "stateMutability": "view",
      "type": "function",
      "constant": true
    },
    {
      "inputs": [
        {
          "internalType": "address",
          "name": "_pharmacien",
          "type": "address"
        }
      ],
      "name": "getPharmacistInfo",
      "outputs": [
        {
          "components": [
            {
              "internalType": "string",
              "name": "firstname",
              "type": "string"
            },
            {
              "internalType": "string",
              "name": "lastname",
              "type": "string"
            },
            {
              "internalType": "string",
              "name": "location",
              "type": "string"
            },
            {
              "internalType": "string",
              "name": "phone",
              "type": "string"
            },
            {
              "internalType": "string",
              "name": "pharmacie",
              "type": "string"
            },
            {
              "internalType": "string",
              "name": "pharmacieid",
              "type": "string"
            }
          ],
          "internalType": "struct Pharmacist.PharmacistInfo",
          "name": "",
          "type": "tuple"
        }
      ],
      "stateMutability": "view",
      "type": "function",
      "constant": true
    },
    {
      "inputs": [
        {
          "internalType": "address",
          "name": "_patient",
          "type": "address"
        },
        {
          "internalType": "uint256",
          "name": "_recordid",
          "type": "uint256"
        }
      ],
      "name": "validatePrescriptionPurchase",
      "outputs": [],
      "stateMutability": "nonpayable",
      "type": "function"
    }
  ],
  "bytecode": "0x60806040523480156200001157600080fd5b5060405162001c9b38038062001c9b8339818101604052810190620000379190620000d7565b816000806101000a81548173ffffffffffffffffffffffffffffffffffffffff021916908373ffffffffffffffffffffffffffffffffffffffff16021790555080600160006101000a81548173ffffffffffffffffffffffffffffffffffffffff021916908373ffffffffffffffffffffffffffffffffffffffff160217905550505062000171565b600081519050620000d18162000157565b92915050565b60008060408385031215620000f157620000f062000152565b5b60006200010185828601620000c0565b92505060206200011485828601620000c0565b9150509250929050565b60006200012b8262000132565b9050919050565b600073ffffffffffffffffffffffffffffffffffffffff82169050919050565b600080fd5b62000162816200011e565b81146200016e57600080fd5b50565b611b1a80620001816000396000f3fe608060405234801561001057600080fd5b50600436106100625760003560e01c806315752dcc146100675780636d6f878d14610083578063832880e71461009f57806396caf9ab146100bd578063c6f75b33146100ed578063ea8158611461011d575b600080fd5b610081600480360381019061007c91906110b5565b610152565b005b61009d60048036038101906100989190611075565b6102fc565b005b6100a76104ae565b6040516100b4919061171d565b60405180910390f35b6100d760048036038101906100d29190611048565b610569565b6040516100e491906116fb565b60405180910390f35b61010760048036038101906101029190611075565b6109a0565b604051610114919061154f565b60405180910390f35b61013760048036038101906101329190611048565b6109cf565b604051610149969594939291906115e0565b60405180910390f35b60036005811115610166576101656118e9565b5b61016e6104ae565b602001516005811115610184576101836118e9565b5b146101c4576040517f08c379a00000000000000000000000000000000000000000000000000000000081526004016101bb906116bb565b60405180910390fd5b6000600260003373ffffffffffffffffffffffffffffffffffffffff1673ffffffffffffffffffffffffffffffffffffffff16815260200190815260200160002090508681600001908051906020019061021f929190610d3b565b5085816001019080519060200190610238929190610d3b565b5084816002019080519060200190610251929190610d3b565b508381600301908051906020019061026a929190610d3b565b5082816004019080519060200190610283929190610d3b565b508181600501908051906020019061029c929190610d3b565b503373ffffffffffffffffffffffffffffffffffffffff167f8087ff07fd74bd2750021f16475b89f0bf6a390c2b0044fdf50cbf6ea095df7088888887876040516102eb95949392919061156a565b60405180910390a250505050505050565b600360058111156103105761030f6118e9565b5b6103186104ae565b60200151600581111561032e5761032d6118e9565b5b1461036e576040517f08c379a00000000000000000000000000000000000000000000000000000000081526004016103659061169b565b60405180910390fd5b600160009054906101000a900473ffffffffffffffffffffffffffffffffffffffff1673ffffffffffffffffffffffffffffffffffffffff1663a0bef21333848460016040518563ffffffff1660e01b81526004016103d0949392919061150a565b600060405180830381600087803b1580156103ea57600080fd5b505af11580156103fe573d6000803e3d6000fd5b505050508173ffffffffffffffffffffffffffffffffffffffff163373ffffffffffffffffffffffffffffffffffffffff167fc1bb672494aa2b0312a32252d21d893228df076017780819b0bf71034d0cdfbe600260003373ffffffffffffffffffffffffffffffffffffffff1673ffffffffffffffffffffffffffffffffffffffff168152602001908152602001600020600401846040516104a292919061166b565b60405180910390a35050565b6104b6610dc1565b60008054906101000a900473ffffffffffffffffffffffffffffffffffffffff1673ffffffffffffffffffffffffffffffffffffffff16636f77926b336040518263ffffffff1660e01b815260040161050f91906114ef565b60006040518083038186803b15801561052757600080fd5b505afa15801561053b573d6000803e3d6000fd5b505050506040513d6000823e3d601f19601f8201168201806040525081019061056491906111ea565b905090565b610571610e11565b60036005811115610585576105846118e9565b5b61058d6104ae565b6020015160058111156105a3576105a26118e9565b5b146105e3576040517f08c379a00000000000000000000000000000000000000000000000000000000081526004016105da906116db565b60405180910390fd5b600260008373ffffffffffffffffffffffffffffffffffffffff1673ffffffffffffffffffffffffffffffffffffffff1681526020019081526020016000206040518060c001604052908160008201805461063d90611886565b80601f016020809104026020016040519081016040528092919081815260200182805461066990611886565b80156106b65780601f1061068b576101008083540402835291602001916106b6565b820191906000526020600020905b81548152906001019060200180831161069957829003601f168201915b505050505081526020016001820180546106cf90611886565b80601f01602080910402602001604051908101604052809291908181526020018280546106fb90611886565b80156107485780601f1061071d57610100808354040283529160200191610748565b820191906000526020600020905b81548152906001019060200180831161072b57829003601f168201915b5050505050815260200160028201805461076190611886565b80601f016020809104026020016040519081016040528092919081815260200182805461078d90611886565b80156107da5780601f106107af576101008083540402835291602001916107da565b820191906000526020600020905b8154815290600101906020018083116107bd57829003601f168201915b505050505081526020016003820180546107f390611886565b80601f016020809104026020016040519081016040528092919081815260200182805461081f90611886565b801561086c5780601f106108415761010080835404028352916020019161086c565b820191906000526020600020905b81548152906001019060200180831161084f57829003601f168201915b5050505050815260200160048201805461088590611886565b80601f01602080910402602001604051908101604052809291908181526020018280546108b190611886565b80156108fe5780601f106108d3576101008083540402835291602001916108fe565b820191906000526020600020905b8154815290600101906020018083116108e157829003601f168201915b5050505050815260200160058201805461091790611886565b80601f016020809104026020016040519081016040528092919081815260200182805461094390611886565b80156109905780601f1061096557610100808354040283529160200191610990565b820191906000526020600020905b81548152906001019060200180831161097357829003601f168201915b5050505050815250509050919050565b60036020528160005260406000206020528060005260406000206000915091509054906101000a900460ff1681565b60026020528060005260406000206000915090508060000180546109f290611886565b80601f0160208091040260200160405190810160405280929190818152602001828054610a1e90611886565b8015610a6b5780601f10610a4057610100808354040283529160200191610a6b565b820191906000526020600020905b815481529060010190602001808311610a4e57829003601f168201915b505050505090806001018054610a8090611886565b80601f0160208091040260200160405190810160405280929190818152602001828054610aac90611886565b8015610af95780601f10610ace57610100808354040283529160200191610af9565b820191906000526020600020905b815481529060010190602001808311610adc57829003601f168201915b505050505090806002018054610b0e90611886565b80601f0160208091040260200160405190810160405280929190818152602001828054610b3a90611886565b8015610b875780601f10610b5c57610100808354040283529160200191610b87565b820191906000526020600020905b815481529060010190602001808311610b6a57829003601f168201915b505050505090806003018054610b9c90611886565b80601f0160208091040260200160405190810160405280929190818152602001828054610bc890611886565b8015610c155780601f10610bea57610100808354040283529160200191610c15565b820191906000526020600020905b815481529060010190602001808311610bf857829003601f168201915b505050505090806004018054610c2a90611886565b80601f0160208091040260200160405190810160405280929190818152602001828054610c5690611886565b8015610ca35780601f10610c7857610100808354040283529160200191610ca3565b820191906000526020600020905b815481529060010190602001808311610c8657829003601f168201915b505050505090806005018054610cb890611886565b80601f0160208091040260200160405190810160405280929190818152602001828054610ce490611886565b8015610d315780601f10610d0657610100808354040283529160200191610d31565b820191906000526020600020905b815481529060010190602001808311610d1457829003601f168201915b5050505050905086565b828054610d4790611886565b90600052602060002090601f016020900481019282610d695760008555610db0565b82601f10610d8257805160ff1916838001178555610db0565b82800160010185558215610db0579182015b82811115610daf578251825591602001919060010190610d94565b5b509050610dbd9190610e47565b5090565b60405180608001604052806060815260200160006005811115610de757610de66118e9565b5b815260200160608152602001600073ffffffffffffffffffffffffffffffffffffffff1681525090565b6040518060c001604052806060815260200160608152602001606081526020016060815260200160608152602001606081525090565b5b80821115610e60576000816000905550600101610e48565b5090565b6000610e77610e7284611764565b61173f565b905082815260208101848484011115610e9357610e92611985565b5b610e9e848285611844565b509392505050565b6000610eb9610eb484611764565b61173f565b905082815260208101848484011115610ed557610ed4611985565b5b610ee0848285611853565b509392505050565b600081359050610ef781611aa6565b92915050565b600081519050610f0c81611aa6565b92915050565b600081519050610f2181611abd565b92915050565b600082601f830112610f3c57610f3b611976565b5b8135610f4c848260208601610e64565b91505092915050565b600082601f830112610f6a57610f69611976565b5b8151610f7a848260208601610ea6565b91505092915050565b600060808284031215610f9957610f9861197b565b5b610fa3608061173f565b9050600082015167ffffffffffffffff811115610fc357610fc2611980565b5b610fcf84828501610f55565b6000830152506020610fe384828501610f12565b602083015250604082015167ffffffffffffffff81111561100757611006611980565b5b61101384828501610f55565b604083015250606061102784828501610efd565b60608301525092915050565b60008135905061104281611acd565b92915050565b60006020828403121561105e5761105d61198f565b5b600061106c84828501610ee8565b91505092915050565b6000806040838503121561108c5761108b61198f565b5b600061109a85828601610ee8565b92505060206110ab85828601611033565b9150509250929050565b60008060008060008060c087890312156110d2576110d161198f565b5b600087013567ffffffffffffffff8111156110f0576110ef61198a565b5b6110fc89828a01610f27565b965050602087013567ffffffffffffffff81111561111d5761111c61198a565b5b61112989828a01610f27565b955050604087013567ffffffffffffffff81111561114a5761114961198a565b5b61115689828a01610f27565b945050606087013567ffffffffffffffff8111156111775761117661198a565b5b61118389828a01610f27565b935050608087013567ffffffffffffffff8111156111a4576111a361198a565b5b6111b089828a01610f27565b92505060a087013567ffffffffffffffff8111156111d1576111d061198a565b5b6111dd89828a01610f27565b9150509295509295509295565b600060208284031215611200576111ff61198f565b5b600082015167ffffffffffffffff81111561121e5761121d61198a565b5b61122a84828501610f83565b91505092915050565b61123c816117d7565b82525050565b61124b816117d7565b82525050565b61125a816117e9565b82525050565b61126981611832565b82525050565b600061127a826117aa565b61128481856117b5565b9350611294818560208601611853565b61129d81611994565b840191505092915050565b60006112b3826117aa565b6112bd81856117c6565b93506112cd818560208601611853565b6112d681611994565b840191505092915050565b600081546112ee81611886565b6112f881866117c6565b94506001821660008114611313576001811461132557611358565b60ff1983168652602086019350611358565b61132e85611795565b60005b8381101561135057815481890152600182019150602081019050611331565b808801955050505b50505092915050565b600061136e6034836117c6565b9150611379826119a5565b604082019050919050565b60006113916023836117c6565b915061139c826119f4565b604082019050919050565b60006113b46039836117c6565b91506113bf82611a43565b604082019050919050565b600060c08301600083015184820360008601526113e7828261126f565b91505060208301518482036020860152611401828261126f565b9150506040830151848203604086015261141b828261126f565b91505060608301518482036060860152611435828261126f565b9150506080830151848203608086015261144f828261126f565b91505060a083015184820360a0860152611469828261126f565b9150508091505092915050565b60006080830160008301518482036000860152611493828261126f565b91505060208301516114a86020860182611260565b50604083015184820360408601526114c0828261126f565b91505060608301516114d56060860182611233565b508091505092915050565b6114e981611828565b82525050565b60006020820190506115046000830184611242565b92915050565b600060808201905061151f6000830187611242565b61152c6020830186611242565b61153960408301856114e0565b6115466060830184611251565b95945050505050565b60006020820190506115646000830184611251565b92915050565b600060a082019050818103600083015261158481886112a8565b9050818103602083015261159881876112a8565b905081810360408301526115ac81866112a8565b905081810360608301526115c081856112a8565b905081810360808301526115d481846112a8565b90509695505050505050565b600060c08201905081810360008301526115fa81896112a8565b9050818103602083015261160e81886112a8565b9050818103604083015261162281876112a8565b9050818103606083015261163681866112a8565b9050818103608083015261164a81856112a8565b905081810360a083015261165e81846112a8565b9050979650505050505050565b6000604082019050818103600083015261168581856112e1565b905061169460208301846114e0565b9392505050565b600060208201905081810360008301526116b481611361565b9050919050565b600060208201905081810360008301526116d481611384565b9050919050565b600060208201905081810360008301526116f4816113a7565b9050919050565b6000602082019050818103600083015261171581846113ca565b905092915050565b600060208201905081810360008301526117378184611476565b905092915050565b600061174961175a565b905061175582826118b8565b919050565b6000604051905090565b600067ffffffffffffffff82111561177f5761177e611947565b5b61178882611994565b9050602081019050919050565b60008190508160005260206000209050919050565b600081519050919050565b600082825260208201905092915050565b600082825260208201905092915050565b60006117e282611808565b9050919050565b60008115159050919050565b600081905061180382611a92565b919050565b600073ffffffffffffffffffffffffffffffffffffffff82169050919050565b6000819050919050565b600061183d826117f5565b9050919050565b82818337600083830152505050565b60005b83811015611871578082015181840152602081019050611856565b83811115611880576000848401525b50505050565b6000600282049050600182168061189e57607f821691505b602082108114156118b2576118b1611918565b5b50919050565b6118c182611994565b810181811067ffffffffffffffff821117156118e0576118df611947565b5b80604052505050565b7f4e487b7100000000000000000000000000000000000000000000000000000000600052602160045260246000fd5b7f4e487b7100000000000000000000000000000000000000000000000000000000600052602260045260246000fd5b7f4e487b7100000000000000000000000000000000000000000000000000000000600052604160045260246000fd5b600080fd5b600080fd5b600080fd5b600080fd5b600080fd5b600080fd5b6000601f19601f8301169050919050565b7f4f6e6c7920706861726d6163697374732063616e2076616c696461746520707260008201527f65736372697074696f6e20707572636861736573000000000000000000000000602082015250565b7f4f6e6c7920706861726d6163697374732063616e2041757468656e746963617460008201527f696f6e0000000000000000000000000000000000000000000000000000000000602082015250565b7f4f6e6c7920706861726d6163697374732063616e2067657420696e666f726d6160008201527f74696f6e206f66206f7468657220706861726d61636973747300000000000000602082015250565b60068110611aa357611aa26118e9565b5b50565b611aaf816117d7565b8114611aba57600080fd5b50565b60068110611aca57600080fd5b50565b611ad681611828565b8114611ae157600080fd5b5056fea26469706673582212205b3dda221f12647954ed8be2a66fed65fd14631779d03199c586b569f5f12f1964736f6c63430008060033",
  "immutableReferences": {},
  "source": "// SPDX-License-Identifier: GPL-3.0\r\npragma solidity ^0.8.0;\r\nimport \"./Authentication.sol\";\r\nimport \"./patientcontract.sol\";\r\n\r\ncontract Pharmacist {\r\n\r\n    Authentication private contractRInstance;\r\n    Patients private patientInstance;\r\n  constructor(address _contractBAddress,address _contractPAddress) {\r\n        contractRInstance = Authentication(_contractBAddress);\r\n        patientInstance = Patients(_contractPAddress);\r\n    }\r\n\r\n\r\n    // Structure to store pharmacist information\r\n    struct PharmacistInfo {\r\n        string firstname;\r\n        string lastname;\r\n        string location;\r\n        string phone;\r\n        string pharmacie;\r\n        string pharmacieid;\r\n    }\r\n\r\n    // Mapping to store pharmacists\r\n    mapping(address => PharmacistInfo) public pharmaciens;\r\n\r\n    // Mapping to store prescription access for pharmacists\r\n    mapping(address => mapping(uint256 => bool)) public prescriptionAccess;\r\n\r\n  event pharmaciensadded(address indexed _newEmployee, string  _firstname,string _lastname,string _location,string _pharmacie,string _pharmacieid);\r\n\r\n    // Function to Authentication a pharmacist\r\n    function registerPharmacist(\r\n        string memory _firstname,\r\n        string memory _lastname,\r\n        string memory _location,\r\n        string memory _phone,\r\n        string memory _pharmacie,\r\n        string memory _pharmacieid\r\n    ) public {\r\n        // Check that the user is a pharmacist\r\n        require(getUser().role == Authentication.Role.pharmacist, \"Only pharmacists can Authentication\");\r\n        PharmacistInfo storage pharmacist = pharmaciens[msg.sender];\r\n        pharmacist.firstname = _firstname;\r\n        pharmacist.lastname = _lastname;\r\n        pharmacist.location=_location;\r\n        pharmacist.phone = _phone;\r\n        pharmacist.pharmacie= _pharmacie;\r\n        pharmacist.pharmacieid= _pharmacieid;\r\n\r\n        emit pharmaciensadded(msg.sender, _firstname,_lastname,_location,_pharmacie,_pharmacieid);\r\n        \r\n    }\r\n   \r\n    //open for more modifications other users \r\n   function getUser() public view   returns (Authentication.User memory) {\r\n        return contractRInstance.getUser(msg.sender);\r\n    }\r\n\r\n    // Function to get the information of a pharmacist\r\n    function getPharmacistInfo(address _pharmacien) public view returns (PharmacistInfo memory) {\r\n        // Check that the user is a pharmacist\r\n        require(getUser().role == Authentication.Role.pharmacist, \"Only pharmacists can get information of other pharmacists\");\r\n\r\n        // Return the pharmacist's information\r\n        return pharmaciens[_pharmacien];\r\n    }\r\n\r\n \r\n\r\n    // Function to validate the purchase of a prescription\r\n    function validatePrescriptionPurchase(address _patient, uint256 _recordid) public {\r\n        // Check that the user is a pharmacist\r\n        require(getUser().role == Authentication.Role.pharmacist, \"Only pharmacists can validate prescription purchases\");\r\n\r\n        // Update the state of the prescription\r\n        patientInstance.addPrescriptionResultToPatient(msg.sender ,_patient, _recordid, true);\r\n\r\n        // Emit an event to signal the validation of the purchase\r\n        emit PrescriptionPurchaseValidated(msg.sender, _patient,pharmaciens[msg.sender].pharmacie, _recordid);\r\n    }\r\n    // Event to signal the validation of a purchase of a prescription\r\n    event PrescriptionPurchaseValidated(address indexed _pharmacien ,address indexed patient,string _pharmacie, uint256 prescriptionId);\r\n\r\n}",
  "sourcePath": "C:\\Users\\hamma\\Downloads\\blockchain-based-authentication-main\\blockchain-based-authentication-main\\contracts\\pharmacien.sol",
  "compiler": {
    "name": "solc",
    "version": "0.8.6+commit.11564f7e.Emscripten.clang"
  },
  "schemaVersion": "3.4.16",
  "updatedAt": "2024-05-12T12:25:43.006Z",
  "networkType": "ethereum",
  "devdoc": {
    "kind": "dev",
    "methods": {},
    "version": 1
  },
  "userdoc": {
    "kind": "user",
    "methods": {},
    "version": 1
  }
}